{
	"SMART-CONTRACTS-1733812289486/LargestNumber.sol": {
		"LargestNumber": {
			"abi": [
				{
					"inputs": [
						{
							"internalType": "int16",
							"name": "_value",
							"type": "int16"
						}
					],
					"name": "checkSign",
					"outputs": [
						{
							"internalType": "string",
							"name": "",
							"type": "string"
						}
					],
					"stateMutability": "pure",
					"type": "function"
				},
				{
					"inputs": [],
					"name": "findLargest",
					"outputs": [
						{
							"internalType": "uint16",
							"name": "",
							"type": "uint16"
						}
					],
					"stateMutability": "view",
					"type": "function"
				},
				{
					"inputs": [
						{
							"internalType": "uint16",
							"name": "_digit",
							"type": "uint16"
						}
					],
					"name": "getDigit",
					"outputs": [
						{
							"internalType": "string",
							"name": "",
							"type": "string"
						}
					],
					"stateMutability": "pure",
					"type": "function"
				},
				{
					"inputs": [
						{
							"internalType": "uint16",
							"name": "_firstNo",
							"type": "uint16"
						},
						{
							"internalType": "uint16",
							"name": "_secondNo",
							"type": "uint16"
						},
						{
							"internalType": "uint16",
							"name": "_thirdNo",
							"type": "uint16"
						}
					],
					"name": "inputNumbers",
					"outputs": [],
					"stateMutability": "nonpayable",
					"type": "function"
				}
			],
			"devdoc": {
				"kind": "dev",
				"methods": {},
				"version": 1
			},
			"evm": {
				"assembly": "    /* \"SMART-CONTRACTS-1733812289486/LargestNumber.sol\":58:1415  contract LargestNumber{... */\n  mstore(0x40, 0x80)\n  callvalue\n  dup1\n  iszero\n  tag_1\n  jumpi\n  revert(0x00, 0x00)\ntag_1:\n  pop\n  dataSize(sub_0)\n  dup1\n  dataOffset(sub_0)\n  0x00\n  codecopy\n  0x00\n  return\nstop\n\nsub_0: assembly {\n        /* \"SMART-CONTRACTS-1733812289486/LargestNumber.sol\":58:1415  contract LargestNumber{... */\n      mstore(0x40, 0x80)\n      callvalue\n      dup1\n      iszero\n      tag_1\n      jumpi\n      revert(0x00, 0x00)\n    tag_1:\n      pop\n      jumpi(tag_2, lt(calldatasize, 0x04))\n      shr(0xe0, calldataload(0x00))\n      dup1\n      0x26d40226\n      eq\n      tag_3\n      jumpi\n      dup1\n      0x404e6569\n      eq\n      tag_4\n      jumpi\n      dup1\n      0x918d44b9\n      eq\n      tag_5\n      jumpi\n      dup1\n      0xdaff54d6\n      eq\n      tag_6\n      jumpi\n    tag_2:\n      revert(0x00, 0x00)\n        /* \"SMART-CONTRACTS-1733812289486/LargestNumber.sol\":368:649  function findLargest() public view returns (uint16){... */\n    tag_3:\n      tag_7\n      tag_8\n      jump\t// in\n    tag_7:\n      mload(0x40)\n      tag_9\n      swap2\n      swap1\n      tag_10\n      jump\t// in\n    tag_9:\n      mload(0x40)\n      dup1\n      swap2\n      sub\n      swap1\n      return\n        /* \"SMART-CONTRACTS-1733812289486/LargestNumber.sol\":187:361  function inputNumbers(uint16 _firstNo, uint16 _secondNo, uint16 _thirdNo) public {... */\n    tag_4:\n      tag_11\n      0x04\n      dup1\n      calldatasize\n      sub\n      dup2\n      add\n      swap1\n      tag_12\n      swap2\n      swap1\n      tag_13\n      jump\t// in\n    tag_12:\n      tag_14\n      jump\t// in\n    tag_11:\n      stop\n        /* \"SMART-CONTRACTS-1733812289486/LargestNumber.sol\":1168:1412  function  checkSign(int16 _value)public  pure returns(string memory){... */\n    tag_5:\n      tag_15\n      0x04\n      dup1\n      calldatasize\n      sub\n      dup2\n      add\n      swap1\n      tag_16\n      swap2\n      swap1\n      tag_17\n      jump\t// in\n    tag_16:\n      tag_18\n      jump\t// in\n    tag_15:\n      mload(0x40)\n      tag_19\n      swap2\n      swap1\n      tag_20\n      jump\t// in\n    tag_19:\n      mload(0x40)\n      dup1\n      swap2\n      sub\n      swap1\n      return\n        /* \"SMART-CONTRACTS-1733812289486/LargestNumber.sol\":655:1162  function getDigit(uint16 _digit) public  pure returns (string memory){... */\n    tag_6:\n      tag_21\n      0x04\n      dup1\n      calldatasize\n      sub\n      dup2\n      add\n      swap1\n      tag_22\n      swap2\n      swap1\n      tag_23\n      jump\t// in\n    tag_22:\n      tag_24\n      jump\t// in\n    tag_21:\n      mload(0x40)\n      tag_25\n      swap2\n      swap1\n      tag_20\n      jump\t// in\n    tag_25:\n      mload(0x40)\n      dup1\n      swap2\n      sub\n      swap1\n      return\n        /* \"SMART-CONTRACTS-1733812289486/LargestNumber.sol\":368:649  function findLargest() public view returns (uint16){... */\n    tag_8:\n        /* \"SMART-CONTRACTS-1733812289486/LargestNumber.sol\":412:418  uint16 */\n      0x00\n        /* \"SMART-CONTRACTS-1733812289486/LargestNumber.sol\":440:448  secondNo */\n      0x00\n      0x02\n      swap1\n      sload\n      swap1\n      0x0100\n      exp\n      swap1\n      div\n      0xffff\n      and\n        /* \"SMART-CONTRACTS-1733812289486/LargestNumber.sol\":432:448  firstNo>secondNo */\n      0xffff\n      and\n        /* \"SMART-CONTRACTS-1733812289486/LargestNumber.sol\":432:439  firstNo */\n      0x00\n      0x00\n      swap1\n      sload\n      swap1\n      0x0100\n      exp\n      swap1\n      div\n      0xffff\n      and\n        /* \"SMART-CONTRACTS-1733812289486/LargestNumber.sol\":432:448  firstNo>secondNo */\n      0xffff\n      and\n      gt\n        /* \"SMART-CONTRACTS-1733812289486/LargestNumber.sol\":432:467  firstNo>secondNo && firstNo>thirdNo */\n      dup1\n      iszero\n      tag_27\n      jumpi\n      pop\n        /* \"SMART-CONTRACTS-1733812289486/LargestNumber.sol\":460:467  thirdNo */\n      0x00\n      0x04\n      swap1\n      sload\n      swap1\n      0x0100\n      exp\n      swap1\n      div\n      0xffff\n      and\n        /* \"SMART-CONTRACTS-1733812289486/LargestNumber.sol\":452:467  firstNo>thirdNo */\n      0xffff\n      and\n        /* \"SMART-CONTRACTS-1733812289486/LargestNumber.sol\":452:459  firstNo */\n      0x00\n      0x00\n      swap1\n      sload\n      swap1\n      0x0100\n      exp\n      swap1\n      div\n      0xffff\n      and\n        /* \"SMART-CONTRACTS-1733812289486/LargestNumber.sol\":452:467  firstNo>thirdNo */\n      0xffff\n      and\n      gt\n        /* \"SMART-CONTRACTS-1733812289486/LargestNumber.sol\":432:467  firstNo>secondNo && firstNo>thirdNo */\n    tag_27:\n        /* \"SMART-CONTRACTS-1733812289486/LargestNumber.sol\":429:643  if(firstNo>secondNo && firstNo>thirdNo){... */\n      iszero\n      tag_28\n      jumpi\n        /* \"SMART-CONTRACTS-1733812289486/LargestNumber.sol\":489:496  firstNo */\n      0x00\n      0x00\n      swap1\n      sload\n      swap1\n      0x0100\n      exp\n      swap1\n      div\n      0xffff\n      and\n        /* \"SMART-CONTRACTS-1733812289486/LargestNumber.sol\":482:496  return firstNo */\n      swap1\n      pop\n      jump(tag_26)\n        /* \"SMART-CONTRACTS-1733812289486/LargestNumber.sol\":429:643  if(firstNo>secondNo && firstNo>thirdNo){... */\n    tag_28:\n        /* \"SMART-CONTRACTS-1733812289486/LargestNumber.sol\":527:534  firstNo */\n      0x00\n      0x00\n      swap1\n      sload\n      swap1\n      0x0100\n      exp\n      swap1\n      div\n      0xffff\n      and\n        /* \"SMART-CONTRACTS-1733812289486/LargestNumber.sol\":518:534  secondNo>firstNo */\n      0xffff\n      and\n        /* \"SMART-CONTRACTS-1733812289486/LargestNumber.sol\":518:526  secondNo */\n      0x00\n      0x02\n      swap1\n      sload\n      swap1\n      0x0100\n      exp\n      swap1\n      div\n      0xffff\n      and\n        /* \"SMART-CONTRACTS-1733812289486/LargestNumber.sol\":518:534  secondNo>firstNo */\n      0xffff\n      and\n      gt\n        /* \"SMART-CONTRACTS-1733812289486/LargestNumber.sol\":518:556  secondNo>firstNo && secondNo > thirdNo */\n      dup1\n      iszero\n      tag_30\n      jumpi\n      pop\n        /* \"SMART-CONTRACTS-1733812289486/LargestNumber.sol\":549:556  thirdNo */\n      0x00\n      0x04\n      swap1\n      sload\n      swap1\n      0x0100\n      exp\n      swap1\n      div\n      0xffff\n      and\n        /* \"SMART-CONTRACTS-1733812289486/LargestNumber.sol\":538:556  secondNo > thirdNo */\n      0xffff\n      and\n        /* \"SMART-CONTRACTS-1733812289486/LargestNumber.sol\":538:546  secondNo */\n      0x00\n      0x02\n      swap1\n      sload\n      swap1\n      0x0100\n      exp\n      swap1\n      div\n      0xffff\n      and\n        /* \"SMART-CONTRACTS-1733812289486/LargestNumber.sol\":538:556  secondNo > thirdNo */\n      0xffff\n      and\n      gt\n        /* \"SMART-CONTRACTS-1733812289486/LargestNumber.sol\":518:556  secondNo>firstNo && secondNo > thirdNo */\n    tag_30:\n        /* \"SMART-CONTRACTS-1733812289486/LargestNumber.sol\":514:643  if (secondNo>firstNo && secondNo > thirdNo) {... */\n      iszero\n      tag_31\n      jumpi\n        /* \"SMART-CONTRACTS-1733812289486/LargestNumber.sol\":579:587  secondNo */\n      0x00\n      0x02\n      swap1\n      sload\n      swap1\n      0x0100\n      exp\n      swap1\n      div\n      0xffff\n      and\n        /* \"SMART-CONTRACTS-1733812289486/LargestNumber.sol\":572:587  return secondNo */\n      swap1\n      pop\n      jump(tag_26)\n        /* \"SMART-CONTRACTS-1733812289486/LargestNumber.sol\":514:643  if (secondNo>firstNo && secondNo > thirdNo) {... */\n    tag_31:\n        /* \"SMART-CONTRACTS-1733812289486/LargestNumber.sol\":625:632  thirdNo */\n      0x00\n      0x04\n      swap1\n      sload\n      swap1\n      0x0100\n      exp\n      swap1\n      div\n      0xffff\n      and\n        /* \"SMART-CONTRACTS-1733812289486/LargestNumber.sol\":618:632  return thirdNo */\n      swap1\n      pop\n        /* \"SMART-CONTRACTS-1733812289486/LargestNumber.sol\":368:649  function findLargest() public view returns (uint16){... */\n    tag_26:\n      swap1\n      jump\t// out\n        /* \"SMART-CONTRACTS-1733812289486/LargestNumber.sol\":187:361  function inputNumbers(uint16 _firstNo, uint16 _secondNo, uint16 _thirdNo) public {... */\n    tag_14:\n        /* \"SMART-CONTRACTS-1733812289486/LargestNumber.sol\":288:296  _firstNo */\n      dup3\n        /* \"SMART-CONTRACTS-1733812289486/LargestNumber.sol\":278:285  firstNo */\n      0x00\n      0x00\n        /* \"SMART-CONTRACTS-1733812289486/LargestNumber.sol\":278:296  firstNo = _firstNo */\n      0x0100\n      exp\n      dup2\n      sload\n      dup2\n      0xffff\n      mul\n      not\n      and\n      swap1\n      dup4\n      0xffff\n      and\n      mul\n      or\n      swap1\n      sstore\n      pop\n        /* \"SMART-CONTRACTS-1733812289486/LargestNumber.sol\":317:326  _secondNo */\n      dup2\n        /* \"SMART-CONTRACTS-1733812289486/LargestNumber.sol\":306:314  secondNo */\n      0x00\n      0x02\n        /* \"SMART-CONTRACTS-1733812289486/LargestNumber.sol\":306:326  secondNo = _secondNo */\n      0x0100\n      exp\n      dup2\n      sload\n      dup2\n      0xffff\n      mul\n      not\n      and\n      swap1\n      dup4\n      0xffff\n      and\n      mul\n      or\n      swap1\n      sstore\n      pop\n        /* \"SMART-CONTRACTS-1733812289486/LargestNumber.sol\":346:354  _thirdNo */\n      dup1\n        /* \"SMART-CONTRACTS-1733812289486/LargestNumber.sol\":336:343  thirdNo */\n      0x00\n      0x04\n        /* \"SMART-CONTRACTS-1733812289486/LargestNumber.sol\":336:354  thirdNo = _thirdNo */\n      0x0100\n      exp\n      dup2\n      sload\n      dup2\n      0xffff\n      mul\n      not\n      and\n      swap1\n      dup4\n      0xffff\n      and\n      mul\n      or\n      swap1\n      sstore\n      pop\n        /* \"SMART-CONTRACTS-1733812289486/LargestNumber.sol\":187:361  function inputNumbers(uint16 _firstNo, uint16 _secondNo, uint16 _thirdNo) public {... */\n      pop\n      pop\n      pop\n      jump\t// out\n        /* \"SMART-CONTRACTS-1733812289486/LargestNumber.sol\":1168:1412  function  checkSign(int16 _value)public  pure returns(string memory){... */\n    tag_18:\n        /* \"SMART-CONTRACTS-1733812289486/LargestNumber.sol\":1222:1235  string memory */\n      0x60\n        /* \"SMART-CONTRACTS-1733812289486/LargestNumber.sol\":1257:1258  0 */\n      0x00\n        /* \"SMART-CONTRACTS-1733812289486/LargestNumber.sol\":1249:1255  _value */\n      dup3\n        /* \"SMART-CONTRACTS-1733812289486/LargestNumber.sol\":1249:1258  _value >0 */\n      0x01\n      signextend\n      sgt\n        /* \"SMART-CONTRACTS-1733812289486/LargestNumber.sol\":1246:1406  if(_value >0){... */\n      iszero\n      tag_35\n      jumpi\n        /* \"SMART-CONTRACTS-1733812289486/LargestNumber.sol\":1273:1290  return \"Positive\" */\n      mload(0x40)\n      dup1\n      0x40\n      add\n      0x40\n      mstore\n      dup1\n      0x08\n      dup2\n      mstore\n      0x20\n      add\n      0x506f736974697665000000000000000000000000000000000000000000000000\n      dup2\n      mstore\n      pop\n      swap1\n      pop\n      jump(tag_34)\n        /* \"SMART-CONTRACTS-1733812289486/LargestNumber.sol\":1246:1406  if(_value >0){... */\n    tag_35:\n        /* \"SMART-CONTRACTS-1733812289486/LargestNumber.sol\":1318:1319  0 */\n      0x00\n        /* \"SMART-CONTRACTS-1733812289486/LargestNumber.sol\":1310:1316  _value */\n      dup3\n        /* \"SMART-CONTRACTS-1733812289486/LargestNumber.sol\":1310:1319  _value <0 */\n      0x01\n      signextend\n      slt\n        /* \"SMART-CONTRACTS-1733812289486/LargestNumber.sol\":1307:1406  if(_value <0){... */\n      iszero\n      tag_37\n      jumpi\n        /* \"SMART-CONTRACTS-1733812289486/LargestNumber.sol\":1334:1351  return \"Negative\" */\n      mload(0x40)\n      dup1\n      0x40\n      add\n      0x40\n      mstore\n      dup1\n      0x08\n      dup2\n      mstore\n      0x20\n      add\n      0x4e65676174697665000000000000000000000000000000000000000000000000\n      dup2\n      mstore\n      pop\n      swap1\n      pop\n      jump(tag_34)\n        /* \"SMART-CONTRACTS-1733812289486/LargestNumber.sol\":1307:1406  if(_value <0){... */\n    tag_37:\n        /* \"SMART-CONTRACTS-1733812289486/LargestNumber.sol\":1382:1395  return \"Zero\" */\n      mload(0x40)\n      dup1\n      0x40\n      add\n      0x40\n      mstore\n      dup1\n      0x04\n      dup2\n      mstore\n      0x20\n      add\n      0x5a65726f00000000000000000000000000000000000000000000000000000000\n      dup2\n      mstore\n      pop\n      swap1\n      pop\n        /* \"SMART-CONTRACTS-1733812289486/LargestNumber.sol\":1168:1412  function  checkSign(int16 _value)public  pure returns(string memory){... */\n    tag_34:\n      swap2\n      swap1\n      pop\n      jump\t// out\n        /* \"SMART-CONTRACTS-1733812289486/LargestNumber.sol\":655:1162  function getDigit(uint16 _digit) public  pure returns (string memory){... */\n    tag_24:\n        /* \"SMART-CONTRACTS-1733812289486/LargestNumber.sol\":710:723  string memory */\n      0x60\n        /* \"SMART-CONTRACTS-1733812289486/LargestNumber.sol\":748:749  0 */\n      0x00\n        /* \"SMART-CONTRACTS-1733812289486/LargestNumber.sol\":738:744  _digit */\n      dup3\n        /* \"SMART-CONTRACTS-1733812289486/LargestNumber.sol\":738:749  _digit == 0 */\n      0xffff\n      and\n      sub\n        /* \"SMART-CONTRACTS-1733812289486/LargestNumber.sol\":734:764  if (_digit == 0) return \"Zero\" */\n      tag_40\n      jumpi\n        /* \"SMART-CONTRACTS-1733812289486/LargestNumber.sol\":751:764  return \"Zero\" */\n      mload(0x40)\n      dup1\n      0x40\n      add\n      0x40\n      mstore\n      dup1\n      0x04\n      dup2\n      mstore\n      0x20\n      add\n      0x5a65726f00000000000000000000000000000000000000000000000000000000\n      dup2\n      mstore\n      pop\n      swap1\n      pop\n      jump(tag_39)\n        /* \"SMART-CONTRACTS-1733812289486/LargestNumber.sol\":734:764  if (_digit == 0) return \"Zero\" */\n    tag_40:\n        /* \"SMART-CONTRACTS-1733812289486/LargestNumber.sol\":788:789  1 */\n      0x01\n        /* \"SMART-CONTRACTS-1733812289486/LargestNumber.sol\":778:784  _digit */\n      dup3\n        /* \"SMART-CONTRACTS-1733812289486/LargestNumber.sol\":778:789  _digit == 1 */\n      0xffff\n      and\n      sub\n        /* \"SMART-CONTRACTS-1733812289486/LargestNumber.sol\":774:803  if (_digit == 1) return \"One\" */\n      tag_41\n      jumpi\n        /* \"SMART-CONTRACTS-1733812289486/LargestNumber.sol\":791:803  return \"One\" */\n      mload(0x40)\n      dup1\n      0x40\n      add\n      0x40\n      mstore\n      dup1\n      0x03\n      dup2\n      mstore\n      0x20\n      add\n      0x4f6e650000000000000000000000000000000000000000000000000000000000\n      dup2\n      mstore\n      pop\n      swap1\n      pop\n      jump(tag_39)\n        /* \"SMART-CONTRACTS-1733812289486/LargestNumber.sol\":774:803  if (_digit == 1) return \"One\" */\n    tag_41:\n        /* \"SMART-CONTRACTS-1733812289486/LargestNumber.sol\":827:828  2 */\n      0x02\n        /* \"SMART-CONTRACTS-1733812289486/LargestNumber.sol\":817:823  _digit */\n      dup3\n        /* \"SMART-CONTRACTS-1733812289486/LargestNumber.sol\":817:828  _digit == 2 */\n      0xffff\n      and\n      sub\n        /* \"SMART-CONTRACTS-1733812289486/LargestNumber.sol\":813:842  if (_digit == 2) return \"Two\" */\n      tag_42\n      jumpi\n        /* \"SMART-CONTRACTS-1733812289486/LargestNumber.sol\":830:842  return \"Two\" */\n      mload(0x40)\n      dup1\n      0x40\n      add\n      0x40\n      mstore\n      dup1\n      0x03\n      dup2\n      mstore\n      0x20\n      add\n      0x54776f0000000000000000000000000000000000000000000000000000000000\n      dup2\n      mstore\n      pop\n      swap1\n      pop\n      jump(tag_39)\n        /* \"SMART-CONTRACTS-1733812289486/LargestNumber.sol\":813:842  if (_digit == 2) return \"Two\" */\n    tag_42:\n        /* \"SMART-CONTRACTS-1733812289486/LargestNumber.sol\":866:867  3 */\n      0x03\n        /* \"SMART-CONTRACTS-1733812289486/LargestNumber.sol\":856:862  _digit */\n      dup3\n        /* \"SMART-CONTRACTS-1733812289486/LargestNumber.sol\":856:867  _digit == 3 */\n      0xffff\n      and\n      sub\n        /* \"SMART-CONTRACTS-1733812289486/LargestNumber.sol\":852:883  if (_digit == 3) return \"Three\" */\n      tag_43\n      jumpi\n        /* \"SMART-CONTRACTS-1733812289486/LargestNumber.sol\":869:883  return \"Three\" */\n      mload(0x40)\n      dup1\n      0x40\n      add\n      0x40\n      mstore\n      dup1\n      0x05\n      dup2\n      mstore\n      0x20\n      add\n      0x5468726565000000000000000000000000000000000000000000000000000000\n      dup2\n      mstore\n      pop\n      swap1\n      pop\n      jump(tag_39)\n        /* \"SMART-CONTRACTS-1733812289486/LargestNumber.sol\":852:883  if (_digit == 3) return \"Three\" */\n    tag_43:\n        /* \"SMART-CONTRACTS-1733812289486/LargestNumber.sol\":907:908  4 */\n      0x04\n        /* \"SMART-CONTRACTS-1733812289486/LargestNumber.sol\":897:903  _digit */\n      dup3\n        /* \"SMART-CONTRACTS-1733812289486/LargestNumber.sol\":897:908  _digit == 4 */\n      0xffff\n      and\n      sub\n        /* \"SMART-CONTRACTS-1733812289486/LargestNumber.sol\":893:923  if (_digit == 4) return \"Four\" */\n      tag_44\n      jumpi\n        /* \"SMART-CONTRACTS-1733812289486/LargestNumber.sol\":910:923  return \"Four\" */\n      mload(0x40)\n      dup1\n      0x40\n      add\n      0x40\n      mstore\n      dup1\n      0x04\n      dup2\n      mstore\n      0x20\n      add\n      0x466f757200000000000000000000000000000000000000000000000000000000\n      dup2\n      mstore\n      pop\n      swap1\n      pop\n      jump(tag_39)\n        /* \"SMART-CONTRACTS-1733812289486/LargestNumber.sol\":893:923  if (_digit == 4) return \"Four\" */\n    tag_44:\n        /* \"SMART-CONTRACTS-1733812289486/LargestNumber.sol\":947:948  5 */\n      0x05\n        /* \"SMART-CONTRACTS-1733812289486/LargestNumber.sol\":937:943  _digit */\n      dup3\n        /* \"SMART-CONTRACTS-1733812289486/LargestNumber.sol\":937:948  _digit == 5 */\n      0xffff\n      and\n      sub\n        /* \"SMART-CONTRACTS-1733812289486/LargestNumber.sol\":933:963  if (_digit == 5) return \"Five\" */\n      tag_45\n      jumpi\n        /* \"SMART-CONTRACTS-1733812289486/LargestNumber.sol\":950:963  return \"Five\" */\n      mload(0x40)\n      dup1\n      0x40\n      add\n      0x40\n      mstore\n      dup1\n      0x04\n      dup2\n      mstore\n      0x20\n      add\n      0x4669766500000000000000000000000000000000000000000000000000000000\n      dup2\n      mstore\n      pop\n      swap1\n      pop\n      jump(tag_39)\n        /* \"SMART-CONTRACTS-1733812289486/LargestNumber.sol\":933:963  if (_digit == 5) return \"Five\" */\n    tag_45:\n        /* \"SMART-CONTRACTS-1733812289486/LargestNumber.sol\":987:988  6 */\n      0x06\n        /* \"SMART-CONTRACTS-1733812289486/LargestNumber.sol\":977:983  _digit */\n      dup3\n        /* \"SMART-CONTRACTS-1733812289486/LargestNumber.sol\":977:988  _digit == 6 */\n      0xffff\n      and\n      sub\n        /* \"SMART-CONTRACTS-1733812289486/LargestNumber.sol\":973:1002  if (_digit == 6) return \"Six\" */\n      tag_46\n      jumpi\n        /* \"SMART-CONTRACTS-1733812289486/LargestNumber.sol\":990:1002  return \"Six\" */\n      mload(0x40)\n      dup1\n      0x40\n      add\n      0x40\n      mstore\n      dup1\n      0x03\n      dup2\n      mstore\n      0x20\n      add\n      0x5369780000000000000000000000000000000000000000000000000000000000\n      dup2\n      mstore\n      pop\n      swap1\n      pop\n      jump(tag_39)\n        /* \"SMART-CONTRACTS-1733812289486/LargestNumber.sol\":973:1002  if (_digit == 6) return \"Six\" */\n    tag_46:\n        /* \"SMART-CONTRACTS-1733812289486/LargestNumber.sol\":1026:1027  7 */\n      0x07\n        /* \"SMART-CONTRACTS-1733812289486/LargestNumber.sol\":1016:1022  _digit */\n      dup3\n        /* \"SMART-CONTRACTS-1733812289486/LargestNumber.sol\":1016:1027  _digit == 7 */\n      0xffff\n      and\n      sub\n        /* \"SMART-CONTRACTS-1733812289486/LargestNumber.sol\":1012:1043  if (_digit == 7) return \"Seven\" */\n      tag_47\n      jumpi\n        /* \"SMART-CONTRACTS-1733812289486/LargestNumber.sol\":1029:1043  return \"Seven\" */\n      mload(0x40)\n      dup1\n      0x40\n      add\n      0x40\n      mstore\n      dup1\n      0x05\n      dup2\n      mstore\n      0x20\n      add\n      0x536576656e000000000000000000000000000000000000000000000000000000\n      dup2\n      mstore\n      pop\n      swap1\n      pop\n      jump(tag_39)\n        /* \"SMART-CONTRACTS-1733812289486/LargestNumber.sol\":1012:1043  if (_digit == 7) return \"Seven\" */\n    tag_47:\n        /* \"SMART-CONTRACTS-1733812289486/LargestNumber.sol\":1067:1068  8 */\n      0x08\n        /* \"SMART-CONTRACTS-1733812289486/LargestNumber.sol\":1057:1063  _digit */\n      dup3\n        /* \"SMART-CONTRACTS-1733812289486/LargestNumber.sol\":1057:1068  _digit == 8 */\n      0xffff\n      and\n      sub\n        /* \"SMART-CONTRACTS-1733812289486/LargestNumber.sol\":1053:1084  if (_digit == 8) return \"Eight\" */\n      tag_48\n      jumpi\n        /* \"SMART-CONTRACTS-1733812289486/LargestNumber.sol\":1070:1084  return \"Eight\" */\n      mload(0x40)\n      dup1\n      0x40\n      add\n      0x40\n      mstore\n      dup1\n      0x05\n      dup2\n      mstore\n      0x20\n      add\n      0x4569676874000000000000000000000000000000000000000000000000000000\n      dup2\n      mstore\n      pop\n      swap1\n      pop\n      jump(tag_39)\n        /* \"SMART-CONTRACTS-1733812289486/LargestNumber.sol\":1053:1084  if (_digit == 8) return \"Eight\" */\n    tag_48:\n        /* \"SMART-CONTRACTS-1733812289486/LargestNumber.sol\":1108:1109  9 */\n      0x09\n        /* \"SMART-CONTRACTS-1733812289486/LargestNumber.sol\":1098:1104  _digit */\n      dup3\n        /* \"SMART-CONTRACTS-1733812289486/LargestNumber.sol\":1098:1109  _digit == 9 */\n      0xffff\n      and\n      sub\n        /* \"SMART-CONTRACTS-1733812289486/LargestNumber.sol\":1094:1124  if (_digit == 9) return \"Nine\" */\n      tag_49\n      jumpi\n        /* \"SMART-CONTRACTS-1733812289486/LargestNumber.sol\":1111:1124  return \"Nine\" */\n      mload(0x40)\n      dup1\n      0x40\n      add\n      0x40\n      mstore\n      dup1\n      0x04\n      dup2\n      mstore\n      0x20\n      add\n      0x4e696e6500000000000000000000000000000000000000000000000000000000\n      dup2\n      mstore\n      pop\n      swap1\n      pop\n      jump(tag_39)\n        /* \"SMART-CONTRACTS-1733812289486/LargestNumber.sol\":1094:1124  if (_digit == 9) return \"Nine\" */\n    tag_49:\n        /* \"SMART-CONTRACTS-1733812289486/LargestNumber.sol\":1134:1150  return \"Invalid\" */\n      mload(0x40)\n      dup1\n      0x40\n      add\n      0x40\n      mstore\n      dup1\n      0x07\n      dup2\n      mstore\n      0x20\n      add\n      0x496e76616c696400000000000000000000000000000000000000000000000000\n      dup2\n      mstore\n      pop\n      swap1\n      pop\n        /* \"SMART-CONTRACTS-1733812289486/LargestNumber.sol\":655:1162  function getDigit(uint16 _digit) public  pure returns (string memory){... */\n    tag_39:\n      swap2\n      swap1\n      pop\n      jump\t// out\n        /* \"#utility.yul\":7:96   */\n    tag_50:\n        /* \"#utility.yul\":43:50   */\n      0x00\n        /* \"#utility.yul\":83:89   */\n      0xffff\n        /* \"#utility.yul\":76:81   */\n      dup3\n        /* \"#utility.yul\":72:90   */\n      and\n        /* \"#utility.yul\":61:90   */\n      swap1\n      pop\n        /* \"#utility.yul\":7:96   */\n      swap2\n      swap1\n      pop\n      jump\t// out\n        /* \"#utility.yul\":102:217   */\n    tag_51:\n        /* \"#utility.yul\":187:210   */\n      tag_68\n        /* \"#utility.yul\":204:209   */\n      dup2\n        /* \"#utility.yul\":187:210   */\n      tag_50\n      jump\t// in\n    tag_68:\n        /* \"#utility.yul\":182:185   */\n      dup3\n        /* \"#utility.yul\":175:211   */\n      mstore\n        /* \"#utility.yul\":102:217   */\n      pop\n      pop\n      jump\t// out\n        /* \"#utility.yul\":223:441   */\n    tag_10:\n        /* \"#utility.yul\":314:318   */\n      0x00\n        /* \"#utility.yul\":352:354   */\n      0x20\n        /* \"#utility.yul\":341:350   */\n      dup3\n        /* \"#utility.yul\":337:355   */\n      add\n        /* \"#utility.yul\":329:355   */\n      swap1\n      pop\n        /* \"#utility.yul\":365:434   */\n      tag_70\n        /* \"#utility.yul\":431:432   */\n      0x00\n        /* \"#utility.yul\":420:429   */\n      dup4\n        /* \"#utility.yul\":416:433   */\n      add\n        /* \"#utility.yul\":407:413   */\n      dup5\n        /* \"#utility.yul\":365:434   */\n      tag_51\n      jump\t// in\n    tag_70:\n        /* \"#utility.yul\":223:441   */\n      swap3\n      swap2\n      pop\n      pop\n      jump\t// out\n        /* \"#utility.yul\":528:645   */\n    tag_53:\n        /* \"#utility.yul\":637:638   */\n      0x00\n        /* \"#utility.yul\":634:635   */\n      0x00\n        /* \"#utility.yul\":627:639   */\n      revert\n        /* \"#utility.yul\":774:894   */\n    tag_55:\n        /* \"#utility.yul\":846:869   */\n      tag_75\n        /* \"#utility.yul\":863:868   */\n      dup2\n        /* \"#utility.yul\":846:869   */\n      tag_50\n      jump\t// in\n    tag_75:\n        /* \"#utility.yul\":839:844   */\n      dup2\n        /* \"#utility.yul\":836:870   */\n      eq\n        /* \"#utility.yul\":826:888   */\n      tag_76\n      jumpi\n        /* \"#utility.yul\":884:885   */\n      0x00\n        /* \"#utility.yul\":881:882   */\n      0x00\n        /* \"#utility.yul\":874:886   */\n      revert\n        /* \"#utility.yul\":826:888   */\n    tag_76:\n        /* \"#utility.yul\":774:894   */\n      pop\n      jump\t// out\n        /* \"#utility.yul\":900:1037   */\n    tag_56:\n        /* \"#utility.yul\":945:950   */\n      0x00\n        /* \"#utility.yul\":983:989   */\n      dup2\n        /* \"#utility.yul\":970:990   */\n      calldataload\n        /* \"#utility.yul\":961:990   */\n      swap1\n      pop\n        /* \"#utility.yul\":999:1031   */\n      tag_78\n        /* \"#utility.yul\":1025:1030   */\n      dup2\n        /* \"#utility.yul\":999:1031   */\n      tag_55\n      jump\t// in\n    tag_78:\n        /* \"#utility.yul\":900:1037   */\n      swap3\n      swap2\n      pop\n      pop\n      jump\t// out\n        /* \"#utility.yul\":1043:1656   */\n    tag_13:\n        /* \"#utility.yul\":1117:1123   */\n      0x00\n        /* \"#utility.yul\":1125:1131   */\n      0x00\n        /* \"#utility.yul\":1133:1139   */\n      0x00\n        /* \"#utility.yul\":1182:1184   */\n      0x60\n        /* \"#utility.yul\":1170:1179   */\n      dup5\n        /* \"#utility.yul\":1161:1168   */\n      dup7\n        /* \"#utility.yul\":1157:1180   */\n      sub\n        /* \"#utility.yul\":1153:1185   */\n      slt\n        /* \"#utility.yul\":1150:1269   */\n      iszero\n      tag_80\n      jumpi\n        /* \"#utility.yul\":1188:1267   */\n      tag_81\n      tag_53\n      jump\t// in\n    tag_81:\n        /* \"#utility.yul\":1150:1269   */\n    tag_80:\n        /* \"#utility.yul\":1308:1309   */\n      0x00\n        /* \"#utility.yul\":1333:1385   */\n      tag_82\n        /* \"#utility.yul\":1377:1384   */\n      dup7\n        /* \"#utility.yul\":1368:1374   */\n      dup3\n        /* \"#utility.yul\":1357:1366   */\n      dup8\n        /* \"#utility.yul\":1353:1375   */\n      add\n        /* \"#utility.yul\":1333:1385   */\n      tag_56\n      jump\t// in\n    tag_82:\n        /* \"#utility.yul\":1323:1385   */\n      swap4\n      pop\n        /* \"#utility.yul\":1279:1395   */\n      pop\n        /* \"#utility.yul\":1434:1436   */\n      0x20\n        /* \"#utility.yul\":1460:1512   */\n      tag_83\n        /* \"#utility.yul\":1504:1511   */\n      dup7\n        /* \"#utility.yul\":1495:1501   */\n      dup3\n        /* \"#utility.yul\":1484:1493   */\n      dup8\n        /* \"#utility.yul\":1480:1502   */\n      add\n        /* \"#utility.yul\":1460:1512   */\n      tag_56\n      jump\t// in\n    tag_83:\n        /* \"#utility.yul\":1450:1512   */\n      swap3\n      pop\n        /* \"#utility.yul\":1405:1522   */\n      pop\n        /* \"#utility.yul\":1561:1563   */\n      0x40\n        /* \"#utility.yul\":1587:1639   */\n      tag_84\n        /* \"#utility.yul\":1631:1638   */\n      dup7\n        /* \"#utility.yul\":1622:1628   */\n      dup3\n        /* \"#utility.yul\":1611:1620   */\n      dup8\n        /* \"#utility.yul\":1607:1629   */\n      add\n        /* \"#utility.yul\":1587:1639   */\n      tag_56\n      jump\t// in\n    tag_84:\n        /* \"#utility.yul\":1577:1639   */\n      swap2\n      pop\n        /* \"#utility.yul\":1532:1649   */\n      pop\n        /* \"#utility.yul\":1043:1656   */\n      swap3\n      pop\n      swap3\n      pop\n      swap3\n      jump\t// out\n        /* \"#utility.yul\":1662:1752   */\n    tag_57:\n        /* \"#utility.yul\":1697:1704   */\n      0x00\n        /* \"#utility.yul\":1740:1745   */\n      dup2\n        /* \"#utility.yul\":1737:1738   */\n      0x01\n        /* \"#utility.yul\":1726:1746   */\n      signextend\n        /* \"#utility.yul\":1715:1746   */\n      swap1\n      pop\n        /* \"#utility.yul\":1662:1752   */\n      swap2\n      swap1\n      pop\n      jump\t// out\n        /* \"#utility.yul\":1758:1876   */\n    tag_58:\n        /* \"#utility.yul\":1829:1851   */\n      tag_87\n        /* \"#utility.yul\":1845:1850   */\n      dup2\n        /* \"#utility.yul\":1829:1851   */\n      tag_57\n      jump\t// in\n    tag_87:\n        /* \"#utility.yul\":1822:1827   */\n      dup2\n        /* \"#utility.yul\":1819:1852   */\n      eq\n        /* \"#utility.yul\":1809:1870   */\n      tag_88\n      jumpi\n        /* \"#utility.yul\":1866:1867   */\n      0x00\n        /* \"#utility.yul\":1863:1864   */\n      0x00\n        /* \"#utility.yul\":1856:1868   */\n      revert\n        /* \"#utility.yul\":1809:1870   */\n    tag_88:\n        /* \"#utility.yul\":1758:1876   */\n      pop\n      jump\t// out\n        /* \"#utility.yul\":1882:2017   */\n    tag_59:\n        /* \"#utility.yul\":1926:1931   */\n      0x00\n        /* \"#utility.yul\":1964:1970   */\n      dup2\n        /* \"#utility.yul\":1951:1971   */\n      calldataload\n        /* \"#utility.yul\":1942:1971   */\n      swap1\n      pop\n        /* \"#utility.yul\":1980:2011   */\n      tag_90\n        /* \"#utility.yul\":2005:2010   */\n      dup2\n        /* \"#utility.yul\":1980:2011   */\n      tag_58\n      jump\t// in\n    tag_90:\n        /* \"#utility.yul\":1882:2017   */\n      swap3\n      swap2\n      pop\n      pop\n      jump\t// out\n        /* \"#utility.yul\":2023:2348   */\n    tag_17:\n        /* \"#utility.yul\":2080:2086   */\n      0x00\n        /* \"#utility.yul\":2129:2131   */\n      0x20\n        /* \"#utility.yul\":2117:2126   */\n      dup3\n        /* \"#utility.yul\":2108:2115   */\n      dup5\n        /* \"#utility.yul\":2104:2127   */\n      sub\n        /* \"#utility.yul\":2100:2132   */\n      slt\n        /* \"#utility.yul\":2097:2216   */\n      iszero\n      tag_92\n      jumpi\n        /* \"#utility.yul\":2135:2214   */\n      tag_93\n      tag_53\n      jump\t// in\n    tag_93:\n        /* \"#utility.yul\":2097:2216   */\n    tag_92:\n        /* \"#utility.yul\":2255:2256   */\n      0x00\n        /* \"#utility.yul\":2280:2331   */\n      tag_94\n        /* \"#utility.yul\":2323:2330   */\n      dup5\n        /* \"#utility.yul\":2314:2320   */\n      dup3\n        /* \"#utility.yul\":2303:2312   */\n      dup6\n        /* \"#utility.yul\":2299:2321   */\n      add\n        /* \"#utility.yul\":2280:2331   */\n      tag_59\n      jump\t// in\n    tag_94:\n        /* \"#utility.yul\":2270:2331   */\n      swap2\n      pop\n        /* \"#utility.yul\":2226:2341   */\n      pop\n        /* \"#utility.yul\":2023:2348   */\n      swap3\n      swap2\n      pop\n      pop\n      jump\t// out\n        /* \"#utility.yul\":2354:2453   */\n    tag_60:\n        /* \"#utility.yul\":2406:2412   */\n      0x00\n        /* \"#utility.yul\":2440:2445   */\n      dup2\n        /* \"#utility.yul\":2434:2446   */\n      mload\n        /* \"#utility.yul\":2424:2446   */\n      swap1\n      pop\n        /* \"#utility.yul\":2354:2453   */\n      swap2\n      swap1\n      pop\n      jump\t// out\n        /* \"#utility.yul\":2459:2628   */\n    tag_61:\n        /* \"#utility.yul\":2543:2554   */\n      0x00\n        /* \"#utility.yul\":2577:2583   */\n      dup3\n        /* \"#utility.yul\":2572:2575   */\n      dup3\n        /* \"#utility.yul\":2565:2584   */\n      mstore\n        /* \"#utility.yul\":2617:2621   */\n      0x20\n        /* \"#utility.yul\":2612:2615   */\n      dup3\n        /* \"#utility.yul\":2608:2622   */\n      add\n        /* \"#utility.yul\":2593:2622   */\n      swap1\n      pop\n        /* \"#utility.yul\":2459:2628   */\n      swap3\n      swap2\n      pop\n      pop\n      jump\t// out\n        /* \"#utility.yul\":2634:2773   */\n    tag_62:\n        /* \"#utility.yul\":2723:2729   */\n      dup3\n        /* \"#utility.yul\":2718:2721   */\n      dup2\n        /* \"#utility.yul\":2713:2716   */\n      dup4\n        /* \"#utility.yul\":2707:2730   */\n      mcopy\n        /* \"#utility.yul\":2764:2765   */\n      0x00\n        /* \"#utility.yul\":2755:2761   */\n      dup4\n        /* \"#utility.yul\":2750:2753   */\n      dup4\n        /* \"#utility.yul\":2746:2762   */\n      add\n        /* \"#utility.yul\":2739:2766   */\n      mstore\n        /* \"#utility.yul\":2634:2773   */\n      pop\n      pop\n      pop\n      jump\t// out\n        /* \"#utility.yul\":2779:2881   */\n    tag_63:\n        /* \"#utility.yul\":2820:2826   */\n      0x00\n        /* \"#utility.yul\":2871:2873   */\n      0x1f\n        /* \"#utility.yul\":2867:2874   */\n      not\n        /* \"#utility.yul\":2862:2864   */\n      0x1f\n        /* \"#utility.yul\":2855:2860   */\n      dup4\n        /* \"#utility.yul\":2851:2865   */\n      add\n        /* \"#utility.yul\":2847:2875   */\n      and\n        /* \"#utility.yul\":2837:2875   */\n      swap1\n      pop\n        /* \"#utility.yul\":2779:2881   */\n      swap2\n      swap1\n      pop\n      jump\t// out\n        /* \"#utility.yul\":2887:3264   */\n    tag_64:\n        /* \"#utility.yul\":2975:2978   */\n      0x00\n        /* \"#utility.yul\":3003:3042   */\n      tag_100\n        /* \"#utility.yul\":3036:3041   */\n      dup3\n        /* \"#utility.yul\":3003:3042   */\n      tag_60\n      jump\t// in\n    tag_100:\n        /* \"#utility.yul\":3058:3129   */\n      tag_101\n        /* \"#utility.yul\":3122:3128   */\n      dup2\n        /* \"#utility.yul\":3117:3120   */\n      dup6\n        /* \"#utility.yul\":3058:3129   */\n      tag_61\n      jump\t// in\n    tag_101:\n        /* \"#utility.yul\":3051:3129   */\n      swap4\n      pop\n        /* \"#utility.yul\":3138:3203   */\n      tag_102\n        /* \"#utility.yul\":3196:3202   */\n      dup2\n        /* \"#utility.yul\":3191:3194   */\n      dup6\n        /* \"#utility.yul\":3184:3188   */\n      0x20\n        /* \"#utility.yul\":3177:3182   */\n      dup7\n        /* \"#utility.yul\":3173:3189   */\n      add\n        /* \"#utility.yul\":3138:3203   */\n      tag_62\n      jump\t// in\n    tag_102:\n        /* \"#utility.yul\":3228:3257   */\n      tag_103\n        /* \"#utility.yul\":3250:3256   */\n      dup2\n        /* \"#utility.yul\":3228:3257   */\n      tag_63\n      jump\t// in\n    tag_103:\n        /* \"#utility.yul\":3223:3226   */\n      dup5\n        /* \"#utility.yul\":3219:3258   */\n      add\n        /* \"#utility.yul\":3212:3258   */\n      swap2\n      pop\n        /* \"#utility.yul\":2979:3264   */\n      pop\n        /* \"#utility.yul\":2887:3264   */\n      swap3\n      swap2\n      pop\n      pop\n      jump\t// out\n        /* \"#utility.yul\":3270:3583   */\n    tag_20:\n        /* \"#utility.yul\":3383:3387   */\n      0x00\n        /* \"#utility.yul\":3421:3423   */\n      0x20\n        /* \"#utility.yul\":3410:3419   */\n      dup3\n        /* \"#utility.yul\":3406:3424   */\n      add\n        /* \"#utility.yul\":3398:3424   */\n      swap1\n      pop\n        /* \"#utility.yul\":3470:3479   */\n      dup2\n        /* \"#utility.yul\":3464:3468   */\n      dup2\n        /* \"#utility.yul\":3460:3480   */\n      sub\n        /* \"#utility.yul\":3456:3457   */\n      0x00\n        /* \"#utility.yul\":3445:3454   */\n      dup4\n        /* \"#utility.yul\":3441:3458   */\n      add\n        /* \"#utility.yul\":3434:3481   */\n      mstore\n        /* \"#utility.yul\":3498:3576   */\n      tag_105\n        /* \"#utility.yul\":3571:3575   */\n      dup2\n        /* \"#utility.yul\":3562:3568   */\n      dup5\n        /* \"#utility.yul\":3498:3576   */\n      tag_64\n      jump\t// in\n    tag_105:\n        /* \"#utility.yul\":3490:3576   */\n      swap1\n      pop\n        /* \"#utility.yul\":3270:3583   */\n      swap3\n      swap2\n      pop\n      pop\n      jump\t// out\n        /* \"#utility.yul\":3589:3916   */\n    tag_23:\n        /* \"#utility.yul\":3647:3653   */\n      0x00\n        /* \"#utility.yul\":3696:3698   */\n      0x20\n        /* \"#utility.yul\":3684:3693   */\n      dup3\n        /* \"#utility.yul\":3675:3682   */\n      dup5\n        /* \"#utility.yul\":3671:3694   */\n      sub\n        /* \"#utility.yul\":3667:3699   */\n      slt\n        /* \"#utility.yul\":3664:3783   */\n      iszero\n      tag_107\n      jumpi\n        /* \"#utility.yul\":3702:3781   */\n      tag_108\n      tag_53\n      jump\t// in\n    tag_108:\n        /* \"#utility.yul\":3664:3783   */\n    tag_107:\n        /* \"#utility.yul\":3822:3823   */\n      0x00\n        /* \"#utility.yul\":3847:3899   */\n      tag_109\n        /* \"#utility.yul\":3891:3898   */\n      dup5\n        /* \"#utility.yul\":3882:3888   */\n      dup3\n        /* \"#utility.yul\":3871:3880   */\n      dup6\n        /* \"#utility.yul\":3867:3889   */\n      add\n        /* \"#utility.yul\":3847:3899   */\n      tag_56\n      jump\t// in\n    tag_109:\n        /* \"#utility.yul\":3837:3899   */\n      swap2\n      pop\n        /* \"#utility.yul\":3793:3909   */\n      pop\n        /* \"#utility.yul\":3589:3916   */\n      swap3\n      swap2\n      pop\n      pop\n      jump\t// out\n\n    auxdata: 0xa264697066735822122026fff9d667b2dc1a5aaa3b8fa67f40c6b63541aed33fa4bb8b7e91c39f579a7864736f6c634300081c0033\n}\n",
				"bytecode": {
					"linkReferences": {},
					"object": "6080604052348015600e575f5ffd5b5061082d8061001c5f395ff3fe608060405234801561000f575f5ffd5b506004361061004a575f3560e01c806326d402261461004e578063404e65691461006c578063918d44b914610088578063daff54d6146100b8575b5f5ffd5b6100566100e8565b6040516100639190610644565b60405180910390f35b6100866004803603810190610081919061068b565b6101e7565b005b6100a2600480360381019061009d9190610711565b61023f565b6040516100af91906107ac565b60405180910390f35b6100d260048036038101906100cd91906107cc565b61030f565b6040516100df91906107ac565b60405180910390f35b5f5f60029054906101000a900461ffff1661ffff165f5f9054906101000a900461ffff1661ffff1611801561014157505f60049054906101000a900461ffff1661ffff165f5f9054906101000a900461ffff1661ffff16115b1561015c575f5f9054906101000a900461ffff1690506101e4565b5f5f9054906101000a900461ffff1661ffff165f60029054906101000a900461ffff1661ffff161180156101b557505f60049054906101000a900461ffff1661ffff165f60029054906101000a900461ffff1661ffff16115b156101d1575f60029054906101000a900461ffff1690506101e4565b5f60049054906101000a900461ffff1690505b90565b825f5f6101000a81548161ffff021916908361ffff160217905550815f60026101000a81548161ffff021916908361ffff160217905550805f60046101000a81548161ffff021916908361ffff160217905550505050565b60605f8260010b1315610289576040518060400160405280600881526020017f506f736974697665000000000000000000000000000000000000000000000000815250905061030a565b5f8260010b12156102d1576040518060400160405280600881526020017f4e65676174697665000000000000000000000000000000000000000000000000815250905061030a565b6040518060400160405280600481526020017f5a65726f0000000000000000000000000000000000000000000000000000000081525090505b919050565b60605f8261ffff1603610359576040518060400160405280600481526020017f5a65726f000000000000000000000000000000000000000000000000000000008152509050610623565b60018261ffff16036103a2576040518060400160405280600381526020017f4f6e6500000000000000000000000000000000000000000000000000000000008152509050610623565b60028261ffff16036103eb576040518060400160405280600381526020017f54776f00000000000000000000000000000000000000000000000000000000008152509050610623565b60038261ffff1603610434576040518060400160405280600581526020017f54687265650000000000000000000000000000000000000000000000000000008152509050610623565b60048261ffff160361047d576040518060400160405280600481526020017f466f7572000000000000000000000000000000000000000000000000000000008152509050610623565b60058261ffff16036104c6576040518060400160405280600481526020017f46697665000000000000000000000000000000000000000000000000000000008152509050610623565b60068261ffff160361050f576040518060400160405280600381526020017f53697800000000000000000000000000000000000000000000000000000000008152509050610623565b60078261ffff1603610558576040518060400160405280600581526020017f536576656e0000000000000000000000000000000000000000000000000000008152509050610623565b60088261ffff16036105a1576040518060400160405280600581526020017f45696768740000000000000000000000000000000000000000000000000000008152509050610623565b60098261ffff16036105ea576040518060400160405280600481526020017f4e696e65000000000000000000000000000000000000000000000000000000008152509050610623565b6040518060400160405280600781526020017f496e76616c69640000000000000000000000000000000000000000000000000081525090505b919050565b5f61ffff82169050919050565b61063e81610628565b82525050565b5f6020820190506106575f830184610635565b92915050565b5f5ffd5b61066a81610628565b8114610674575f5ffd5b50565b5f8135905061068581610661565b92915050565b5f5f5f606084860312156106a2576106a161065d565b5b5f6106af86828701610677565b93505060206106c086828701610677565b92505060406106d186828701610677565b9150509250925092565b5f8160010b9050919050565b6106f0816106db565b81146106fa575f5ffd5b50565b5f8135905061070b816106e7565b92915050565b5f602082840312156107265761072561065d565b5b5f610733848285016106fd565b91505092915050565b5f81519050919050565b5f82825260208201905092915050565b8281835e5f83830152505050565b5f601f19601f8301169050919050565b5f61077e8261073c565b6107888185610746565b9350610798818560208601610756565b6107a181610764565b840191505092915050565b5f6020820190508181035f8301526107c48184610774565b905092915050565b5f602082840312156107e1576107e061065d565b5b5f6107ee84828501610677565b9150509291505056fea264697066735822122026fff9d667b2dc1a5aaa3b8fa67f40c6b63541aed33fa4bb8b7e91c39f579a7864736f6c634300081c0033",
					"opcodes": "PUSH1 0x80 PUSH1 0x40 MSTORE CALLVALUE DUP1 ISZERO PUSH1 0xE JUMPI PUSH0 PUSH0 REVERT JUMPDEST POP PUSH2 0x82D DUP1 PUSH2 0x1C PUSH0 CODECOPY PUSH0 RETURN INVALID PUSH1 0x80 PUSH1 0x40 MSTORE CALLVALUE DUP1 ISZERO PUSH2 0xF JUMPI PUSH0 PUSH0 REVERT JUMPDEST POP PUSH1 0x4 CALLDATASIZE LT PUSH2 0x4A JUMPI PUSH0 CALLDATALOAD PUSH1 0xE0 SHR DUP1 PUSH4 0x26D40226 EQ PUSH2 0x4E JUMPI DUP1 PUSH4 0x404E6569 EQ PUSH2 0x6C JUMPI DUP1 PUSH4 0x918D44B9 EQ PUSH2 0x88 JUMPI DUP1 PUSH4 0xDAFF54D6 EQ PUSH2 0xB8 JUMPI JUMPDEST PUSH0 PUSH0 REVERT JUMPDEST PUSH2 0x56 PUSH2 0xE8 JUMP JUMPDEST PUSH1 0x40 MLOAD PUSH2 0x63 SWAP2 SWAP1 PUSH2 0x644 JUMP JUMPDEST PUSH1 0x40 MLOAD DUP1 SWAP2 SUB SWAP1 RETURN JUMPDEST PUSH2 0x86 PUSH1 0x4 DUP1 CALLDATASIZE SUB DUP2 ADD SWAP1 PUSH2 0x81 SWAP2 SWAP1 PUSH2 0x68B JUMP JUMPDEST PUSH2 0x1E7 JUMP JUMPDEST STOP JUMPDEST PUSH2 0xA2 PUSH1 0x4 DUP1 CALLDATASIZE SUB DUP2 ADD SWAP1 PUSH2 0x9D SWAP2 SWAP1 PUSH2 0x711 JUMP JUMPDEST PUSH2 0x23F JUMP JUMPDEST PUSH1 0x40 MLOAD PUSH2 0xAF SWAP2 SWAP1 PUSH2 0x7AC JUMP JUMPDEST PUSH1 0x40 MLOAD DUP1 SWAP2 SUB SWAP1 RETURN JUMPDEST PUSH2 0xD2 PUSH1 0x4 DUP1 CALLDATASIZE SUB DUP2 ADD SWAP1 PUSH2 0xCD SWAP2 SWAP1 PUSH2 0x7CC JUMP JUMPDEST PUSH2 0x30F JUMP JUMPDEST PUSH1 0x40 MLOAD PUSH2 0xDF SWAP2 SWAP1 PUSH2 0x7AC JUMP JUMPDEST PUSH1 0x40 MLOAD DUP1 SWAP2 SUB SWAP1 RETURN JUMPDEST PUSH0 PUSH0 PUSH1 0x2 SWAP1 SLOAD SWAP1 PUSH2 0x100 EXP SWAP1 DIV PUSH2 0xFFFF AND PUSH2 0xFFFF AND PUSH0 PUSH0 SWAP1 SLOAD SWAP1 PUSH2 0x100 EXP SWAP1 DIV PUSH2 0xFFFF AND PUSH2 0xFFFF AND GT DUP1 ISZERO PUSH2 0x141 JUMPI POP PUSH0 PUSH1 0x4 SWAP1 SLOAD SWAP1 PUSH2 0x100 EXP SWAP1 DIV PUSH2 0xFFFF AND PUSH2 0xFFFF AND PUSH0 PUSH0 SWAP1 SLOAD SWAP1 PUSH2 0x100 EXP SWAP1 DIV PUSH2 0xFFFF AND PUSH2 0xFFFF AND GT JUMPDEST ISZERO PUSH2 0x15C JUMPI PUSH0 PUSH0 SWAP1 SLOAD SWAP1 PUSH2 0x100 EXP SWAP1 DIV PUSH2 0xFFFF AND SWAP1 POP PUSH2 0x1E4 JUMP JUMPDEST PUSH0 PUSH0 SWAP1 SLOAD SWAP1 PUSH2 0x100 EXP SWAP1 DIV PUSH2 0xFFFF AND PUSH2 0xFFFF AND PUSH0 PUSH1 0x2 SWAP1 SLOAD SWAP1 PUSH2 0x100 EXP SWAP1 DIV PUSH2 0xFFFF AND PUSH2 0xFFFF AND GT DUP1 ISZERO PUSH2 0x1B5 JUMPI POP PUSH0 PUSH1 0x4 SWAP1 SLOAD SWAP1 PUSH2 0x100 EXP SWAP1 DIV PUSH2 0xFFFF AND PUSH2 0xFFFF AND PUSH0 PUSH1 0x2 SWAP1 SLOAD SWAP1 PUSH2 0x100 EXP SWAP1 DIV PUSH2 0xFFFF AND PUSH2 0xFFFF AND GT JUMPDEST ISZERO PUSH2 0x1D1 JUMPI PUSH0 PUSH1 0x2 SWAP1 SLOAD SWAP1 PUSH2 0x100 EXP SWAP1 DIV PUSH2 0xFFFF AND SWAP1 POP PUSH2 0x1E4 JUMP JUMPDEST PUSH0 PUSH1 0x4 SWAP1 SLOAD SWAP1 PUSH2 0x100 EXP SWAP1 DIV PUSH2 0xFFFF AND SWAP1 POP JUMPDEST SWAP1 JUMP JUMPDEST DUP3 PUSH0 PUSH0 PUSH2 0x100 EXP DUP2 SLOAD DUP2 PUSH2 0xFFFF MUL NOT AND SWAP1 DUP4 PUSH2 0xFFFF AND MUL OR SWAP1 SSTORE POP DUP2 PUSH0 PUSH1 0x2 PUSH2 0x100 EXP DUP2 SLOAD DUP2 PUSH2 0xFFFF MUL NOT AND SWAP1 DUP4 PUSH2 0xFFFF AND MUL OR SWAP1 SSTORE POP DUP1 PUSH0 PUSH1 0x4 PUSH2 0x100 EXP DUP2 SLOAD DUP2 PUSH2 0xFFFF MUL NOT AND SWAP1 DUP4 PUSH2 0xFFFF AND MUL OR SWAP1 SSTORE POP POP POP POP JUMP JUMPDEST PUSH1 0x60 PUSH0 DUP3 PUSH1 0x1 SIGNEXTEND SGT ISZERO PUSH2 0x289 JUMPI PUSH1 0x40 MLOAD DUP1 PUSH1 0x40 ADD PUSH1 0x40 MSTORE DUP1 PUSH1 0x8 DUP2 MSTORE PUSH1 0x20 ADD PUSH32 0x506F736974697665000000000000000000000000000000000000000000000000 DUP2 MSTORE POP SWAP1 POP PUSH2 0x30A JUMP JUMPDEST PUSH0 DUP3 PUSH1 0x1 SIGNEXTEND SLT ISZERO PUSH2 0x2D1 JUMPI PUSH1 0x40 MLOAD DUP1 PUSH1 0x40 ADD PUSH1 0x40 MSTORE DUP1 PUSH1 0x8 DUP2 MSTORE PUSH1 0x20 ADD PUSH32 0x4E65676174697665000000000000000000000000000000000000000000000000 DUP2 MSTORE POP SWAP1 POP PUSH2 0x30A JUMP JUMPDEST PUSH1 0x40 MLOAD DUP1 PUSH1 0x40 ADD PUSH1 0x40 MSTORE DUP1 PUSH1 0x4 DUP2 MSTORE PUSH1 0x20 ADD PUSH32 0x5A65726F00000000000000000000000000000000000000000000000000000000 DUP2 MSTORE POP SWAP1 POP JUMPDEST SWAP2 SWAP1 POP JUMP JUMPDEST PUSH1 0x60 PUSH0 DUP3 PUSH2 0xFFFF AND SUB PUSH2 0x359 JUMPI PUSH1 0x40 MLOAD DUP1 PUSH1 0x40 ADD PUSH1 0x40 MSTORE DUP1 PUSH1 0x4 DUP2 MSTORE PUSH1 0x20 ADD PUSH32 0x5A65726F00000000000000000000000000000000000000000000000000000000 DUP2 MSTORE POP SWAP1 POP PUSH2 0x623 JUMP JUMPDEST PUSH1 0x1 DUP3 PUSH2 0xFFFF AND SUB PUSH2 0x3A2 JUMPI PUSH1 0x40 MLOAD DUP1 PUSH1 0x40 ADD PUSH1 0x40 MSTORE DUP1 PUSH1 0x3 DUP2 MSTORE PUSH1 0x20 ADD PUSH32 0x4F6E650000000000000000000000000000000000000000000000000000000000 DUP2 MSTORE POP SWAP1 POP PUSH2 0x623 JUMP JUMPDEST PUSH1 0x2 DUP3 PUSH2 0xFFFF AND SUB PUSH2 0x3EB JUMPI PUSH1 0x40 MLOAD DUP1 PUSH1 0x40 ADD PUSH1 0x40 MSTORE DUP1 PUSH1 0x3 DUP2 MSTORE PUSH1 0x20 ADD PUSH32 0x54776F0000000000000000000000000000000000000000000000000000000000 DUP2 MSTORE POP SWAP1 POP PUSH2 0x623 JUMP JUMPDEST PUSH1 0x3 DUP3 PUSH2 0xFFFF AND SUB PUSH2 0x434 JUMPI PUSH1 0x40 MLOAD DUP1 PUSH1 0x40 ADD PUSH1 0x40 MSTORE DUP1 PUSH1 0x5 DUP2 MSTORE PUSH1 0x20 ADD PUSH32 0x5468726565000000000000000000000000000000000000000000000000000000 DUP2 MSTORE POP SWAP1 POP PUSH2 0x623 JUMP JUMPDEST PUSH1 0x4 DUP3 PUSH2 0xFFFF AND SUB PUSH2 0x47D JUMPI PUSH1 0x40 MLOAD DUP1 PUSH1 0x40 ADD PUSH1 0x40 MSTORE DUP1 PUSH1 0x4 DUP2 MSTORE PUSH1 0x20 ADD PUSH32 0x466F757200000000000000000000000000000000000000000000000000000000 DUP2 MSTORE POP SWAP1 POP PUSH2 0x623 JUMP JUMPDEST PUSH1 0x5 DUP3 PUSH2 0xFFFF AND SUB PUSH2 0x4C6 JUMPI PUSH1 0x40 MLOAD DUP1 PUSH1 0x40 ADD PUSH1 0x40 MSTORE DUP1 PUSH1 0x4 DUP2 MSTORE PUSH1 0x20 ADD PUSH32 0x4669766500000000000000000000000000000000000000000000000000000000 DUP2 MSTORE POP SWAP1 POP PUSH2 0x623 JUMP JUMPDEST PUSH1 0x6 DUP3 PUSH2 0xFFFF AND SUB PUSH2 0x50F JUMPI PUSH1 0x40 MLOAD DUP1 PUSH1 0x40 ADD PUSH1 0x40 MSTORE DUP1 PUSH1 0x3 DUP2 MSTORE PUSH1 0x20 ADD PUSH32 0x5369780000000000000000000000000000000000000000000000000000000000 DUP2 MSTORE POP SWAP1 POP PUSH2 0x623 JUMP JUMPDEST PUSH1 0x7 DUP3 PUSH2 0xFFFF AND SUB PUSH2 0x558 JUMPI PUSH1 0x40 MLOAD DUP1 PUSH1 0x40 ADD PUSH1 0x40 MSTORE DUP1 PUSH1 0x5 DUP2 MSTORE PUSH1 0x20 ADD PUSH32 0x536576656E000000000000000000000000000000000000000000000000000000 DUP2 MSTORE POP SWAP1 POP PUSH2 0x623 JUMP JUMPDEST PUSH1 0x8 DUP3 PUSH2 0xFFFF AND SUB PUSH2 0x5A1 JUMPI PUSH1 0x40 MLOAD DUP1 PUSH1 0x40 ADD PUSH1 0x40 MSTORE DUP1 PUSH1 0x5 DUP2 MSTORE PUSH1 0x20 ADD PUSH32 0x4569676874000000000000000000000000000000000000000000000000000000 DUP2 MSTORE POP SWAP1 POP PUSH2 0x623 JUMP JUMPDEST PUSH1 0x9 DUP3 PUSH2 0xFFFF AND SUB PUSH2 0x5EA JUMPI PUSH1 0x40 MLOAD DUP1 PUSH1 0x40 ADD PUSH1 0x40 MSTORE DUP1 PUSH1 0x4 DUP2 MSTORE PUSH1 0x20 ADD PUSH32 0x4E696E6500000000000000000000000000000000000000000000000000000000 DUP2 MSTORE POP SWAP1 POP PUSH2 0x623 JUMP JUMPDEST PUSH1 0x40 MLOAD DUP1 PUSH1 0x40 ADD PUSH1 0x40 MSTORE DUP1 PUSH1 0x7 DUP2 MSTORE PUSH1 0x20 ADD PUSH32 0x496E76616C696400000000000000000000000000000000000000000000000000 DUP2 MSTORE POP SWAP1 POP JUMPDEST SWAP2 SWAP1 POP JUMP JUMPDEST PUSH0 PUSH2 0xFFFF DUP3 AND SWAP1 POP SWAP2 SWAP1 POP JUMP JUMPDEST PUSH2 0x63E DUP2 PUSH2 0x628 JUMP JUMPDEST DUP3 MSTORE POP POP JUMP JUMPDEST PUSH0 PUSH1 0x20 DUP3 ADD SWAP1 POP PUSH2 0x657 PUSH0 DUP4 ADD DUP5 PUSH2 0x635 JUMP JUMPDEST SWAP3 SWAP2 POP POP JUMP JUMPDEST PUSH0 PUSH0 REVERT JUMPDEST PUSH2 0x66A DUP2 PUSH2 0x628 JUMP JUMPDEST DUP2 EQ PUSH2 0x674 JUMPI PUSH0 PUSH0 REVERT JUMPDEST POP JUMP JUMPDEST PUSH0 DUP2 CALLDATALOAD SWAP1 POP PUSH2 0x685 DUP2 PUSH2 0x661 JUMP JUMPDEST SWAP3 SWAP2 POP POP JUMP JUMPDEST PUSH0 PUSH0 PUSH0 PUSH1 0x60 DUP5 DUP7 SUB SLT ISZERO PUSH2 0x6A2 JUMPI PUSH2 0x6A1 PUSH2 0x65D JUMP JUMPDEST JUMPDEST PUSH0 PUSH2 0x6AF DUP7 DUP3 DUP8 ADD PUSH2 0x677 JUMP JUMPDEST SWAP4 POP POP PUSH1 0x20 PUSH2 0x6C0 DUP7 DUP3 DUP8 ADD PUSH2 0x677 JUMP JUMPDEST SWAP3 POP POP PUSH1 0x40 PUSH2 0x6D1 DUP7 DUP3 DUP8 ADD PUSH2 0x677 JUMP JUMPDEST SWAP2 POP POP SWAP3 POP SWAP3 POP SWAP3 JUMP JUMPDEST PUSH0 DUP2 PUSH1 0x1 SIGNEXTEND SWAP1 POP SWAP2 SWAP1 POP JUMP JUMPDEST PUSH2 0x6F0 DUP2 PUSH2 0x6DB JUMP JUMPDEST DUP2 EQ PUSH2 0x6FA JUMPI PUSH0 PUSH0 REVERT JUMPDEST POP JUMP JUMPDEST PUSH0 DUP2 CALLDATALOAD SWAP1 POP PUSH2 0x70B DUP2 PUSH2 0x6E7 JUMP JUMPDEST SWAP3 SWAP2 POP POP JUMP JUMPDEST PUSH0 PUSH1 0x20 DUP3 DUP5 SUB SLT ISZERO PUSH2 0x726 JUMPI PUSH2 0x725 PUSH2 0x65D JUMP JUMPDEST JUMPDEST PUSH0 PUSH2 0x733 DUP5 DUP3 DUP6 ADD PUSH2 0x6FD JUMP JUMPDEST SWAP2 POP POP SWAP3 SWAP2 POP POP JUMP JUMPDEST PUSH0 DUP2 MLOAD SWAP1 POP SWAP2 SWAP1 POP JUMP JUMPDEST PUSH0 DUP3 DUP3 MSTORE PUSH1 0x20 DUP3 ADD SWAP1 POP SWAP3 SWAP2 POP POP JUMP JUMPDEST DUP3 DUP2 DUP4 MCOPY PUSH0 DUP4 DUP4 ADD MSTORE POP POP POP JUMP JUMPDEST PUSH0 PUSH1 0x1F NOT PUSH1 0x1F DUP4 ADD AND SWAP1 POP SWAP2 SWAP1 POP JUMP JUMPDEST PUSH0 PUSH2 0x77E DUP3 PUSH2 0x73C JUMP JUMPDEST PUSH2 0x788 DUP2 DUP6 PUSH2 0x746 JUMP JUMPDEST SWAP4 POP PUSH2 0x798 DUP2 DUP6 PUSH1 0x20 DUP7 ADD PUSH2 0x756 JUMP JUMPDEST PUSH2 0x7A1 DUP2 PUSH2 0x764 JUMP JUMPDEST DUP5 ADD SWAP2 POP POP SWAP3 SWAP2 POP POP JUMP JUMPDEST PUSH0 PUSH1 0x20 DUP3 ADD SWAP1 POP DUP2 DUP2 SUB PUSH0 DUP4 ADD MSTORE PUSH2 0x7C4 DUP2 DUP5 PUSH2 0x774 JUMP JUMPDEST SWAP1 POP SWAP3 SWAP2 POP POP JUMP JUMPDEST PUSH0 PUSH1 0x20 DUP3 DUP5 SUB SLT ISZERO PUSH2 0x7E1 JUMPI PUSH2 0x7E0 PUSH2 0x65D JUMP JUMPDEST JUMPDEST PUSH0 PUSH2 0x7EE DUP5 DUP3 DUP6 ADD PUSH2 0x677 JUMP JUMPDEST SWAP2 POP POP SWAP3 SWAP2 POP POP JUMP INVALID LOG2 PUSH5 0x6970667358 0x22 SLT KECCAK256 0x26 SELFDESTRUCT 0xF9 0xD6 PUSH8 0xB2DC1A5AAA3B8FA6 PUSH32 0x40C6B63541AED33FA4BB8B7E91C39F579A7864736F6C634300081C0033000000 "
				},
				"gasEstimates": {
					"creation": {
						"codeDepositCost": "418600",
						"executionCost": "453",
						"totalCost": "419053"
					},
					"external": {
						"checkSign(int16)": "infinite",
						"findLargest()": "20001",
						"getDigit(uint16)": "infinite",
						"inputNumbers(uint16,uint16,uint16)": "infinite"
					}
				},
				"methodIdentifiers": {
					"checkSign(int16)": "918d44b9",
					"findLargest()": "26d40226",
					"getDigit(uint16)": "daff54d6",
					"inputNumbers(uint16,uint16,uint16)": "404e6569"
				}
			},
			"storageLayout": {
				"storage": [
					{
						"astId": 3,
						"contract": "SMART-CONTRACTS-1733812289486/LargestNumber.sol:LargestNumber",
						"label": "firstNo",
						"offset": 0,
						"slot": "0",
						"type": "t_uint16"
					},
					{
						"astId": 5,
						"contract": "SMART-CONTRACTS-1733812289486/LargestNumber.sol:LargestNumber",
						"label": "secondNo",
						"offset": 2,
						"slot": "0",
						"type": "t_uint16"
					},
					{
						"astId": 7,
						"contract": "SMART-CONTRACTS-1733812289486/LargestNumber.sol:LargestNumber",
						"label": "thirdNo",
						"offset": 4,
						"slot": "0",
						"type": "t_uint16"
					},
					{
						"astId": 9,
						"contract": "SMART-CONTRACTS-1733812289486/LargestNumber.sol:LargestNumber",
						"label": "digit",
						"offset": 6,
						"slot": "0",
						"type": "t_uint16"
					},
					{
						"astId": 11,
						"contract": "SMART-CONTRACTS-1733812289486/LargestNumber.sol:LargestNumber",
						"label": "value",
						"offset": 8,
						"slot": "0",
						"type": "t_int16"
					}
				],
				"types": {
					"t_int16": {
						"encoding": "inplace",
						"label": "int16",
						"numberOfBytes": "2"
					},
					"t_uint16": {
						"encoding": "inplace",
						"label": "uint16",
						"numberOfBytes": "2"
					}
				}
			},
			"userdoc": {
				"kind": "user",
				"methods": {},
				"version": 1
			}
		}
	}
}