{
	"SMART-CONTRACTS-1733812289486/SMS.sol": {
		"SMS": {
			"abi": [
				{
					"inputs": [],
					"stateMutability": "nonpayable",
					"type": "constructor"
				},
				{
					"inputs": [
						{
							"internalType": "uint256",
							"name": "_id",
							"type": "uint256"
						},
						{
							"internalType": "string",
							"name": "_name",
							"type": "string"
						},
						{
							"internalType": "string",
							"name": "_sem",
							"type": "string"
						},
						{
							"internalType": "string",
							"name": "_dept",
							"type": "string"
						},
						{
							"internalType": "uint256",
							"name": "_CGPA",
							"type": "uint256"
						},
						{
							"internalType": "uint256",
							"name": "_rollNo",
							"type": "uint256"
						}
					],
					"name": "setStudentDetails",
					"outputs": [],
					"stateMutability": "nonpayable",
					"type": "function"
				},
				{
					"inputs": [
						{
							"internalType": "uint256",
							"name": "",
							"type": "uint256"
						}
					],
					"name": "studData",
					"outputs": [
						{
							"internalType": "string",
							"name": "name",
							"type": "string"
						},
						{
							"internalType": "string",
							"name": "sem",
							"type": "string"
						},
						{
							"internalType": "string",
							"name": "dept",
							"type": "string"
						},
						{
							"internalType": "uint256",
							"name": "CGPA",
							"type": "uint256"
						},
						{
							"internalType": "uint256",
							"name": "rollNo",
							"type": "uint256"
						}
					],
					"stateMutability": "view",
					"type": "function"
				}
			],
			"devdoc": {
				"kind": "dev",
				"methods": {},
				"version": 1
			},
			"evm": {
				"assembly": "    /* \"SMART-CONTRACTS-1733812289486/SMS.sol\":506:1167  contract SMS{... */\n  mstore(0x40, 0x80)\n    /* \"SMART-CONTRACTS-1733812289486/SMS.sol\":805:861  constructor(){... */\n  callvalue\n  dup1\n  iszero\n  tag_1\n  jumpi\n  revert(0x00, 0x00)\ntag_1:\n  pop\n    /* \"SMART-CONTRACTS-1733812289486/SMS.sol\":844:854  msg.sender */\n  caller\n    /* \"SMART-CONTRACTS-1733812289486/SMS.sol\":828:840  staffAdvisor */\n  0x00\n  0x00\n    /* \"SMART-CONTRACTS-1733812289486/SMS.sol\":828:854  staffAdvisor =  msg.sender */\n  0x0100\n  exp\n  dup2\n  sload\n  dup2\n  0xffffffffffffffffffffffffffffffffffffffff\n  mul\n  not\n  and\n  swap1\n  dup4\n  0xffffffffffffffffffffffffffffffffffffffff\n  and\n  mul\n  or\n  swap1\n  sstore\n  pop\n    /* \"SMART-CONTRACTS-1733812289486/SMS.sol\":506:1167  contract SMS{... */\n  dataSize(sub_0)\n  dup1\n  dataOffset(sub_0)\n  0x00\n  codecopy\n  0x00\n  return\nstop\n\nsub_0: assembly {\n        /* \"SMART-CONTRACTS-1733812289486/SMS.sol\":506:1167  contract SMS{... */\n      mstore(0x40, 0x80)\n      callvalue\n      dup1\n      iszero\n      tag_1\n      jumpi\n      revert(0x00, 0x00)\n    tag_1:\n      pop\n      jumpi(tag_2, lt(calldatasize, 0x04))\n      shr(0xe0, calldataload(0x00))\n      dup1\n      0x4f583537\n      eq\n      tag_3\n      jumpi\n      dup1\n      0xecbe43eb\n      eq\n      tag_4\n      jumpi\n    tag_2:\n      revert(0x00, 0x00)\n        /* \"SMART-CONTRACTS-1733812289486/SMS.sol\":928:1165  function setStudentDetails(uint256 _id, string memory _name, string memory _sem, string memory _dept, uint256 _CGPA, uint256 _rollNo) public onlyStaffAdvisor{... */\n    tag_3:\n      tag_5\n      0x04\n      dup1\n      calldatasize\n      sub\n      dup2\n      add\n      swap1\n      tag_6\n      swap2\n      swap1\n      tag_7\n      jump\t// in\n    tag_6:\n      tag_8\n      jump\t// in\n    tag_5:\n      stop\n        /* \"SMART-CONTRACTS-1733812289486/SMS.sol\":867:916  mapping (uint256 => studentData) public  studData */\n    tag_4:\n      tag_9\n      0x04\n      dup1\n      calldatasize\n      sub\n      dup2\n      add\n      swap1\n      tag_10\n      swap2\n      swap1\n      tag_11\n      jump\t// in\n    tag_10:\n      tag_12\n      jump\t// in\n    tag_9:\n      mload(0x40)\n      tag_13\n      swap6\n      swap5\n      swap4\n      swap3\n      swap2\n      swap1\n      tag_14\n      jump\t// in\n    tag_13:\n      mload(0x40)\n      dup1\n      swap2\n      sub\n      swap1\n      return\n        /* \"SMART-CONTRACTS-1733812289486/SMS.sol\":928:1165  function setStudentDetails(uint256 _id, string memory _name, string memory _sem, string memory _dept, uint256 _CGPA, uint256 _rollNo) public onlyStaffAdvisor{... */\n    tag_8:\n        /* \"SMART-CONTRACTS-1733812289486/SMS.sol\":747:759  staffAdvisor */\n      0x00\n      0x00\n      swap1\n      sload\n      swap1\n      0x0100\n      exp\n      swap1\n      div\n      0xffffffffffffffffffffffffffffffffffffffff\n      and\n        /* \"SMART-CONTRACTS-1733812289486/SMS.sol\":733:759  msg.sender == staffAdvisor */\n      0xffffffffffffffffffffffffffffffffffffffff\n      and\n        /* \"SMART-CONTRACTS-1733812289486/SMS.sol\":733:743  msg.sender */\n      caller\n        /* \"SMART-CONTRACTS-1733812289486/SMS.sol\":733:759  msg.sender == staffAdvisor */\n      0xffffffffffffffffffffffffffffffffffffffff\n      and\n      eq\n        /* \"SMART-CONTRACTS-1733812289486/SMS.sol\":725:781  require(msg.sender == staffAdvisor,\"Unauthorised acces\") */\n      tag_16\n      jumpi\n      mload(0x40)\n      0x08c379a000000000000000000000000000000000000000000000000000000000\n      dup2\n      mstore\n      0x04\n      add\n      tag_17\n      swap1\n      tag_18\n      jump\t// in\n    tag_17:\n      mload(0x40)\n      dup1\n      swap2\n      sub\n      swap1\n      revert\n    tag_16:\n        /* \"SMART-CONTRACTS-1733812289486/SMS.sol\":1115:1158  studentData(_name,_sem,_dept,_CGPA,_rollNo) */\n      mload(0x40)\n      dup1\n      0xa0\n      add\n      0x40\n      mstore\n      dup1\n        /* \"SMART-CONTRACTS-1733812289486/SMS.sol\":1127:1132  _name */\n      dup7\n        /* \"SMART-CONTRACTS-1733812289486/SMS.sol\":1115:1158  studentData(_name,_sem,_dept,_CGPA,_rollNo) */\n      dup2\n      mstore\n      0x20\n      add\n        /* \"SMART-CONTRACTS-1733812289486/SMS.sol\":1133:1137  _sem */\n      dup6\n        /* \"SMART-CONTRACTS-1733812289486/SMS.sol\":1115:1158  studentData(_name,_sem,_dept,_CGPA,_rollNo) */\n      dup2\n      mstore\n      0x20\n      add\n        /* \"SMART-CONTRACTS-1733812289486/SMS.sol\":1138:1143  _dept */\n      dup5\n        /* \"SMART-CONTRACTS-1733812289486/SMS.sol\":1115:1158  studentData(_name,_sem,_dept,_CGPA,_rollNo) */\n      dup2\n      mstore\n      0x20\n      add\n        /* \"SMART-CONTRACTS-1733812289486/SMS.sol\":1144:1149  _CGPA */\n      dup4\n        /* \"SMART-CONTRACTS-1733812289486/SMS.sol\":1115:1158  studentData(_name,_sem,_dept,_CGPA,_rollNo) */\n      dup2\n      mstore\n      0x20\n      add\n        /* \"SMART-CONTRACTS-1733812289486/SMS.sol\":1150:1157  _rollNo */\n      dup3\n        /* \"SMART-CONTRACTS-1733812289486/SMS.sol\":1115:1158  studentData(_name,_sem,_dept,_CGPA,_rollNo) */\n      dup2\n      mstore\n      pop\n        /* \"SMART-CONTRACTS-1733812289486/SMS.sol\":1099:1107  studData */\n      0x01\n        /* \"SMART-CONTRACTS-1733812289486/SMS.sol\":1099:1112  studData[_id] */\n      0x00\n        /* \"SMART-CONTRACTS-1733812289486/SMS.sol\":1108:1111  _id */\n      dup9\n        /* \"SMART-CONTRACTS-1733812289486/SMS.sol\":1099:1112  studData[_id] */\n      dup2\n      mstore\n      0x20\n      add\n      swap1\n      dup2\n      mstore\n      0x20\n      add\n      0x00\n      keccak256\n        /* \"SMART-CONTRACTS-1733812289486/SMS.sol\":1099:1158  studData[_id] = studentData(_name,_sem,_dept,_CGPA,_rollNo) */\n      0x00\n      dup3\n      add\n      mload\n      dup2\n      0x00\n      add\n      swap1\n      dup2\n      tag_20\n      swap2\n      swap1\n      tag_21\n      jump\t// in\n    tag_20:\n      pop\n      0x20\n      dup3\n      add\n      mload\n      dup2\n      0x01\n      add\n      swap1\n      dup2\n      tag_22\n      swap2\n      swap1\n      tag_21\n      jump\t// in\n    tag_22:\n      pop\n      0x40\n      dup3\n      add\n      mload\n      dup2\n      0x02\n      add\n      swap1\n      dup2\n      tag_23\n      swap2\n      swap1\n      tag_21\n      jump\t// in\n    tag_23:\n      pop\n      0x60\n      dup3\n      add\n      mload\n      dup2\n      0x03\n      add\n      sstore\n      0x80\n      dup3\n      add\n      mload\n      dup2\n      0x04\n      add\n      sstore\n      swap1\n      pop\n      pop\n        /* \"SMART-CONTRACTS-1733812289486/SMS.sol\":928:1165  function setStudentDetails(uint256 _id, string memory _name, string memory _sem, string memory _dept, uint256 _CGPA, uint256 _rollNo) public onlyStaffAdvisor{... */\n      pop\n      pop\n      pop\n      pop\n      pop\n      pop\n      jump\t// out\n        /* \"SMART-CONTRACTS-1733812289486/SMS.sol\":867:916  mapping (uint256 => studentData) public  studData */\n    tag_12:\n      mstore(0x20, 0x01)\n      dup1\n      0x00\n      mstore\n      keccak256(0x00, 0x40)\n      0x00\n      swap2\n      pop\n      swap1\n      pop\n      dup1\n      0x00\n      add\n      dup1\n      sload\n      tag_24\n      swap1\n      tag_25\n      jump\t// in\n    tag_24:\n      dup1\n      0x1f\n      add\n      0x20\n      dup1\n      swap2\n      div\n      mul\n      0x20\n      add\n      mload(0x40)\n      swap1\n      dup2\n      add\n      0x40\n      mstore\n      dup1\n      swap3\n      swap2\n      swap1\n      dup2\n      dup2\n      mstore\n      0x20\n      add\n      dup3\n      dup1\n      sload\n      tag_26\n      swap1\n      tag_25\n      jump\t// in\n    tag_26:\n      dup1\n      iszero\n      tag_27\n      jumpi\n      dup1\n      0x1f\n      lt\n      tag_28\n      jumpi\n      0x0100\n      dup1\n      dup4\n      sload\n      div\n      mul\n      dup4\n      mstore\n      swap2\n      0x20\n      add\n      swap2\n      jump(tag_27)\n    tag_28:\n      dup3\n      add\n      swap2\n      swap1\n      0x00\n      mstore\n      keccak256(0x00, 0x20)\n      swap1\n    tag_29:\n      dup2\n      sload\n      dup2\n      mstore\n      swap1\n      0x01\n      add\n      swap1\n      0x20\n      add\n      dup1\n      dup4\n      gt\n      tag_29\n      jumpi\n      dup3\n      swap1\n      sub\n      0x1f\n      and\n      dup3\n      add\n      swap2\n    tag_27:\n      pop\n      pop\n      pop\n      pop\n      pop\n      swap1\n      dup1\n      0x01\n      add\n      dup1\n      sload\n      tag_30\n      swap1\n      tag_25\n      jump\t// in\n    tag_30:\n      dup1\n      0x1f\n      add\n      0x20\n      dup1\n      swap2\n      div\n      mul\n      0x20\n      add\n      mload(0x40)\n      swap1\n      dup2\n      add\n      0x40\n      mstore\n      dup1\n      swap3\n      swap2\n      swap1\n      dup2\n      dup2\n      mstore\n      0x20\n      add\n      dup3\n      dup1\n      sload\n      tag_31\n      swap1\n      tag_25\n      jump\t// in\n    tag_31:\n      dup1\n      iszero\n      tag_32\n      jumpi\n      dup1\n      0x1f\n      lt\n      tag_33\n      jumpi\n      0x0100\n      dup1\n      dup4\n      sload\n      div\n      mul\n      dup4\n      mstore\n      swap2\n      0x20\n      add\n      swap2\n      jump(tag_32)\n    tag_33:\n      dup3\n      add\n      swap2\n      swap1\n      0x00\n      mstore\n      keccak256(0x00, 0x20)\n      swap1\n    tag_34:\n      dup2\n      sload\n      dup2\n      mstore\n      swap1\n      0x01\n      add\n      swap1\n      0x20\n      add\n      dup1\n      dup4\n      gt\n      tag_34\n      jumpi\n      dup3\n      swap1\n      sub\n      0x1f\n      and\n      dup3\n      add\n      swap2\n    tag_32:\n      pop\n      pop\n      pop\n      pop\n      pop\n      swap1\n      dup1\n      0x02\n      add\n      dup1\n      sload\n      tag_35\n      swap1\n      tag_25\n      jump\t// in\n    tag_35:\n      dup1\n      0x1f\n      add\n      0x20\n      dup1\n      swap2\n      div\n      mul\n      0x20\n      add\n      mload(0x40)\n      swap1\n      dup2\n      add\n      0x40\n      mstore\n      dup1\n      swap3\n      swap2\n      swap1\n      dup2\n      dup2\n      mstore\n      0x20\n      add\n      dup3\n      dup1\n      sload\n      tag_36\n      swap1\n      tag_25\n      jump\t// in\n    tag_36:\n      dup1\n      iszero\n      tag_37\n      jumpi\n      dup1\n      0x1f\n      lt\n      tag_38\n      jumpi\n      0x0100\n      dup1\n      dup4\n      sload\n      div\n      mul\n      dup4\n      mstore\n      swap2\n      0x20\n      add\n      swap2\n      jump(tag_37)\n    tag_38:\n      dup3\n      add\n      swap2\n      swap1\n      0x00\n      mstore\n      keccak256(0x00, 0x20)\n      swap1\n    tag_39:\n      dup2\n      sload\n      dup2\n      mstore\n      swap1\n      0x01\n      add\n      swap1\n      0x20\n      add\n      dup1\n      dup4\n      gt\n      tag_39\n      jumpi\n      dup3\n      swap1\n      sub\n      0x1f\n      and\n      dup3\n      add\n      swap2\n    tag_37:\n      pop\n      pop\n      pop\n      pop\n      pop\n      swap1\n      dup1\n      0x03\n      add\n      sload\n      swap1\n      dup1\n      0x04\n      add\n      sload\n      swap1\n      pop\n      dup6\n      jump\t// out\n        /* \"#utility.yul\":7:82   */\n    tag_40:\n        /* \"#utility.yul\":40:46   */\n      0x00\n        /* \"#utility.yul\":73:75   */\n      0x40\n        /* \"#utility.yul\":67:76   */\n      mload\n        /* \"#utility.yul\":57:76   */\n      swap1\n      pop\n        /* \"#utility.yul\":7:82   */\n      swap1\n      jump\t// out\n        /* \"#utility.yul\":88:205   */\n    tag_41:\n        /* \"#utility.yul\":197:198   */\n      0x00\n        /* \"#utility.yul\":194:195   */\n      0x00\n        /* \"#utility.yul\":187:199   */\n      revert\n        /* \"#utility.yul\":211:328   */\n    tag_42:\n        /* \"#utility.yul\":320:321   */\n      0x00\n        /* \"#utility.yul\":317:318   */\n      0x00\n        /* \"#utility.yul\":310:322   */\n      revert\n        /* \"#utility.yul\":334:411   */\n    tag_43:\n        /* \"#utility.yul\":371:378   */\n      0x00\n        /* \"#utility.yul\":400:405   */\n      dup2\n        /* \"#utility.yul\":389:405   */\n      swap1\n      pop\n        /* \"#utility.yul\":334:411   */\n      swap2\n      swap1\n      pop\n      jump\t// out\n        /* \"#utility.yul\":417:539   */\n    tag_44:\n        /* \"#utility.yul\":490:514   */\n      tag_85\n        /* \"#utility.yul\":508:513   */\n      dup2\n        /* \"#utility.yul\":490:514   */\n      tag_43\n      jump\t// in\n    tag_85:\n        /* \"#utility.yul\":483:488   */\n      dup2\n        /* \"#utility.yul\":480:515   */\n      eq\n        /* \"#utility.yul\":470:533   */\n      tag_86\n      jumpi\n        /* \"#utility.yul\":529:530   */\n      0x00\n        /* \"#utility.yul\":526:527   */\n      0x00\n        /* \"#utility.yul\":519:531   */\n      revert\n        /* \"#utility.yul\":470:533   */\n    tag_86:\n        /* \"#utility.yul\":417:539   */\n      pop\n      jump\t// out\n        /* \"#utility.yul\":545:684   */\n    tag_45:\n        /* \"#utility.yul\":591:596   */\n      0x00\n        /* \"#utility.yul\":629:635   */\n      dup2\n        /* \"#utility.yul\":616:636   */\n      calldataload\n        /* \"#utility.yul\":607:636   */\n      swap1\n      pop\n        /* \"#utility.yul\":645:678   */\n      tag_88\n        /* \"#utility.yul\":672:677   */\n      dup2\n        /* \"#utility.yul\":645:678   */\n      tag_44\n      jump\t// in\n    tag_88:\n        /* \"#utility.yul\":545:684   */\n      swap3\n      swap2\n      pop\n      pop\n      jump\t// out\n        /* \"#utility.yul\":690:807   */\n    tag_46:\n        /* \"#utility.yul\":799:800   */\n      0x00\n        /* \"#utility.yul\":796:797   */\n      0x00\n        /* \"#utility.yul\":789:801   */\n      revert\n        /* \"#utility.yul\":813:930   */\n    tag_47:\n        /* \"#utility.yul\":922:923   */\n      0x00\n        /* \"#utility.yul\":919:920   */\n      0x00\n        /* \"#utility.yul\":912:924   */\n      revert\n        /* \"#utility.yul\":936:1038   */\n    tag_48:\n        /* \"#utility.yul\":977:983   */\n      0x00\n        /* \"#utility.yul\":1028:1030   */\n      0x1f\n        /* \"#utility.yul\":1024:1031   */\n      not\n        /* \"#utility.yul\":1019:1021   */\n      0x1f\n        /* \"#utility.yul\":1012:1017   */\n      dup4\n        /* \"#utility.yul\":1008:1022   */\n      add\n        /* \"#utility.yul\":1004:1032   */\n      and\n        /* \"#utility.yul\":994:1032   */\n      swap1\n      pop\n        /* \"#utility.yul\":936:1038   */\n      swap2\n      swap1\n      pop\n      jump\t// out\n        /* \"#utility.yul\":1044:1224   */\n    tag_49:\n        /* \"#utility.yul\":1092:1169   */\n      0x4e487b7100000000000000000000000000000000000000000000000000000000\n        /* \"#utility.yul\":1089:1090   */\n      0x00\n        /* \"#utility.yul\":1082:1170   */\n      mstore\n        /* \"#utility.yul\":1189:1193   */\n      0x41\n        /* \"#utility.yul\":1186:1187   */\n      0x04\n        /* \"#utility.yul\":1179:1194   */\n      mstore\n        /* \"#utility.yul\":1213:1217   */\n      0x24\n        /* \"#utility.yul\":1210:1211   */\n      0x00\n        /* \"#utility.yul\":1203:1218   */\n      revert\n        /* \"#utility.yul\":1230:1511   */\n    tag_50:\n        /* \"#utility.yul\":1313:1340   */\n      tag_94\n        /* \"#utility.yul\":1335:1339   */\n      dup3\n        /* \"#utility.yul\":1313:1340   */\n      tag_48\n      jump\t// in\n    tag_94:\n        /* \"#utility.yul\":1305:1311   */\n      dup2\n        /* \"#utility.yul\":1301:1341   */\n      add\n        /* \"#utility.yul\":1443:1449   */\n      dup2\n        /* \"#utility.yul\":1431:1441   */\n      dup2\n        /* \"#utility.yul\":1428:1450   */\n      lt\n        /* \"#utility.yul\":1407:1425   */\n      0xffffffffffffffff\n        /* \"#utility.yul\":1395:1405   */\n      dup3\n        /* \"#utility.yul\":1392:1426   */\n      gt\n        /* \"#utility.yul\":1389:1451   */\n      or\n        /* \"#utility.yul\":1386:1474   */\n      iszero\n      tag_95\n      jumpi\n        /* \"#utility.yul\":1454:1472   */\n      tag_96\n      tag_49\n      jump\t// in\n    tag_96:\n        /* \"#utility.yul\":1386:1474   */\n    tag_95:\n        /* \"#utility.yul\":1494:1504   */\n      dup1\n        /* \"#utility.yul\":1490:1492   */\n      0x40\n        /* \"#utility.yul\":1483:1505   */\n      mstore\n        /* \"#utility.yul\":1273:1511   */\n      pop\n        /* \"#utility.yul\":1230:1511   */\n      pop\n      pop\n      jump\t// out\n        /* \"#utility.yul\":1517:1646   */\n    tag_51:\n        /* \"#utility.yul\":1551:1557   */\n      0x00\n        /* \"#utility.yul\":1578:1598   */\n      tag_98\n      tag_40\n      jump\t// in\n    tag_98:\n        /* \"#utility.yul\":1568:1598   */\n      swap1\n      pop\n        /* \"#utility.yul\":1607:1640   */\n      tag_99\n        /* \"#utility.yul\":1635:1639   */\n      dup3\n        /* \"#utility.yul\":1627:1633   */\n      dup3\n        /* \"#utility.yul\":1607:1640   */\n      tag_50\n      jump\t// in\n    tag_99:\n        /* \"#utility.yul\":1517:1646   */\n      swap2\n      swap1\n      pop\n      jump\t// out\n        /* \"#utility.yul\":1652:1960   */\n    tag_52:\n        /* \"#utility.yul\":1714:1718   */\n      0x00\n        /* \"#utility.yul\":1804:1822   */\n      0xffffffffffffffff\n        /* \"#utility.yul\":1796:1802   */\n      dup3\n        /* \"#utility.yul\":1793:1823   */\n      gt\n        /* \"#utility.yul\":1790:1846   */\n      iszero\n      tag_101\n      jumpi\n        /* \"#utility.yul\":1826:1844   */\n      tag_102\n      tag_49\n      jump\t// in\n    tag_102:\n        /* \"#utility.yul\":1790:1846   */\n    tag_101:\n        /* \"#utility.yul\":1864:1893   */\n      tag_103\n        /* \"#utility.yul\":1886:1892   */\n      dup3\n        /* \"#utility.yul\":1864:1893   */\n      tag_48\n      jump\t// in\n    tag_103:\n        /* \"#utility.yul\":1856:1893   */\n      swap1\n      pop\n        /* \"#utility.yul\":1948:1952   */\n      0x20\n        /* \"#utility.yul\":1942:1946   */\n      dup2\n        /* \"#utility.yul\":1938:1953   */\n      add\n        /* \"#utility.yul\":1930:1953   */\n      swap1\n      pop\n        /* \"#utility.yul\":1652:1960   */\n      swap2\n      swap1\n      pop\n      jump\t// out\n        /* \"#utility.yul\":1966:2114   */\n    tag_53:\n        /* \"#utility.yul\":2064:2070   */\n      dup3\n        /* \"#utility.yul\":2059:2062   */\n      dup2\n        /* \"#utility.yul\":2054:2057   */\n      dup4\n        /* \"#utility.yul\":2041:2071   */\n      calldatacopy\n        /* \"#utility.yul\":2105:2106   */\n      0x00\n        /* \"#utility.yul\":2096:2102   */\n      dup4\n        /* \"#utility.yul\":2091:2094   */\n      dup4\n        /* \"#utility.yul\":2087:2103   */\n      add\n        /* \"#utility.yul\":2080:2107   */\n      mstore\n        /* \"#utility.yul\":1966:2114   */\n      pop\n      pop\n      pop\n      jump\t// out\n        /* \"#utility.yul\":2120:2545   */\n    tag_54:\n        /* \"#utility.yul\":2198:2203   */\n      0x00\n        /* \"#utility.yul\":2223:2289   */\n      tag_106\n        /* \"#utility.yul\":2239:2288   */\n      tag_107\n        /* \"#utility.yul\":2281:2287   */\n      dup5\n        /* \"#utility.yul\":2239:2288   */\n      tag_52\n      jump\t// in\n    tag_107:\n        /* \"#utility.yul\":2223:2289   */\n      tag_51\n      jump\t// in\n    tag_106:\n        /* \"#utility.yul\":2214:2289   */\n      swap1\n      pop\n        /* \"#utility.yul\":2312:2318   */\n      dup3\n        /* \"#utility.yul\":2305:2310   */\n      dup2\n        /* \"#utility.yul\":2298:2319   */\n      mstore\n        /* \"#utility.yul\":2350:2354   */\n      0x20\n        /* \"#utility.yul\":2343:2348   */\n      dup2\n        /* \"#utility.yul\":2339:2355   */\n      add\n        /* \"#utility.yul\":2388:2391   */\n      dup5\n        /* \"#utility.yul\":2379:2385   */\n      dup5\n        /* \"#utility.yul\":2374:2377   */\n      dup5\n        /* \"#utility.yul\":2370:2386   */\n      add\n        /* \"#utility.yul\":2367:2392   */\n      gt\n        /* \"#utility.yul\":2364:2476   */\n      iszero\n      tag_108\n      jumpi\n        /* \"#utility.yul\":2395:2474   */\n      tag_109\n      tag_47\n      jump\t// in\n    tag_109:\n        /* \"#utility.yul\":2364:2476   */\n    tag_108:\n        /* \"#utility.yul\":2485:2539   */\n      tag_110\n        /* \"#utility.yul\":2532:2538   */\n      dup5\n        /* \"#utility.yul\":2527:2530   */\n      dup3\n        /* \"#utility.yul\":2522:2525   */\n      dup6\n        /* \"#utility.yul\":2485:2539   */\n      tag_53\n      jump\t// in\n    tag_110:\n        /* \"#utility.yul\":2204:2545   */\n      pop\n        /* \"#utility.yul\":2120:2545   */\n      swap4\n      swap3\n      pop\n      pop\n      pop\n      jump\t// out\n        /* \"#utility.yul\":2565:2905   */\n    tag_55:\n        /* \"#utility.yul\":2621:2626   */\n      0x00\n        /* \"#utility.yul\":2670:2673   */\n      dup3\n        /* \"#utility.yul\":2663:2667   */\n      0x1f\n        /* \"#utility.yul\":2655:2661   */\n      dup4\n        /* \"#utility.yul\":2651:2668   */\n      add\n        /* \"#utility.yul\":2647:2674   */\n      slt\n        /* \"#utility.yul\":2637:2759   */\n      tag_112\n      jumpi\n        /* \"#utility.yul\":2678:2757   */\n      tag_113\n      tag_46\n      jump\t// in\n    tag_113:\n        /* \"#utility.yul\":2637:2759   */\n    tag_112:\n        /* \"#utility.yul\":2795:2801   */\n      dup2\n        /* \"#utility.yul\":2782:2802   */\n      calldataload\n        /* \"#utility.yul\":2820:2899   */\n      tag_114\n        /* \"#utility.yul\":2895:2898   */\n      dup5\n        /* \"#utility.yul\":2887:2893   */\n      dup3\n        /* \"#utility.yul\":2880:2884   */\n      0x20\n        /* \"#utility.yul\":2872:2878   */\n      dup7\n        /* \"#utility.yul\":2868:2885   */\n      add\n        /* \"#utility.yul\":2820:2899   */\n      tag_54\n      jump\t// in\n    tag_114:\n        /* \"#utility.yul\":2811:2899   */\n      swap2\n      pop\n        /* \"#utility.yul\":2627:2905   */\n      pop\n        /* \"#utility.yul\":2565:2905   */\n      swap3\n      swap2\n      pop\n      pop\n      jump\t// out\n        /* \"#utility.yul\":2911:4508   */\n    tag_7:\n        /* \"#utility.yul\":3045:3051   */\n      0x00\n        /* \"#utility.yul\":3053:3059   */\n      0x00\n        /* \"#utility.yul\":3061:3067   */\n      0x00\n        /* \"#utility.yul\":3069:3075   */\n      0x00\n        /* \"#utility.yul\":3077:3083   */\n      0x00\n        /* \"#utility.yul\":3085:3091   */\n      0x00\n        /* \"#utility.yul\":3134:3137   */\n      0xc0\n        /* \"#utility.yul\":3122:3131   */\n      dup8\n        /* \"#utility.yul\":3113:3120   */\n      dup10\n        /* \"#utility.yul\":3109:3132   */\n      sub\n        /* \"#utility.yul\":3105:3138   */\n      slt\n        /* \"#utility.yul\":3102:3222   */\n      iszero\n      tag_116\n      jumpi\n        /* \"#utility.yul\":3141:3220   */\n      tag_117\n      tag_41\n      jump\t// in\n    tag_117:\n        /* \"#utility.yul\":3102:3222   */\n    tag_116:\n        /* \"#utility.yul\":3261:3262   */\n      0x00\n        /* \"#utility.yul\":3286:3339   */\n      tag_118\n        /* \"#utility.yul\":3331:3338   */\n      dup10\n        /* \"#utility.yul\":3322:3328   */\n      dup3\n        /* \"#utility.yul\":3311:3320   */\n      dup11\n        /* \"#utility.yul\":3307:3329   */\n      add\n        /* \"#utility.yul\":3286:3339   */\n      tag_45\n      jump\t// in\n    tag_118:\n        /* \"#utility.yul\":3276:3339   */\n      swap7\n      pop\n        /* \"#utility.yul\":3232:3349   */\n      pop\n        /* \"#utility.yul\":3416:3418   */\n      0x20\n        /* \"#utility.yul\":3405:3414   */\n      dup8\n        /* \"#utility.yul\":3401:3419   */\n      add\n        /* \"#utility.yul\":3388:3420   */\n      calldataload\n        /* \"#utility.yul\":3447:3465   */\n      0xffffffffffffffff\n        /* \"#utility.yul\":3439:3445   */\n      dup2\n        /* \"#utility.yul\":3436:3466   */\n      gt\n        /* \"#utility.yul\":3433:3550   */\n      iszero\n      tag_119\n      jumpi\n        /* \"#utility.yul\":3469:3548   */\n      tag_120\n      tag_42\n      jump\t// in\n    tag_120:\n        /* \"#utility.yul\":3433:3550   */\n    tag_119:\n        /* \"#utility.yul\":3574:3637   */\n      tag_121\n        /* \"#utility.yul\":3629:3636   */\n      dup10\n        /* \"#utility.yul\":3620:3626   */\n      dup3\n        /* \"#utility.yul\":3609:3618   */\n      dup11\n        /* \"#utility.yul\":3605:3627   */\n      add\n        /* \"#utility.yul\":3574:3637   */\n      tag_55\n      jump\t// in\n    tag_121:\n        /* \"#utility.yul\":3564:3637   */\n      swap6\n      pop\n        /* \"#utility.yul\":3359:3647   */\n      pop\n        /* \"#utility.yul\":3714:3716   */\n      0x40\n        /* \"#utility.yul\":3703:3712   */\n      dup8\n        /* \"#utility.yul\":3699:3717   */\n      add\n        /* \"#utility.yul\":3686:3718   */\n      calldataload\n        /* \"#utility.yul\":3745:3763   */\n      0xffffffffffffffff\n        /* \"#utility.yul\":3737:3743   */\n      dup2\n        /* \"#utility.yul\":3734:3764   */\n      gt\n        /* \"#utility.yul\":3731:3848   */\n      iszero\n      tag_122\n      jumpi\n        /* \"#utility.yul\":3767:3846   */\n      tag_123\n      tag_42\n      jump\t// in\n    tag_123:\n        /* \"#utility.yul\":3731:3848   */\n    tag_122:\n        /* \"#utility.yul\":3872:3935   */\n      tag_124\n        /* \"#utility.yul\":3927:3934   */\n      dup10\n        /* \"#utility.yul\":3918:3924   */\n      dup3\n        /* \"#utility.yul\":3907:3916   */\n      dup11\n        /* \"#utility.yul\":3903:3925   */\n      add\n        /* \"#utility.yul\":3872:3935   */\n      tag_55\n      jump\t// in\n    tag_124:\n        /* \"#utility.yul\":3862:3935   */\n      swap5\n      pop\n        /* \"#utility.yul\":3657:3945   */\n      pop\n        /* \"#utility.yul\":4012:4014   */\n      0x60\n        /* \"#utility.yul\":4001:4010   */\n      dup8\n        /* \"#utility.yul\":3997:4015   */\n      add\n        /* \"#utility.yul\":3984:4016   */\n      calldataload\n        /* \"#utility.yul\":4043:4061   */\n      0xffffffffffffffff\n        /* \"#utility.yul\":4035:4041   */\n      dup2\n        /* \"#utility.yul\":4032:4062   */\n      gt\n        /* \"#utility.yul\":4029:4146   */\n      iszero\n      tag_125\n      jumpi\n        /* \"#utility.yul\":4065:4144   */\n      tag_126\n      tag_42\n      jump\t// in\n    tag_126:\n        /* \"#utility.yul\":4029:4146   */\n    tag_125:\n        /* \"#utility.yul\":4170:4233   */\n      tag_127\n        /* \"#utility.yul\":4225:4232   */\n      dup10\n        /* \"#utility.yul\":4216:4222   */\n      dup3\n        /* \"#utility.yul\":4205:4214   */\n      dup11\n        /* \"#utility.yul\":4201:4223   */\n      add\n        /* \"#utility.yul\":4170:4233   */\n      tag_55\n      jump\t// in\n    tag_127:\n        /* \"#utility.yul\":4160:4233   */\n      swap4\n      pop\n        /* \"#utility.yul\":3955:4243   */\n      pop\n        /* \"#utility.yul\":4282:4285   */\n      0x80\n        /* \"#utility.yul\":4309:4362   */\n      tag_128\n        /* \"#utility.yul\":4354:4361   */\n      dup10\n        /* \"#utility.yul\":4345:4351   */\n      dup3\n        /* \"#utility.yul\":4334:4343   */\n      dup11\n        /* \"#utility.yul\":4330:4352   */\n      add\n        /* \"#utility.yul\":4309:4362   */\n      tag_45\n      jump\t// in\n    tag_128:\n        /* \"#utility.yul\":4299:4362   */\n      swap3\n      pop\n        /* \"#utility.yul\":4253:4372   */\n      pop\n        /* \"#utility.yul\":4411:4414   */\n      0xa0\n        /* \"#utility.yul\":4438:4491   */\n      tag_129\n        /* \"#utility.yul\":4483:4490   */\n      dup10\n        /* \"#utility.yul\":4474:4480   */\n      dup3\n        /* \"#utility.yul\":4463:4472   */\n      dup11\n        /* \"#utility.yul\":4459:4481   */\n      add\n        /* \"#utility.yul\":4438:4491   */\n      tag_45\n      jump\t// in\n    tag_129:\n        /* \"#utility.yul\":4428:4491   */\n      swap2\n      pop\n        /* \"#utility.yul\":4382:4501   */\n      pop\n        /* \"#utility.yul\":2911:4508   */\n      swap3\n      swap6\n      pop\n      swap3\n      swap6\n      pop\n      swap3\n      swap6\n      jump\t// out\n        /* \"#utility.yul\":4514:4843   */\n    tag_11:\n        /* \"#utility.yul\":4573:4579   */\n      0x00\n        /* \"#utility.yul\":4622:4624   */\n      0x20\n        /* \"#utility.yul\":4610:4619   */\n      dup3\n        /* \"#utility.yul\":4601:4608   */\n      dup5\n        /* \"#utility.yul\":4597:4620   */\n      sub\n        /* \"#utility.yul\":4593:4625   */\n      slt\n        /* \"#utility.yul\":4590:4709   */\n      iszero\n      tag_131\n      jumpi\n        /* \"#utility.yul\":4628:4707   */\n      tag_132\n      tag_41\n      jump\t// in\n    tag_132:\n        /* \"#utility.yul\":4590:4709   */\n    tag_131:\n        /* \"#utility.yul\":4748:4749   */\n      0x00\n        /* \"#utility.yul\":4773:4826   */\n      tag_133\n        /* \"#utility.yul\":4818:4825   */\n      dup5\n        /* \"#utility.yul\":4809:4815   */\n      dup3\n        /* \"#utility.yul\":4798:4807   */\n      dup6\n        /* \"#utility.yul\":4794:4816   */\n      add\n        /* \"#utility.yul\":4773:4826   */\n      tag_45\n      jump\t// in\n    tag_133:\n        /* \"#utility.yul\":4763:4826   */\n      swap2\n      pop\n        /* \"#utility.yul\":4719:4836   */\n      pop\n        /* \"#utility.yul\":4514:4843   */\n      swap3\n      swap2\n      pop\n      pop\n      jump\t// out\n        /* \"#utility.yul\":4849:4948   */\n    tag_56:\n        /* \"#utility.yul\":4901:4907   */\n      0x00\n        /* \"#utility.yul\":4935:4940   */\n      dup2\n        /* \"#utility.yul\":4929:4941   */\n      mload\n        /* \"#utility.yul\":4919:4941   */\n      swap1\n      pop\n        /* \"#utility.yul\":4849:4948   */\n      swap2\n      swap1\n      pop\n      jump\t// out\n        /* \"#utility.yul\":4954:5123   */\n    tag_57:\n        /* \"#utility.yul\":5038:5049   */\n      0x00\n        /* \"#utility.yul\":5072:5078   */\n      dup3\n        /* \"#utility.yul\":5067:5070   */\n      dup3\n        /* \"#utility.yul\":5060:5079   */\n      mstore\n        /* \"#utility.yul\":5112:5116   */\n      0x20\n        /* \"#utility.yul\":5107:5110   */\n      dup3\n        /* \"#utility.yul\":5103:5117   */\n      add\n        /* \"#utility.yul\":5088:5117   */\n      swap1\n      pop\n        /* \"#utility.yul\":4954:5123   */\n      swap3\n      swap2\n      pop\n      pop\n      jump\t// out\n        /* \"#utility.yul\":5129:5268   */\n    tag_58:\n        /* \"#utility.yul\":5218:5224   */\n      dup3\n        /* \"#utility.yul\":5213:5216   */\n      dup2\n        /* \"#utility.yul\":5208:5211   */\n      dup4\n        /* \"#utility.yul\":5202:5225   */\n      mcopy\n        /* \"#utility.yul\":5259:5260   */\n      0x00\n        /* \"#utility.yul\":5250:5256   */\n      dup4\n        /* \"#utility.yul\":5245:5248   */\n      dup4\n        /* \"#utility.yul\":5241:5257   */\n      add\n        /* \"#utility.yul\":5234:5261   */\n      mstore\n        /* \"#utility.yul\":5129:5268   */\n      pop\n      pop\n      pop\n      jump\t// out\n        /* \"#utility.yul\":5274:5651   */\n    tag_59:\n        /* \"#utility.yul\":5362:5365   */\n      0x00\n        /* \"#utility.yul\":5390:5429   */\n      tag_138\n        /* \"#utility.yul\":5423:5428   */\n      dup3\n        /* \"#utility.yul\":5390:5429   */\n      tag_56\n      jump\t// in\n    tag_138:\n        /* \"#utility.yul\":5445:5516   */\n      tag_139\n        /* \"#utility.yul\":5509:5515   */\n      dup2\n        /* \"#utility.yul\":5504:5507   */\n      dup6\n        /* \"#utility.yul\":5445:5516   */\n      tag_57\n      jump\t// in\n    tag_139:\n        /* \"#utility.yul\":5438:5516   */\n      swap4\n      pop\n        /* \"#utility.yul\":5525:5590   */\n      tag_140\n        /* \"#utility.yul\":5583:5589   */\n      dup2\n        /* \"#utility.yul\":5578:5581   */\n      dup6\n        /* \"#utility.yul\":5571:5575   */\n      0x20\n        /* \"#utility.yul\":5564:5569   */\n      dup7\n        /* \"#utility.yul\":5560:5576   */\n      add\n        /* \"#utility.yul\":5525:5590   */\n      tag_58\n      jump\t// in\n    tag_140:\n        /* \"#utility.yul\":5615:5644   */\n      tag_141\n        /* \"#utility.yul\":5637:5643   */\n      dup2\n        /* \"#utility.yul\":5615:5644   */\n      tag_48\n      jump\t// in\n    tag_141:\n        /* \"#utility.yul\":5610:5613   */\n      dup5\n        /* \"#utility.yul\":5606:5645   */\n      add\n        /* \"#utility.yul\":5599:5645   */\n      swap2\n      pop\n        /* \"#utility.yul\":5366:5651   */\n      pop\n        /* \"#utility.yul\":5274:5651   */\n      swap3\n      swap2\n      pop\n      pop\n      jump\t// out\n        /* \"#utility.yul\":5657:5775   */\n    tag_60:\n        /* \"#utility.yul\":5744:5768   */\n      tag_143\n        /* \"#utility.yul\":5762:5767   */\n      dup2\n        /* \"#utility.yul\":5744:5768   */\n      tag_43\n      jump\t// in\n    tag_143:\n        /* \"#utility.yul\":5739:5742   */\n      dup3\n        /* \"#utility.yul\":5732:5769   */\n      mstore\n        /* \"#utility.yul\":5657:5775   */\n      pop\n      pop\n      jump\t// out\n        /* \"#utility.yul\":5781:6718   */\n    tag_14:\n        /* \"#utility.yul\":6046:6050   */\n      0x00\n        /* \"#utility.yul\":6084:6087   */\n      0xa0\n        /* \"#utility.yul\":6073:6082   */\n      dup3\n        /* \"#utility.yul\":6069:6088   */\n      add\n        /* \"#utility.yul\":6061:6088   */\n      swap1\n      pop\n        /* \"#utility.yul\":6134:6143   */\n      dup2\n        /* \"#utility.yul\":6128:6132   */\n      dup2\n        /* \"#utility.yul\":6124:6144   */\n      sub\n        /* \"#utility.yul\":6120:6121   */\n      0x00\n        /* \"#utility.yul\":6109:6118   */\n      dup4\n        /* \"#utility.yul\":6105:6122   */\n      add\n        /* \"#utility.yul\":6098:6145   */\n      mstore\n        /* \"#utility.yul\":6162:6240   */\n      tag_145\n        /* \"#utility.yul\":6235:6239   */\n      dup2\n        /* \"#utility.yul\":6226:6232   */\n      dup9\n        /* \"#utility.yul\":6162:6240   */\n      tag_59\n      jump\t// in\n    tag_145:\n        /* \"#utility.yul\":6154:6240   */\n      swap1\n      pop\n        /* \"#utility.yul\":6287:6296   */\n      dup2\n        /* \"#utility.yul\":6281:6285   */\n      dup2\n        /* \"#utility.yul\":6277:6297   */\n      sub\n        /* \"#utility.yul\":6272:6274   */\n      0x20\n        /* \"#utility.yul\":6261:6270   */\n      dup4\n        /* \"#utility.yul\":6257:6275   */\n      add\n        /* \"#utility.yul\":6250:6298   */\n      mstore\n        /* \"#utility.yul\":6315:6393   */\n      tag_146\n        /* \"#utility.yul\":6388:6392   */\n      dup2\n        /* \"#utility.yul\":6379:6385   */\n      dup8\n        /* \"#utility.yul\":6315:6393   */\n      tag_59\n      jump\t// in\n    tag_146:\n        /* \"#utility.yul\":6307:6393   */\n      swap1\n      pop\n        /* \"#utility.yul\":6440:6449   */\n      dup2\n        /* \"#utility.yul\":6434:6438   */\n      dup2\n        /* \"#utility.yul\":6430:6450   */\n      sub\n        /* \"#utility.yul\":6425:6427   */\n      0x40\n        /* \"#utility.yul\":6414:6423   */\n      dup4\n        /* \"#utility.yul\":6410:6428   */\n      add\n        /* \"#utility.yul\":6403:6451   */\n      mstore\n        /* \"#utility.yul\":6468:6546   */\n      tag_147\n        /* \"#utility.yul\":6541:6545   */\n      dup2\n        /* \"#utility.yul\":6532:6538   */\n      dup7\n        /* \"#utility.yul\":6468:6546   */\n      tag_59\n      jump\t// in\n    tag_147:\n        /* \"#utility.yul\":6460:6546   */\n      swap1\n      pop\n        /* \"#utility.yul\":6556:6628   */\n      tag_148\n        /* \"#utility.yul\":6624:6626   */\n      0x60\n        /* \"#utility.yul\":6613:6622   */\n      dup4\n        /* \"#utility.yul\":6609:6627   */\n      add\n        /* \"#utility.yul\":6600:6606   */\n      dup6\n        /* \"#utility.yul\":6556:6628   */\n      tag_60\n      jump\t// in\n    tag_148:\n        /* \"#utility.yul\":6638:6711   */\n      tag_149\n        /* \"#utility.yul\":6706:6709   */\n      0x80\n        /* \"#utility.yul\":6695:6704   */\n      dup4\n        /* \"#utility.yul\":6691:6710   */\n      add\n        /* \"#utility.yul\":6682:6688   */\n      dup5\n        /* \"#utility.yul\":6638:6711   */\n      tag_60\n      jump\t// in\n    tag_149:\n        /* \"#utility.yul\":5781:6718   */\n      swap7\n      swap6\n      pop\n      pop\n      pop\n      pop\n      pop\n      pop\n      jump\t// out\n        /* \"#utility.yul\":6724:6892   */\n    tag_61:\n        /* \"#utility.yul\":6864:6884   */\n      0x556e617574686f72697365642061636365730000000000000000000000000000\n        /* \"#utility.yul\":6860:6861   */\n      0x00\n        /* \"#utility.yul\":6852:6858   */\n      dup3\n        /* \"#utility.yul\":6848:6862   */\n      add\n        /* \"#utility.yul\":6841:6885   */\n      mstore\n        /* \"#utility.yul\":6724:6892   */\n      pop\n      jump\t// out\n        /* \"#utility.yul\":6898:7264   */\n    tag_62:\n        /* \"#utility.yul\":7040:7043   */\n      0x00\n        /* \"#utility.yul\":7061:7128   */\n      tag_152\n        /* \"#utility.yul\":7125:7127   */\n      0x12\n        /* \"#utility.yul\":7120:7123   */\n      dup4\n        /* \"#utility.yul\":7061:7128   */\n      tag_57\n      jump\t// in\n    tag_152:\n        /* \"#utility.yul\":7054:7128   */\n      swap2\n      pop\n        /* \"#utility.yul\":7137:7230   */\n      tag_153\n        /* \"#utility.yul\":7226:7229   */\n      dup3\n        /* \"#utility.yul\":7137:7230   */\n      tag_61\n      jump\t// in\n    tag_153:\n        /* \"#utility.yul\":7255:7257   */\n      0x20\n        /* \"#utility.yul\":7250:7253   */\n      dup3\n        /* \"#utility.yul\":7246:7258   */\n      add\n        /* \"#utility.yul\":7239:7258   */\n      swap1\n      pop\n        /* \"#utility.yul\":6898:7264   */\n      swap2\n      swap1\n      pop\n      jump\t// out\n        /* \"#utility.yul\":7270:7689   */\n    tag_18:\n        /* \"#utility.yul\":7436:7440   */\n      0x00\n        /* \"#utility.yul\":7474:7476   */\n      0x20\n        /* \"#utility.yul\":7463:7472   */\n      dup3\n        /* \"#utility.yul\":7459:7477   */\n      add\n        /* \"#utility.yul\":7451:7477   */\n      swap1\n      pop\n        /* \"#utility.yul\":7523:7532   */\n      dup2\n        /* \"#utility.yul\":7517:7521   */\n      dup2\n        /* \"#utility.yul\":7513:7533   */\n      sub\n        /* \"#utility.yul\":7509:7510   */\n      0x00\n        /* \"#utility.yul\":7498:7507   */\n      dup4\n        /* \"#utility.yul\":7494:7511   */\n      add\n        /* \"#utility.yul\":7487:7534   */\n      mstore\n        /* \"#utility.yul\":7551:7682   */\n      tag_155\n        /* \"#utility.yul\":7677:7681   */\n      dup2\n        /* \"#utility.yul\":7551:7682   */\n      tag_62\n      jump\t// in\n    tag_155:\n        /* \"#utility.yul\":7543:7682   */\n      swap1\n      pop\n        /* \"#utility.yul\":7270:7689   */\n      swap2\n      swap1\n      pop\n      jump\t// out\n        /* \"#utility.yul\":7695:7875   */\n    tag_63:\n        /* \"#utility.yul\":7743:7820   */\n      0x4e487b7100000000000000000000000000000000000000000000000000000000\n        /* \"#utility.yul\":7740:7741   */\n      0x00\n        /* \"#utility.yul\":7733:7821   */\n      mstore\n        /* \"#utility.yul\":7840:7844   */\n      0x22\n        /* \"#utility.yul\":7837:7838   */\n      0x04\n        /* \"#utility.yul\":7830:7845   */\n      mstore\n        /* \"#utility.yul\":7864:7868   */\n      0x24\n        /* \"#utility.yul\":7861:7862   */\n      0x00\n        /* \"#utility.yul\":7854:7869   */\n      revert\n        /* \"#utility.yul\":7881:8201   */\n    tag_25:\n        /* \"#utility.yul\":7925:7931   */\n      0x00\n        /* \"#utility.yul\":7962:7963   */\n      0x02\n        /* \"#utility.yul\":7956:7960   */\n      dup3\n        /* \"#utility.yul\":7952:7964   */\n      div\n        /* \"#utility.yul\":7942:7964   */\n      swap1\n      pop\n        /* \"#utility.yul\":8009:8010   */\n      0x01\n        /* \"#utility.yul\":8003:8007   */\n      dup3\n        /* \"#utility.yul\":7999:8011   */\n      and\n        /* \"#utility.yul\":8030:8048   */\n      dup1\n        /* \"#utility.yul\":8020:8101   */\n      tag_158\n      jumpi\n        /* \"#utility.yul\":8086:8090   */\n      0x7f\n        /* \"#utility.yul\":8078:8084   */\n      dup3\n        /* \"#utility.yul\":8074:8091   */\n      and\n        /* \"#utility.yul\":8064:8091   */\n      swap2\n      pop\n        /* \"#utility.yul\":8020:8101   */\n    tag_158:\n        /* \"#utility.yul\":8148:8150   */\n      0x20\n        /* \"#utility.yul\":8140:8146   */\n      dup3\n        /* \"#utility.yul\":8137:8151   */\n      lt\n        /* \"#utility.yul\":8117:8135   */\n      dup2\n        /* \"#utility.yul\":8114:8152   */\n      sub\n        /* \"#utility.yul\":8111:8195   */\n      tag_159\n      jumpi\n        /* \"#utility.yul\":8167:8185   */\n      tag_160\n      tag_63\n      jump\t// in\n    tag_160:\n        /* \"#utility.yul\":8111:8195   */\n    tag_159:\n        /* \"#utility.yul\":7932:8201   */\n      pop\n        /* \"#utility.yul\":7881:8201   */\n      swap2\n      swap1\n      pop\n      jump\t// out\n        /* \"#utility.yul\":8207:8348   */\n    tag_64:\n        /* \"#utility.yul\":8256:8260   */\n      0x00\n        /* \"#utility.yul\":8279:8282   */\n      dup2\n        /* \"#utility.yul\":8271:8282   */\n      swap1\n      pop\n        /* \"#utility.yul\":8302:8305   */\n      dup2\n        /* \"#utility.yul\":8299:8300   */\n      0x00\n        /* \"#utility.yul\":8292:8306   */\n      mstore\n        /* \"#utility.yul\":8336:8340   */\n      0x20\n        /* \"#utility.yul\":8333:8334   */\n      0x00\n        /* \"#utility.yul\":8323:8341   */\n      keccak256\n        /* \"#utility.yul\":8315:8341   */\n      swap1\n      pop\n        /* \"#utility.yul\":8207:8348   */\n      swap2\n      swap1\n      pop\n      jump\t// out\n        /* \"#utility.yul\":8354:8447   */\n    tag_65:\n        /* \"#utility.yul\":8391:8397   */\n      0x00\n        /* \"#utility.yul\":8438:8440   */\n      0x20\n        /* \"#utility.yul\":8433:8435   */\n      0x1f\n        /* \"#utility.yul\":8426:8431   */\n      dup4\n        /* \"#utility.yul\":8422:8436   */\n      add\n        /* \"#utility.yul\":8418:8441   */\n      div\n        /* \"#utility.yul\":8408:8441   */\n      swap1\n      pop\n        /* \"#utility.yul\":8354:8447   */\n      swap2\n      swap1\n      pop\n      jump\t// out\n        /* \"#utility.yul\":8453:8560   */\n    tag_66:\n        /* \"#utility.yul\":8497:8505   */\n      0x00\n        /* \"#utility.yul\":8547:8552   */\n      dup3\n        /* \"#utility.yul\":8541:8545   */\n      dup3\n        /* \"#utility.yul\":8537:8553   */\n      shl\n        /* \"#utility.yul\":8516:8553   */\n      swap1\n      pop\n        /* \"#utility.yul\":8453:8560   */\n      swap3\n      swap2\n      pop\n      pop\n      jump\t// out\n        /* \"#utility.yul\":8566:8959   */\n    tag_67:\n        /* \"#utility.yul\":8635:8641   */\n      0x00\n        /* \"#utility.yul\":8685:8686   */\n      0x08\n        /* \"#utility.yul\":8673:8683   */\n      dup4\n        /* \"#utility.yul\":8669:8687   */\n      mul\n        /* \"#utility.yul\":8708:8805   */\n      tag_165\n        /* \"#utility.yul\":8738:8804   */\n      0xffffffffffffffffffffffffffffffffffffffffffffffffffffffffffffffff\n        /* \"#utility.yul\":8727:8736   */\n      dup3\n        /* \"#utility.yul\":8708:8805   */\n      tag_66\n      jump\t// in\n    tag_165:\n        /* \"#utility.yul\":8826:8865   */\n      tag_166\n        /* \"#utility.yul\":8856:8864   */\n      dup7\n        /* \"#utility.yul\":8845:8854   */\n      dup4\n        /* \"#utility.yul\":8826:8865   */\n      tag_66\n      jump\t// in\n    tag_166:\n        /* \"#utility.yul\":8814:8865   */\n      swap6\n      pop\n        /* \"#utility.yul\":8898:8902   */\n      dup1\n        /* \"#utility.yul\":8894:8903   */\n      not\n        /* \"#utility.yul\":8887:8892   */\n      dup5\n        /* \"#utility.yul\":8883:8904   */\n      and\n        /* \"#utility.yul\":8874:8904   */\n      swap4\n      pop\n        /* \"#utility.yul\":8947:8951   */\n      dup1\n        /* \"#utility.yul\":8937:8945   */\n      dup7\n        /* \"#utility.yul\":8933:8952   */\n      and\n        /* \"#utility.yul\":8926:8931   */\n      dup5\n        /* \"#utility.yul\":8923:8953   */\n      or\n        /* \"#utility.yul\":8913:8953   */\n      swap3\n      pop\n        /* \"#utility.yul\":8642:8959   */\n      pop\n      pop\n        /* \"#utility.yul\":8566:8959   */\n      swap4\n      swap3\n      pop\n      pop\n      pop\n      jump\t// out\n        /* \"#utility.yul\":8965:9025   */\n    tag_68:\n        /* \"#utility.yul\":8993:8996   */\n      0x00\n        /* \"#utility.yul\":9014:9019   */\n      dup2\n        /* \"#utility.yul\":9007:9019   */\n      swap1\n      pop\n        /* \"#utility.yul\":8965:9025   */\n      swap2\n      swap1\n      pop\n      jump\t// out\n        /* \"#utility.yul\":9031:9173   */\n    tag_69:\n        /* \"#utility.yul\":9081:9090   */\n      0x00\n        /* \"#utility.yul\":9114:9167   */\n      tag_169\n        /* \"#utility.yul\":9132:9166   */\n      tag_170\n        /* \"#utility.yul\":9141:9165   */\n      tag_171\n        /* \"#utility.yul\":9159:9164   */\n      dup5\n        /* \"#utility.yul\":9141:9165   */\n      tag_43\n      jump\t// in\n    tag_171:\n        /* \"#utility.yul\":9132:9166   */\n      tag_68\n      jump\t// in\n    tag_170:\n        /* \"#utility.yul\":9114:9167   */\n      tag_43\n      jump\t// in\n    tag_169:\n        /* \"#utility.yul\":9101:9167   */\n      swap1\n      pop\n        /* \"#utility.yul\":9031:9173   */\n      swap2\n      swap1\n      pop\n      jump\t// out\n        /* \"#utility.yul\":9179:9254   */\n    tag_70:\n        /* \"#utility.yul\":9222:9225   */\n      0x00\n        /* \"#utility.yul\":9243:9248   */\n      dup2\n        /* \"#utility.yul\":9236:9248   */\n      swap1\n      pop\n        /* \"#utility.yul\":9179:9254   */\n      swap2\n      swap1\n      pop\n      jump\t// out\n        /* \"#utility.yul\":9260:9529   */\n    tag_71:\n        /* \"#utility.yul\":9370:9409   */\n      tag_174\n        /* \"#utility.yul\":9401:9408   */\n      dup4\n        /* \"#utility.yul\":9370:9409   */\n      tag_69\n      jump\t// in\n    tag_174:\n        /* \"#utility.yul\":9431:9522   */\n      tag_175\n        /* \"#utility.yul\":9480:9521   */\n      tag_176\n        /* \"#utility.yul\":9504:9520   */\n      dup3\n        /* \"#utility.yul\":9480:9521   */\n      tag_70\n      jump\t// in\n    tag_176:\n        /* \"#utility.yul\":9472:9478   */\n      dup5\n        /* \"#utility.yul\":9465:9469   */\n      dup5\n        /* \"#utility.yul\":9459:9470   */\n      sload\n        /* \"#utility.yul\":9431:9522   */\n      tag_67\n      jump\t// in\n    tag_175:\n        /* \"#utility.yul\":9425:9429   */\n      dup3\n        /* \"#utility.yul\":9418:9523   */\n      sstore\n        /* \"#utility.yul\":9336:9529   */\n      pop\n        /* \"#utility.yul\":9260:9529   */\n      pop\n      pop\n      pop\n      jump\t// out\n        /* \"#utility.yul\":9535:9608   */\n    tag_72:\n        /* \"#utility.yul\":9580:9583   */\n      0x00\n        /* \"#utility.yul\":9601:9602   */\n      0x00\n        /* \"#utility.yul\":9594:9602   */\n      swap1\n      pop\n        /* \"#utility.yul\":9535:9608   */\n      swap1\n      jump\t// out\n        /* \"#utility.yul\":9614:9803   */\n    tag_73:\n        /* \"#utility.yul\":9691:9723   */\n      tag_179\n      tag_72\n      jump\t// in\n    tag_179:\n        /* \"#utility.yul\":9732:9797   */\n      tag_180\n        /* \"#utility.yul\":9790:9796   */\n      dup2\n        /* \"#utility.yul\":9782:9788   */\n      dup5\n        /* \"#utility.yul\":9776:9780   */\n      dup5\n        /* \"#utility.yul\":9732:9797   */\n      tag_71\n      jump\t// in\n    tag_180:\n        /* \"#utility.yul\":9667:9803   */\n      pop\n        /* \"#utility.yul\":9614:9803   */\n      pop\n      pop\n      jump\t// out\n        /* \"#utility.yul\":9809:9995   */\n    tag_74:\n        /* \"#utility.yul\":9869:9989   */\n    tag_182:\n        /* \"#utility.yul\":9886:9889   */\n      dup2\n        /* \"#utility.yul\":9879:9884   */\n      dup2\n        /* \"#utility.yul\":9876:9890   */\n      lt\n        /* \"#utility.yul\":9869:9989   */\n      iszero\n      tag_184\n      jumpi\n        /* \"#utility.yul\":9940:9979   */\n      tag_185\n        /* \"#utility.yul\":9977:9978   */\n      0x00\n        /* \"#utility.yul\":9970:9975   */\n      dup3\n        /* \"#utility.yul\":9940:9979   */\n      tag_73\n      jump\t// in\n    tag_185:\n        /* \"#utility.yul\":9913:9914   */\n      0x01\n        /* \"#utility.yul\":9906:9911   */\n      dup2\n        /* \"#utility.yul\":9902:9915   */\n      add\n        /* \"#utility.yul\":9893:9915   */\n      swap1\n      pop\n        /* \"#utility.yul\":9869:9989   */\n      jump(tag_182)\n    tag_184:\n        /* \"#utility.yul\":9809:9995   */\n      pop\n      pop\n      jump\t// out\n        /* \"#utility.yul\":10001:10544   */\n    tag_75:\n        /* \"#utility.yul\":10102:10104   */\n      0x1f\n        /* \"#utility.yul\":10097:10100   */\n      dup3\n        /* \"#utility.yul\":10094:10105   */\n      gt\n        /* \"#utility.yul\":10091:10537   */\n      iszero\n      tag_187\n      jumpi\n        /* \"#utility.yul\":10136:10174   */\n      tag_188\n        /* \"#utility.yul\":10168:10173   */\n      dup2\n        /* \"#utility.yul\":10136:10174   */\n      tag_64\n      jump\t// in\n    tag_188:\n        /* \"#utility.yul\":10220:10249   */\n      tag_189\n        /* \"#utility.yul\":10238:10248   */\n      dup5\n        /* \"#utility.yul\":10220:10249   */\n      tag_65\n      jump\t// in\n    tag_189:\n        /* \"#utility.yul\":10210:10218   */\n      dup2\n        /* \"#utility.yul\":10206:10250   */\n      add\n        /* \"#utility.yul\":10403:10405   */\n      0x20\n        /* \"#utility.yul\":10391:10401   */\n      dup6\n        /* \"#utility.yul\":10388:10406   */\n      lt\n        /* \"#utility.yul\":10385:10434   */\n      iszero\n      tag_190\n      jumpi\n        /* \"#utility.yul\":10424:10432   */\n      dup2\n        /* \"#utility.yul\":10409:10432   */\n      swap1\n      pop\n        /* \"#utility.yul\":10385:10434   */\n    tag_190:\n        /* \"#utility.yul\":10447:10527   */\n      tag_191\n        /* \"#utility.yul\":10503:10525   */\n      tag_192\n        /* \"#utility.yul\":10521:10524   */\n      dup6\n        /* \"#utility.yul\":10503:10525   */\n      tag_65\n      jump\t// in\n    tag_192:\n        /* \"#utility.yul\":10493:10501   */\n      dup4\n        /* \"#utility.yul\":10489:10526   */\n      add\n        /* \"#utility.yul\":10476:10487   */\n      dup3\n        /* \"#utility.yul\":10447:10527   */\n      tag_74\n      jump\t// in\n    tag_191:\n        /* \"#utility.yul\":10106:10537   */\n      pop\n      pop\n        /* \"#utility.yul\":10091:10537   */\n    tag_187:\n        /* \"#utility.yul\":10001:10544   */\n      pop\n      pop\n      pop\n      jump\t// out\n        /* \"#utility.yul\":10550:10667   */\n    tag_76:\n        /* \"#utility.yul\":10604:10612   */\n      0x00\n        /* \"#utility.yul\":10654:10659   */\n      dup3\n        /* \"#utility.yul\":10648:10652   */\n      dup3\n        /* \"#utility.yul\":10644:10660   */\n      shr\n        /* \"#utility.yul\":10623:10660   */\n      swap1\n      pop\n        /* \"#utility.yul\":10550:10667   */\n      swap3\n      swap2\n      pop\n      pop\n      jump\t// out\n        /* \"#utility.yul\":10673:10842   */\n    tag_77:\n        /* \"#utility.yul\":10717:10723   */\n      0x00\n        /* \"#utility.yul\":10750:10801   */\n      tag_195\n        /* \"#utility.yul\":10798:10799   */\n      0x00\n        /* \"#utility.yul\":10794:10800   */\n      not\n        /* \"#utility.yul\":10786:10791   */\n      dup5\n        /* \"#utility.yul\":10783:10784   */\n      0x08\n        /* \"#utility.yul\":10779:10792   */\n      mul\n        /* \"#utility.yul\":10750:10801   */\n      tag_76\n      jump\t// in\n    tag_195:\n        /* \"#utility.yul\":10746:10802   */\n      not\n        /* \"#utility.yul\":10831:10835   */\n      dup1\n        /* \"#utility.yul\":10825:10829   */\n      dup4\n        /* \"#utility.yul\":10821:10836   */\n      and\n        /* \"#utility.yul\":10811:10836   */\n      swap2\n      pop\n        /* \"#utility.yul\":10724:10842   */\n      pop\n        /* \"#utility.yul\":10673:10842   */\n      swap3\n      swap2\n      pop\n      pop\n      jump\t// out\n        /* \"#utility.yul\":10847:11142   */\n    tag_78:\n        /* \"#utility.yul\":10923:10927   */\n      0x00\n        /* \"#utility.yul\":11069:11098   */\n      tag_197\n        /* \"#utility.yul\":11094:11097   */\n      dup4\n        /* \"#utility.yul\":11088:11092   */\n      dup4\n        /* \"#utility.yul\":11069:11098   */\n      tag_77\n      jump\t// in\n    tag_197:\n        /* \"#utility.yul\":11061:11098   */\n      swap2\n      pop\n        /* \"#utility.yul\":11131:11134   */\n      dup3\n        /* \"#utility.yul\":11128:11129   */\n      0x02\n        /* \"#utility.yul\":11124:11135   */\n      mul\n        /* \"#utility.yul\":11118:11122   */\n      dup3\n        /* \"#utility.yul\":11115:11136   */\n      or\n        /* \"#utility.yul\":11107:11136   */\n      swap1\n      pop\n        /* \"#utility.yul\":10847:11142   */\n      swap3\n      swap2\n      pop\n      pop\n      jump\t// out\n        /* \"#utility.yul\":11147:12542   */\n    tag_21:\n        /* \"#utility.yul\":11264:11301   */\n      tag_199\n        /* \"#utility.yul\":11297:11300   */\n      dup3\n        /* \"#utility.yul\":11264:11301   */\n      tag_56\n      jump\t// in\n    tag_199:\n        /* \"#utility.yul\":11366:11384   */\n      0xffffffffffffffff\n        /* \"#utility.yul\":11358:11364   */\n      dup2\n        /* \"#utility.yul\":11355:11385   */\n      gt\n        /* \"#utility.yul\":11352:11408   */\n      iszero\n      tag_200\n      jumpi\n        /* \"#utility.yul\":11388:11406   */\n      tag_201\n      tag_49\n      jump\t// in\n    tag_201:\n        /* \"#utility.yul\":11352:11408   */\n    tag_200:\n        /* \"#utility.yul\":11432:11470   */\n      tag_202\n        /* \"#utility.yul\":11464:11468   */\n      dup3\n        /* \"#utility.yul\":11458:11469   */\n      sload\n        /* \"#utility.yul\":11432:11470   */\n      tag_25\n      jump\t// in\n    tag_202:\n        /* \"#utility.yul\":11517:11584   */\n      tag_203\n        /* \"#utility.yul\":11577:11583   */\n      dup3\n        /* \"#utility.yul\":11569:11575   */\n      dup3\n        /* \"#utility.yul\":11563:11567   */\n      dup6\n        /* \"#utility.yul\":11517:11584   */\n      tag_75\n      jump\t// in\n    tag_203:\n        /* \"#utility.yul\":11611:11612   */\n      0x00\n        /* \"#utility.yul\":11635:11639   */\n      0x20\n        /* \"#utility.yul\":11622:11639   */\n      swap1\n      pop\n        /* \"#utility.yul\":11667:11669   */\n      0x1f\n        /* \"#utility.yul\":11659:11665   */\n      dup4\n        /* \"#utility.yul\":11656:11670   */\n      gt\n        /* \"#utility.yul\":11684:11685   */\n      0x01\n        /* \"#utility.yul\":11679:12297   */\n      dup2\n      eq\n      tag_205\n      jumpi\n        /* \"#utility.yul\":12341:12342   */\n      0x00\n        /* \"#utility.yul\":12358:12364   */\n      dup5\n        /* \"#utility.yul\":12355:12432   */\n      iszero\n      tag_206\n      jumpi\n        /* \"#utility.yul\":12407:12416   */\n      dup3\n        /* \"#utility.yul\":12402:12405   */\n      dup8\n        /* \"#utility.yul\":12398:12417   */\n      add\n        /* \"#utility.yul\":12392:12418   */\n      mload\n        /* \"#utility.yul\":12383:12418   */\n      swap1\n      pop\n        /* \"#utility.yul\":12355:12432   */\n    tag_206:\n        /* \"#utility.yul\":12458:12525   */\n      tag_207\n        /* \"#utility.yul\":12518:12524   */\n      dup6\n        /* \"#utility.yul\":12511:12516   */\n      dup3\n        /* \"#utility.yul\":12458:12525   */\n      tag_78\n      jump\t// in\n    tag_207:\n        /* \"#utility.yul\":12452:12456   */\n      dup7\n        /* \"#utility.yul\":12445:12526   */\n      sstore\n        /* \"#utility.yul\":12314:12536   */\n      pop\n        /* \"#utility.yul\":11649:12536   */\n      jump(tag_204)\n        /* \"#utility.yul\":11679:12297   */\n    tag_205:\n        /* \"#utility.yul\":11731:11735   */\n      0x1f\n        /* \"#utility.yul\":11727:11736   */\n      not\n        /* \"#utility.yul\":11719:11725   */\n      dup5\n        /* \"#utility.yul\":11715:11737   */\n      and\n        /* \"#utility.yul\":11765:11802   */\n      tag_208\n        /* \"#utility.yul\":11797:11801   */\n      dup7\n        /* \"#utility.yul\":11765:11802   */\n      tag_64\n      jump\t// in\n    tag_208:\n        /* \"#utility.yul\":11824:11825   */\n      0x00\n        /* \"#utility.yul\":11838:12046   */\n    tag_209:\n        /* \"#utility.yul\":11852:11859   */\n      dup3\n        /* \"#utility.yul\":11849:11850   */\n      dup2\n        /* \"#utility.yul\":11846:11860   */\n      lt\n        /* \"#utility.yul\":11838:12046   */\n      iszero\n      tag_211\n      jumpi\n        /* \"#utility.yul\":11931:11940   */\n      dup5\n        /* \"#utility.yul\":11926:11929   */\n      dup10\n        /* \"#utility.yul\":11922:11941   */\n      add\n        /* \"#utility.yul\":11916:11942   */\n      mload\n        /* \"#utility.yul\":11908:11914   */\n      dup3\n        /* \"#utility.yul\":11901:11943   */\n      sstore\n        /* \"#utility.yul\":11982:11983   */\n      0x01\n        /* \"#utility.yul\":11974:11980   */\n      dup3\n        /* \"#utility.yul\":11970:11984   */\n      add\n        /* \"#utility.yul\":11960:11984   */\n      swap2\n      pop\n        /* \"#utility.yul\":12029:12031   */\n      0x20\n        /* \"#utility.yul\":12018:12027   */\n      dup6\n        /* \"#utility.yul\":12014:12032   */\n      add\n        /* \"#utility.yul\":12001:12032   */\n      swap5\n      pop\n        /* \"#utility.yul\":11875:11879   */\n      0x20\n        /* \"#utility.yul\":11872:11873   */\n      dup2\n        /* \"#utility.yul\":11868:11880   */\n      add\n        /* \"#utility.yul\":11863:11880   */\n      swap1\n      pop\n        /* \"#utility.yul\":11838:12046   */\n      jump(tag_209)\n    tag_211:\n        /* \"#utility.yul\":12074:12080   */\n      dup7\n        /* \"#utility.yul\":12065:12072   */\n      dup4\n        /* \"#utility.yul\":12062:12081   */\n      lt\n        /* \"#utility.yul\":12059:12238   */\n      iszero\n      tag_212\n      jumpi\n        /* \"#utility.yul\":12132:12141   */\n      dup5\n        /* \"#utility.yul\":12127:12130   */\n      dup10\n        /* \"#utility.yul\":12123:12142   */\n      add\n        /* \"#utility.yul\":12117:12143   */\n      mload\n        /* \"#utility.yul\":12175:12223   */\n      tag_213\n        /* \"#utility.yul\":12217:12221   */\n      0x1f\n        /* \"#utility.yul\":12209:12215   */\n      dup10\n        /* \"#utility.yul\":12205:12222   */\n      and\n        /* \"#utility.yul\":12194:12203   */\n      dup3\n        /* \"#utility.yul\":12175:12223   */\n      tag_77\n      jump\t// in\n    tag_213:\n        /* \"#utility.yul\":12167:12173   */\n      dup4\n        /* \"#utility.yul\":12160:12224   */\n      sstore\n        /* \"#utility.yul\":12082:12238   */\n      pop\n        /* \"#utility.yul\":12059:12238   */\n    tag_212:\n        /* \"#utility.yul\":12284:12285   */\n      0x01\n        /* \"#utility.yul\":12280:12281   */\n      0x02\n        /* \"#utility.yul\":12272:12278   */\n      dup9\n        /* \"#utility.yul\":12268:12282   */\n      mul\n        /* \"#utility.yul\":12264:12286   */\n      add\n        /* \"#utility.yul\":12258:12262   */\n      dup9\n        /* \"#utility.yul\":12251:12287   */\n      sstore\n        /* \"#utility.yul\":11686:12297   */\n      pop\n      pop\n      pop\n        /* \"#utility.yul\":11649:12536   */\n    tag_204:\n      pop\n        /* \"#utility.yul\":11239:12542   */\n      pop\n      pop\n      pop\n        /* \"#utility.yul\":11147:12542   */\n      pop\n      pop\n      jump\t// out\n\n    auxdata: 0xa26469706673582212206e779e67485cdb404aa55f1d3bdad29c6b1dafc375b66a32e94ca345ac94d54564736f6c634300081c0033\n}\n",
				"bytecode": {
					"linkReferences": {},
					"object": "6080604052348015600e575f5ffd5b50335f5f6101000a81548173ffffffffffffffffffffffffffffffffffffffff021916908373ffffffffffffffffffffffffffffffffffffffff160217905550610a388061005b5f395ff3fe608060405234801561000f575f5ffd5b5060043610610034575f3560e01c80634f58353714610038578063ecbe43eb14610054575b5f5ffd5b610052600480360381019061004d91906104f1565b610088565b005b61006e600480360381019061006991906105ce565b6101ad565b60405161007f959493929190610668565b60405180910390f35b5f5f9054906101000a900473ffffffffffffffffffffffffffffffffffffffff1673ffffffffffffffffffffffffffffffffffffffff163373ffffffffffffffffffffffffffffffffffffffff1614610116576040517f08c379a000000000000000000000000000000000000000000000000000000000815260040161010d90610718565b60405180910390fd5b6040518060a001604052808681526020018581526020018481526020018381526020018281525060015f8881526020019081526020015f205f820151815f0190816101619190610933565b5060208201518160010190816101779190610933565b50604082015181600201908161018d9190610933565b506060820151816003015560808201518160040155905050505050505050565b6001602052805f5260405f205f91509050805f0180546101cc90610763565b80601f01602080910402602001604051908101604052809291908181526020018280546101f890610763565b80156102435780601f1061021a57610100808354040283529160200191610243565b820191905f5260205f20905b81548152906001019060200180831161022657829003601f168201915b50505050509080600101805461025890610763565b80601f016020809104026020016040519081016040528092919081815260200182805461028490610763565b80156102cf5780601f106102a6576101008083540402835291602001916102cf565b820191905f5260205f20905b8154815290600101906020018083116102b257829003601f168201915b5050505050908060020180546102e490610763565b80601f016020809104026020016040519081016040528092919081815260200182805461031090610763565b801561035b5780601f106103325761010080835404028352916020019161035b565b820191905f5260205f20905b81548152906001019060200180831161033e57829003601f168201915b5050505050908060030154908060040154905085565b5f604051905090565b5f5ffd5b5f5ffd5b5f819050919050565b61039481610382565b811461039e575f5ffd5b50565b5f813590506103af8161038b565b92915050565b5f5ffd5b5f5ffd5b5f601f19601f8301169050919050565b7f4e487b71000000000000000000000000000000000000000000000000000000005f52604160045260245ffd5b610403826103bd565b810181811067ffffffffffffffff82111715610422576104216103cd565b5b80604052505050565b5f610434610371565b905061044082826103fa565b919050565b5f67ffffffffffffffff82111561045f5761045e6103cd565b5b610468826103bd565b9050602081019050919050565b828183375f83830152505050565b5f61049561049084610445565b61042b565b9050828152602081018484840111156104b1576104b06103b9565b5b6104bc848285610475565b509392505050565b5f82601f8301126104d8576104d76103b5565b5b81356104e8848260208601610483565b91505092915050565b5f5f5f5f5f5f60c0878903121561050b5761050a61037a565b5b5f61051889828a016103a1565b965050602087013567ffffffffffffffff8111156105395761053861037e565b5b61054589828a016104c4565b955050604087013567ffffffffffffffff8111156105665761056561037e565b5b61057289828a016104c4565b945050606087013567ffffffffffffffff8111156105935761059261037e565b5b61059f89828a016104c4565b93505060806105b089828a016103a1565b92505060a06105c189828a016103a1565b9150509295509295509295565b5f602082840312156105e3576105e261037a565b5b5f6105f0848285016103a1565b91505092915050565b5f81519050919050565b5f82825260208201905092915050565b8281835e5f83830152505050565b5f61062b826105f9565b6106358185610603565b9350610645818560208601610613565b61064e816103bd565b840191505092915050565b61066281610382565b82525050565b5f60a0820190508181035f8301526106808188610621565b905081810360208301526106948187610621565b905081810360408301526106a88186610621565b90506106b76060830185610659565b6106c46080830184610659565b9695505050505050565b7f556e617574686f726973656420616363657300000000000000000000000000005f82015250565b5f610702601283610603565b915061070d826106ce565b602082019050919050565b5f6020820190508181035f83015261072f816106f6565b9050919050565b7f4e487b71000000000000000000000000000000000000000000000000000000005f52602260045260245ffd5b5f600282049050600182168061077a57607f821691505b60208210810361078d5761078c610736565b5b50919050565b5f819050815f5260205f209050919050565b5f6020601f8301049050919050565b5f82821b905092915050565b5f600883026107ef7fffffffffffffffffffffffffffffffffffffffffffffffffffffffffffffffff826107b4565b6107f986836107b4565b95508019841693508086168417925050509392505050565b5f819050919050565b5f61083461082f61082a84610382565b610811565b610382565b9050919050565b5f819050919050565b61084d8361081a565b6108616108598261083b565b8484546107c0565b825550505050565b5f5f905090565b610878610869565b610883818484610844565b505050565b5b818110156108a65761089b5f82610870565b600181019050610889565b5050565b601f8211156108eb576108bc81610793565b6108c5846107a5565b810160208510156108d4578190505b6108e86108e0856107a5565b830182610888565b50505b505050565b5f82821c905092915050565b5f61090b5f19846008026108f0565b1980831691505092915050565b5f61092383836108fc565b9150826002028217905092915050565b61093c826105f9565b67ffffffffffffffff811115610955576109546103cd565b5b61095f8254610763565b61096a8282856108aa565b5f60209050601f83116001811461099b575f8415610989578287015190505b6109938582610918565b8655506109fa565b601f1984166109a986610793565b5f5b828110156109d0578489015182556001820191506020850194506020810190506109ab565b868310156109ed57848901516109e9601f8916826108fc565b8355505b6001600288020188555050505b50505050505056fea26469706673582212206e779e67485cdb404aa55f1d3bdad29c6b1dafc375b66a32e94ca345ac94d54564736f6c634300081c0033",
					"opcodes": "PUSH1 0x80 PUSH1 0x40 MSTORE CALLVALUE DUP1 ISZERO PUSH1 0xE JUMPI PUSH0 PUSH0 REVERT JUMPDEST POP CALLER PUSH0 PUSH0 PUSH2 0x100 EXP DUP2 SLOAD DUP2 PUSH20 0xFFFFFFFFFFFFFFFFFFFFFFFFFFFFFFFFFFFFFFFF MUL NOT AND SWAP1 DUP4 PUSH20 0xFFFFFFFFFFFFFFFFFFFFFFFFFFFFFFFFFFFFFFFF AND MUL OR SWAP1 SSTORE POP PUSH2 0xA38 DUP1 PUSH2 0x5B PUSH0 CODECOPY PUSH0 RETURN INVALID PUSH1 0x80 PUSH1 0x40 MSTORE CALLVALUE DUP1 ISZERO PUSH2 0xF JUMPI PUSH0 PUSH0 REVERT JUMPDEST POP PUSH1 0x4 CALLDATASIZE LT PUSH2 0x34 JUMPI PUSH0 CALLDATALOAD PUSH1 0xE0 SHR DUP1 PUSH4 0x4F583537 EQ PUSH2 0x38 JUMPI DUP1 PUSH4 0xECBE43EB EQ PUSH2 0x54 JUMPI JUMPDEST PUSH0 PUSH0 REVERT JUMPDEST PUSH2 0x52 PUSH1 0x4 DUP1 CALLDATASIZE SUB DUP2 ADD SWAP1 PUSH2 0x4D SWAP2 SWAP1 PUSH2 0x4F1 JUMP JUMPDEST PUSH2 0x88 JUMP JUMPDEST STOP JUMPDEST PUSH2 0x6E PUSH1 0x4 DUP1 CALLDATASIZE SUB DUP2 ADD SWAP1 PUSH2 0x69 SWAP2 SWAP1 PUSH2 0x5CE JUMP JUMPDEST PUSH2 0x1AD JUMP JUMPDEST PUSH1 0x40 MLOAD PUSH2 0x7F SWAP6 SWAP5 SWAP4 SWAP3 SWAP2 SWAP1 PUSH2 0x668 JUMP JUMPDEST PUSH1 0x40 MLOAD DUP1 SWAP2 SUB SWAP1 RETURN JUMPDEST PUSH0 PUSH0 SWAP1 SLOAD SWAP1 PUSH2 0x100 EXP SWAP1 DIV PUSH20 0xFFFFFFFFFFFFFFFFFFFFFFFFFFFFFFFFFFFFFFFF AND PUSH20 0xFFFFFFFFFFFFFFFFFFFFFFFFFFFFFFFFFFFFFFFF AND CALLER PUSH20 0xFFFFFFFFFFFFFFFFFFFFFFFFFFFFFFFFFFFFFFFF AND EQ PUSH2 0x116 JUMPI PUSH1 0x40 MLOAD PUSH32 0x8C379A000000000000000000000000000000000000000000000000000000000 DUP2 MSTORE PUSH1 0x4 ADD PUSH2 0x10D SWAP1 PUSH2 0x718 JUMP JUMPDEST PUSH1 0x40 MLOAD DUP1 SWAP2 SUB SWAP1 REVERT JUMPDEST PUSH1 0x40 MLOAD DUP1 PUSH1 0xA0 ADD PUSH1 0x40 MSTORE DUP1 DUP7 DUP2 MSTORE PUSH1 0x20 ADD DUP6 DUP2 MSTORE PUSH1 0x20 ADD DUP5 DUP2 MSTORE PUSH1 0x20 ADD DUP4 DUP2 MSTORE PUSH1 0x20 ADD DUP3 DUP2 MSTORE POP PUSH1 0x1 PUSH0 DUP9 DUP2 MSTORE PUSH1 0x20 ADD SWAP1 DUP2 MSTORE PUSH1 0x20 ADD PUSH0 KECCAK256 PUSH0 DUP3 ADD MLOAD DUP2 PUSH0 ADD SWAP1 DUP2 PUSH2 0x161 SWAP2 SWAP1 PUSH2 0x933 JUMP JUMPDEST POP PUSH1 0x20 DUP3 ADD MLOAD DUP2 PUSH1 0x1 ADD SWAP1 DUP2 PUSH2 0x177 SWAP2 SWAP1 PUSH2 0x933 JUMP JUMPDEST POP PUSH1 0x40 DUP3 ADD MLOAD DUP2 PUSH1 0x2 ADD SWAP1 DUP2 PUSH2 0x18D SWAP2 SWAP1 PUSH2 0x933 JUMP JUMPDEST POP PUSH1 0x60 DUP3 ADD MLOAD DUP2 PUSH1 0x3 ADD SSTORE PUSH1 0x80 DUP3 ADD MLOAD DUP2 PUSH1 0x4 ADD SSTORE SWAP1 POP POP POP POP POP POP POP POP JUMP JUMPDEST PUSH1 0x1 PUSH1 0x20 MSTORE DUP1 PUSH0 MSTORE PUSH1 0x40 PUSH0 KECCAK256 PUSH0 SWAP2 POP SWAP1 POP DUP1 PUSH0 ADD DUP1 SLOAD PUSH2 0x1CC SWAP1 PUSH2 0x763 JUMP JUMPDEST DUP1 PUSH1 0x1F ADD PUSH1 0x20 DUP1 SWAP2 DIV MUL PUSH1 0x20 ADD PUSH1 0x40 MLOAD SWAP1 DUP2 ADD PUSH1 0x40 MSTORE DUP1 SWAP3 SWAP2 SWAP1 DUP2 DUP2 MSTORE PUSH1 0x20 ADD DUP3 DUP1 SLOAD PUSH2 0x1F8 SWAP1 PUSH2 0x763 JUMP JUMPDEST DUP1 ISZERO PUSH2 0x243 JUMPI DUP1 PUSH1 0x1F LT PUSH2 0x21A JUMPI PUSH2 0x100 DUP1 DUP4 SLOAD DIV MUL DUP4 MSTORE SWAP2 PUSH1 0x20 ADD SWAP2 PUSH2 0x243 JUMP JUMPDEST DUP3 ADD SWAP2 SWAP1 PUSH0 MSTORE PUSH1 0x20 PUSH0 KECCAK256 SWAP1 JUMPDEST DUP2 SLOAD DUP2 MSTORE SWAP1 PUSH1 0x1 ADD SWAP1 PUSH1 0x20 ADD DUP1 DUP4 GT PUSH2 0x226 JUMPI DUP3 SWAP1 SUB PUSH1 0x1F AND DUP3 ADD SWAP2 JUMPDEST POP POP POP POP POP SWAP1 DUP1 PUSH1 0x1 ADD DUP1 SLOAD PUSH2 0x258 SWAP1 PUSH2 0x763 JUMP JUMPDEST DUP1 PUSH1 0x1F ADD PUSH1 0x20 DUP1 SWAP2 DIV MUL PUSH1 0x20 ADD PUSH1 0x40 MLOAD SWAP1 DUP2 ADD PUSH1 0x40 MSTORE DUP1 SWAP3 SWAP2 SWAP1 DUP2 DUP2 MSTORE PUSH1 0x20 ADD DUP3 DUP1 SLOAD PUSH2 0x284 SWAP1 PUSH2 0x763 JUMP JUMPDEST DUP1 ISZERO PUSH2 0x2CF JUMPI DUP1 PUSH1 0x1F LT PUSH2 0x2A6 JUMPI PUSH2 0x100 DUP1 DUP4 SLOAD DIV MUL DUP4 MSTORE SWAP2 PUSH1 0x20 ADD SWAP2 PUSH2 0x2CF JUMP JUMPDEST DUP3 ADD SWAP2 SWAP1 PUSH0 MSTORE PUSH1 0x20 PUSH0 KECCAK256 SWAP1 JUMPDEST DUP2 SLOAD DUP2 MSTORE SWAP1 PUSH1 0x1 ADD SWAP1 PUSH1 0x20 ADD DUP1 DUP4 GT PUSH2 0x2B2 JUMPI DUP3 SWAP1 SUB PUSH1 0x1F AND DUP3 ADD SWAP2 JUMPDEST POP POP POP POP POP SWAP1 DUP1 PUSH1 0x2 ADD DUP1 SLOAD PUSH2 0x2E4 SWAP1 PUSH2 0x763 JUMP JUMPDEST DUP1 PUSH1 0x1F ADD PUSH1 0x20 DUP1 SWAP2 DIV MUL PUSH1 0x20 ADD PUSH1 0x40 MLOAD SWAP1 DUP2 ADD PUSH1 0x40 MSTORE DUP1 SWAP3 SWAP2 SWAP1 DUP2 DUP2 MSTORE PUSH1 0x20 ADD DUP3 DUP1 SLOAD PUSH2 0x310 SWAP1 PUSH2 0x763 JUMP JUMPDEST DUP1 ISZERO PUSH2 0x35B JUMPI DUP1 PUSH1 0x1F LT PUSH2 0x332 JUMPI PUSH2 0x100 DUP1 DUP4 SLOAD DIV MUL DUP4 MSTORE SWAP2 PUSH1 0x20 ADD SWAP2 PUSH2 0x35B JUMP JUMPDEST DUP3 ADD SWAP2 SWAP1 PUSH0 MSTORE PUSH1 0x20 PUSH0 KECCAK256 SWAP1 JUMPDEST DUP2 SLOAD DUP2 MSTORE SWAP1 PUSH1 0x1 ADD SWAP1 PUSH1 0x20 ADD DUP1 DUP4 GT PUSH2 0x33E JUMPI DUP3 SWAP1 SUB PUSH1 0x1F AND DUP3 ADD SWAP2 JUMPDEST POP POP POP POP POP SWAP1 DUP1 PUSH1 0x3 ADD SLOAD SWAP1 DUP1 PUSH1 0x4 ADD SLOAD SWAP1 POP DUP6 JUMP JUMPDEST PUSH0 PUSH1 0x40 MLOAD SWAP1 POP SWAP1 JUMP JUMPDEST PUSH0 PUSH0 REVERT JUMPDEST PUSH0 PUSH0 REVERT JUMPDEST PUSH0 DUP2 SWAP1 POP SWAP2 SWAP1 POP JUMP JUMPDEST PUSH2 0x394 DUP2 PUSH2 0x382 JUMP JUMPDEST DUP2 EQ PUSH2 0x39E JUMPI PUSH0 PUSH0 REVERT JUMPDEST POP JUMP JUMPDEST PUSH0 DUP2 CALLDATALOAD SWAP1 POP PUSH2 0x3AF DUP2 PUSH2 0x38B JUMP JUMPDEST SWAP3 SWAP2 POP POP JUMP JUMPDEST PUSH0 PUSH0 REVERT JUMPDEST PUSH0 PUSH0 REVERT JUMPDEST PUSH0 PUSH1 0x1F NOT PUSH1 0x1F DUP4 ADD AND SWAP1 POP SWAP2 SWAP1 POP JUMP JUMPDEST PUSH32 0x4E487B7100000000000000000000000000000000000000000000000000000000 PUSH0 MSTORE PUSH1 0x41 PUSH1 0x4 MSTORE PUSH1 0x24 PUSH0 REVERT JUMPDEST PUSH2 0x403 DUP3 PUSH2 0x3BD JUMP JUMPDEST DUP2 ADD DUP2 DUP2 LT PUSH8 0xFFFFFFFFFFFFFFFF DUP3 GT OR ISZERO PUSH2 0x422 JUMPI PUSH2 0x421 PUSH2 0x3CD JUMP JUMPDEST JUMPDEST DUP1 PUSH1 0x40 MSTORE POP POP POP JUMP JUMPDEST PUSH0 PUSH2 0x434 PUSH2 0x371 JUMP JUMPDEST SWAP1 POP PUSH2 0x440 DUP3 DUP3 PUSH2 0x3FA JUMP JUMPDEST SWAP2 SWAP1 POP JUMP JUMPDEST PUSH0 PUSH8 0xFFFFFFFFFFFFFFFF DUP3 GT ISZERO PUSH2 0x45F JUMPI PUSH2 0x45E PUSH2 0x3CD JUMP JUMPDEST JUMPDEST PUSH2 0x468 DUP3 PUSH2 0x3BD JUMP JUMPDEST SWAP1 POP PUSH1 0x20 DUP2 ADD SWAP1 POP SWAP2 SWAP1 POP JUMP JUMPDEST DUP3 DUP2 DUP4 CALLDATACOPY PUSH0 DUP4 DUP4 ADD MSTORE POP POP POP JUMP JUMPDEST PUSH0 PUSH2 0x495 PUSH2 0x490 DUP5 PUSH2 0x445 JUMP JUMPDEST PUSH2 0x42B JUMP JUMPDEST SWAP1 POP DUP3 DUP2 MSTORE PUSH1 0x20 DUP2 ADD DUP5 DUP5 DUP5 ADD GT ISZERO PUSH2 0x4B1 JUMPI PUSH2 0x4B0 PUSH2 0x3B9 JUMP JUMPDEST JUMPDEST PUSH2 0x4BC DUP5 DUP3 DUP6 PUSH2 0x475 JUMP JUMPDEST POP SWAP4 SWAP3 POP POP POP JUMP JUMPDEST PUSH0 DUP3 PUSH1 0x1F DUP4 ADD SLT PUSH2 0x4D8 JUMPI PUSH2 0x4D7 PUSH2 0x3B5 JUMP JUMPDEST JUMPDEST DUP2 CALLDATALOAD PUSH2 0x4E8 DUP5 DUP3 PUSH1 0x20 DUP7 ADD PUSH2 0x483 JUMP JUMPDEST SWAP2 POP POP SWAP3 SWAP2 POP POP JUMP JUMPDEST PUSH0 PUSH0 PUSH0 PUSH0 PUSH0 PUSH0 PUSH1 0xC0 DUP8 DUP10 SUB SLT ISZERO PUSH2 0x50B JUMPI PUSH2 0x50A PUSH2 0x37A JUMP JUMPDEST JUMPDEST PUSH0 PUSH2 0x518 DUP10 DUP3 DUP11 ADD PUSH2 0x3A1 JUMP JUMPDEST SWAP7 POP POP PUSH1 0x20 DUP8 ADD CALLDATALOAD PUSH8 0xFFFFFFFFFFFFFFFF DUP2 GT ISZERO PUSH2 0x539 JUMPI PUSH2 0x538 PUSH2 0x37E JUMP JUMPDEST JUMPDEST PUSH2 0x545 DUP10 DUP3 DUP11 ADD PUSH2 0x4C4 JUMP JUMPDEST SWAP6 POP POP PUSH1 0x40 DUP8 ADD CALLDATALOAD PUSH8 0xFFFFFFFFFFFFFFFF DUP2 GT ISZERO PUSH2 0x566 JUMPI PUSH2 0x565 PUSH2 0x37E JUMP JUMPDEST JUMPDEST PUSH2 0x572 DUP10 DUP3 DUP11 ADD PUSH2 0x4C4 JUMP JUMPDEST SWAP5 POP POP PUSH1 0x60 DUP8 ADD CALLDATALOAD PUSH8 0xFFFFFFFFFFFFFFFF DUP2 GT ISZERO PUSH2 0x593 JUMPI PUSH2 0x592 PUSH2 0x37E JUMP JUMPDEST JUMPDEST PUSH2 0x59F DUP10 DUP3 DUP11 ADD PUSH2 0x4C4 JUMP JUMPDEST SWAP4 POP POP PUSH1 0x80 PUSH2 0x5B0 DUP10 DUP3 DUP11 ADD PUSH2 0x3A1 JUMP JUMPDEST SWAP3 POP POP PUSH1 0xA0 PUSH2 0x5C1 DUP10 DUP3 DUP11 ADD PUSH2 0x3A1 JUMP JUMPDEST SWAP2 POP POP SWAP3 SWAP6 POP SWAP3 SWAP6 POP SWAP3 SWAP6 JUMP JUMPDEST PUSH0 PUSH1 0x20 DUP3 DUP5 SUB SLT ISZERO PUSH2 0x5E3 JUMPI PUSH2 0x5E2 PUSH2 0x37A JUMP JUMPDEST JUMPDEST PUSH0 PUSH2 0x5F0 DUP5 DUP3 DUP6 ADD PUSH2 0x3A1 JUMP JUMPDEST SWAP2 POP POP SWAP3 SWAP2 POP POP JUMP JUMPDEST PUSH0 DUP2 MLOAD SWAP1 POP SWAP2 SWAP1 POP JUMP JUMPDEST PUSH0 DUP3 DUP3 MSTORE PUSH1 0x20 DUP3 ADD SWAP1 POP SWAP3 SWAP2 POP POP JUMP JUMPDEST DUP3 DUP2 DUP4 MCOPY PUSH0 DUP4 DUP4 ADD MSTORE POP POP POP JUMP JUMPDEST PUSH0 PUSH2 0x62B DUP3 PUSH2 0x5F9 JUMP JUMPDEST PUSH2 0x635 DUP2 DUP6 PUSH2 0x603 JUMP JUMPDEST SWAP4 POP PUSH2 0x645 DUP2 DUP6 PUSH1 0x20 DUP7 ADD PUSH2 0x613 JUMP JUMPDEST PUSH2 0x64E DUP2 PUSH2 0x3BD JUMP JUMPDEST DUP5 ADD SWAP2 POP POP SWAP3 SWAP2 POP POP JUMP JUMPDEST PUSH2 0x662 DUP2 PUSH2 0x382 JUMP JUMPDEST DUP3 MSTORE POP POP JUMP JUMPDEST PUSH0 PUSH1 0xA0 DUP3 ADD SWAP1 POP DUP2 DUP2 SUB PUSH0 DUP4 ADD MSTORE PUSH2 0x680 DUP2 DUP9 PUSH2 0x621 JUMP JUMPDEST SWAP1 POP DUP2 DUP2 SUB PUSH1 0x20 DUP4 ADD MSTORE PUSH2 0x694 DUP2 DUP8 PUSH2 0x621 JUMP JUMPDEST SWAP1 POP DUP2 DUP2 SUB PUSH1 0x40 DUP4 ADD MSTORE PUSH2 0x6A8 DUP2 DUP7 PUSH2 0x621 JUMP JUMPDEST SWAP1 POP PUSH2 0x6B7 PUSH1 0x60 DUP4 ADD DUP6 PUSH2 0x659 JUMP JUMPDEST PUSH2 0x6C4 PUSH1 0x80 DUP4 ADD DUP5 PUSH2 0x659 JUMP JUMPDEST SWAP7 SWAP6 POP POP POP POP POP POP JUMP JUMPDEST PUSH32 0x556E617574686F72697365642061636365730000000000000000000000000000 PUSH0 DUP3 ADD MSTORE POP JUMP JUMPDEST PUSH0 PUSH2 0x702 PUSH1 0x12 DUP4 PUSH2 0x603 JUMP JUMPDEST SWAP2 POP PUSH2 0x70D DUP3 PUSH2 0x6CE JUMP JUMPDEST PUSH1 0x20 DUP3 ADD SWAP1 POP SWAP2 SWAP1 POP JUMP JUMPDEST PUSH0 PUSH1 0x20 DUP3 ADD SWAP1 POP DUP2 DUP2 SUB PUSH0 DUP4 ADD MSTORE PUSH2 0x72F DUP2 PUSH2 0x6F6 JUMP JUMPDEST SWAP1 POP SWAP2 SWAP1 POP JUMP JUMPDEST PUSH32 0x4E487B7100000000000000000000000000000000000000000000000000000000 PUSH0 MSTORE PUSH1 0x22 PUSH1 0x4 MSTORE PUSH1 0x24 PUSH0 REVERT JUMPDEST PUSH0 PUSH1 0x2 DUP3 DIV SWAP1 POP PUSH1 0x1 DUP3 AND DUP1 PUSH2 0x77A JUMPI PUSH1 0x7F DUP3 AND SWAP2 POP JUMPDEST PUSH1 0x20 DUP3 LT DUP2 SUB PUSH2 0x78D JUMPI PUSH2 0x78C PUSH2 0x736 JUMP JUMPDEST JUMPDEST POP SWAP2 SWAP1 POP JUMP JUMPDEST PUSH0 DUP2 SWAP1 POP DUP2 PUSH0 MSTORE PUSH1 0x20 PUSH0 KECCAK256 SWAP1 POP SWAP2 SWAP1 POP JUMP JUMPDEST PUSH0 PUSH1 0x20 PUSH1 0x1F DUP4 ADD DIV SWAP1 POP SWAP2 SWAP1 POP JUMP JUMPDEST PUSH0 DUP3 DUP3 SHL SWAP1 POP SWAP3 SWAP2 POP POP JUMP JUMPDEST PUSH0 PUSH1 0x8 DUP4 MUL PUSH2 0x7EF PUSH32 0xFFFFFFFFFFFFFFFFFFFFFFFFFFFFFFFFFFFFFFFFFFFFFFFFFFFFFFFFFFFFFFFF DUP3 PUSH2 0x7B4 JUMP JUMPDEST PUSH2 0x7F9 DUP7 DUP4 PUSH2 0x7B4 JUMP JUMPDEST SWAP6 POP DUP1 NOT DUP5 AND SWAP4 POP DUP1 DUP7 AND DUP5 OR SWAP3 POP POP POP SWAP4 SWAP3 POP POP POP JUMP JUMPDEST PUSH0 DUP2 SWAP1 POP SWAP2 SWAP1 POP JUMP JUMPDEST PUSH0 PUSH2 0x834 PUSH2 0x82F PUSH2 0x82A DUP5 PUSH2 0x382 JUMP JUMPDEST PUSH2 0x811 JUMP JUMPDEST PUSH2 0x382 JUMP JUMPDEST SWAP1 POP SWAP2 SWAP1 POP JUMP JUMPDEST PUSH0 DUP2 SWAP1 POP SWAP2 SWAP1 POP JUMP JUMPDEST PUSH2 0x84D DUP4 PUSH2 0x81A JUMP JUMPDEST PUSH2 0x861 PUSH2 0x859 DUP3 PUSH2 0x83B JUMP JUMPDEST DUP5 DUP5 SLOAD PUSH2 0x7C0 JUMP JUMPDEST DUP3 SSTORE POP POP POP POP JUMP JUMPDEST PUSH0 PUSH0 SWAP1 POP SWAP1 JUMP JUMPDEST PUSH2 0x878 PUSH2 0x869 JUMP JUMPDEST PUSH2 0x883 DUP2 DUP5 DUP5 PUSH2 0x844 JUMP JUMPDEST POP POP POP JUMP JUMPDEST JUMPDEST DUP2 DUP2 LT ISZERO PUSH2 0x8A6 JUMPI PUSH2 0x89B PUSH0 DUP3 PUSH2 0x870 JUMP JUMPDEST PUSH1 0x1 DUP2 ADD SWAP1 POP PUSH2 0x889 JUMP JUMPDEST POP POP JUMP JUMPDEST PUSH1 0x1F DUP3 GT ISZERO PUSH2 0x8EB JUMPI PUSH2 0x8BC DUP2 PUSH2 0x793 JUMP JUMPDEST PUSH2 0x8C5 DUP5 PUSH2 0x7A5 JUMP JUMPDEST DUP2 ADD PUSH1 0x20 DUP6 LT ISZERO PUSH2 0x8D4 JUMPI DUP2 SWAP1 POP JUMPDEST PUSH2 0x8E8 PUSH2 0x8E0 DUP6 PUSH2 0x7A5 JUMP JUMPDEST DUP4 ADD DUP3 PUSH2 0x888 JUMP JUMPDEST POP POP JUMPDEST POP POP POP JUMP JUMPDEST PUSH0 DUP3 DUP3 SHR SWAP1 POP SWAP3 SWAP2 POP POP JUMP JUMPDEST PUSH0 PUSH2 0x90B PUSH0 NOT DUP5 PUSH1 0x8 MUL PUSH2 0x8F0 JUMP JUMPDEST NOT DUP1 DUP4 AND SWAP2 POP POP SWAP3 SWAP2 POP POP JUMP JUMPDEST PUSH0 PUSH2 0x923 DUP4 DUP4 PUSH2 0x8FC JUMP JUMPDEST SWAP2 POP DUP3 PUSH1 0x2 MUL DUP3 OR SWAP1 POP SWAP3 SWAP2 POP POP JUMP JUMPDEST PUSH2 0x93C DUP3 PUSH2 0x5F9 JUMP JUMPDEST PUSH8 0xFFFFFFFFFFFFFFFF DUP2 GT ISZERO PUSH2 0x955 JUMPI PUSH2 0x954 PUSH2 0x3CD JUMP JUMPDEST JUMPDEST PUSH2 0x95F DUP3 SLOAD PUSH2 0x763 JUMP JUMPDEST PUSH2 0x96A DUP3 DUP3 DUP6 PUSH2 0x8AA JUMP JUMPDEST PUSH0 PUSH1 0x20 SWAP1 POP PUSH1 0x1F DUP4 GT PUSH1 0x1 DUP2 EQ PUSH2 0x99B JUMPI PUSH0 DUP5 ISZERO PUSH2 0x989 JUMPI DUP3 DUP8 ADD MLOAD SWAP1 POP JUMPDEST PUSH2 0x993 DUP6 DUP3 PUSH2 0x918 JUMP JUMPDEST DUP7 SSTORE POP PUSH2 0x9FA JUMP JUMPDEST PUSH1 0x1F NOT DUP5 AND PUSH2 0x9A9 DUP7 PUSH2 0x793 JUMP JUMPDEST PUSH0 JUMPDEST DUP3 DUP2 LT ISZERO PUSH2 0x9D0 JUMPI DUP5 DUP10 ADD MLOAD DUP3 SSTORE PUSH1 0x1 DUP3 ADD SWAP2 POP PUSH1 0x20 DUP6 ADD SWAP5 POP PUSH1 0x20 DUP2 ADD SWAP1 POP PUSH2 0x9AB JUMP JUMPDEST DUP7 DUP4 LT ISZERO PUSH2 0x9ED JUMPI DUP5 DUP10 ADD MLOAD PUSH2 0x9E9 PUSH1 0x1F DUP10 AND DUP3 PUSH2 0x8FC JUMP JUMPDEST DUP4 SSTORE POP JUMPDEST PUSH1 0x1 PUSH1 0x2 DUP9 MUL ADD DUP9 SSTORE POP POP POP JUMPDEST POP POP POP POP POP POP JUMP INVALID LOG2 PUSH5 0x6970667358 0x22 SLT KECCAK256 PUSH15 0x779E67485CDB404AA55F1D3BDAD29C PUSH12 0x1DAFC375B66A32E94CA345AC SWAP5 0xD5 GASLIMIT PUSH5 0x736F6C6343 STOP ADDMOD SHR STOP CALLER "
				},
				"gasEstimates": {
					"creation": {
						"codeDepositCost": "523200",
						"executionCost": "24818",
						"totalCost": "548018"
					},
					"external": {
						"setStudentDetails(uint256,string,string,string,uint256,uint256)": "infinite",
						"studData(uint256)": "infinite"
					}
				},
				"methodIdentifiers": {
					"setStudentDetails(uint256,string,string,string,uint256,uint256)": "4f583537",
					"studData(uint256)": "ecbe43eb"
				}
			},
			"storageLayout": {
				"storage": [
					{
						"astId": 14,
						"contract": "SMART-CONTRACTS-1733812289486/SMS.sol:SMS",
						"label": "staffAdvisor",
						"offset": 0,
						"slot": "0",
						"type": "t_address"
					},
					{
						"astId": 40,
						"contract": "SMART-CONTRACTS-1733812289486/SMS.sol:SMS",
						"label": "studData",
						"offset": 0,
						"slot": "1",
						"type": "t_mapping(t_uint256,t_struct(studentData)12_storage)"
					}
				],
				"types": {
					"t_address": {
						"encoding": "inplace",
						"label": "address",
						"numberOfBytes": "20"
					},
					"t_mapping(t_uint256,t_struct(studentData)12_storage)": {
						"encoding": "mapping",
						"key": "t_uint256",
						"label": "mapping(uint256 => struct SMS.studentData)",
						"numberOfBytes": "32",
						"value": "t_struct(studentData)12_storage"
					},
					"t_string_storage": {
						"encoding": "bytes",
						"label": "string",
						"numberOfBytes": "32"
					},
					"t_struct(studentData)12_storage": {
						"encoding": "inplace",
						"label": "struct SMS.studentData",
						"members": [
							{
								"astId": 3,
								"contract": "SMART-CONTRACTS-1733812289486/SMS.sol:SMS",
								"label": "name",
								"offset": 0,
								"slot": "0",
								"type": "t_string_storage"
							},
							{
								"astId": 5,
								"contract": "SMART-CONTRACTS-1733812289486/SMS.sol:SMS",
								"label": "sem",
								"offset": 0,
								"slot": "1",
								"type": "t_string_storage"
							},
							{
								"astId": 7,
								"contract": "SMART-CONTRACTS-1733812289486/SMS.sol:SMS",
								"label": "dept",
								"offset": 0,
								"slot": "2",
								"type": "t_string_storage"
							},
							{
								"astId": 9,
								"contract": "SMART-CONTRACTS-1733812289486/SMS.sol:SMS",
								"label": "CGPA",
								"offset": 0,
								"slot": "3",
								"type": "t_uint256"
							},
							{
								"astId": 11,
								"contract": "SMART-CONTRACTS-1733812289486/SMS.sol:SMS",
								"label": "rollNo",
								"offset": 0,
								"slot": "4",
								"type": "t_uint256"
							}
						],
						"numberOfBytes": "160"
					},
					"t_uint256": {
						"encoding": "inplace",
						"label": "uint256",
						"numberOfBytes": "32"
					}
				}
			},
			"userdoc": {
				"kind": "user",
				"methods": {},
				"version": 1
			}
		}
	}
}