{
	"SMART-CONTRACTS-1733812289486/MBank.sol": {
		"MyBank": {
			"abi": [
				{
					"inputs": [],
					"name": "deposit",
					"outputs": [],
					"stateMutability": "payable",
					"type": "function"
				},
				{
					"inputs": [
						{
							"internalType": "uint256",
							"name": "val",
							"type": "uint256"
						}
					],
					"name": "ethToWei",
					"outputs": [
						{
							"internalType": "uint256",
							"name": "",
							"type": "uint256"
						}
					],
					"stateMutability": "pure",
					"type": "function"
				},
				{
					"inputs": [],
					"name": "getBalance",
					"outputs": [
						{
							"internalType": "uint256",
							"name": "",
							"type": "uint256"
						}
					],
					"stateMutability": "view",
					"type": "function"
				},
				{
					"inputs": [
						{
							"internalType": "uint256",
							"name": "amount",
							"type": "uint256"
						},
						{
							"internalType": "address",
							"name": "toAddress",
							"type": "address"
						}
					],
					"name": "transferTo",
					"outputs": [],
					"stateMutability": "nonpayable",
					"type": "function"
				},
				{
					"inputs": [
						{
							"internalType": "uint256",
							"name": "amount",
							"type": "uint256"
						}
					],
					"name": "withdraw",
					"outputs": [],
					"stateMutability": "nonpayable",
					"type": "function"
				}
			],
			"devdoc": {
				"kind": "dev",
				"methods": {},
				"version": 1
			},
			"evm": {
				"assembly": "    /* \"SMART-CONTRACTS-1733812289486/MBank.sol\":57:1284  contract MyBank{... */\n  mstore(0x40, 0x80)\n  callvalue\n  dup1\n  iszero\n  tag_1\n  jumpi\n  revert(0x00, 0x00)\ntag_1:\n  pop\n  dataSize(sub_0)\n  dup1\n  dataOffset(sub_0)\n  0x00\n  codecopy\n  0x00\n  return\nstop\n\nsub_0: assembly {\n        /* \"SMART-CONTRACTS-1733812289486/MBank.sol\":57:1284  contract MyBank{... */\n      mstore(0x40, 0x80)\n      jumpi(tag_1, lt(calldatasize, 0x04))\n      shr(0xe0, calldataload(0x00))\n      dup1\n      0x12065fe0\n      eq\n      tag_2\n      jumpi\n      dup1\n      0x2e1a7d4d\n      eq\n      tag_3\n      jumpi\n      dup1\n      0x88439bbc\n      eq\n      tag_4\n      jumpi\n      dup1\n      0xd0e30db0\n      eq\n      tag_5\n      jumpi\n      dup1\n      0xd4822fbf\n      eq\n      tag_6\n      jumpi\n    tag_1:\n      revert(0x00, 0x00)\n        /* \"SMART-CONTRACTS-1733812289486/MBank.sol\":372:478  function getBalance() public view returns(uint){... */\n    tag_2:\n      callvalue\n      dup1\n      iszero\n      tag_7\n      jumpi\n      revert(0x00, 0x00)\n    tag_7:\n      pop\n      tag_8\n      tag_9\n      jump\t// in\n    tag_8:\n      mload(0x40)\n      tag_10\n      swap2\n      swap1\n      tag_11\n      jump\t// in\n    tag_10:\n      mload(0x40)\n      dup1\n      swap2\n      sub\n      swap1\n      return\n        /* \"SMART-CONTRACTS-1733812289486/MBank.sol\":605:871  function withdraw(uint amount) public balanceCheck(amount) {... */\n    tag_3:\n      callvalue\n      dup1\n      iszero\n      tag_12\n      jumpi\n      revert(0x00, 0x00)\n    tag_12:\n      pop\n      tag_13\n      0x04\n      dup1\n      calldatasize\n      sub\n      dup2\n      add\n      swap1\n      tag_14\n      swap2\n      swap1\n      tag_15\n      jump\t// in\n    tag_14:\n      tag_16\n      jump\t// in\n    tag_13:\n      stop\n        /* \"SMART-CONTRACTS-1733812289486/MBank.sol\":263:366  function ethToWei(uint val) public pure returns (uint){... */\n    tag_4:\n      callvalue\n      dup1\n      iszero\n      tag_17\n      jumpi\n      revert(0x00, 0x00)\n    tag_17:\n      pop\n      tag_18\n      0x04\n      dup1\n      calldatasize\n      sub\n      dup2\n      add\n      swap1\n      tag_19\n      swap2\n      swap1\n      tag_15\n      jump\t// in\n    tag_19:\n      tag_20\n      jump\t// in\n    tag_18:\n      mload(0x40)\n      tag_21\n      swap2\n      swap1\n      tag_11\n      jump\t// in\n    tag_21:\n      mload(0x40)\n      dup1\n      swap2\n      sub\n      swap1\n      return\n        /* \"SMART-CONTRACTS-1733812289486/MBank.sol\":484:599  function deposit() public payable {... */\n    tag_5:\n      tag_22\n      tag_23\n      jump\t// in\n    tag_22:\n      stop\n        /* \"SMART-CONTRACTS-1733812289486/MBank.sol\":877:1282  function transferTo(uint amount, address toAddress) public balanceCheck(amount) {... */\n    tag_6:\n      callvalue\n      dup1\n      iszero\n      tag_24\n      jumpi\n      revert(0x00, 0x00)\n    tag_24:\n      pop\n      tag_25\n      0x04\n      dup1\n      calldatasize\n      sub\n      dup2\n      add\n      swap1\n      tag_26\n      swap2\n      swap1\n      tag_27\n      jump\t// in\n    tag_26:\n      tag_28\n      jump\t// in\n    tag_25:\n      stop\n        /* \"SMART-CONTRACTS-1733812289486/MBank.sol\":372:478  function getBalance() public view returns(uint){... */\n    tag_9:\n        /* \"SMART-CONTRACTS-1733812289486/MBank.sol\":414:418  uint */\n      0x00\n        /* \"SMART-CONTRACTS-1733812289486/MBank.sol\":436:471  ethToWei(balanceLedger[msg.sender]) */\n      tag_30\n        /* \"SMART-CONTRACTS-1733812289486/MBank.sol\":445:458  balanceLedger */\n      0x00\n        /* \"SMART-CONTRACTS-1733812289486/MBank.sol\":445:470  balanceLedger[msg.sender] */\n      0x00\n        /* \"SMART-CONTRACTS-1733812289486/MBank.sol\":459:469  msg.sender */\n      caller\n        /* \"SMART-CONTRACTS-1733812289486/MBank.sol\":445:470  balanceLedger[msg.sender] */\n      0xffffffffffffffffffffffffffffffffffffffff\n      and\n      0xffffffffffffffffffffffffffffffffffffffff\n      and\n      dup2\n      mstore\n      0x20\n      add\n      swap1\n      dup2\n      mstore\n      0x20\n      add\n      0x00\n      keccak256\n      sload\n        /* \"SMART-CONTRACTS-1733812289486/MBank.sol\":436:444  ethToWei */\n      tag_20\n        /* \"SMART-CONTRACTS-1733812289486/MBank.sol\":436:471  ethToWei(balanceLedger[msg.sender]) */\n      jump\t// in\n    tag_30:\n        /* \"SMART-CONTRACTS-1733812289486/MBank.sol\":429:471  return ethToWei(balanceLedger[msg.sender]) */\n      swap1\n      pop\n        /* \"SMART-CONTRACTS-1733812289486/MBank.sol\":372:478  function getBalance() public view returns(uint){... */\n      swap1\n      jump\t// out\n        /* \"SMART-CONTRACTS-1733812289486/MBank.sol\":605:871  function withdraw(uint amount) public balanceCheck(amount) {... */\n    tag_16:\n        /* \"SMART-CONTRACTS-1733812289486/MBank.sol\":656:662  amount */\n      dup1\n        /* \"SMART-CONTRACTS-1733812289486/MBank.sol\":204:210  amount */\n      dup1\n        /* \"SMART-CONTRACTS-1733812289486/MBank.sol\":175:188  balanceLedger */\n      0x00\n        /* \"SMART-CONTRACTS-1733812289486/MBank.sol\":175:200  balanceLedger[msg.sender] */\n      0x00\n        /* \"SMART-CONTRACTS-1733812289486/MBank.sol\":189:199  msg.sender */\n      caller\n        /* \"SMART-CONTRACTS-1733812289486/MBank.sol\":175:200  balanceLedger[msg.sender] */\n      0xffffffffffffffffffffffffffffffffffffffff\n      and\n      0xffffffffffffffffffffffffffffffffffffffff\n      and\n      dup2\n      mstore\n      0x20\n      add\n      swap1\n      dup2\n      mstore\n      0x20\n      add\n      0x00\n      keccak256\n      sload\n        /* \"SMART-CONTRACTS-1733812289486/MBank.sol\":175:210  balanceLedger[msg.sender] >= amount */\n      lt\n      iszero\n        /* \"SMART-CONTRACTS-1733812289486/MBank.sol\":167:235  require(balanceLedger[msg.sender] >= amount, \"Insufficient Balance\") */\n      tag_32\n      jumpi\n      mload(0x40)\n      0x08c379a000000000000000000000000000000000000000000000000000000000\n      dup2\n      mstore\n      0x04\n      add\n      tag_33\n      swap1\n      tag_34\n      jump\t// in\n    tag_33:\n      mload(0x40)\n      dup1\n      swap2\n      sub\n      swap1\n      revert\n    tag_32:\n        /* \"SMART-CONTRACTS-1733812289486/MBank.sol\":811:817  amount */\n      dup2\n        /* \"SMART-CONTRACTS-1733812289486/MBank.sol\":783:796  balanceLedger */\n      0x00\n        /* \"SMART-CONTRACTS-1733812289486/MBank.sol\":783:808  balanceLedger[msg.sender] */\n      0x00\n        /* \"SMART-CONTRACTS-1733812289486/MBank.sol\":797:807  msg.sender */\n      caller\n        /* \"SMART-CONTRACTS-1733812289486/MBank.sol\":783:808  balanceLedger[msg.sender] */\n      0xffffffffffffffffffffffffffffffffffffffff\n      and\n      0xffffffffffffffffffffffffffffffffffffffff\n      and\n      dup2\n      mstore\n      0x20\n      add\n      swap1\n      dup2\n      mstore\n      0x20\n      add\n      0x00\n      keccak256\n      sload\n        /* \"SMART-CONTRACTS-1733812289486/MBank.sol\":783:817  balanceLedger[msg.sender] - amount */\n      tag_36\n      swap2\n      swap1\n      tag_37\n      jump\t// in\n    tag_36:\n        /* \"SMART-CONTRACTS-1733812289486/MBank.sol\":755:768  balanceLedger */\n      0x00\n        /* \"SMART-CONTRACTS-1733812289486/MBank.sol\":755:780  balanceLedger[msg.sender] */\n      0x00\n        /* \"SMART-CONTRACTS-1733812289486/MBank.sol\":769:779  msg.sender */\n      caller\n        /* \"SMART-CONTRACTS-1733812289486/MBank.sol\":755:780  balanceLedger[msg.sender] */\n      0xffffffffffffffffffffffffffffffffffffffff\n      and\n      0xffffffffffffffffffffffffffffffffffffffff\n      and\n      dup2\n      mstore\n      0x20\n      add\n      swap1\n      dup2\n      mstore\n      0x20\n      add\n      0x00\n      keccak256\n        /* \"SMART-CONTRACTS-1733812289486/MBank.sol\":755:817  balanceLedger[msg.sender] = balanceLedger[msg.sender] - amount */\n      dup2\n      swap1\n      sstore\n      pop\n        /* \"SMART-CONTRACTS-1733812289486/MBank.sol\":836:846  msg.sender */\n      caller\n        /* \"SMART-CONTRACTS-1733812289486/MBank.sol\":827:856  payable (msg.sender).transfer */\n      0xffffffffffffffffffffffffffffffffffffffff\n      and\n        /* \"SMART-CONTRACTS-1733812289486/MBank.sol\":827:864  payable (msg.sender).transfer(amount) */\n      0x08fc\n        /* \"SMART-CONTRACTS-1733812289486/MBank.sol\":857:863  amount */\n      dup4\n        /* \"SMART-CONTRACTS-1733812289486/MBank.sol\":827:864  payable (msg.sender).transfer(amount) */\n      swap1\n      dup2\n      iszero\n      mul\n      swap1\n      mload(0x40)\n      0x00\n      mload(0x40)\n      dup1\n      dup4\n      sub\n      dup2\n      dup6\n      dup9\n      dup9\n      call\n      swap4\n      pop\n      pop\n      pop\n      pop\n      iszero\n      dup1\n      iszero\n      tag_39\n      jumpi\n      returndatacopy(0x00, 0x00, returndatasize)\n      revert(0x00, returndatasize)\n    tag_39:\n      pop\n        /* \"SMART-CONTRACTS-1733812289486/MBank.sol\":605:871  function withdraw(uint amount) public balanceCheck(amount) {... */\n      pop\n      pop\n      jump\t// out\n        /* \"SMART-CONTRACTS-1733812289486/MBank.sol\":263:366  function ethToWei(uint val) public pure returns (uint){... */\n    tag_20:\n        /* \"SMART-CONTRACTS-1733812289486/MBank.sol\":312:316  uint */\n      0x00\n        /* \"SMART-CONTRACTS-1733812289486/MBank.sol\":339:358  1000000000000000000 */\n      0x0de0b6b3a7640000\n        /* \"SMART-CONTRACTS-1733812289486/MBank.sol\":335:338  val */\n      dup3\n        /* \"SMART-CONTRACTS-1733812289486/MBank.sol\":335:358  val*1000000000000000000 */\n      tag_41\n      swap2\n      swap1\n      tag_42\n      jump\t// in\n    tag_41:\n        /* \"SMART-CONTRACTS-1733812289486/MBank.sol\":327:359  return (val*1000000000000000000) */\n      swap1\n      pop\n        /* \"SMART-CONTRACTS-1733812289486/MBank.sol\":263:366  function ethToWei(uint val) public pure returns (uint){... */\n      swap2\n      swap1\n      pop\n      jump\t// out\n        /* \"SMART-CONTRACTS-1733812289486/MBank.sol\":484:599  function deposit() public payable {... */\n    tag_23:\n        /* \"SMART-CONTRACTS-1733812289486/MBank.sol\":583:592  msg.value */\n      callvalue\n        /* \"SMART-CONTRACTS-1733812289486/MBank.sol\":556:569  balanceLedger */\n      0x00\n        /* \"SMART-CONTRACTS-1733812289486/MBank.sol\":556:581  balanceLedger[msg.sender] */\n      0x00\n        /* \"SMART-CONTRACTS-1733812289486/MBank.sol\":570:580  msg.sender */\n      caller\n        /* \"SMART-CONTRACTS-1733812289486/MBank.sol\":556:581  balanceLedger[msg.sender] */\n      0xffffffffffffffffffffffffffffffffffffffff\n      and\n      0xffffffffffffffffffffffffffffffffffffffff\n      and\n      dup2\n      mstore\n      0x20\n      add\n      swap1\n      dup2\n      mstore\n      0x20\n      add\n      0x00\n      keccak256\n      sload\n        /* \"SMART-CONTRACTS-1733812289486/MBank.sol\":556:592  balanceLedger[msg.sender]+ msg.value */\n      tag_44\n      swap2\n      swap1\n      tag_45\n      jump\t// in\n    tag_44:\n        /* \"SMART-CONTRACTS-1733812289486/MBank.sol\":528:541  balanceLedger */\n      0x00\n        /* \"SMART-CONTRACTS-1733812289486/MBank.sol\":528:553  balanceLedger[msg.sender] */\n      0x00\n        /* \"SMART-CONTRACTS-1733812289486/MBank.sol\":542:552  msg.sender */\n      caller\n        /* \"SMART-CONTRACTS-1733812289486/MBank.sol\":528:553  balanceLedger[msg.sender] */\n      0xffffffffffffffffffffffffffffffffffffffff\n      and\n      0xffffffffffffffffffffffffffffffffffffffff\n      and\n      dup2\n      mstore\n      0x20\n      add\n      swap1\n      dup2\n      mstore\n      0x20\n      add\n      0x00\n      keccak256\n        /* \"SMART-CONTRACTS-1733812289486/MBank.sol\":528:592  balanceLedger[msg.sender] = balanceLedger[msg.sender]+ msg.value */\n      dup2\n      swap1\n      sstore\n      pop\n        /* \"SMART-CONTRACTS-1733812289486/MBank.sol\":484:599  function deposit() public payable {... */\n      jump\t// out\n        /* \"SMART-CONTRACTS-1733812289486/MBank.sol\":877:1282  function transferTo(uint amount, address toAddress) public balanceCheck(amount) {... */\n    tag_28:\n        /* \"SMART-CONTRACTS-1733812289486/MBank.sol\":949:955  amount */\n      dup2\n        /* \"SMART-CONTRACTS-1733812289486/MBank.sol\":204:210  amount */\n      dup1\n        /* \"SMART-CONTRACTS-1733812289486/MBank.sol\":175:188  balanceLedger */\n      0x00\n        /* \"SMART-CONTRACTS-1733812289486/MBank.sol\":175:200  balanceLedger[msg.sender] */\n      0x00\n        /* \"SMART-CONTRACTS-1733812289486/MBank.sol\":189:199  msg.sender */\n      caller\n        /* \"SMART-CONTRACTS-1733812289486/MBank.sol\":175:200  balanceLedger[msg.sender] */\n      0xffffffffffffffffffffffffffffffffffffffff\n      and\n      0xffffffffffffffffffffffffffffffffffffffff\n      and\n      dup2\n      mstore\n      0x20\n      add\n      swap1\n      dup2\n      mstore\n      0x20\n      add\n      0x00\n      keccak256\n      sload\n        /* \"SMART-CONTRACTS-1733812289486/MBank.sol\":175:210  balanceLedger[msg.sender] >= amount */\n      lt\n      iszero\n        /* \"SMART-CONTRACTS-1733812289486/MBank.sol\":167:235  require(balanceLedger[msg.sender] >= amount, \"Insufficient Balance\") */\n      tag_47\n      jumpi\n      mload(0x40)\n      0x08c379a000000000000000000000000000000000000000000000000000000000\n      dup2\n      mstore\n      0x04\n      add\n      tag_48\n      swap1\n      tag_34\n      jump\t// in\n    tag_48:\n      mload(0x40)\n      dup1\n      swap2\n      sub\n      swap1\n      revert\n    tag_47:\n        /* \"SMART-CONTRACTS-1733812289486/MBank.sol\":1104:1110  amount */\n      dup3\n        /* \"SMART-CONTRACTS-1733812289486/MBank.sol\":1076:1089  balanceLedger */\n      0x00\n        /* \"SMART-CONTRACTS-1733812289486/MBank.sol\":1076:1101  balanceLedger[msg.sender] */\n      0x00\n        /* \"SMART-CONTRACTS-1733812289486/MBank.sol\":1090:1100  msg.sender */\n      caller\n        /* \"SMART-CONTRACTS-1733812289486/MBank.sol\":1076:1101  balanceLedger[msg.sender] */\n      0xffffffffffffffffffffffffffffffffffffffff\n      and\n      0xffffffffffffffffffffffffffffffffffffffff\n      and\n      dup2\n      mstore\n      0x20\n      add\n      swap1\n      dup2\n      mstore\n      0x20\n      add\n      0x00\n      keccak256\n      sload\n        /* \"SMART-CONTRACTS-1733812289486/MBank.sol\":1076:1110  balanceLedger[msg.sender] - amount */\n      tag_50\n      swap2\n      swap1\n      tag_37\n      jump\t// in\n    tag_50:\n        /* \"SMART-CONTRACTS-1733812289486/MBank.sol\":1048:1061  balanceLedger */\n      0x00\n        /* \"SMART-CONTRACTS-1733812289486/MBank.sol\":1048:1073  balanceLedger[msg.sender] */\n      0x00\n        /* \"SMART-CONTRACTS-1733812289486/MBank.sol\":1062:1072  msg.sender */\n      caller\n        /* \"SMART-CONTRACTS-1733812289486/MBank.sol\":1048:1073  balanceLedger[msg.sender] */\n      0xffffffffffffffffffffffffffffffffffffffff\n      and\n      0xffffffffffffffffffffffffffffffffffffffff\n      and\n      dup2\n      mstore\n      0x20\n      add\n      swap1\n      dup2\n      mstore\n      0x20\n      add\n      0x00\n      keccak256\n        /* \"SMART-CONTRACTS-1733812289486/MBank.sol\":1048:1110  balanceLedger[msg.sender] = balanceLedger[msg.sender] - amount */\n      dup2\n      swap1\n      sstore\n      pop\n        /* \"SMART-CONTRACTS-1733812289486/MBank.sol\":1129:1139  msg.sender */\n      caller\n        /* \"SMART-CONTRACTS-1733812289486/MBank.sol\":1120:1149  payable (msg.sender).transfer */\n      0xffffffffffffffffffffffffffffffffffffffff\n      and\n        /* \"SMART-CONTRACTS-1733812289486/MBank.sol\":1120:1157  payable (msg.sender).transfer(amount) */\n      0x08fc\n        /* \"SMART-CONTRACTS-1733812289486/MBank.sol\":1150:1156  amount */\n      dup5\n        /* \"SMART-CONTRACTS-1733812289486/MBank.sol\":1120:1157  payable (msg.sender).transfer(amount) */\n      swap1\n      dup2\n      iszero\n      mul\n      swap1\n      mload(0x40)\n      0x00\n      mload(0x40)\n      dup1\n      dup4\n      sub\n      dup2\n      dup6\n      dup9\n      dup9\n      call\n      swap4\n      pop\n      pop\n      pop\n      pop\n      iszero\n      dup1\n      iszero\n      tag_52\n      jumpi\n      returndatacopy(0x00, 0x00, returndatasize)\n      revert(0x00, returndatasize)\n    tag_52:\n      pop\n        /* \"SMART-CONTRACTS-1733812289486/MBank.sol\":1223:1229  amount */\n      dup3\n        /* \"SMART-CONTRACTS-1733812289486/MBank.sol\":1195:1208  balanceLedger */\n      0x00\n        /* \"SMART-CONTRACTS-1733812289486/MBank.sol\":1195:1220  balanceLedger[msg.sender] */\n      0x00\n        /* \"SMART-CONTRACTS-1733812289486/MBank.sol\":1209:1219  msg.sender */\n      caller\n        /* \"SMART-CONTRACTS-1733812289486/MBank.sol\":1195:1220  balanceLedger[msg.sender] */\n      0xffffffffffffffffffffffffffffffffffffffff\n      and\n      0xffffffffffffffffffffffffffffffffffffffff\n      and\n      dup2\n      mstore\n      0x20\n      add\n      swap1\n      dup2\n      mstore\n      0x20\n      add\n      0x00\n      keccak256\n      sload\n        /* \"SMART-CONTRACTS-1733812289486/MBank.sol\":1195:1229  balanceLedger[msg.sender] + amount */\n      tag_53\n      swap2\n      swap1\n      tag_45\n      jump\t// in\n    tag_53:\n        /* \"SMART-CONTRACTS-1733812289486/MBank.sol\":1167:1180  balanceLedger */\n      0x00\n        /* \"SMART-CONTRACTS-1733812289486/MBank.sol\":1167:1192  balanceLedger[msg.sender] */\n      0x00\n        /* \"SMART-CONTRACTS-1733812289486/MBank.sol\":1181:1191  msg.sender */\n      caller\n        /* \"SMART-CONTRACTS-1733812289486/MBank.sol\":1167:1192  balanceLedger[msg.sender] */\n      0xffffffffffffffffffffffffffffffffffffffff\n      and\n      0xffffffffffffffffffffffffffffffffffffffff\n      and\n      dup2\n      mstore\n      0x20\n      add\n      swap1\n      dup2\n      mstore\n      0x20\n      add\n      0x00\n      keccak256\n        /* \"SMART-CONTRACTS-1733812289486/MBank.sol\":1167:1229  balanceLedger[msg.sender] = balanceLedger[msg.sender] + amount */\n      dup2\n      swap1\n      sstore\n      pop\n        /* \"SMART-CONTRACTS-1733812289486/MBank.sol\":1248:1257  toAddress */\n      dup2\n        /* \"SMART-CONTRACTS-1733812289486/MBank.sol\":1239:1267  payable (toAddress).transfer */\n      0xffffffffffffffffffffffffffffffffffffffff\n      and\n        /* \"SMART-CONTRACTS-1733812289486/MBank.sol\":1239:1275  payable (toAddress).transfer(amount) */\n      0x08fc\n        /* \"SMART-CONTRACTS-1733812289486/MBank.sol\":1268:1274  amount */\n      dup5\n        /* \"SMART-CONTRACTS-1733812289486/MBank.sol\":1239:1275  payable (toAddress).transfer(amount) */\n      swap1\n      dup2\n      iszero\n      mul\n      swap1\n      mload(0x40)\n      0x00\n      mload(0x40)\n      dup1\n      dup4\n      sub\n      dup2\n      dup6\n      dup9\n      dup9\n      call\n      swap4\n      pop\n      pop\n      pop\n      pop\n      iszero\n      dup1\n      iszero\n      tag_55\n      jumpi\n      returndatacopy(0x00, 0x00, returndatasize)\n      revert(0x00, returndatasize)\n    tag_55:\n      pop\n        /* \"SMART-CONTRACTS-1733812289486/MBank.sol\":877:1282  function transferTo(uint amount, address toAddress) public balanceCheck(amount) {... */\n      pop\n      pop\n      pop\n      jump\t// out\n        /* \"#utility.yul\":7:84   */\n    tag_56:\n        /* \"#utility.yul\":44:51   */\n      0x00\n        /* \"#utility.yul\":73:78   */\n      dup2\n        /* \"#utility.yul\":62:78   */\n      swap1\n      pop\n        /* \"#utility.yul\":7:84   */\n      swap2\n      swap1\n      pop\n      jump\t// out\n        /* \"#utility.yul\":90:208   */\n    tag_57:\n        /* \"#utility.yul\":177:201   */\n      tag_74\n        /* \"#utility.yul\":195:200   */\n      dup2\n        /* \"#utility.yul\":177:201   */\n      tag_56\n      jump\t// in\n    tag_74:\n        /* \"#utility.yul\":172:175   */\n      dup3\n        /* \"#utility.yul\":165:202   */\n      mstore\n        /* \"#utility.yul\":90:208   */\n      pop\n      pop\n      jump\t// out\n        /* \"#utility.yul\":214:436   */\n    tag_11:\n        /* \"#utility.yul\":307:311   */\n      0x00\n        /* \"#utility.yul\":345:347   */\n      0x20\n        /* \"#utility.yul\":334:343   */\n      dup3\n        /* \"#utility.yul\":330:348   */\n      add\n        /* \"#utility.yul\":322:348   */\n      swap1\n      pop\n        /* \"#utility.yul\":358:429   */\n      tag_76\n        /* \"#utility.yul\":426:427   */\n      0x00\n        /* \"#utility.yul\":415:424   */\n      dup4\n        /* \"#utility.yul\":411:428   */\n      add\n        /* \"#utility.yul\":402:408   */\n      dup5\n        /* \"#utility.yul\":358:429   */\n      tag_57\n      jump\t// in\n    tag_76:\n        /* \"#utility.yul\":214:436   */\n      swap3\n      swap2\n      pop\n      pop\n      jump\t// out\n        /* \"#utility.yul\":523:640   */\n    tag_59:\n        /* \"#utility.yul\":632:633   */\n      0x00\n        /* \"#utility.yul\":629:630   */\n      0x00\n        /* \"#utility.yul\":622:634   */\n      revert\n        /* \"#utility.yul\":769:891   */\n    tag_61:\n        /* \"#utility.yul\":842:866   */\n      tag_81\n        /* \"#utility.yul\":860:865   */\n      dup2\n        /* \"#utility.yul\":842:866   */\n      tag_56\n      jump\t// in\n    tag_81:\n        /* \"#utility.yul\":835:840   */\n      dup2\n        /* \"#utility.yul\":832:867   */\n      eq\n        /* \"#utility.yul\":822:885   */\n      tag_82\n      jumpi\n        /* \"#utility.yul\":881:882   */\n      0x00\n        /* \"#utility.yul\":878:879   */\n      0x00\n        /* \"#utility.yul\":871:883   */\n      revert\n        /* \"#utility.yul\":822:885   */\n    tag_82:\n        /* \"#utility.yul\":769:891   */\n      pop\n      jump\t// out\n        /* \"#utility.yul\":897:1036   */\n    tag_62:\n        /* \"#utility.yul\":943:948   */\n      0x00\n        /* \"#utility.yul\":981:987   */\n      dup2\n        /* \"#utility.yul\":968:988   */\n      calldataload\n        /* \"#utility.yul\":959:988   */\n      swap1\n      pop\n        /* \"#utility.yul\":997:1030   */\n      tag_84\n        /* \"#utility.yul\":1024:1029   */\n      dup2\n        /* \"#utility.yul\":997:1030   */\n      tag_61\n      jump\t// in\n    tag_84:\n        /* \"#utility.yul\":897:1036   */\n      swap3\n      swap2\n      pop\n      pop\n      jump\t// out\n        /* \"#utility.yul\":1042:1371   */\n    tag_15:\n        /* \"#utility.yul\":1101:1107   */\n      0x00\n        /* \"#utility.yul\":1150:1152   */\n      0x20\n        /* \"#utility.yul\":1138:1147   */\n      dup3\n        /* \"#utility.yul\":1129:1136   */\n      dup5\n        /* \"#utility.yul\":1125:1148   */\n      sub\n        /* \"#utility.yul\":1121:1153   */\n      slt\n        /* \"#utility.yul\":1118:1237   */\n      iszero\n      tag_86\n      jumpi\n        /* \"#utility.yul\":1156:1235   */\n      tag_87\n      tag_59\n      jump\t// in\n    tag_87:\n        /* \"#utility.yul\":1118:1237   */\n    tag_86:\n        /* \"#utility.yul\":1276:1277   */\n      0x00\n        /* \"#utility.yul\":1301:1354   */\n      tag_88\n        /* \"#utility.yul\":1346:1353   */\n      dup5\n        /* \"#utility.yul\":1337:1343   */\n      dup3\n        /* \"#utility.yul\":1326:1335   */\n      dup6\n        /* \"#utility.yul\":1322:1344   */\n      add\n        /* \"#utility.yul\":1301:1354   */\n      tag_62\n      jump\t// in\n    tag_88:\n        /* \"#utility.yul\":1291:1354   */\n      swap2\n      pop\n        /* \"#utility.yul\":1247:1364   */\n      pop\n        /* \"#utility.yul\":1042:1371   */\n      swap3\n      swap2\n      pop\n      pop\n      jump\t// out\n        /* \"#utility.yul\":1377:1503   */\n    tag_63:\n        /* \"#utility.yul\":1414:1421   */\n      0x00\n        /* \"#utility.yul\":1454:1496   */\n      0xffffffffffffffffffffffffffffffffffffffff\n        /* \"#utility.yul\":1447:1452   */\n      dup3\n        /* \"#utility.yul\":1443:1497   */\n      and\n        /* \"#utility.yul\":1432:1497   */\n      swap1\n      pop\n        /* \"#utility.yul\":1377:1503   */\n      swap2\n      swap1\n      pop\n      jump\t// out\n        /* \"#utility.yul\":1509:1605   */\n    tag_64:\n        /* \"#utility.yul\":1546:1553   */\n      0x00\n        /* \"#utility.yul\":1575:1599   */\n      tag_91\n        /* \"#utility.yul\":1593:1598   */\n      dup3\n        /* \"#utility.yul\":1575:1599   */\n      tag_63\n      jump\t// in\n    tag_91:\n        /* \"#utility.yul\":1564:1599   */\n      swap1\n      pop\n        /* \"#utility.yul\":1509:1605   */\n      swap2\n      swap1\n      pop\n      jump\t// out\n        /* \"#utility.yul\":1611:1733   */\n    tag_65:\n        /* \"#utility.yul\":1684:1708   */\n      tag_93\n        /* \"#utility.yul\":1702:1707   */\n      dup2\n        /* \"#utility.yul\":1684:1708   */\n      tag_64\n      jump\t// in\n    tag_93:\n        /* \"#utility.yul\":1677:1682   */\n      dup2\n        /* \"#utility.yul\":1674:1709   */\n      eq\n        /* \"#utility.yul\":1664:1727   */\n      tag_94\n      jumpi\n        /* \"#utility.yul\":1723:1724   */\n      0x00\n        /* \"#utility.yul\":1720:1721   */\n      0x00\n        /* \"#utility.yul\":1713:1725   */\n      revert\n        /* \"#utility.yul\":1664:1727   */\n    tag_94:\n        /* \"#utility.yul\":1611:1733   */\n      pop\n      jump\t// out\n        /* \"#utility.yul\":1739:1878   */\n    tag_66:\n        /* \"#utility.yul\":1785:1790   */\n      0x00\n        /* \"#utility.yul\":1823:1829   */\n      dup2\n        /* \"#utility.yul\":1810:1830   */\n      calldataload\n        /* \"#utility.yul\":1801:1830   */\n      swap1\n      pop\n        /* \"#utility.yul\":1839:1872   */\n      tag_96\n        /* \"#utility.yul\":1866:1871   */\n      dup2\n        /* \"#utility.yul\":1839:1872   */\n      tag_65\n      jump\t// in\n    tag_96:\n        /* \"#utility.yul\":1739:1878   */\n      swap3\n      swap2\n      pop\n      pop\n      jump\t// out\n        /* \"#utility.yul\":1884:2358   */\n    tag_27:\n        /* \"#utility.yul\":1952:1958   */\n      0x00\n        /* \"#utility.yul\":1960:1966   */\n      0x00\n        /* \"#utility.yul\":2009:2011   */\n      0x40\n        /* \"#utility.yul\":1997:2006   */\n      dup4\n        /* \"#utility.yul\":1988:1995   */\n      dup6\n        /* \"#utility.yul\":1984:2007   */\n      sub\n        /* \"#utility.yul\":1980:2012   */\n      slt\n        /* \"#utility.yul\":1977:2096   */\n      iszero\n      tag_98\n      jumpi\n        /* \"#utility.yul\":2015:2094   */\n      tag_99\n      tag_59\n      jump\t// in\n    tag_99:\n        /* \"#utility.yul\":1977:2096   */\n    tag_98:\n        /* \"#utility.yul\":2135:2136   */\n      0x00\n        /* \"#utility.yul\":2160:2213   */\n      tag_100\n        /* \"#utility.yul\":2205:2212   */\n      dup6\n        /* \"#utility.yul\":2196:2202   */\n      dup3\n        /* \"#utility.yul\":2185:2194   */\n      dup7\n        /* \"#utility.yul\":2181:2203   */\n      add\n        /* \"#utility.yul\":2160:2213   */\n      tag_62\n      jump\t// in\n    tag_100:\n        /* \"#utility.yul\":2150:2213   */\n      swap3\n      pop\n        /* \"#utility.yul\":2106:2223   */\n      pop\n        /* \"#utility.yul\":2262:2264   */\n      0x20\n        /* \"#utility.yul\":2288:2341   */\n      tag_101\n        /* \"#utility.yul\":2333:2340   */\n      dup6\n        /* \"#utility.yul\":2324:2330   */\n      dup3\n        /* \"#utility.yul\":2313:2322   */\n      dup7\n        /* \"#utility.yul\":2309:2331   */\n      add\n        /* \"#utility.yul\":2288:2341   */\n      tag_66\n      jump\t// in\n    tag_101:\n        /* \"#utility.yul\":2278:2341   */\n      swap2\n      pop\n        /* \"#utility.yul\":2233:2351   */\n      pop\n        /* \"#utility.yul\":1884:2358   */\n      swap3\n      pop\n      swap3\n      swap1\n      pop\n      jump\t// out\n        /* \"#utility.yul\":2364:2533   */\n    tag_67:\n        /* \"#utility.yul\":2448:2459   */\n      0x00\n        /* \"#utility.yul\":2482:2488   */\n      dup3\n        /* \"#utility.yul\":2477:2480   */\n      dup3\n        /* \"#utility.yul\":2470:2489   */\n      mstore\n        /* \"#utility.yul\":2522:2526   */\n      0x20\n        /* \"#utility.yul\":2517:2520   */\n      dup3\n        /* \"#utility.yul\":2513:2527   */\n      add\n        /* \"#utility.yul\":2498:2527   */\n      swap1\n      pop\n        /* \"#utility.yul\":2364:2533   */\n      swap3\n      swap2\n      pop\n      pop\n      jump\t// out\n        /* \"#utility.yul\":2539:2709   */\n    tag_68:\n        /* \"#utility.yul\":2679:2701   */\n      0x496e73756666696369656e742042616c616e6365000000000000000000000000\n        /* \"#utility.yul\":2675:2676   */\n      0x00\n        /* \"#utility.yul\":2667:2673   */\n      dup3\n        /* \"#utility.yul\":2663:2677   */\n      add\n        /* \"#utility.yul\":2656:2702   */\n      mstore\n        /* \"#utility.yul\":2539:2709   */\n      pop\n      jump\t// out\n        /* \"#utility.yul\":2715:3081   */\n    tag_69:\n        /* \"#utility.yul\":2857:2860   */\n      0x00\n        /* \"#utility.yul\":2878:2945   */\n      tag_105\n        /* \"#utility.yul\":2942:2944   */\n      0x14\n        /* \"#utility.yul\":2937:2940   */\n      dup4\n        /* \"#utility.yul\":2878:2945   */\n      tag_67\n      jump\t// in\n    tag_105:\n        /* \"#utility.yul\":2871:2945   */\n      swap2\n      pop\n        /* \"#utility.yul\":2954:3047   */\n      tag_106\n        /* \"#utility.yul\":3043:3046   */\n      dup3\n        /* \"#utility.yul\":2954:3047   */\n      tag_68\n      jump\t// in\n    tag_106:\n        /* \"#utility.yul\":3072:3074   */\n      0x20\n        /* \"#utility.yul\":3067:3070   */\n      dup3\n        /* \"#utility.yul\":3063:3075   */\n      add\n        /* \"#utility.yul\":3056:3075   */\n      swap1\n      pop\n        /* \"#utility.yul\":2715:3081   */\n      swap2\n      swap1\n      pop\n      jump\t// out\n        /* \"#utility.yul\":3087:3506   */\n    tag_34:\n        /* \"#utility.yul\":3253:3257   */\n      0x00\n        /* \"#utility.yul\":3291:3293   */\n      0x20\n        /* \"#utility.yul\":3280:3289   */\n      dup3\n        /* \"#utility.yul\":3276:3294   */\n      add\n        /* \"#utility.yul\":3268:3294   */\n      swap1\n      pop\n        /* \"#utility.yul\":3340:3349   */\n      dup2\n        /* \"#utility.yul\":3334:3338   */\n      dup2\n        /* \"#utility.yul\":3330:3350   */\n      sub\n        /* \"#utility.yul\":3326:3327   */\n      0x00\n        /* \"#utility.yul\":3315:3324   */\n      dup4\n        /* \"#utility.yul\":3311:3328   */\n      add\n        /* \"#utility.yul\":3304:3351   */\n      mstore\n        /* \"#utility.yul\":3368:3499   */\n      tag_108\n        /* \"#utility.yul\":3494:3498   */\n      dup2\n        /* \"#utility.yul\":3368:3499   */\n      tag_69\n      jump\t// in\n    tag_108:\n        /* \"#utility.yul\":3360:3499   */\n      swap1\n      pop\n        /* \"#utility.yul\":3087:3506   */\n      swap2\n      swap1\n      pop\n      jump\t// out\n        /* \"#utility.yul\":3512:3692   */\n    tag_70:\n        /* \"#utility.yul\":3560:3637   */\n      0x4e487b7100000000000000000000000000000000000000000000000000000000\n        /* \"#utility.yul\":3557:3558   */\n      0x00\n        /* \"#utility.yul\":3550:3638   */\n      mstore\n        /* \"#utility.yul\":3657:3661   */\n      0x11\n        /* \"#utility.yul\":3654:3655   */\n      0x04\n        /* \"#utility.yul\":3647:3662   */\n      mstore\n        /* \"#utility.yul\":3681:3685   */\n      0x24\n        /* \"#utility.yul\":3678:3679   */\n      0x00\n        /* \"#utility.yul\":3671:3686   */\n      revert\n        /* \"#utility.yul\":3698:3892   */\n    tag_37:\n        /* \"#utility.yul\":3738:3742   */\n      0x00\n        /* \"#utility.yul\":3758:3778   */\n      tag_111\n        /* \"#utility.yul\":3776:3777   */\n      dup3\n        /* \"#utility.yul\":3758:3778   */\n      tag_56\n      jump\t// in\n    tag_111:\n        /* \"#utility.yul\":3753:3778   */\n      swap2\n      pop\n        /* \"#utility.yul\":3792:3812   */\n      tag_112\n        /* \"#utility.yul\":3810:3811   */\n      dup4\n        /* \"#utility.yul\":3792:3812   */\n      tag_56\n      jump\t// in\n    tag_112:\n        /* \"#utility.yul\":3787:3812   */\n      swap3\n      pop\n        /* \"#utility.yul\":3836:3837   */\n      dup3\n        /* \"#utility.yul\":3833:3834   */\n      dup3\n        /* \"#utility.yul\":3829:3838   */\n      sub\n        /* \"#utility.yul\":3821:3838   */\n      swap1\n      pop\n        /* \"#utility.yul\":3860:3861   */\n      dup2\n        /* \"#utility.yul\":3854:3858   */\n      dup2\n        /* \"#utility.yul\":3851:3862   */\n      gt\n        /* \"#utility.yul\":3848:3885   */\n      iszero\n      tag_113\n      jumpi\n        /* \"#utility.yul\":3865:3883   */\n      tag_114\n      tag_70\n      jump\t// in\n    tag_114:\n        /* \"#utility.yul\":3848:3885   */\n    tag_113:\n        /* \"#utility.yul\":3698:3892   */\n      swap3\n      swap2\n      pop\n      pop\n      jump\t// out\n        /* \"#utility.yul\":3898:4308   */\n    tag_42:\n        /* \"#utility.yul\":3938:3945   */\n      0x00\n        /* \"#utility.yul\":3961:3981   */\n      tag_116\n        /* \"#utility.yul\":3979:3980   */\n      dup3\n        /* \"#utility.yul\":3961:3981   */\n      tag_56\n      jump\t// in\n    tag_116:\n        /* \"#utility.yul\":3956:3981   */\n      swap2\n      pop\n        /* \"#utility.yul\":3995:4015   */\n      tag_117\n        /* \"#utility.yul\":4013:4014   */\n      dup4\n        /* \"#utility.yul\":3995:4015   */\n      tag_56\n      jump\t// in\n    tag_117:\n        /* \"#utility.yul\":3990:4015   */\n      swap3\n      pop\n        /* \"#utility.yul\":4050:4051   */\n      dup3\n        /* \"#utility.yul\":4047:4048   */\n      dup3\n        /* \"#utility.yul\":4043:4052   */\n      mul\n        /* \"#utility.yul\":4072:4102   */\n      tag_118\n        /* \"#utility.yul\":4090:4101   */\n      dup2\n        /* \"#utility.yul\":4072:4102   */\n      tag_56\n      jump\t// in\n    tag_118:\n        /* \"#utility.yul\":4061:4102   */\n      swap2\n      pop\n        /* \"#utility.yul\":4251:4252   */\n      dup3\n        /* \"#utility.yul\":4242:4249   */\n      dup3\n        /* \"#utility.yul\":4238:4253   */\n      div\n        /* \"#utility.yul\":4235:4236   */\n      dup5\n        /* \"#utility.yul\":4232:4254   */\n      eq\n        /* \"#utility.yul\":4212:4213   */\n      dup4\n        /* \"#utility.yul\":4205:4214   */\n      iszero\n        /* \"#utility.yul\":4185:4268   */\n      or\n        /* \"#utility.yul\":4162:4301   */\n      tag_119\n      jumpi\n        /* \"#utility.yul\":4281:4299   */\n      tag_120\n      tag_70\n      jump\t// in\n    tag_120:\n        /* \"#utility.yul\":4162:4301   */\n    tag_119:\n        /* \"#utility.yul\":3946:4308   */\n      pop\n        /* \"#utility.yul\":3898:4308   */\n      swap3\n      swap2\n      pop\n      pop\n      jump\t// out\n        /* \"#utility.yul\":4314:4505   */\n    tag_45:\n        /* \"#utility.yul\":4354:4357   */\n      0x00\n        /* \"#utility.yul\":4373:4393   */\n      tag_122\n        /* \"#utility.yul\":4391:4392   */\n      dup3\n        /* \"#utility.yul\":4373:4393   */\n      tag_56\n      jump\t// in\n    tag_122:\n        /* \"#utility.yul\":4368:4393   */\n      swap2\n      pop\n        /* \"#utility.yul\":4407:4427   */\n      tag_123\n        /* \"#utility.yul\":4425:4426   */\n      dup4\n        /* \"#utility.yul\":4407:4427   */\n      tag_56\n      jump\t// in\n    tag_123:\n        /* \"#utility.yul\":4402:4427   */\n      swap3\n      pop\n        /* \"#utility.yul\":4450:4451   */\n      dup3\n        /* \"#utility.yul\":4447:4448   */\n      dup3\n        /* \"#utility.yul\":4443:4452   */\n      add\n        /* \"#utility.yul\":4436:4452   */\n      swap1\n      pop\n        /* \"#utility.yul\":4471:4474   */\n      dup1\n        /* \"#utility.yul\":4468:4469   */\n      dup3\n        /* \"#utility.yul\":4465:4475   */\n      gt\n        /* \"#utility.yul\":4462:4498   */\n      iszero\n      tag_124\n      jumpi\n        /* \"#utility.yul\":4478:4496   */\n      tag_125\n      tag_70\n      jump\t// in\n    tag_125:\n        /* \"#utility.yul\":4462:4498   */\n    tag_124:\n        /* \"#utility.yul\":4314:4505   */\n      swap3\n      swap2\n      pop\n      pop\n      jump\t// out\n\n    auxdata: 0xa264697066735822122011af6698a46c92c8fe43707b13e4e1d13d34ba5b68904f31e67914a7f7d7420164736f6c634300081c0033\n}\n",
				"bytecode": {
					"linkReferences": {},
					"object": "6080604052348015600e575f5ffd5b5061080f8061001c5f395ff3fe608060405260043610610049575f3560e01c806312065fe01461004d5780632e1a7d4d1461007757806388439bbc1461009f578063d0e30db0146100db578063d4822fbf146100e5575b5f5ffd5b348015610058575f5ffd5b5061006161010d565b60405161006e9190610583565b60405180910390f35b348015610082575f5ffd5b5061009d600480360381019061009891906105ca565b610158565b005b3480156100aa575f5ffd5b506100c560048036038101906100c091906105ca565b6102a8565b6040516100d29190610583565b60405180910390f35b6100e36102c4565b005b3480156100f0575f5ffd5b5061010b6004803603810190610106919061064f565b61034e565b005b5f6101535f5f3373ffffffffffffffffffffffffffffffffffffffff1673ffffffffffffffffffffffffffffffffffffffff1681526020019081526020015f20546102a8565b905090565b80805f5f3373ffffffffffffffffffffffffffffffffffffffff1673ffffffffffffffffffffffffffffffffffffffff1681526020019081526020015f205410156101d8576040517f08c379a00000000000000000000000000000000000000000000000000000000081526004016101cf906106e7565b60405180910390fd5b815f5f3373ffffffffffffffffffffffffffffffffffffffff1673ffffffffffffffffffffffffffffffffffffffff1681526020019081526020015f20546102209190610732565b5f5f3373ffffffffffffffffffffffffffffffffffffffff1673ffffffffffffffffffffffffffffffffffffffff1681526020019081526020015f20819055503373ffffffffffffffffffffffffffffffffffffffff166108fc8390811502906040515f60405180830381858888f193505050501580156102a3573d5f5f3e3d5ffd5b505050565b5f670de0b6b3a7640000826102bd9190610765565b9050919050565b345f5f3373ffffffffffffffffffffffffffffffffffffffff1673ffffffffffffffffffffffffffffffffffffffff1681526020019081526020015f205461030c91906107a6565b5f5f3373ffffffffffffffffffffffffffffffffffffffff1673ffffffffffffffffffffffffffffffffffffffff1681526020019081526020015f2081905550565b81805f5f3373ffffffffffffffffffffffffffffffffffffffff1673ffffffffffffffffffffffffffffffffffffffff1681526020019081526020015f205410156103ce576040517f08c379a00000000000000000000000000000000000000000000000000000000081526004016103c5906106e7565b60405180910390fd5b825f5f3373ffffffffffffffffffffffffffffffffffffffff1673ffffffffffffffffffffffffffffffffffffffff1681526020019081526020015f20546104169190610732565b5f5f3373ffffffffffffffffffffffffffffffffffffffff1673ffffffffffffffffffffffffffffffffffffffff1681526020019081526020015f20819055503373ffffffffffffffffffffffffffffffffffffffff166108fc8490811502906040515f60405180830381858888f19350505050158015610499573d5f5f3e3d5ffd5b50825f5f3373ffffffffffffffffffffffffffffffffffffffff1673ffffffffffffffffffffffffffffffffffffffff1681526020019081526020015f20546104e291906107a6565b5f5f3373ffffffffffffffffffffffffffffffffffffffff1673ffffffffffffffffffffffffffffffffffffffff1681526020019081526020015f20819055508173ffffffffffffffffffffffffffffffffffffffff166108fc8490811502906040515f60405180830381858888f19350505050158015610565573d5f5f3e3d5ffd5b50505050565b5f819050919050565b61057d8161056b565b82525050565b5f6020820190506105965f830184610574565b92915050565b5f5ffd5b6105a98161056b565b81146105b3575f5ffd5b50565b5f813590506105c4816105a0565b92915050565b5f602082840312156105df576105de61059c565b5b5f6105ec848285016105b6565b91505092915050565b5f73ffffffffffffffffffffffffffffffffffffffff82169050919050565b5f61061e826105f5565b9050919050565b61062e81610614565b8114610638575f5ffd5b50565b5f8135905061064981610625565b92915050565b5f5f604083850312156106655761066461059c565b5b5f610672858286016105b6565b92505060206106838582860161063b565b9150509250929050565b5f82825260208201905092915050565b7f496e73756666696369656e742042616c616e63650000000000000000000000005f82015250565b5f6106d160148361068d565b91506106dc8261069d565b602082019050919050565b5f6020820190508181035f8301526106fe816106c5565b9050919050565b7f4e487b71000000000000000000000000000000000000000000000000000000005f52601160045260245ffd5b5f61073c8261056b565b91506107478361056b565b925082820390508181111561075f5761075e610705565b5b92915050565b5f61076f8261056b565b915061077a8361056b565b92508282026107888161056b565b9150828204841483151761079f5761079e610705565b5b5092915050565b5f6107b08261056b565b91506107bb8361056b565b92508282019050808211156107d3576107d2610705565b5b9291505056fea264697066735822122011af6698a46c92c8fe43707b13e4e1d13d34ba5b68904f31e67914a7f7d7420164736f6c634300081c0033",
					"opcodes": "PUSH1 0x80 PUSH1 0x40 MSTORE CALLVALUE DUP1 ISZERO PUSH1 0xE JUMPI PUSH0 PUSH0 REVERT JUMPDEST POP PUSH2 0x80F DUP1 PUSH2 0x1C PUSH0 CODECOPY PUSH0 RETURN INVALID PUSH1 0x80 PUSH1 0x40 MSTORE PUSH1 0x4 CALLDATASIZE LT PUSH2 0x49 JUMPI PUSH0 CALLDATALOAD PUSH1 0xE0 SHR DUP1 PUSH4 0x12065FE0 EQ PUSH2 0x4D JUMPI DUP1 PUSH4 0x2E1A7D4D EQ PUSH2 0x77 JUMPI DUP1 PUSH4 0x88439BBC EQ PUSH2 0x9F JUMPI DUP1 PUSH4 0xD0E30DB0 EQ PUSH2 0xDB JUMPI DUP1 PUSH4 0xD4822FBF EQ PUSH2 0xE5 JUMPI JUMPDEST PUSH0 PUSH0 REVERT JUMPDEST CALLVALUE DUP1 ISZERO PUSH2 0x58 JUMPI PUSH0 PUSH0 REVERT JUMPDEST POP PUSH2 0x61 PUSH2 0x10D JUMP JUMPDEST PUSH1 0x40 MLOAD PUSH2 0x6E SWAP2 SWAP1 PUSH2 0x583 JUMP JUMPDEST PUSH1 0x40 MLOAD DUP1 SWAP2 SUB SWAP1 RETURN JUMPDEST CALLVALUE DUP1 ISZERO PUSH2 0x82 JUMPI PUSH0 PUSH0 REVERT JUMPDEST POP PUSH2 0x9D PUSH1 0x4 DUP1 CALLDATASIZE SUB DUP2 ADD SWAP1 PUSH2 0x98 SWAP2 SWAP1 PUSH2 0x5CA JUMP JUMPDEST PUSH2 0x158 JUMP JUMPDEST STOP JUMPDEST CALLVALUE DUP1 ISZERO PUSH2 0xAA JUMPI PUSH0 PUSH0 REVERT JUMPDEST POP PUSH2 0xC5 PUSH1 0x4 DUP1 CALLDATASIZE SUB DUP2 ADD SWAP1 PUSH2 0xC0 SWAP2 SWAP1 PUSH2 0x5CA JUMP JUMPDEST PUSH2 0x2A8 JUMP JUMPDEST PUSH1 0x40 MLOAD PUSH2 0xD2 SWAP2 SWAP1 PUSH2 0x583 JUMP JUMPDEST PUSH1 0x40 MLOAD DUP1 SWAP2 SUB SWAP1 RETURN JUMPDEST PUSH2 0xE3 PUSH2 0x2C4 JUMP JUMPDEST STOP JUMPDEST CALLVALUE DUP1 ISZERO PUSH2 0xF0 JUMPI PUSH0 PUSH0 REVERT JUMPDEST POP PUSH2 0x10B PUSH1 0x4 DUP1 CALLDATASIZE SUB DUP2 ADD SWAP1 PUSH2 0x106 SWAP2 SWAP1 PUSH2 0x64F JUMP JUMPDEST PUSH2 0x34E JUMP JUMPDEST STOP JUMPDEST PUSH0 PUSH2 0x153 PUSH0 PUSH0 CALLER PUSH20 0xFFFFFFFFFFFFFFFFFFFFFFFFFFFFFFFFFFFFFFFF AND PUSH20 0xFFFFFFFFFFFFFFFFFFFFFFFFFFFFFFFFFFFFFFFF AND DUP2 MSTORE PUSH1 0x20 ADD SWAP1 DUP2 MSTORE PUSH1 0x20 ADD PUSH0 KECCAK256 SLOAD PUSH2 0x2A8 JUMP JUMPDEST SWAP1 POP SWAP1 JUMP JUMPDEST DUP1 DUP1 PUSH0 PUSH0 CALLER PUSH20 0xFFFFFFFFFFFFFFFFFFFFFFFFFFFFFFFFFFFFFFFF AND PUSH20 0xFFFFFFFFFFFFFFFFFFFFFFFFFFFFFFFFFFFFFFFF AND DUP2 MSTORE PUSH1 0x20 ADD SWAP1 DUP2 MSTORE PUSH1 0x20 ADD PUSH0 KECCAK256 SLOAD LT ISZERO PUSH2 0x1D8 JUMPI PUSH1 0x40 MLOAD PUSH32 0x8C379A000000000000000000000000000000000000000000000000000000000 DUP2 MSTORE PUSH1 0x4 ADD PUSH2 0x1CF SWAP1 PUSH2 0x6E7 JUMP JUMPDEST PUSH1 0x40 MLOAD DUP1 SWAP2 SUB SWAP1 REVERT JUMPDEST DUP2 PUSH0 PUSH0 CALLER PUSH20 0xFFFFFFFFFFFFFFFFFFFFFFFFFFFFFFFFFFFFFFFF AND PUSH20 0xFFFFFFFFFFFFFFFFFFFFFFFFFFFFFFFFFFFFFFFF AND DUP2 MSTORE PUSH1 0x20 ADD SWAP1 DUP2 MSTORE PUSH1 0x20 ADD PUSH0 KECCAK256 SLOAD PUSH2 0x220 SWAP2 SWAP1 PUSH2 0x732 JUMP JUMPDEST PUSH0 PUSH0 CALLER PUSH20 0xFFFFFFFFFFFFFFFFFFFFFFFFFFFFFFFFFFFFFFFF AND PUSH20 0xFFFFFFFFFFFFFFFFFFFFFFFFFFFFFFFFFFFFFFFF AND DUP2 MSTORE PUSH1 0x20 ADD SWAP1 DUP2 MSTORE PUSH1 0x20 ADD PUSH0 KECCAK256 DUP2 SWAP1 SSTORE POP CALLER PUSH20 0xFFFFFFFFFFFFFFFFFFFFFFFFFFFFFFFFFFFFFFFF AND PUSH2 0x8FC DUP4 SWAP1 DUP2 ISZERO MUL SWAP1 PUSH1 0x40 MLOAD PUSH0 PUSH1 0x40 MLOAD DUP1 DUP4 SUB DUP2 DUP6 DUP9 DUP9 CALL SWAP4 POP POP POP POP ISZERO DUP1 ISZERO PUSH2 0x2A3 JUMPI RETURNDATASIZE PUSH0 PUSH0 RETURNDATACOPY RETURNDATASIZE PUSH0 REVERT JUMPDEST POP POP POP JUMP JUMPDEST PUSH0 PUSH8 0xDE0B6B3A7640000 DUP3 PUSH2 0x2BD SWAP2 SWAP1 PUSH2 0x765 JUMP JUMPDEST SWAP1 POP SWAP2 SWAP1 POP JUMP JUMPDEST CALLVALUE PUSH0 PUSH0 CALLER PUSH20 0xFFFFFFFFFFFFFFFFFFFFFFFFFFFFFFFFFFFFFFFF AND PUSH20 0xFFFFFFFFFFFFFFFFFFFFFFFFFFFFFFFFFFFFFFFF AND DUP2 MSTORE PUSH1 0x20 ADD SWAP1 DUP2 MSTORE PUSH1 0x20 ADD PUSH0 KECCAK256 SLOAD PUSH2 0x30C SWAP2 SWAP1 PUSH2 0x7A6 JUMP JUMPDEST PUSH0 PUSH0 CALLER PUSH20 0xFFFFFFFFFFFFFFFFFFFFFFFFFFFFFFFFFFFFFFFF AND PUSH20 0xFFFFFFFFFFFFFFFFFFFFFFFFFFFFFFFFFFFFFFFF AND DUP2 MSTORE PUSH1 0x20 ADD SWAP1 DUP2 MSTORE PUSH1 0x20 ADD PUSH0 KECCAK256 DUP2 SWAP1 SSTORE POP JUMP JUMPDEST DUP2 DUP1 PUSH0 PUSH0 CALLER PUSH20 0xFFFFFFFFFFFFFFFFFFFFFFFFFFFFFFFFFFFFFFFF AND PUSH20 0xFFFFFFFFFFFFFFFFFFFFFFFFFFFFFFFFFFFFFFFF AND DUP2 MSTORE PUSH1 0x20 ADD SWAP1 DUP2 MSTORE PUSH1 0x20 ADD PUSH0 KECCAK256 SLOAD LT ISZERO PUSH2 0x3CE JUMPI PUSH1 0x40 MLOAD PUSH32 0x8C379A000000000000000000000000000000000000000000000000000000000 DUP2 MSTORE PUSH1 0x4 ADD PUSH2 0x3C5 SWAP1 PUSH2 0x6E7 JUMP JUMPDEST PUSH1 0x40 MLOAD DUP1 SWAP2 SUB SWAP1 REVERT JUMPDEST DUP3 PUSH0 PUSH0 CALLER PUSH20 0xFFFFFFFFFFFFFFFFFFFFFFFFFFFFFFFFFFFFFFFF AND PUSH20 0xFFFFFFFFFFFFFFFFFFFFFFFFFFFFFFFFFFFFFFFF AND DUP2 MSTORE PUSH1 0x20 ADD SWAP1 DUP2 MSTORE PUSH1 0x20 ADD PUSH0 KECCAK256 SLOAD PUSH2 0x416 SWAP2 SWAP1 PUSH2 0x732 JUMP JUMPDEST PUSH0 PUSH0 CALLER PUSH20 0xFFFFFFFFFFFFFFFFFFFFFFFFFFFFFFFFFFFFFFFF AND PUSH20 0xFFFFFFFFFFFFFFFFFFFFFFFFFFFFFFFFFFFFFFFF AND DUP2 MSTORE PUSH1 0x20 ADD SWAP1 DUP2 MSTORE PUSH1 0x20 ADD PUSH0 KECCAK256 DUP2 SWAP1 SSTORE POP CALLER PUSH20 0xFFFFFFFFFFFFFFFFFFFFFFFFFFFFFFFFFFFFFFFF AND PUSH2 0x8FC DUP5 SWAP1 DUP2 ISZERO MUL SWAP1 PUSH1 0x40 MLOAD PUSH0 PUSH1 0x40 MLOAD DUP1 DUP4 SUB DUP2 DUP6 DUP9 DUP9 CALL SWAP4 POP POP POP POP ISZERO DUP1 ISZERO PUSH2 0x499 JUMPI RETURNDATASIZE PUSH0 PUSH0 RETURNDATACOPY RETURNDATASIZE PUSH0 REVERT JUMPDEST POP DUP3 PUSH0 PUSH0 CALLER PUSH20 0xFFFFFFFFFFFFFFFFFFFFFFFFFFFFFFFFFFFFFFFF AND PUSH20 0xFFFFFFFFFFFFFFFFFFFFFFFFFFFFFFFFFFFFFFFF AND DUP2 MSTORE PUSH1 0x20 ADD SWAP1 DUP2 MSTORE PUSH1 0x20 ADD PUSH0 KECCAK256 SLOAD PUSH2 0x4E2 SWAP2 SWAP1 PUSH2 0x7A6 JUMP JUMPDEST PUSH0 PUSH0 CALLER PUSH20 0xFFFFFFFFFFFFFFFFFFFFFFFFFFFFFFFFFFFFFFFF AND PUSH20 0xFFFFFFFFFFFFFFFFFFFFFFFFFFFFFFFFFFFFFFFF AND DUP2 MSTORE PUSH1 0x20 ADD SWAP1 DUP2 MSTORE PUSH1 0x20 ADD PUSH0 KECCAK256 DUP2 SWAP1 SSTORE POP DUP2 PUSH20 0xFFFFFFFFFFFFFFFFFFFFFFFFFFFFFFFFFFFFFFFF AND PUSH2 0x8FC DUP5 SWAP1 DUP2 ISZERO MUL SWAP1 PUSH1 0x40 MLOAD PUSH0 PUSH1 0x40 MLOAD DUP1 DUP4 SUB DUP2 DUP6 DUP9 DUP9 CALL SWAP4 POP POP POP POP ISZERO DUP1 ISZERO PUSH2 0x565 JUMPI RETURNDATASIZE PUSH0 PUSH0 RETURNDATACOPY RETURNDATASIZE PUSH0 REVERT JUMPDEST POP POP POP POP JUMP JUMPDEST PUSH0 DUP2 SWAP1 POP SWAP2 SWAP1 POP JUMP JUMPDEST PUSH2 0x57D DUP2 PUSH2 0x56B JUMP JUMPDEST DUP3 MSTORE POP POP JUMP JUMPDEST PUSH0 PUSH1 0x20 DUP3 ADD SWAP1 POP PUSH2 0x596 PUSH0 DUP4 ADD DUP5 PUSH2 0x574 JUMP JUMPDEST SWAP3 SWAP2 POP POP JUMP JUMPDEST PUSH0 PUSH0 REVERT JUMPDEST PUSH2 0x5A9 DUP2 PUSH2 0x56B JUMP JUMPDEST DUP2 EQ PUSH2 0x5B3 JUMPI PUSH0 PUSH0 REVERT JUMPDEST POP JUMP JUMPDEST PUSH0 DUP2 CALLDATALOAD SWAP1 POP PUSH2 0x5C4 DUP2 PUSH2 0x5A0 JUMP JUMPDEST SWAP3 SWAP2 POP POP JUMP JUMPDEST PUSH0 PUSH1 0x20 DUP3 DUP5 SUB SLT ISZERO PUSH2 0x5DF JUMPI PUSH2 0x5DE PUSH2 0x59C JUMP JUMPDEST JUMPDEST PUSH0 PUSH2 0x5EC DUP5 DUP3 DUP6 ADD PUSH2 0x5B6 JUMP JUMPDEST SWAP2 POP POP SWAP3 SWAP2 POP POP JUMP JUMPDEST PUSH0 PUSH20 0xFFFFFFFFFFFFFFFFFFFFFFFFFFFFFFFFFFFFFFFF DUP3 AND SWAP1 POP SWAP2 SWAP1 POP JUMP JUMPDEST PUSH0 PUSH2 0x61E DUP3 PUSH2 0x5F5 JUMP JUMPDEST SWAP1 POP SWAP2 SWAP1 POP JUMP JUMPDEST PUSH2 0x62E DUP2 PUSH2 0x614 JUMP JUMPDEST DUP2 EQ PUSH2 0x638 JUMPI PUSH0 PUSH0 REVERT JUMPDEST POP JUMP JUMPDEST PUSH0 DUP2 CALLDATALOAD SWAP1 POP PUSH2 0x649 DUP2 PUSH2 0x625 JUMP JUMPDEST SWAP3 SWAP2 POP POP JUMP JUMPDEST PUSH0 PUSH0 PUSH1 0x40 DUP4 DUP6 SUB SLT ISZERO PUSH2 0x665 JUMPI PUSH2 0x664 PUSH2 0x59C JUMP JUMPDEST JUMPDEST PUSH0 PUSH2 0x672 DUP6 DUP3 DUP7 ADD PUSH2 0x5B6 JUMP JUMPDEST SWAP3 POP POP PUSH1 0x20 PUSH2 0x683 DUP6 DUP3 DUP7 ADD PUSH2 0x63B JUMP JUMPDEST SWAP2 POP POP SWAP3 POP SWAP3 SWAP1 POP JUMP JUMPDEST PUSH0 DUP3 DUP3 MSTORE PUSH1 0x20 DUP3 ADD SWAP1 POP SWAP3 SWAP2 POP POP JUMP JUMPDEST PUSH32 0x496E73756666696369656E742042616C616E6365000000000000000000000000 PUSH0 DUP3 ADD MSTORE POP JUMP JUMPDEST PUSH0 PUSH2 0x6D1 PUSH1 0x14 DUP4 PUSH2 0x68D JUMP JUMPDEST SWAP2 POP PUSH2 0x6DC DUP3 PUSH2 0x69D JUMP JUMPDEST PUSH1 0x20 DUP3 ADD SWAP1 POP SWAP2 SWAP1 POP JUMP JUMPDEST PUSH0 PUSH1 0x20 DUP3 ADD SWAP1 POP DUP2 DUP2 SUB PUSH0 DUP4 ADD MSTORE PUSH2 0x6FE DUP2 PUSH2 0x6C5 JUMP JUMPDEST SWAP1 POP SWAP2 SWAP1 POP JUMP JUMPDEST PUSH32 0x4E487B7100000000000000000000000000000000000000000000000000000000 PUSH0 MSTORE PUSH1 0x11 PUSH1 0x4 MSTORE PUSH1 0x24 PUSH0 REVERT JUMPDEST PUSH0 PUSH2 0x73C DUP3 PUSH2 0x56B JUMP JUMPDEST SWAP2 POP PUSH2 0x747 DUP4 PUSH2 0x56B JUMP JUMPDEST SWAP3 POP DUP3 DUP3 SUB SWAP1 POP DUP2 DUP2 GT ISZERO PUSH2 0x75F JUMPI PUSH2 0x75E PUSH2 0x705 JUMP JUMPDEST JUMPDEST SWAP3 SWAP2 POP POP JUMP JUMPDEST PUSH0 PUSH2 0x76F DUP3 PUSH2 0x56B JUMP JUMPDEST SWAP2 POP PUSH2 0x77A DUP4 PUSH2 0x56B JUMP JUMPDEST SWAP3 POP DUP3 DUP3 MUL PUSH2 0x788 DUP2 PUSH2 0x56B JUMP JUMPDEST SWAP2 POP DUP3 DUP3 DIV DUP5 EQ DUP4 ISZERO OR PUSH2 0x79F JUMPI PUSH2 0x79E PUSH2 0x705 JUMP JUMPDEST JUMPDEST POP SWAP3 SWAP2 POP POP JUMP JUMPDEST PUSH0 PUSH2 0x7B0 DUP3 PUSH2 0x56B JUMP JUMPDEST SWAP2 POP PUSH2 0x7BB DUP4 PUSH2 0x56B JUMP JUMPDEST SWAP3 POP DUP3 DUP3 ADD SWAP1 POP DUP1 DUP3 GT ISZERO PUSH2 0x7D3 JUMPI PUSH2 0x7D2 PUSH2 0x705 JUMP JUMPDEST JUMPDEST SWAP3 SWAP2 POP POP JUMP INVALID LOG2 PUSH5 0x6970667358 0x22 SLT KECCAK256 GT 0xAF PUSH7 0x98A46C92C8FE43 PUSH17 0x7B13E4E1D13D34BA5B68904F31E67914A7 0xF7 0xD7 TIMESTAMP ADD PUSH5 0x736F6C6343 STOP ADDMOD SHR STOP CALLER "
				},
				"gasEstimates": {
					"creation": {
						"codeDepositCost": "412600",
						"executionCost": "447",
						"totalCost": "413047"
					},
					"external": {
						"deposit()": "infinite",
						"ethToWei(uint256)": "infinite",
						"getBalance()": "infinite",
						"transferTo(uint256,address)": "infinite",
						"withdraw(uint256)": "infinite"
					}
				},
				"methodIdentifiers": {
					"deposit()": "d0e30db0",
					"ethToWei(uint256)": "88439bbc",
					"getBalance()": "12065fe0",
					"transferTo(uint256,address)": "d4822fbf",
					"withdraw(uint256)": "2e1a7d4d"
				}
			},
			"storageLayout": {
				"storage": [
					{
						"astId": 5,
						"contract": "SMART-CONTRACTS-1733812289486/MBank.sol:MyBank",
						"label": "balanceLedger",
						"offset": 0,
						"slot": "0",
						"type": "t_mapping(t_address,t_uint256)"
					}
				],
				"types": {
					"t_address": {
						"encoding": "inplace",
						"label": "address",
						"numberOfBytes": "20"
					},
					"t_mapping(t_address,t_uint256)": {
						"encoding": "mapping",
						"key": "t_address",
						"label": "mapping(address => uint256)",
						"numberOfBytes": "32",
						"value": "t_uint256"
					},
					"t_uint256": {
						"encoding": "inplace",
						"label": "uint256",
						"numberOfBytes": "32"
					}
				}
			},
			"userdoc": {
				"kind": "user",
				"methods": {},
				"version": 1
			}
		}
	}
}