{
	"SMART-CONTRACTS-1733812289486/Certificate.sol": {
		"Certificate": {
			"abi": [
				{
					"inputs": [],
					"stateMutability": "nonpayable",
					"type": "constructor"
				},
				{
					"inputs": [
						{
							"internalType": "uint16",
							"name": "",
							"type": "uint16"
						}
					],
					"name": "certi",
					"outputs": [
						{
							"internalType": "string",
							"name": "name",
							"type": "string"
						},
						{
							"internalType": "string",
							"name": "course",
							"type": "string"
						},
						{
							"internalType": "string",
							"name": "grade",
							"type": "string"
						},
						{
							"internalType": "string",
							"name": "date",
							"type": "string"
						}
					],
					"stateMutability": "view",
					"type": "function"
				},
				{
					"inputs": [
						{
							"internalType": "uint16",
							"name": "_id",
							"type": "uint16"
						},
						{
							"internalType": "string",
							"name": "_name",
							"type": "string"
						},
						{
							"internalType": "string",
							"name": "_course",
							"type": "string"
						},
						{
							"internalType": "string",
							"name": "_grade",
							"type": "string"
						},
						{
							"internalType": "string",
							"name": "_date",
							"type": "string"
						}
					],
					"name": "issueCertificate",
					"outputs": [],
					"stateMutability": "nonpayable",
					"type": "function"
				}
			],
			"devdoc": {
				"kind": "dev",
				"methods": {},
				"version": 1
			},
			"evm": {
				"assembly": "    /* \"SMART-CONTRACTS-1733812289486/Certificate.sol\":57:624  contract Certificate{... */\n  mstore(0x40, 0x80)\n    /* \"SMART-CONTRACTS-1733812289486/Certificate.sol\":214:263  constructor (){... */\n  callvalue\n  dup1\n  iszero\n  tag_1\n  jumpi\n  revert(0x00, 0x00)\ntag_1:\n  pop\n    /* \"SMART-CONTRACTS-1733812289486/Certificate.sol\":246:256  msg.sender */\n  caller\n    /* \"SMART-CONTRACTS-1733812289486/Certificate.sol\":238:243  admin */\n  0x00\n  0x00\n    /* \"SMART-CONTRACTS-1733812289486/Certificate.sol\":238:256  admin = msg.sender */\n  0x0100\n  exp\n  dup2\n  sload\n  dup2\n  0xffffffffffffffffffffffffffffffffffffffff\n  mul\n  not\n  and\n  swap1\n  dup4\n  0xffffffffffffffffffffffffffffffffffffffff\n  and\n  mul\n  or\n  swap1\n  sstore\n  pop\n    /* \"SMART-CONTRACTS-1733812289486/Certificate.sol\":57:624  contract Certificate{... */\n  dataSize(sub_0)\n  dup1\n  dataOffset(sub_0)\n  0x00\n  codecopy\n  0x00\n  return\nstop\n\nsub_0: assembly {\n        /* \"SMART-CONTRACTS-1733812289486/Certificate.sol\":57:624  contract Certificate{... */\n      mstore(0x40, 0x80)\n      callvalue\n      dup1\n      iszero\n      tag_1\n      jumpi\n      revert(0x00, 0x00)\n    tag_1:\n      pop\n      jumpi(tag_2, lt(calldatasize, 0x04))\n      shr(0xe0, calldataload(0x00))\n      dup1\n      0x0fddcaec\n      eq\n      tag_3\n      jumpi\n      dup1\n      0x4ab823c4\n      eq\n      tag_4\n      jumpi\n    tag_2:\n      revert(0x00, 0x00)\n        /* \"SMART-CONTRACTS-1733812289486/Certificate.sol\":269:307  mapping (uint16 => Cert) public  certi */\n    tag_3:\n      tag_5\n      0x04\n      dup1\n      calldatasize\n      sub\n      dup2\n      add\n      swap1\n      tag_6\n      swap2\n      swap1\n      tag_7\n      jump\t// in\n    tag_6:\n      tag_8\n      jump\t// in\n    tag_5:\n      mload(0x40)\n      tag_9\n      swap5\n      swap4\n      swap3\n      swap2\n      swap1\n      tag_10\n      jump\t// in\n    tag_9:\n      mload(0x40)\n      dup1\n      swap2\n      sub\n      swap1\n      return\n        /* \"SMART-CONTRACTS-1733812289486/Certificate.sol\":417:622  function issueCertificate( uint16 _id, string memory _name, string memory _course, string memory _grade, string memory _date) public onlyAdmin {... */\n    tag_4:\n      tag_11\n      0x04\n      dup1\n      calldatasize\n      sub\n      dup2\n      add\n      swap1\n      tag_12\n      swap2\n      swap1\n      tag_13\n      jump\t// in\n    tag_12:\n      tag_14\n      jump\t// in\n    tag_11:\n      stop\n        /* \"SMART-CONTRACTS-1733812289486/Certificate.sol\":269:307  mapping (uint16 => Cert) public  certi */\n    tag_8:\n      mstore(0x20, 0x01)\n      dup1\n      0x00\n      mstore\n      keccak256(0x00, 0x40)\n      0x00\n      swap2\n      pop\n      swap1\n      pop\n      dup1\n      0x00\n      add\n      dup1\n      sload\n      tag_15\n      swap1\n      tag_16\n      jump\t// in\n    tag_15:\n      dup1\n      0x1f\n      add\n      0x20\n      dup1\n      swap2\n      div\n      mul\n      0x20\n      add\n      mload(0x40)\n      swap1\n      dup2\n      add\n      0x40\n      mstore\n      dup1\n      swap3\n      swap2\n      swap1\n      dup2\n      dup2\n      mstore\n      0x20\n      add\n      dup3\n      dup1\n      sload\n      tag_17\n      swap1\n      tag_16\n      jump\t// in\n    tag_17:\n      dup1\n      iszero\n      tag_18\n      jumpi\n      dup1\n      0x1f\n      lt\n      tag_19\n      jumpi\n      0x0100\n      dup1\n      dup4\n      sload\n      div\n      mul\n      dup4\n      mstore\n      swap2\n      0x20\n      add\n      swap2\n      jump(tag_18)\n    tag_19:\n      dup3\n      add\n      swap2\n      swap1\n      0x00\n      mstore\n      keccak256(0x00, 0x20)\n      swap1\n    tag_20:\n      dup2\n      sload\n      dup2\n      mstore\n      swap1\n      0x01\n      add\n      swap1\n      0x20\n      add\n      dup1\n      dup4\n      gt\n      tag_20\n      jumpi\n      dup3\n      swap1\n      sub\n      0x1f\n      and\n      dup3\n      add\n      swap2\n    tag_18:\n      pop\n      pop\n      pop\n      pop\n      pop\n      swap1\n      dup1\n      0x01\n      add\n      dup1\n      sload\n      tag_21\n      swap1\n      tag_16\n      jump\t// in\n    tag_21:\n      dup1\n      0x1f\n      add\n      0x20\n      dup1\n      swap2\n      div\n      mul\n      0x20\n      add\n      mload(0x40)\n      swap1\n      dup2\n      add\n      0x40\n      mstore\n      dup1\n      swap3\n      swap2\n      swap1\n      dup2\n      dup2\n      mstore\n      0x20\n      add\n      dup3\n      dup1\n      sload\n      tag_22\n      swap1\n      tag_16\n      jump\t// in\n    tag_22:\n      dup1\n      iszero\n      tag_23\n      jumpi\n      dup1\n      0x1f\n      lt\n      tag_24\n      jumpi\n      0x0100\n      dup1\n      dup4\n      sload\n      div\n      mul\n      dup4\n      mstore\n      swap2\n      0x20\n      add\n      swap2\n      jump(tag_23)\n    tag_24:\n      dup3\n      add\n      swap2\n      swap1\n      0x00\n      mstore\n      keccak256(0x00, 0x20)\n      swap1\n    tag_25:\n      dup2\n      sload\n      dup2\n      mstore\n      swap1\n      0x01\n      add\n      swap1\n      0x20\n      add\n      dup1\n      dup4\n      gt\n      tag_25\n      jumpi\n      dup3\n      swap1\n      sub\n      0x1f\n      and\n      dup3\n      add\n      swap2\n    tag_23:\n      pop\n      pop\n      pop\n      pop\n      pop\n      swap1\n      dup1\n      0x02\n      add\n      dup1\n      sload\n      tag_26\n      swap1\n      tag_16\n      jump\t// in\n    tag_26:\n      dup1\n      0x1f\n      add\n      0x20\n      dup1\n      swap2\n      div\n      mul\n      0x20\n      add\n      mload(0x40)\n      swap1\n      dup2\n      add\n      0x40\n      mstore\n      dup1\n      swap3\n      swap2\n      swap1\n      dup2\n      dup2\n      mstore\n      0x20\n      add\n      dup3\n      dup1\n      sload\n      tag_27\n      swap1\n      tag_16\n      jump\t// in\n    tag_27:\n      dup1\n      iszero\n      tag_28\n      jumpi\n      dup1\n      0x1f\n      lt\n      tag_29\n      jumpi\n      0x0100\n      dup1\n      dup4\n      sload\n      div\n      mul\n      dup4\n      mstore\n      swap2\n      0x20\n      add\n      swap2\n      jump(tag_28)\n    tag_29:\n      dup3\n      add\n      swap2\n      swap1\n      0x00\n      mstore\n      keccak256(0x00, 0x20)\n      swap1\n    tag_30:\n      dup2\n      sload\n      dup2\n      mstore\n      swap1\n      0x01\n      add\n      swap1\n      0x20\n      add\n      dup1\n      dup4\n      gt\n      tag_30\n      jumpi\n      dup3\n      swap1\n      sub\n      0x1f\n      and\n      dup3\n      add\n      swap2\n    tag_28:\n      pop\n      pop\n      pop\n      pop\n      pop\n      swap1\n      dup1\n      0x03\n      add\n      dup1\n      sload\n      tag_31\n      swap1\n      tag_16\n      jump\t// in\n    tag_31:\n      dup1\n      0x1f\n      add\n      0x20\n      dup1\n      swap2\n      div\n      mul\n      0x20\n      add\n      mload(0x40)\n      swap1\n      dup2\n      add\n      0x40\n      mstore\n      dup1\n      swap3\n      swap2\n      swap1\n      dup2\n      dup2\n      mstore\n      0x20\n      add\n      dup3\n      dup1\n      sload\n      tag_32\n      swap1\n      tag_16\n      jump\t// in\n    tag_32:\n      dup1\n      iszero\n      tag_33\n      jumpi\n      dup1\n      0x1f\n      lt\n      tag_34\n      jumpi\n      0x0100\n      dup1\n      dup4\n      sload\n      div\n      mul\n      dup4\n      mstore\n      swap2\n      0x20\n      add\n      swap2\n      jump(tag_33)\n    tag_34:\n      dup3\n      add\n      swap2\n      swap1\n      0x00\n      mstore\n      keccak256(0x00, 0x20)\n      swap1\n    tag_35:\n      dup2\n      sload\n      dup2\n      mstore\n      swap1\n      0x01\n      add\n      swap1\n      0x20\n      add\n      dup1\n      dup4\n      gt\n      tag_35\n      jumpi\n      dup3\n      swap1\n      sub\n      0x1f\n      and\n      dup3\n      add\n      swap2\n    tag_33:\n      pop\n      pop\n      pop\n      pop\n      pop\n      swap1\n      pop\n      dup5\n      jump\t// out\n        /* \"SMART-CONTRACTS-1733812289486/Certificate.sol\":417:622  function issueCertificate( uint16 _id, string memory _name, string memory _course, string memory _grade, string memory _date) public onlyAdmin {... */\n    tag_14:\n        /* \"SMART-CONTRACTS-1733812289486/Certificate.sol\":364:369  admin */\n      0x00\n      0x00\n      swap1\n      sload\n      swap1\n      0x0100\n      exp\n      swap1\n      div\n      0xffffffffffffffffffffffffffffffffffffffff\n      and\n        /* \"SMART-CONTRACTS-1733812289486/Certificate.sol\":350:369  msg.sender == admin */\n      0xffffffffffffffffffffffffffffffffffffffff\n      and\n        /* \"SMART-CONTRACTS-1733812289486/Certificate.sol\":350:360  msg.sender */\n      caller\n        /* \"SMART-CONTRACTS-1733812289486/Certificate.sol\":350:369  msg.sender == admin */\n      0xffffffffffffffffffffffffffffffffffffffff\n      and\n      eq\n        /* \"SMART-CONTRACTS-1733812289486/Certificate.sol\":342:393  require(msg.sender == admin, \"Unauthorised access\") */\n      tag_37\n      jumpi\n      mload(0x40)\n      0x08c379a000000000000000000000000000000000000000000000000000000000\n      dup2\n      mstore\n      0x04\n      add\n      tag_38\n      swap1\n      tag_39\n      jump\t// in\n    tag_38:\n      mload(0x40)\n      dup1\n      swap2\n      sub\n      swap1\n      revert\n    tag_37:\n        /* \"SMART-CONTRACTS-1733812289486/Certificate.sol\":583:615  Cert(_name,_course,_grade,_date) */\n      mload(0x40)\n      dup1\n      0x80\n      add\n      0x40\n      mstore\n      dup1\n        /* \"SMART-CONTRACTS-1733812289486/Certificate.sol\":588:593  _name */\n      dup6\n        /* \"SMART-CONTRACTS-1733812289486/Certificate.sol\":583:615  Cert(_name,_course,_grade,_date) */\n      dup2\n      mstore\n      0x20\n      add\n        /* \"SMART-CONTRACTS-1733812289486/Certificate.sol\":594:601  _course */\n      dup5\n        /* \"SMART-CONTRACTS-1733812289486/Certificate.sol\":583:615  Cert(_name,_course,_grade,_date) */\n      dup2\n      mstore\n      0x20\n      add\n        /* \"SMART-CONTRACTS-1733812289486/Certificate.sol\":602:608  _grade */\n      dup4\n        /* \"SMART-CONTRACTS-1733812289486/Certificate.sol\":583:615  Cert(_name,_course,_grade,_date) */\n      dup2\n      mstore\n      0x20\n      add\n        /* \"SMART-CONTRACTS-1733812289486/Certificate.sol\":609:614  _date */\n      dup3\n        /* \"SMART-CONTRACTS-1733812289486/Certificate.sol\":583:615  Cert(_name,_course,_grade,_date) */\n      dup2\n      mstore\n      pop\n        /* \"SMART-CONTRACTS-1733812289486/Certificate.sol\":570:575  certi */\n      0x01\n        /* \"SMART-CONTRACTS-1733812289486/Certificate.sol\":570:580  certi[_id] */\n      0x00\n        /* \"SMART-CONTRACTS-1733812289486/Certificate.sol\":576:579  _id */\n      dup8\n        /* \"SMART-CONTRACTS-1733812289486/Certificate.sol\":570:580  certi[_id] */\n      0xffff\n      and\n      0xffff\n      and\n      dup2\n      mstore\n      0x20\n      add\n      swap1\n      dup2\n      mstore\n      0x20\n      add\n      0x00\n      keccak256\n        /* \"SMART-CONTRACTS-1733812289486/Certificate.sol\":570:615  certi[_id] = Cert(_name,_course,_grade,_date) */\n      0x00\n      dup3\n      add\n      mload\n      dup2\n      0x00\n      add\n      swap1\n      dup2\n      tag_41\n      swap2\n      swap1\n      tag_42\n      jump\t// in\n    tag_41:\n      pop\n      0x20\n      dup3\n      add\n      mload\n      dup2\n      0x01\n      add\n      swap1\n      dup2\n      tag_43\n      swap2\n      swap1\n      tag_42\n      jump\t// in\n    tag_43:\n      pop\n      0x40\n      dup3\n      add\n      mload\n      dup2\n      0x02\n      add\n      swap1\n      dup2\n      tag_44\n      swap2\n      swap1\n      tag_42\n      jump\t// in\n    tag_44:\n      pop\n      0x60\n      dup3\n      add\n      mload\n      dup2\n      0x03\n      add\n      swap1\n      dup2\n      tag_45\n      swap2\n      swap1\n      tag_42\n      jump\t// in\n    tag_45:\n      pop\n      swap1\n      pop\n      pop\n        /* \"SMART-CONTRACTS-1733812289486/Certificate.sol\":417:622  function issueCertificate( uint16 _id, string memory _name, string memory _course, string memory _grade, string memory _date) public onlyAdmin {... */\n      pop\n      pop\n      pop\n      pop\n      pop\n      jump\t// out\n        /* \"#utility.yul\":7:82   */\n    tag_46:\n        /* \"#utility.yul\":40:46   */\n      0x00\n        /* \"#utility.yul\":73:75   */\n      0x40\n        /* \"#utility.yul\":67:76   */\n      mload\n        /* \"#utility.yul\":57:76   */\n      swap1\n      pop\n        /* \"#utility.yul\":7:82   */\n      swap1\n      jump\t// out\n        /* \"#utility.yul\":88:205   */\n    tag_47:\n        /* \"#utility.yul\":197:198   */\n      0x00\n        /* \"#utility.yul\":194:195   */\n      0x00\n        /* \"#utility.yul\":187:199   */\n      revert\n        /* \"#utility.yul\":211:328   */\n    tag_48:\n        /* \"#utility.yul\":320:321   */\n      0x00\n        /* \"#utility.yul\":317:318   */\n      0x00\n        /* \"#utility.yul\":310:322   */\n      revert\n        /* \"#utility.yul\":334:423   */\n    tag_49:\n        /* \"#utility.yul\":370:377   */\n      0x00\n        /* \"#utility.yul\":410:416   */\n      0xffff\n        /* \"#utility.yul\":403:408   */\n      dup3\n        /* \"#utility.yul\":399:417   */\n      and\n        /* \"#utility.yul\":388:417   */\n      swap1\n      pop\n        /* \"#utility.yul\":334:423   */\n      swap2\n      swap1\n      pop\n      jump\t// out\n        /* \"#utility.yul\":429:549   */\n    tag_50:\n        /* \"#utility.yul\":501:524   */\n      tag_91\n        /* \"#utility.yul\":518:523   */\n      dup2\n        /* \"#utility.yul\":501:524   */\n      tag_49\n      jump\t// in\n    tag_91:\n        /* \"#utility.yul\":494:499   */\n      dup2\n        /* \"#utility.yul\":491:525   */\n      eq\n        /* \"#utility.yul\":481:543   */\n      tag_92\n      jumpi\n        /* \"#utility.yul\":539:540   */\n      0x00\n        /* \"#utility.yul\":536:537   */\n      0x00\n        /* \"#utility.yul\":529:541   */\n      revert\n        /* \"#utility.yul\":481:543   */\n    tag_92:\n        /* \"#utility.yul\":429:549   */\n      pop\n      jump\t// out\n        /* \"#utility.yul\":555:692   */\n    tag_51:\n        /* \"#utility.yul\":600:605   */\n      0x00\n        /* \"#utility.yul\":638:644   */\n      dup2\n        /* \"#utility.yul\":625:645   */\n      calldataload\n        /* \"#utility.yul\":616:645   */\n      swap1\n      pop\n        /* \"#utility.yul\":654:686   */\n      tag_94\n        /* \"#utility.yul\":680:685   */\n      dup2\n        /* \"#utility.yul\":654:686   */\n      tag_50\n      jump\t// in\n    tag_94:\n        /* \"#utility.yul\":555:692   */\n      swap3\n      swap2\n      pop\n      pop\n      jump\t// out\n        /* \"#utility.yul\":698:1025   */\n    tag_7:\n        /* \"#utility.yul\":756:762   */\n      0x00\n        /* \"#utility.yul\":805:807   */\n      0x20\n        /* \"#utility.yul\":793:802   */\n      dup3\n        /* \"#utility.yul\":784:791   */\n      dup5\n        /* \"#utility.yul\":780:803   */\n      sub\n        /* \"#utility.yul\":776:808   */\n      slt\n        /* \"#utility.yul\":773:892   */\n      iszero\n      tag_96\n      jumpi\n        /* \"#utility.yul\":811:890   */\n      tag_97\n      tag_47\n      jump\t// in\n    tag_97:\n        /* \"#utility.yul\":773:892   */\n    tag_96:\n        /* \"#utility.yul\":931:932   */\n      0x00\n        /* \"#utility.yul\":956:1008   */\n      tag_98\n        /* \"#utility.yul\":1000:1007   */\n      dup5\n        /* \"#utility.yul\":991:997   */\n      dup3\n        /* \"#utility.yul\":980:989   */\n      dup6\n        /* \"#utility.yul\":976:998   */\n      add\n        /* \"#utility.yul\":956:1008   */\n      tag_51\n      jump\t// in\n    tag_98:\n        /* \"#utility.yul\":946:1008   */\n      swap2\n      pop\n        /* \"#utility.yul\":902:1018   */\n      pop\n        /* \"#utility.yul\":698:1025   */\n      swap3\n      swap2\n      pop\n      pop\n      jump\t// out\n        /* \"#utility.yul\":1031:1130   */\n    tag_52:\n        /* \"#utility.yul\":1083:1089   */\n      0x00\n        /* \"#utility.yul\":1117:1122   */\n      dup2\n        /* \"#utility.yul\":1111:1123   */\n      mload\n        /* \"#utility.yul\":1101:1123   */\n      swap1\n      pop\n        /* \"#utility.yul\":1031:1130   */\n      swap2\n      swap1\n      pop\n      jump\t// out\n        /* \"#utility.yul\":1136:1305   */\n    tag_53:\n        /* \"#utility.yul\":1220:1231   */\n      0x00\n        /* \"#utility.yul\":1254:1260   */\n      dup3\n        /* \"#utility.yul\":1249:1252   */\n      dup3\n        /* \"#utility.yul\":1242:1261   */\n      mstore\n        /* \"#utility.yul\":1294:1298   */\n      0x20\n        /* \"#utility.yul\":1289:1292   */\n      dup3\n        /* \"#utility.yul\":1285:1299   */\n      add\n        /* \"#utility.yul\":1270:1299   */\n      swap1\n      pop\n        /* \"#utility.yul\":1136:1305   */\n      swap3\n      swap2\n      pop\n      pop\n      jump\t// out\n        /* \"#utility.yul\":1311:1450   */\n    tag_54:\n        /* \"#utility.yul\":1400:1406   */\n      dup3\n        /* \"#utility.yul\":1395:1398   */\n      dup2\n        /* \"#utility.yul\":1390:1393   */\n      dup4\n        /* \"#utility.yul\":1384:1407   */\n      mcopy\n        /* \"#utility.yul\":1441:1442   */\n      0x00\n        /* \"#utility.yul\":1432:1438   */\n      dup4\n        /* \"#utility.yul\":1427:1430   */\n      dup4\n        /* \"#utility.yul\":1423:1439   */\n      add\n        /* \"#utility.yul\":1416:1443   */\n      mstore\n        /* \"#utility.yul\":1311:1450   */\n      pop\n      pop\n      pop\n      jump\t// out\n        /* \"#utility.yul\":1456:1558   */\n    tag_55:\n        /* \"#utility.yul\":1497:1503   */\n      0x00\n        /* \"#utility.yul\":1548:1550   */\n      0x1f\n        /* \"#utility.yul\":1544:1551   */\n      not\n        /* \"#utility.yul\":1539:1541   */\n      0x1f\n        /* \"#utility.yul\":1532:1537   */\n      dup4\n        /* \"#utility.yul\":1528:1542   */\n      add\n        /* \"#utility.yul\":1524:1552   */\n      and\n        /* \"#utility.yul\":1514:1552   */\n      swap1\n      pop\n        /* \"#utility.yul\":1456:1558   */\n      swap2\n      swap1\n      pop\n      jump\t// out\n        /* \"#utility.yul\":1564:1941   */\n    tag_56:\n        /* \"#utility.yul\":1652:1655   */\n      0x00\n        /* \"#utility.yul\":1680:1719   */\n      tag_104\n        /* \"#utility.yul\":1713:1718   */\n      dup3\n        /* \"#utility.yul\":1680:1719   */\n      tag_52\n      jump\t// in\n    tag_104:\n        /* \"#utility.yul\":1735:1806   */\n      tag_105\n        /* \"#utility.yul\":1799:1805   */\n      dup2\n        /* \"#utility.yul\":1794:1797   */\n      dup6\n        /* \"#utility.yul\":1735:1806   */\n      tag_53\n      jump\t// in\n    tag_105:\n        /* \"#utility.yul\":1728:1806   */\n      swap4\n      pop\n        /* \"#utility.yul\":1815:1880   */\n      tag_106\n        /* \"#utility.yul\":1873:1879   */\n      dup2\n        /* \"#utility.yul\":1868:1871   */\n      dup6\n        /* \"#utility.yul\":1861:1865   */\n      0x20\n        /* \"#utility.yul\":1854:1859   */\n      dup7\n        /* \"#utility.yul\":1850:1866   */\n      add\n        /* \"#utility.yul\":1815:1880   */\n      tag_54\n      jump\t// in\n    tag_106:\n        /* \"#utility.yul\":1905:1934   */\n      tag_107\n        /* \"#utility.yul\":1927:1933   */\n      dup2\n        /* \"#utility.yul\":1905:1934   */\n      tag_55\n      jump\t// in\n    tag_107:\n        /* \"#utility.yul\":1900:1903   */\n      dup5\n        /* \"#utility.yul\":1896:1935   */\n      add\n        /* \"#utility.yul\":1889:1935   */\n      swap2\n      pop\n        /* \"#utility.yul\":1656:1941   */\n      pop\n        /* \"#utility.yul\":1564:1941   */\n      swap3\n      swap2\n      pop\n      pop\n      jump\t// out\n        /* \"#utility.yul\":1947:2864   */\n    tag_10:\n        /* \"#utility.yul\":2204:2208   */\n      0x00\n        /* \"#utility.yul\":2242:2245   */\n      0x80\n        /* \"#utility.yul\":2231:2240   */\n      dup3\n        /* \"#utility.yul\":2227:2246   */\n      add\n        /* \"#utility.yul\":2219:2246   */\n      swap1\n      pop\n        /* \"#utility.yul\":2292:2301   */\n      dup2\n        /* \"#utility.yul\":2286:2290   */\n      dup2\n        /* \"#utility.yul\":2282:2302   */\n      sub\n        /* \"#utility.yul\":2278:2279   */\n      0x00\n        /* \"#utility.yul\":2267:2276   */\n      dup4\n        /* \"#utility.yul\":2263:2280   */\n      add\n        /* \"#utility.yul\":2256:2303   */\n      mstore\n        /* \"#utility.yul\":2320:2398   */\n      tag_109\n        /* \"#utility.yul\":2393:2397   */\n      dup2\n        /* \"#utility.yul\":2384:2390   */\n      dup8\n        /* \"#utility.yul\":2320:2398   */\n      tag_56\n      jump\t// in\n    tag_109:\n        /* \"#utility.yul\":2312:2398   */\n      swap1\n      pop\n        /* \"#utility.yul\":2445:2454   */\n      dup2\n        /* \"#utility.yul\":2439:2443   */\n      dup2\n        /* \"#utility.yul\":2435:2455   */\n      sub\n        /* \"#utility.yul\":2430:2432   */\n      0x20\n        /* \"#utility.yul\":2419:2428   */\n      dup4\n        /* \"#utility.yul\":2415:2433   */\n      add\n        /* \"#utility.yul\":2408:2456   */\n      mstore\n        /* \"#utility.yul\":2473:2551   */\n      tag_110\n        /* \"#utility.yul\":2546:2550   */\n      dup2\n        /* \"#utility.yul\":2537:2543   */\n      dup7\n        /* \"#utility.yul\":2473:2551   */\n      tag_56\n      jump\t// in\n    tag_110:\n        /* \"#utility.yul\":2465:2551   */\n      swap1\n      pop\n        /* \"#utility.yul\":2598:2607   */\n      dup2\n        /* \"#utility.yul\":2592:2596   */\n      dup2\n        /* \"#utility.yul\":2588:2608   */\n      sub\n        /* \"#utility.yul\":2583:2585   */\n      0x40\n        /* \"#utility.yul\":2572:2581   */\n      dup4\n        /* \"#utility.yul\":2568:2586   */\n      add\n        /* \"#utility.yul\":2561:2609   */\n      mstore\n        /* \"#utility.yul\":2626:2704   */\n      tag_111\n        /* \"#utility.yul\":2699:2703   */\n      dup2\n        /* \"#utility.yul\":2690:2696   */\n      dup6\n        /* \"#utility.yul\":2626:2704   */\n      tag_56\n      jump\t// in\n    tag_111:\n        /* \"#utility.yul\":2618:2704   */\n      swap1\n      pop\n        /* \"#utility.yul\":2751:2760   */\n      dup2\n        /* \"#utility.yul\":2745:2749   */\n      dup2\n        /* \"#utility.yul\":2741:2761   */\n      sub\n        /* \"#utility.yul\":2736:2738   */\n      0x60\n        /* \"#utility.yul\":2725:2734   */\n      dup4\n        /* \"#utility.yul\":2721:2739   */\n      add\n        /* \"#utility.yul\":2714:2762   */\n      mstore\n        /* \"#utility.yul\":2779:2857   */\n      tag_112\n        /* \"#utility.yul\":2852:2856   */\n      dup2\n        /* \"#utility.yul\":2843:2849   */\n      dup5\n        /* \"#utility.yul\":2779:2857   */\n      tag_56\n      jump\t// in\n    tag_112:\n        /* \"#utility.yul\":2771:2857   */\n      swap1\n      pop\n        /* \"#utility.yul\":1947:2864   */\n      swap6\n      swap5\n      pop\n      pop\n      pop\n      pop\n      pop\n      jump\t// out\n        /* \"#utility.yul\":2870:2987   */\n    tag_57:\n        /* \"#utility.yul\":2979:2980   */\n      0x00\n        /* \"#utility.yul\":2976:2977   */\n      0x00\n        /* \"#utility.yul\":2969:2981   */\n      revert\n        /* \"#utility.yul\":2993:3110   */\n    tag_58:\n        /* \"#utility.yul\":3102:3103   */\n      0x00\n        /* \"#utility.yul\":3099:3100   */\n      0x00\n        /* \"#utility.yul\":3092:3104   */\n      revert\n        /* \"#utility.yul\":3116:3296   */\n    tag_59:\n        /* \"#utility.yul\":3164:3241   */\n      0x4e487b7100000000000000000000000000000000000000000000000000000000\n        /* \"#utility.yul\":3161:3162   */\n      0x00\n        /* \"#utility.yul\":3154:3242   */\n      mstore\n        /* \"#utility.yul\":3261:3265   */\n      0x41\n        /* \"#utility.yul\":3258:3259   */\n      0x04\n        /* \"#utility.yul\":3251:3266   */\n      mstore\n        /* \"#utility.yul\":3285:3289   */\n      0x24\n        /* \"#utility.yul\":3282:3283   */\n      0x00\n        /* \"#utility.yul\":3275:3290   */\n      revert\n        /* \"#utility.yul\":3302:3583   */\n    tag_60:\n        /* \"#utility.yul\":3385:3412   */\n      tag_117\n        /* \"#utility.yul\":3407:3411   */\n      dup3\n        /* \"#utility.yul\":3385:3412   */\n      tag_55\n      jump\t// in\n    tag_117:\n        /* \"#utility.yul\":3377:3383   */\n      dup2\n        /* \"#utility.yul\":3373:3413   */\n      add\n        /* \"#utility.yul\":3515:3521   */\n      dup2\n        /* \"#utility.yul\":3503:3513   */\n      dup2\n        /* \"#utility.yul\":3500:3522   */\n      lt\n        /* \"#utility.yul\":3479:3497   */\n      0xffffffffffffffff\n        /* \"#utility.yul\":3467:3477   */\n      dup3\n        /* \"#utility.yul\":3464:3498   */\n      gt\n        /* \"#utility.yul\":3461:3523   */\n      or\n        /* \"#utility.yul\":3458:3546   */\n      iszero\n      tag_118\n      jumpi\n        /* \"#utility.yul\":3526:3544   */\n      tag_119\n      tag_59\n      jump\t// in\n    tag_119:\n        /* \"#utility.yul\":3458:3546   */\n    tag_118:\n        /* \"#utility.yul\":3566:3576   */\n      dup1\n        /* \"#utility.yul\":3562:3564   */\n      0x40\n        /* \"#utility.yul\":3555:3577   */\n      mstore\n        /* \"#utility.yul\":3345:3583   */\n      pop\n        /* \"#utility.yul\":3302:3583   */\n      pop\n      pop\n      jump\t// out\n        /* \"#utility.yul\":3589:3718   */\n    tag_61:\n        /* \"#utility.yul\":3623:3629   */\n      0x00\n        /* \"#utility.yul\":3650:3670   */\n      tag_121\n      tag_46\n      jump\t// in\n    tag_121:\n        /* \"#utility.yul\":3640:3670   */\n      swap1\n      pop\n        /* \"#utility.yul\":3679:3712   */\n      tag_122\n        /* \"#utility.yul\":3707:3711   */\n      dup3\n        /* \"#utility.yul\":3699:3705   */\n      dup3\n        /* \"#utility.yul\":3679:3712   */\n      tag_60\n      jump\t// in\n    tag_122:\n        /* \"#utility.yul\":3589:3718   */\n      swap2\n      swap1\n      pop\n      jump\t// out\n        /* \"#utility.yul\":3724:4032   */\n    tag_62:\n        /* \"#utility.yul\":3786:3790   */\n      0x00\n        /* \"#utility.yul\":3876:3894   */\n      0xffffffffffffffff\n        /* \"#utility.yul\":3868:3874   */\n      dup3\n        /* \"#utility.yul\":3865:3895   */\n      gt\n        /* \"#utility.yul\":3862:3918   */\n      iszero\n      tag_124\n      jumpi\n        /* \"#utility.yul\":3898:3916   */\n      tag_125\n      tag_59\n      jump\t// in\n    tag_125:\n        /* \"#utility.yul\":3862:3918   */\n    tag_124:\n        /* \"#utility.yul\":3936:3965   */\n      tag_126\n        /* \"#utility.yul\":3958:3964   */\n      dup3\n        /* \"#utility.yul\":3936:3965   */\n      tag_55\n      jump\t// in\n    tag_126:\n        /* \"#utility.yul\":3928:3965   */\n      swap1\n      pop\n        /* \"#utility.yul\":4020:4024   */\n      0x20\n        /* \"#utility.yul\":4014:4018   */\n      dup2\n        /* \"#utility.yul\":4010:4025   */\n      add\n        /* \"#utility.yul\":4002:4025   */\n      swap1\n      pop\n        /* \"#utility.yul\":3724:4032   */\n      swap2\n      swap1\n      pop\n      jump\t// out\n        /* \"#utility.yul\":4038:4186   */\n    tag_63:\n        /* \"#utility.yul\":4136:4142   */\n      dup3\n        /* \"#utility.yul\":4131:4134   */\n      dup2\n        /* \"#utility.yul\":4126:4129   */\n      dup4\n        /* \"#utility.yul\":4113:4143   */\n      calldatacopy\n        /* \"#utility.yul\":4177:4178   */\n      0x00\n        /* \"#utility.yul\":4168:4174   */\n      dup4\n        /* \"#utility.yul\":4163:4166   */\n      dup4\n        /* \"#utility.yul\":4159:4175   */\n      add\n        /* \"#utility.yul\":4152:4179   */\n      mstore\n        /* \"#utility.yul\":4038:4186   */\n      pop\n      pop\n      pop\n      jump\t// out\n        /* \"#utility.yul\":4192:4617   */\n    tag_64:\n        /* \"#utility.yul\":4270:4275   */\n      0x00\n        /* \"#utility.yul\":4295:4361   */\n      tag_129\n        /* \"#utility.yul\":4311:4360   */\n      tag_130\n        /* \"#utility.yul\":4353:4359   */\n      dup5\n        /* \"#utility.yul\":4311:4360   */\n      tag_62\n      jump\t// in\n    tag_130:\n        /* \"#utility.yul\":4295:4361   */\n      tag_61\n      jump\t// in\n    tag_129:\n        /* \"#utility.yul\":4286:4361   */\n      swap1\n      pop\n        /* \"#utility.yul\":4384:4390   */\n      dup3\n        /* \"#utility.yul\":4377:4382   */\n      dup2\n        /* \"#utility.yul\":4370:4391   */\n      mstore\n        /* \"#utility.yul\":4422:4426   */\n      0x20\n        /* \"#utility.yul\":4415:4420   */\n      dup2\n        /* \"#utility.yul\":4411:4427   */\n      add\n        /* \"#utility.yul\":4460:4463   */\n      dup5\n        /* \"#utility.yul\":4451:4457   */\n      dup5\n        /* \"#utility.yul\":4446:4449   */\n      dup5\n        /* \"#utility.yul\":4442:4458   */\n      add\n        /* \"#utility.yul\":4439:4464   */\n      gt\n        /* \"#utility.yul\":4436:4548   */\n      iszero\n      tag_131\n      jumpi\n        /* \"#utility.yul\":4467:4546   */\n      tag_132\n      tag_58\n      jump\t// in\n    tag_132:\n        /* \"#utility.yul\":4436:4548   */\n    tag_131:\n        /* \"#utility.yul\":4557:4611   */\n      tag_133\n        /* \"#utility.yul\":4604:4610   */\n      dup5\n        /* \"#utility.yul\":4599:4602   */\n      dup3\n        /* \"#utility.yul\":4594:4597   */\n      dup6\n        /* \"#utility.yul\":4557:4611   */\n      tag_63\n      jump\t// in\n    tag_133:\n        /* \"#utility.yul\":4276:4617   */\n      pop\n        /* \"#utility.yul\":4192:4617   */\n      swap4\n      swap3\n      pop\n      pop\n      pop\n      jump\t// out\n        /* \"#utility.yul\":4637:4977   */\n    tag_65:\n        /* \"#utility.yul\":4693:4698   */\n      0x00\n        /* \"#utility.yul\":4742:4745   */\n      dup3\n        /* \"#utility.yul\":4735:4739   */\n      0x1f\n        /* \"#utility.yul\":4727:4733   */\n      dup4\n        /* \"#utility.yul\":4723:4740   */\n      add\n        /* \"#utility.yul\":4719:4746   */\n      slt\n        /* \"#utility.yul\":4709:4831   */\n      tag_135\n      jumpi\n        /* \"#utility.yul\":4750:4829   */\n      tag_136\n      tag_57\n      jump\t// in\n    tag_136:\n        /* \"#utility.yul\":4709:4831   */\n    tag_135:\n        /* \"#utility.yul\":4867:4873   */\n      dup2\n        /* \"#utility.yul\":4854:4874   */\n      calldataload\n        /* \"#utility.yul\":4892:4971   */\n      tag_137\n        /* \"#utility.yul\":4967:4970   */\n      dup5\n        /* \"#utility.yul\":4959:4965   */\n      dup3\n        /* \"#utility.yul\":4952:4956   */\n      0x20\n        /* \"#utility.yul\":4944:4950   */\n      dup7\n        /* \"#utility.yul\":4940:4957   */\n      add\n        /* \"#utility.yul\":4892:4971   */\n      tag_64\n      jump\t// in\n    tag_137:\n        /* \"#utility.yul\":4883:4971   */\n      swap2\n      pop\n        /* \"#utility.yul\":4699:4977   */\n      pop\n        /* \"#utility.yul\":4637:4977   */\n      swap3\n      swap2\n      pop\n      pop\n      jump\t// out\n        /* \"#utility.yul\":4983:6612   */\n    tag_13:\n        /* \"#utility.yul\":5117:5123   */\n      0x00\n        /* \"#utility.yul\":5125:5131   */\n      0x00\n        /* \"#utility.yul\":5133:5139   */\n      0x00\n        /* \"#utility.yul\":5141:5147   */\n      0x00\n        /* \"#utility.yul\":5149:5155   */\n      0x00\n        /* \"#utility.yul\":5198:5201   */\n      0xa0\n        /* \"#utility.yul\":5186:5195   */\n      dup7\n        /* \"#utility.yul\":5177:5184   */\n      dup9\n        /* \"#utility.yul\":5173:5196   */\n      sub\n        /* \"#utility.yul\":5169:5202   */\n      slt\n        /* \"#utility.yul\":5166:5286   */\n      iszero\n      tag_139\n      jumpi\n        /* \"#utility.yul\":5205:5284   */\n      tag_140\n      tag_47\n      jump\t// in\n    tag_140:\n        /* \"#utility.yul\":5166:5286   */\n    tag_139:\n        /* \"#utility.yul\":5325:5326   */\n      0x00\n        /* \"#utility.yul\":5350:5402   */\n      tag_141\n        /* \"#utility.yul\":5394:5401   */\n      dup9\n        /* \"#utility.yul\":5385:5391   */\n      dup3\n        /* \"#utility.yul\":5374:5383   */\n      dup10\n        /* \"#utility.yul\":5370:5392   */\n      add\n        /* \"#utility.yul\":5350:5402   */\n      tag_51\n      jump\t// in\n    tag_141:\n        /* \"#utility.yul\":5340:5402   */\n      swap6\n      pop\n        /* \"#utility.yul\":5296:5412   */\n      pop\n        /* \"#utility.yul\":5479:5481   */\n      0x20\n        /* \"#utility.yul\":5468:5477   */\n      dup7\n        /* \"#utility.yul\":5464:5482   */\n      add\n        /* \"#utility.yul\":5451:5483   */\n      calldataload\n        /* \"#utility.yul\":5510:5528   */\n      0xffffffffffffffff\n        /* \"#utility.yul\":5502:5508   */\n      dup2\n        /* \"#utility.yul\":5499:5529   */\n      gt\n        /* \"#utility.yul\":5496:5613   */\n      iszero\n      tag_142\n      jumpi\n        /* \"#utility.yul\":5532:5611   */\n      tag_143\n      tag_48\n      jump\t// in\n    tag_143:\n        /* \"#utility.yul\":5496:5613   */\n    tag_142:\n        /* \"#utility.yul\":5637:5700   */\n      tag_144\n        /* \"#utility.yul\":5692:5699   */\n      dup9\n        /* \"#utility.yul\":5683:5689   */\n      dup3\n        /* \"#utility.yul\":5672:5681   */\n      dup10\n        /* \"#utility.yul\":5668:5690   */\n      add\n        /* \"#utility.yul\":5637:5700   */\n      tag_65\n      jump\t// in\n    tag_144:\n        /* \"#utility.yul\":5627:5700   */\n      swap5\n      pop\n        /* \"#utility.yul\":5422:5710   */\n      pop\n        /* \"#utility.yul\":5777:5779   */\n      0x40\n        /* \"#utility.yul\":5766:5775   */\n      dup7\n        /* \"#utility.yul\":5762:5780   */\n      add\n        /* \"#utility.yul\":5749:5781   */\n      calldataload\n        /* \"#utility.yul\":5808:5826   */\n      0xffffffffffffffff\n        /* \"#utility.yul\":5800:5806   */\n      dup2\n        /* \"#utility.yul\":5797:5827   */\n      gt\n        /* \"#utility.yul\":5794:5911   */\n      iszero\n      tag_145\n      jumpi\n        /* \"#utility.yul\":5830:5909   */\n      tag_146\n      tag_48\n      jump\t// in\n    tag_146:\n        /* \"#utility.yul\":5794:5911   */\n    tag_145:\n        /* \"#utility.yul\":5935:5998   */\n      tag_147\n        /* \"#utility.yul\":5990:5997   */\n      dup9\n        /* \"#utility.yul\":5981:5987   */\n      dup3\n        /* \"#utility.yul\":5970:5979   */\n      dup10\n        /* \"#utility.yul\":5966:5988   */\n      add\n        /* \"#utility.yul\":5935:5998   */\n      tag_65\n      jump\t// in\n    tag_147:\n        /* \"#utility.yul\":5925:5998   */\n      swap4\n      pop\n        /* \"#utility.yul\":5720:6008   */\n      pop\n        /* \"#utility.yul\":6075:6077   */\n      0x60\n        /* \"#utility.yul\":6064:6073   */\n      dup7\n        /* \"#utility.yul\":6060:6078   */\n      add\n        /* \"#utility.yul\":6047:6079   */\n      calldataload\n        /* \"#utility.yul\":6106:6124   */\n      0xffffffffffffffff\n        /* \"#utility.yul\":6098:6104   */\n      dup2\n        /* \"#utility.yul\":6095:6125   */\n      gt\n        /* \"#utility.yul\":6092:6209   */\n      iszero\n      tag_148\n      jumpi\n        /* \"#utility.yul\":6128:6207   */\n      tag_149\n      tag_48\n      jump\t// in\n    tag_149:\n        /* \"#utility.yul\":6092:6209   */\n    tag_148:\n        /* \"#utility.yul\":6233:6296   */\n      tag_150\n        /* \"#utility.yul\":6288:6295   */\n      dup9\n        /* \"#utility.yul\":6279:6285   */\n      dup3\n        /* \"#utility.yul\":6268:6277   */\n      dup10\n        /* \"#utility.yul\":6264:6286   */\n      add\n        /* \"#utility.yul\":6233:6296   */\n      tag_65\n      jump\t// in\n    tag_150:\n        /* \"#utility.yul\":6223:6296   */\n      swap3\n      pop\n        /* \"#utility.yul\":6018:6306   */\n      pop\n        /* \"#utility.yul\":6373:6376   */\n      0x80\n        /* \"#utility.yul\":6362:6371   */\n      dup7\n        /* \"#utility.yul\":6358:6377   */\n      add\n        /* \"#utility.yul\":6345:6378   */\n      calldataload\n        /* \"#utility.yul\":6405:6423   */\n      0xffffffffffffffff\n        /* \"#utility.yul\":6397:6403   */\n      dup2\n        /* \"#utility.yul\":6394:6424   */\n      gt\n        /* \"#utility.yul\":6391:6508   */\n      iszero\n      tag_151\n      jumpi\n        /* \"#utility.yul\":6427:6506   */\n      tag_152\n      tag_48\n      jump\t// in\n    tag_152:\n        /* \"#utility.yul\":6391:6508   */\n    tag_151:\n        /* \"#utility.yul\":6532:6595   */\n      tag_153\n        /* \"#utility.yul\":6587:6594   */\n      dup9\n        /* \"#utility.yul\":6578:6584   */\n      dup3\n        /* \"#utility.yul\":6567:6576   */\n      dup10\n        /* \"#utility.yul\":6563:6585   */\n      add\n        /* \"#utility.yul\":6532:6595   */\n      tag_65\n      jump\t// in\n    tag_153:\n        /* \"#utility.yul\":6522:6595   */\n      swap2\n      pop\n        /* \"#utility.yul\":6316:6605   */\n      pop\n        /* \"#utility.yul\":4983:6612   */\n      swap3\n      swap6\n      pop\n      swap3\n      swap6\n      swap1\n      swap4\n      pop\n      jump\t// out\n        /* \"#utility.yul\":6618:6798   */\n    tag_66:\n        /* \"#utility.yul\":6666:6743   */\n      0x4e487b7100000000000000000000000000000000000000000000000000000000\n        /* \"#utility.yul\":6663:6664   */\n      0x00\n        /* \"#utility.yul\":6656:6744   */\n      mstore\n        /* \"#utility.yul\":6763:6767   */\n      0x22\n        /* \"#utility.yul\":6760:6761   */\n      0x04\n        /* \"#utility.yul\":6753:6768   */\n      mstore\n        /* \"#utility.yul\":6787:6791   */\n      0x24\n        /* \"#utility.yul\":6784:6785   */\n      0x00\n        /* \"#utility.yul\":6777:6792   */\n      revert\n        /* \"#utility.yul\":6804:7124   */\n    tag_16:\n        /* \"#utility.yul\":6848:6854   */\n      0x00\n        /* \"#utility.yul\":6885:6886   */\n      0x02\n        /* \"#utility.yul\":6879:6883   */\n      dup3\n        /* \"#utility.yul\":6875:6887   */\n      div\n        /* \"#utility.yul\":6865:6887   */\n      swap1\n      pop\n        /* \"#utility.yul\":6932:6933   */\n      0x01\n        /* \"#utility.yul\":6926:6930   */\n      dup3\n        /* \"#utility.yul\":6922:6934   */\n      and\n        /* \"#utility.yul\":6953:6971   */\n      dup1\n        /* \"#utility.yul\":6943:7024   */\n      tag_156\n      jumpi\n        /* \"#utility.yul\":7009:7013   */\n      0x7f\n        /* \"#utility.yul\":7001:7007   */\n      dup3\n        /* \"#utility.yul\":6997:7014   */\n      and\n        /* \"#utility.yul\":6987:7014   */\n      swap2\n      pop\n        /* \"#utility.yul\":6943:7024   */\n    tag_156:\n        /* \"#utility.yul\":7071:7073   */\n      0x20\n        /* \"#utility.yul\":7063:7069   */\n      dup3\n        /* \"#utility.yul\":7060:7074   */\n      lt\n        /* \"#utility.yul\":7040:7058   */\n      dup2\n        /* \"#utility.yul\":7037:7075   */\n      sub\n        /* \"#utility.yul\":7034:7118   */\n      tag_157\n      jumpi\n        /* \"#utility.yul\":7090:7108   */\n      tag_158\n      tag_66\n      jump\t// in\n    tag_158:\n        /* \"#utility.yul\":7034:7118   */\n    tag_157:\n        /* \"#utility.yul\":6855:7124   */\n      pop\n        /* \"#utility.yul\":6804:7124   */\n      swap2\n      swap1\n      pop\n      jump\t// out\n        /* \"#utility.yul\":7130:7299   */\n    tag_67:\n        /* \"#utility.yul\":7270:7291   */\n      0x556e617574686f72697365642061636365737300000000000000000000000000\n        /* \"#utility.yul\":7266:7267   */\n      0x00\n        /* \"#utility.yul\":7258:7264   */\n      dup3\n        /* \"#utility.yul\":7254:7268   */\n      add\n        /* \"#utility.yul\":7247:7292   */\n      mstore\n        /* \"#utility.yul\":7130:7299   */\n      pop\n      jump\t// out\n        /* \"#utility.yul\":7305:7671   */\n    tag_68:\n        /* \"#utility.yul\":7447:7450   */\n      0x00\n        /* \"#utility.yul\":7468:7535   */\n      tag_161\n        /* \"#utility.yul\":7532:7534   */\n      0x13\n        /* \"#utility.yul\":7527:7530   */\n      dup4\n        /* \"#utility.yul\":7468:7535   */\n      tag_53\n      jump\t// in\n    tag_161:\n        /* \"#utility.yul\":7461:7535   */\n      swap2\n      pop\n        /* \"#utility.yul\":7544:7637   */\n      tag_162\n        /* \"#utility.yul\":7633:7636   */\n      dup3\n        /* \"#utility.yul\":7544:7637   */\n      tag_67\n      jump\t// in\n    tag_162:\n        /* \"#utility.yul\":7662:7664   */\n      0x20\n        /* \"#utility.yul\":7657:7660   */\n      dup3\n        /* \"#utility.yul\":7653:7665   */\n      add\n        /* \"#utility.yul\":7646:7665   */\n      swap1\n      pop\n        /* \"#utility.yul\":7305:7671   */\n      swap2\n      swap1\n      pop\n      jump\t// out\n        /* \"#utility.yul\":7677:8096   */\n    tag_39:\n        /* \"#utility.yul\":7843:7847   */\n      0x00\n        /* \"#utility.yul\":7881:7883   */\n      0x20\n        /* \"#utility.yul\":7870:7879   */\n      dup3\n        /* \"#utility.yul\":7866:7884   */\n      add\n        /* \"#utility.yul\":7858:7884   */\n      swap1\n      pop\n        /* \"#utility.yul\":7930:7939   */\n      dup2\n        /* \"#utility.yul\":7924:7928   */\n      dup2\n        /* \"#utility.yul\":7920:7940   */\n      sub\n        /* \"#utility.yul\":7916:7917   */\n      0x00\n        /* \"#utility.yul\":7905:7914   */\n      dup4\n        /* \"#utility.yul\":7901:7918   */\n      add\n        /* \"#utility.yul\":7894:7941   */\n      mstore\n        /* \"#utility.yul\":7958:8089   */\n      tag_164\n        /* \"#utility.yul\":8084:8088   */\n      dup2\n        /* \"#utility.yul\":7958:8089   */\n      tag_68\n      jump\t// in\n    tag_164:\n        /* \"#utility.yul\":7950:8089   */\n      swap1\n      pop\n        /* \"#utility.yul\":7677:8096   */\n      swap2\n      swap1\n      pop\n      jump\t// out\n        /* \"#utility.yul\":8102:8243   */\n    tag_69:\n        /* \"#utility.yul\":8151:8155   */\n      0x00\n        /* \"#utility.yul\":8174:8177   */\n      dup2\n        /* \"#utility.yul\":8166:8177   */\n      swap1\n      pop\n        /* \"#utility.yul\":8197:8200   */\n      dup2\n        /* \"#utility.yul\":8194:8195   */\n      0x00\n        /* \"#utility.yul\":8187:8201   */\n      mstore\n        /* \"#utility.yul\":8231:8235   */\n      0x20\n        /* \"#utility.yul\":8228:8229   */\n      0x00\n        /* \"#utility.yul\":8218:8236   */\n      keccak256\n        /* \"#utility.yul\":8210:8236   */\n      swap1\n      pop\n        /* \"#utility.yul\":8102:8243   */\n      swap2\n      swap1\n      pop\n      jump\t// out\n        /* \"#utility.yul\":8249:8342   */\n    tag_70:\n        /* \"#utility.yul\":8286:8292   */\n      0x00\n        /* \"#utility.yul\":8333:8335   */\n      0x20\n        /* \"#utility.yul\":8328:8330   */\n      0x1f\n        /* \"#utility.yul\":8321:8326   */\n      dup4\n        /* \"#utility.yul\":8317:8331   */\n      add\n        /* \"#utility.yul\":8313:8336   */\n      div\n        /* \"#utility.yul\":8303:8336   */\n      swap1\n      pop\n        /* \"#utility.yul\":8249:8342   */\n      swap2\n      swap1\n      pop\n      jump\t// out\n        /* \"#utility.yul\":8348:8455   */\n    tag_71:\n        /* \"#utility.yul\":8392:8400   */\n      0x00\n        /* \"#utility.yul\":8442:8447   */\n      dup3\n        /* \"#utility.yul\":8436:8440   */\n      dup3\n        /* \"#utility.yul\":8432:8448   */\n      shl\n        /* \"#utility.yul\":8411:8448   */\n      swap1\n      pop\n        /* \"#utility.yul\":8348:8455   */\n      swap3\n      swap2\n      pop\n      pop\n      jump\t// out\n        /* \"#utility.yul\":8461:8854   */\n    tag_72:\n        /* \"#utility.yul\":8530:8536   */\n      0x00\n        /* \"#utility.yul\":8580:8581   */\n      0x08\n        /* \"#utility.yul\":8568:8578   */\n      dup4\n        /* \"#utility.yul\":8564:8582   */\n      mul\n        /* \"#utility.yul\":8603:8700   */\n      tag_169\n        /* \"#utility.yul\":8633:8699   */\n      0xffffffffffffffffffffffffffffffffffffffffffffffffffffffffffffffff\n        /* \"#utility.yul\":8622:8631   */\n      dup3\n        /* \"#utility.yul\":8603:8700   */\n      tag_71\n      jump\t// in\n    tag_169:\n        /* \"#utility.yul\":8721:8760   */\n      tag_170\n        /* \"#utility.yul\":8751:8759   */\n      dup7\n        /* \"#utility.yul\":8740:8749   */\n      dup4\n        /* \"#utility.yul\":8721:8760   */\n      tag_71\n      jump\t// in\n    tag_170:\n        /* \"#utility.yul\":8709:8760   */\n      swap6\n      pop\n        /* \"#utility.yul\":8793:8797   */\n      dup1\n        /* \"#utility.yul\":8789:8798   */\n      not\n        /* \"#utility.yul\":8782:8787   */\n      dup5\n        /* \"#utility.yul\":8778:8799   */\n      and\n        /* \"#utility.yul\":8769:8799   */\n      swap4\n      pop\n        /* \"#utility.yul\":8842:8846   */\n      dup1\n        /* \"#utility.yul\":8832:8840   */\n      dup7\n        /* \"#utility.yul\":8828:8847   */\n      and\n        /* \"#utility.yul\":8821:8826   */\n      dup5\n        /* \"#utility.yul\":8818:8848   */\n      or\n        /* \"#utility.yul\":8808:8848   */\n      swap3\n      pop\n        /* \"#utility.yul\":8537:8854   */\n      pop\n      pop\n        /* \"#utility.yul\":8461:8854   */\n      swap4\n      swap3\n      pop\n      pop\n      pop\n      jump\t// out\n        /* \"#utility.yul\":8860:8937   */\n    tag_73:\n        /* \"#utility.yul\":8897:8904   */\n      0x00\n        /* \"#utility.yul\":8926:8931   */\n      dup2\n        /* \"#utility.yul\":8915:8931   */\n      swap1\n      pop\n        /* \"#utility.yul\":8860:8937   */\n      swap2\n      swap1\n      pop\n      jump\t// out\n        /* \"#utility.yul\":8943:9003   */\n    tag_74:\n        /* \"#utility.yul\":8971:8974   */\n      0x00\n        /* \"#utility.yul\":8992:8997   */\n      dup2\n        /* \"#utility.yul\":8985:8997   */\n      swap1\n      pop\n        /* \"#utility.yul\":8943:9003   */\n      swap2\n      swap1\n      pop\n      jump\t// out\n        /* \"#utility.yul\":9009:9151   */\n    tag_75:\n        /* \"#utility.yul\":9059:9068   */\n      0x00\n        /* \"#utility.yul\":9092:9145   */\n      tag_174\n        /* \"#utility.yul\":9110:9144   */\n      tag_175\n        /* \"#utility.yul\":9119:9143   */\n      tag_176\n        /* \"#utility.yul\":9137:9142   */\n      dup5\n        /* \"#utility.yul\":9119:9143   */\n      tag_73\n      jump\t// in\n    tag_176:\n        /* \"#utility.yul\":9110:9144   */\n      tag_74\n      jump\t// in\n    tag_175:\n        /* \"#utility.yul\":9092:9145   */\n      tag_73\n      jump\t// in\n    tag_174:\n        /* \"#utility.yul\":9079:9145   */\n      swap1\n      pop\n        /* \"#utility.yul\":9009:9151   */\n      swap2\n      swap1\n      pop\n      jump\t// out\n        /* \"#utility.yul\":9157:9232   */\n    tag_76:\n        /* \"#utility.yul\":9200:9203   */\n      0x00\n        /* \"#utility.yul\":9221:9226   */\n      dup2\n        /* \"#utility.yul\":9214:9226   */\n      swap1\n      pop\n        /* \"#utility.yul\":9157:9232   */\n      swap2\n      swap1\n      pop\n      jump\t// out\n        /* \"#utility.yul\":9238:9507   */\n    tag_77:\n        /* \"#utility.yul\":9348:9387   */\n      tag_179\n        /* \"#utility.yul\":9379:9386   */\n      dup4\n        /* \"#utility.yul\":9348:9387   */\n      tag_75\n      jump\t// in\n    tag_179:\n        /* \"#utility.yul\":9409:9500   */\n      tag_180\n        /* \"#utility.yul\":9458:9499   */\n      tag_181\n        /* \"#utility.yul\":9482:9498   */\n      dup3\n        /* \"#utility.yul\":9458:9499   */\n      tag_76\n      jump\t// in\n    tag_181:\n        /* \"#utility.yul\":9450:9456   */\n      dup5\n        /* \"#utility.yul\":9443:9447   */\n      dup5\n        /* \"#utility.yul\":9437:9448   */\n      sload\n        /* \"#utility.yul\":9409:9500   */\n      tag_72\n      jump\t// in\n    tag_180:\n        /* \"#utility.yul\":9403:9407   */\n      dup3\n        /* \"#utility.yul\":9396:9501   */\n      sstore\n        /* \"#utility.yul\":9314:9507   */\n      pop\n        /* \"#utility.yul\":9238:9507   */\n      pop\n      pop\n      pop\n      jump\t// out\n        /* \"#utility.yul\":9513:9586   */\n    tag_78:\n        /* \"#utility.yul\":9558:9561   */\n      0x00\n        /* \"#utility.yul\":9579:9580   */\n      0x00\n        /* \"#utility.yul\":9572:9580   */\n      swap1\n      pop\n        /* \"#utility.yul\":9513:9586   */\n      swap1\n      jump\t// out\n        /* \"#utility.yul\":9592:9781   */\n    tag_79:\n        /* \"#utility.yul\":9669:9701   */\n      tag_184\n      tag_78\n      jump\t// in\n    tag_184:\n        /* \"#utility.yul\":9710:9775   */\n      tag_185\n        /* \"#utility.yul\":9768:9774   */\n      dup2\n        /* \"#utility.yul\":9760:9766   */\n      dup5\n        /* \"#utility.yul\":9754:9758   */\n      dup5\n        /* \"#utility.yul\":9710:9775   */\n      tag_77\n      jump\t// in\n    tag_185:\n        /* \"#utility.yul\":9645:9781   */\n      pop\n        /* \"#utility.yul\":9592:9781   */\n      pop\n      pop\n      jump\t// out\n        /* \"#utility.yul\":9787:9973   */\n    tag_80:\n        /* \"#utility.yul\":9847:9967   */\n    tag_187:\n        /* \"#utility.yul\":9864:9867   */\n      dup2\n        /* \"#utility.yul\":9857:9862   */\n      dup2\n        /* \"#utility.yul\":9854:9868   */\n      lt\n        /* \"#utility.yul\":9847:9967   */\n      iszero\n      tag_189\n      jumpi\n        /* \"#utility.yul\":9918:9957   */\n      tag_190\n        /* \"#utility.yul\":9955:9956   */\n      0x00\n        /* \"#utility.yul\":9948:9953   */\n      dup3\n        /* \"#utility.yul\":9918:9957   */\n      tag_79\n      jump\t// in\n    tag_190:\n        /* \"#utility.yul\":9891:9892   */\n      0x01\n        /* \"#utility.yul\":9884:9889   */\n      dup2\n        /* \"#utility.yul\":9880:9893   */\n      add\n        /* \"#utility.yul\":9871:9893   */\n      swap1\n      pop\n        /* \"#utility.yul\":9847:9967   */\n      jump(tag_187)\n    tag_189:\n        /* \"#utility.yul\":9787:9973   */\n      pop\n      pop\n      jump\t// out\n        /* \"#utility.yul\":9979:10522   */\n    tag_81:\n        /* \"#utility.yul\":10080:10082   */\n      0x1f\n        /* \"#utility.yul\":10075:10078   */\n      dup3\n        /* \"#utility.yul\":10072:10083   */\n      gt\n        /* \"#utility.yul\":10069:10515   */\n      iszero\n      tag_192\n      jumpi\n        /* \"#utility.yul\":10114:10152   */\n      tag_193\n        /* \"#utility.yul\":10146:10151   */\n      dup2\n        /* \"#utility.yul\":10114:10152   */\n      tag_69\n      jump\t// in\n    tag_193:\n        /* \"#utility.yul\":10198:10227   */\n      tag_194\n        /* \"#utility.yul\":10216:10226   */\n      dup5\n        /* \"#utility.yul\":10198:10227   */\n      tag_70\n      jump\t// in\n    tag_194:\n        /* \"#utility.yul\":10188:10196   */\n      dup2\n        /* \"#utility.yul\":10184:10228   */\n      add\n        /* \"#utility.yul\":10381:10383   */\n      0x20\n        /* \"#utility.yul\":10369:10379   */\n      dup6\n        /* \"#utility.yul\":10366:10384   */\n      lt\n        /* \"#utility.yul\":10363:10412   */\n      iszero\n      tag_195\n      jumpi\n        /* \"#utility.yul\":10402:10410   */\n      dup2\n        /* \"#utility.yul\":10387:10410   */\n      swap1\n      pop\n        /* \"#utility.yul\":10363:10412   */\n    tag_195:\n        /* \"#utility.yul\":10425:10505   */\n      tag_196\n        /* \"#utility.yul\":10481:10503   */\n      tag_197\n        /* \"#utility.yul\":10499:10502   */\n      dup6\n        /* \"#utility.yul\":10481:10503   */\n      tag_70\n      jump\t// in\n    tag_197:\n        /* \"#utility.yul\":10471:10479   */\n      dup4\n        /* \"#utility.yul\":10467:10504   */\n      add\n        /* \"#utility.yul\":10454:10465   */\n      dup3\n        /* \"#utility.yul\":10425:10505   */\n      tag_80\n      jump\t// in\n    tag_196:\n        /* \"#utility.yul\":10084:10515   */\n      pop\n      pop\n        /* \"#utility.yul\":10069:10515   */\n    tag_192:\n        /* \"#utility.yul\":9979:10522   */\n      pop\n      pop\n      pop\n      jump\t// out\n        /* \"#utility.yul\":10528:10645   */\n    tag_82:\n        /* \"#utility.yul\":10582:10590   */\n      0x00\n        /* \"#utility.yul\":10632:10637   */\n      dup3\n        /* \"#utility.yul\":10626:10630   */\n      dup3\n        /* \"#utility.yul\":10622:10638   */\n      shr\n        /* \"#utility.yul\":10601:10638   */\n      swap1\n      pop\n        /* \"#utility.yul\":10528:10645   */\n      swap3\n      swap2\n      pop\n      pop\n      jump\t// out\n        /* \"#utility.yul\":10651:10820   */\n    tag_83:\n        /* \"#utility.yul\":10695:10701   */\n      0x00\n        /* \"#utility.yul\":10728:10779   */\n      tag_200\n        /* \"#utility.yul\":10776:10777   */\n      0x00\n        /* \"#utility.yul\":10772:10778   */\n      not\n        /* \"#utility.yul\":10764:10769   */\n      dup5\n        /* \"#utility.yul\":10761:10762   */\n      0x08\n        /* \"#utility.yul\":10757:10770   */\n      mul\n        /* \"#utility.yul\":10728:10779   */\n      tag_82\n      jump\t// in\n    tag_200:\n        /* \"#utility.yul\":10724:10780   */\n      not\n        /* \"#utility.yul\":10809:10813   */\n      dup1\n        /* \"#utility.yul\":10803:10807   */\n      dup4\n        /* \"#utility.yul\":10799:10814   */\n      and\n        /* \"#utility.yul\":10789:10814   */\n      swap2\n      pop\n        /* \"#utility.yul\":10702:10820   */\n      pop\n        /* \"#utility.yul\":10651:10820   */\n      swap3\n      swap2\n      pop\n      pop\n      jump\t// out\n        /* \"#utility.yul\":10825:11120   */\n    tag_84:\n        /* \"#utility.yul\":10901:10905   */\n      0x00\n        /* \"#utility.yul\":11047:11076   */\n      tag_202\n        /* \"#utility.yul\":11072:11075   */\n      dup4\n        /* \"#utility.yul\":11066:11070   */\n      dup4\n        /* \"#utility.yul\":11047:11076   */\n      tag_83\n      jump\t// in\n    tag_202:\n        /* \"#utility.yul\":11039:11076   */\n      swap2\n      pop\n        /* \"#utility.yul\":11109:11112   */\n      dup3\n        /* \"#utility.yul\":11106:11107   */\n      0x02\n        /* \"#utility.yul\":11102:11113   */\n      mul\n        /* \"#utility.yul\":11096:11100   */\n      dup3\n        /* \"#utility.yul\":11093:11114   */\n      or\n        /* \"#utility.yul\":11085:11114   */\n      swap1\n      pop\n        /* \"#utility.yul\":10825:11120   */\n      swap3\n      swap2\n      pop\n      pop\n      jump\t// out\n        /* \"#utility.yul\":11125:12520   */\n    tag_42:\n        /* \"#utility.yul\":11242:11279   */\n      tag_204\n        /* \"#utility.yul\":11275:11278   */\n      dup3\n        /* \"#utility.yul\":11242:11279   */\n      tag_52\n      jump\t// in\n    tag_204:\n        /* \"#utility.yul\":11344:11362   */\n      0xffffffffffffffff\n        /* \"#utility.yul\":11336:11342   */\n      dup2\n        /* \"#utility.yul\":11333:11363   */\n      gt\n        /* \"#utility.yul\":11330:11386   */\n      iszero\n      tag_205\n      jumpi\n        /* \"#utility.yul\":11366:11384   */\n      tag_206\n      tag_59\n      jump\t// in\n    tag_206:\n        /* \"#utility.yul\":11330:11386   */\n    tag_205:\n        /* \"#utility.yul\":11410:11448   */\n      tag_207\n        /* \"#utility.yul\":11442:11446   */\n      dup3\n        /* \"#utility.yul\":11436:11447   */\n      sload\n        /* \"#utility.yul\":11410:11448   */\n      tag_16\n      jump\t// in\n    tag_207:\n        /* \"#utility.yul\":11495:11562   */\n      tag_208\n        /* \"#utility.yul\":11555:11561   */\n      dup3\n        /* \"#utility.yul\":11547:11553   */\n      dup3\n        /* \"#utility.yul\":11541:11545   */\n      dup6\n        /* \"#utility.yul\":11495:11562   */\n      tag_81\n      jump\t// in\n    tag_208:\n        /* \"#utility.yul\":11589:11590   */\n      0x00\n        /* \"#utility.yul\":11613:11617   */\n      0x20\n        /* \"#utility.yul\":11600:11617   */\n      swap1\n      pop\n        /* \"#utility.yul\":11645:11647   */\n      0x1f\n        /* \"#utility.yul\":11637:11643   */\n      dup4\n        /* \"#utility.yul\":11634:11648   */\n      gt\n        /* \"#utility.yul\":11662:11663   */\n      0x01\n        /* \"#utility.yul\":11657:12275   */\n      dup2\n      eq\n      tag_210\n      jumpi\n        /* \"#utility.yul\":12319:12320   */\n      0x00\n        /* \"#utility.yul\":12336:12342   */\n      dup5\n        /* \"#utility.yul\":12333:12410   */\n      iszero\n      tag_211\n      jumpi\n        /* \"#utility.yul\":12385:12394   */\n      dup3\n        /* \"#utility.yul\":12380:12383   */\n      dup8\n        /* \"#utility.yul\":12376:12395   */\n      add\n        /* \"#utility.yul\":12370:12396   */\n      mload\n        /* \"#utility.yul\":12361:12396   */\n      swap1\n      pop\n        /* \"#utility.yul\":12333:12410   */\n    tag_211:\n        /* \"#utility.yul\":12436:12503   */\n      tag_212\n        /* \"#utility.yul\":12496:12502   */\n      dup6\n        /* \"#utility.yul\":12489:12494   */\n      dup3\n        /* \"#utility.yul\":12436:12503   */\n      tag_84\n      jump\t// in\n    tag_212:\n        /* \"#utility.yul\":12430:12434   */\n      dup7\n        /* \"#utility.yul\":12423:12504   */\n      sstore\n        /* \"#utility.yul\":12292:12514   */\n      pop\n        /* \"#utility.yul\":11627:12514   */\n      jump(tag_209)\n        /* \"#utility.yul\":11657:12275   */\n    tag_210:\n        /* \"#utility.yul\":11709:11713   */\n      0x1f\n        /* \"#utility.yul\":11705:11714   */\n      not\n        /* \"#utility.yul\":11697:11703   */\n      dup5\n        /* \"#utility.yul\":11693:11715   */\n      and\n        /* \"#utility.yul\":11743:11780   */\n      tag_213\n        /* \"#utility.yul\":11775:11779   */\n      dup7\n        /* \"#utility.yul\":11743:11780   */\n      tag_69\n      jump\t// in\n    tag_213:\n        /* \"#utility.yul\":11802:11803   */\n      0x00\n        /* \"#utility.yul\":11816:12024   */\n    tag_214:\n        /* \"#utility.yul\":11830:11837   */\n      dup3\n        /* \"#utility.yul\":11827:11828   */\n      dup2\n        /* \"#utility.yul\":11824:11838   */\n      lt\n        /* \"#utility.yul\":11816:12024   */\n      iszero\n      tag_216\n      jumpi\n        /* \"#utility.yul\":11909:11918   */\n      dup5\n        /* \"#utility.yul\":11904:11907   */\n      dup10\n        /* \"#utility.yul\":11900:11919   */\n      add\n        /* \"#utility.yul\":11894:11920   */\n      mload\n        /* \"#utility.yul\":11886:11892   */\n      dup3\n        /* \"#utility.yul\":11879:11921   */\n      sstore\n        /* \"#utility.yul\":11960:11961   */\n      0x01\n        /* \"#utility.yul\":11952:11958   */\n      dup3\n        /* \"#utility.yul\":11948:11962   */\n      add\n        /* \"#utility.yul\":11938:11962   */\n      swap2\n      pop\n        /* \"#utility.yul\":12007:12009   */\n      0x20\n        /* \"#utility.yul\":11996:12005   */\n      dup6\n        /* \"#utility.yul\":11992:12010   */\n      add\n        /* \"#utility.yul\":11979:12010   */\n      swap5\n      pop\n        /* \"#utility.yul\":11853:11857   */\n      0x20\n        /* \"#utility.yul\":11850:11851   */\n      dup2\n        /* \"#utility.yul\":11846:11858   */\n      add\n        /* \"#utility.yul\":11841:11858   */\n      swap1\n      pop\n        /* \"#utility.yul\":11816:12024   */\n      jump(tag_214)\n    tag_216:\n        /* \"#utility.yul\":12052:12058   */\n      dup7\n        /* \"#utility.yul\":12043:12050   */\n      dup4\n        /* \"#utility.yul\":12040:12059   */\n      lt\n        /* \"#utility.yul\":12037:12216   */\n      iszero\n      tag_217\n      jumpi\n        /* \"#utility.yul\":12110:12119   */\n      dup5\n        /* \"#utility.yul\":12105:12108   */\n      dup10\n        /* \"#utility.yul\":12101:12120   */\n      add\n        /* \"#utility.yul\":12095:12121   */\n      mload\n        /* \"#utility.yul\":12153:12201   */\n      tag_218\n        /* \"#utility.yul\":12195:12199   */\n      0x1f\n        /* \"#utility.yul\":12187:12193   */\n      dup10\n        /* \"#utility.yul\":12183:12200   */\n      and\n        /* \"#utility.yul\":12172:12181   */\n      dup3\n        /* \"#utility.yul\":12153:12201   */\n      tag_83\n      jump\t// in\n    tag_218:\n        /* \"#utility.yul\":12145:12151   */\n      dup4\n        /* \"#utility.yul\":12138:12202   */\n      sstore\n        /* \"#utility.yul\":12060:12216   */\n      pop\n        /* \"#utility.yul\":12037:12216   */\n    tag_217:\n        /* \"#utility.yul\":12262:12263   */\n      0x01\n        /* \"#utility.yul\":12258:12259   */\n      0x02\n        /* \"#utility.yul\":12250:12256   */\n      dup9\n        /* \"#utility.yul\":12246:12260   */\n      mul\n        /* \"#utility.yul\":12242:12264   */\n      add\n        /* \"#utility.yul\":12236:12240   */\n      dup9\n        /* \"#utility.yul\":12229:12265   */\n      sstore\n        /* \"#utility.yul\":11664:12275   */\n      pop\n      pop\n      pop\n        /* \"#utility.yul\":11627:12514   */\n    tag_209:\n      pop\n        /* \"#utility.yul\":11217:12520   */\n      pop\n      pop\n      pop\n        /* \"#utility.yul\":11125:12520   */\n      pop\n      pop\n      jump\t// out\n\n    auxdata: 0xa2646970667358221220e104d5406ae77be4815905f5684deaec2818ed10b5ee81c6fec2c07427ab90d264736f6c634300081c0033\n}\n",
				"bytecode": {
					"linkReferences": {},
					"object": "6080604052348015600e575f5ffd5b50335f5f6101000a81548173ffffffffffffffffffffffffffffffffffffffff021916908373ffffffffffffffffffffffffffffffffffffffff160217905550610abb8061005b5f395ff3fe608060405234801561000f575f5ffd5b5060043610610034575f3560e01c80630fddcaec146100385780634ab823c41461006b575b5f5ffd5b610052600480360381019061004d919061043b565b610087565b60405161006294939291906104d6565b60405180910390f35b61008560048036038101906100809190610661565b6102cb565b005b6001602052805f5260405f205f91509050805f0180546100a690610775565b80601f01602080910402602001604051908101604052809291908181526020018280546100d290610775565b801561011d5780601f106100f45761010080835404028352916020019161011d565b820191905f5260205f20905b81548152906001019060200180831161010057829003601f168201915b50505050509080600101805461013290610775565b80601f016020809104026020016040519081016040528092919081815260200182805461015e90610775565b80156101a95780601f10610180576101008083540402835291602001916101a9565b820191905f5260205f20905b81548152906001019060200180831161018c57829003601f168201915b5050505050908060020180546101be90610775565b80601f01602080910402602001604051908101604052809291908181526020018280546101ea90610775565b80156102355780601f1061020c57610100808354040283529160200191610235565b820191905f5260205f20905b81548152906001019060200180831161021857829003601f168201915b50505050509080600301805461024a90610775565b80601f016020809104026020016040519081016040528092919081815260200182805461027690610775565b80156102c15780601f10610298576101008083540402835291602001916102c1565b820191905f5260205f20905b8154815290600101906020018083116102a457829003601f168201915b5050505050905084565b5f5f9054906101000a900473ffffffffffffffffffffffffffffffffffffffff1673ffffffffffffffffffffffffffffffffffffffff163373ffffffffffffffffffffffffffffffffffffffff1614610359576040517f08c379a0000000000000000000000000000000000000000000000000000000008152600401610350906107ef565b60405180910390fd5b60405180608001604052808581526020018481526020018381526020018281525060015f8761ffff1661ffff1681526020019081526020015f205f820151815f0190816103a691906109b6565b5060208201518160010190816103bc91906109b6565b5060408201518160020190816103d291906109b6565b5060608201518160030190816103e891906109b6565b509050505050505050565b5f604051905090565b5f5ffd5b5f5ffd5b5f61ffff82169050919050565b61041a81610404565b8114610424575f5ffd5b50565b5f8135905061043581610411565b92915050565b5f602082840312156104505761044f6103fc565b5b5f61045d84828501610427565b91505092915050565b5f81519050919050565b5f82825260208201905092915050565b8281835e5f83830152505050565b5f601f19601f8301169050919050565b5f6104a882610466565b6104b28185610470565b93506104c2818560208601610480565b6104cb8161048e565b840191505092915050565b5f6080820190508181035f8301526104ee818761049e565b90508181036020830152610502818661049e565b90508181036040830152610516818561049e565b9050818103606083015261052a818461049e565b905095945050505050565b5f5ffd5b5f5ffd5b7f4e487b71000000000000000000000000000000000000000000000000000000005f52604160045260245ffd5b6105738261048e565b810181811067ffffffffffffffff821117156105925761059161053d565b5b80604052505050565b5f6105a46103f3565b90506105b0828261056a565b919050565b5f67ffffffffffffffff8211156105cf576105ce61053d565b5b6105d88261048e565b9050602081019050919050565b828183375f83830152505050565b5f610605610600846105b5565b61059b565b90508281526020810184848401111561062157610620610539565b5b61062c8482856105e5565b509392505050565b5f82601f83011261064857610647610535565b5b81356106588482602086016105f3565b91505092915050565b5f5f5f5f5f60a0868803121561067a576106796103fc565b5b5f61068788828901610427565b955050602086013567ffffffffffffffff8111156106a8576106a7610400565b5b6106b488828901610634565b945050604086013567ffffffffffffffff8111156106d5576106d4610400565b5b6106e188828901610634565b935050606086013567ffffffffffffffff81111561070257610701610400565b5b61070e88828901610634565b925050608086013567ffffffffffffffff81111561072f5761072e610400565b5b61073b88828901610634565b9150509295509295909350565b7f4e487b71000000000000000000000000000000000000000000000000000000005f52602260045260245ffd5b5f600282049050600182168061078c57607f821691505b60208210810361079f5761079e610748565b5b50919050565b7f556e617574686f726973656420616363657373000000000000000000000000005f82015250565b5f6107d9601383610470565b91506107e4826107a5565b602082019050919050565b5f6020820190508181035f830152610806816107cd565b9050919050565b5f819050815f5260205f209050919050565b5f6020601f8301049050919050565b5f82821b905092915050565b5f600883026108697fffffffffffffffffffffffffffffffffffffffffffffffffffffffffffffffff8261082e565b610873868361082e565b95508019841693508086168417925050509392505050565b5f819050919050565b5f819050919050565b5f6108b76108b26108ad8461088b565b610894565b61088b565b9050919050565b5f819050919050565b6108d08361089d565b6108e46108dc826108be565b84845461083a565b825550505050565b5f5f905090565b6108fb6108ec565b6109068184846108c7565b505050565b5b818110156109295761091e5f826108f3565b60018101905061090c565b5050565b601f82111561096e5761093f8161080d565b6109488461081f565b81016020851015610957578190505b61096b6109638561081f565b83018261090b565b50505b505050565b5f82821c905092915050565b5f61098e5f1984600802610973565b1980831691505092915050565b5f6109a6838361097f565b9150826002028217905092915050565b6109bf82610466565b67ffffffffffffffff8111156109d8576109d761053d565b5b6109e28254610775565b6109ed82828561092d565b5f60209050601f831160018114610a1e575f8415610a0c578287015190505b610a16858261099b565b865550610a7d565b601f198416610a2c8661080d565b5f5b82811015610a5357848901518255600182019150602085019450602081019050610a2e565b86831015610a705784890151610a6c601f89168261097f565b8355505b6001600288020188555050505b50505050505056fea2646970667358221220e104d5406ae77be4815905f5684deaec2818ed10b5ee81c6fec2c07427ab90d264736f6c634300081c0033",
					"opcodes": "PUSH1 0x80 PUSH1 0x40 MSTORE CALLVALUE DUP1 ISZERO PUSH1 0xE JUMPI PUSH0 PUSH0 REVERT JUMPDEST POP CALLER PUSH0 PUSH0 PUSH2 0x100 EXP DUP2 SLOAD DUP2 PUSH20 0xFFFFFFFFFFFFFFFFFFFFFFFFFFFFFFFFFFFFFFFF MUL NOT AND SWAP1 DUP4 PUSH20 0xFFFFFFFFFFFFFFFFFFFFFFFFFFFFFFFFFFFFFFFF AND MUL OR SWAP1 SSTORE POP PUSH2 0xABB DUP1 PUSH2 0x5B PUSH0 CODECOPY PUSH0 RETURN INVALID PUSH1 0x80 PUSH1 0x40 MSTORE CALLVALUE DUP1 ISZERO PUSH2 0xF JUMPI PUSH0 PUSH0 REVERT JUMPDEST POP PUSH1 0x4 CALLDATASIZE LT PUSH2 0x34 JUMPI PUSH0 CALLDATALOAD PUSH1 0xE0 SHR DUP1 PUSH4 0xFDDCAEC EQ PUSH2 0x38 JUMPI DUP1 PUSH4 0x4AB823C4 EQ PUSH2 0x6B JUMPI JUMPDEST PUSH0 PUSH0 REVERT JUMPDEST PUSH2 0x52 PUSH1 0x4 DUP1 CALLDATASIZE SUB DUP2 ADD SWAP1 PUSH2 0x4D SWAP2 SWAP1 PUSH2 0x43B JUMP JUMPDEST PUSH2 0x87 JUMP JUMPDEST PUSH1 0x40 MLOAD PUSH2 0x62 SWAP5 SWAP4 SWAP3 SWAP2 SWAP1 PUSH2 0x4D6 JUMP JUMPDEST PUSH1 0x40 MLOAD DUP1 SWAP2 SUB SWAP1 RETURN JUMPDEST PUSH2 0x85 PUSH1 0x4 DUP1 CALLDATASIZE SUB DUP2 ADD SWAP1 PUSH2 0x80 SWAP2 SWAP1 PUSH2 0x661 JUMP JUMPDEST PUSH2 0x2CB JUMP JUMPDEST STOP JUMPDEST PUSH1 0x1 PUSH1 0x20 MSTORE DUP1 PUSH0 MSTORE PUSH1 0x40 PUSH0 KECCAK256 PUSH0 SWAP2 POP SWAP1 POP DUP1 PUSH0 ADD DUP1 SLOAD PUSH2 0xA6 SWAP1 PUSH2 0x775 JUMP JUMPDEST DUP1 PUSH1 0x1F ADD PUSH1 0x20 DUP1 SWAP2 DIV MUL PUSH1 0x20 ADD PUSH1 0x40 MLOAD SWAP1 DUP2 ADD PUSH1 0x40 MSTORE DUP1 SWAP3 SWAP2 SWAP1 DUP2 DUP2 MSTORE PUSH1 0x20 ADD DUP3 DUP1 SLOAD PUSH2 0xD2 SWAP1 PUSH2 0x775 JUMP JUMPDEST DUP1 ISZERO PUSH2 0x11D JUMPI DUP1 PUSH1 0x1F LT PUSH2 0xF4 JUMPI PUSH2 0x100 DUP1 DUP4 SLOAD DIV MUL DUP4 MSTORE SWAP2 PUSH1 0x20 ADD SWAP2 PUSH2 0x11D JUMP JUMPDEST DUP3 ADD SWAP2 SWAP1 PUSH0 MSTORE PUSH1 0x20 PUSH0 KECCAK256 SWAP1 JUMPDEST DUP2 SLOAD DUP2 MSTORE SWAP1 PUSH1 0x1 ADD SWAP1 PUSH1 0x20 ADD DUP1 DUP4 GT PUSH2 0x100 JUMPI DUP3 SWAP1 SUB PUSH1 0x1F AND DUP3 ADD SWAP2 JUMPDEST POP POP POP POP POP SWAP1 DUP1 PUSH1 0x1 ADD DUP1 SLOAD PUSH2 0x132 SWAP1 PUSH2 0x775 JUMP JUMPDEST DUP1 PUSH1 0x1F ADD PUSH1 0x20 DUP1 SWAP2 DIV MUL PUSH1 0x20 ADD PUSH1 0x40 MLOAD SWAP1 DUP2 ADD PUSH1 0x40 MSTORE DUP1 SWAP3 SWAP2 SWAP1 DUP2 DUP2 MSTORE PUSH1 0x20 ADD DUP3 DUP1 SLOAD PUSH2 0x15E SWAP1 PUSH2 0x775 JUMP JUMPDEST DUP1 ISZERO PUSH2 0x1A9 JUMPI DUP1 PUSH1 0x1F LT PUSH2 0x180 JUMPI PUSH2 0x100 DUP1 DUP4 SLOAD DIV MUL DUP4 MSTORE SWAP2 PUSH1 0x20 ADD SWAP2 PUSH2 0x1A9 JUMP JUMPDEST DUP3 ADD SWAP2 SWAP1 PUSH0 MSTORE PUSH1 0x20 PUSH0 KECCAK256 SWAP1 JUMPDEST DUP2 SLOAD DUP2 MSTORE SWAP1 PUSH1 0x1 ADD SWAP1 PUSH1 0x20 ADD DUP1 DUP4 GT PUSH2 0x18C JUMPI DUP3 SWAP1 SUB PUSH1 0x1F AND DUP3 ADD SWAP2 JUMPDEST POP POP POP POP POP SWAP1 DUP1 PUSH1 0x2 ADD DUP1 SLOAD PUSH2 0x1BE SWAP1 PUSH2 0x775 JUMP JUMPDEST DUP1 PUSH1 0x1F ADD PUSH1 0x20 DUP1 SWAP2 DIV MUL PUSH1 0x20 ADD PUSH1 0x40 MLOAD SWAP1 DUP2 ADD PUSH1 0x40 MSTORE DUP1 SWAP3 SWAP2 SWAP1 DUP2 DUP2 MSTORE PUSH1 0x20 ADD DUP3 DUP1 SLOAD PUSH2 0x1EA SWAP1 PUSH2 0x775 JUMP JUMPDEST DUP1 ISZERO PUSH2 0x235 JUMPI DUP1 PUSH1 0x1F LT PUSH2 0x20C JUMPI PUSH2 0x100 DUP1 DUP4 SLOAD DIV MUL DUP4 MSTORE SWAP2 PUSH1 0x20 ADD SWAP2 PUSH2 0x235 JUMP JUMPDEST DUP3 ADD SWAP2 SWAP1 PUSH0 MSTORE PUSH1 0x20 PUSH0 KECCAK256 SWAP1 JUMPDEST DUP2 SLOAD DUP2 MSTORE SWAP1 PUSH1 0x1 ADD SWAP1 PUSH1 0x20 ADD DUP1 DUP4 GT PUSH2 0x218 JUMPI DUP3 SWAP1 SUB PUSH1 0x1F AND DUP3 ADD SWAP2 JUMPDEST POP POP POP POP POP SWAP1 DUP1 PUSH1 0x3 ADD DUP1 SLOAD PUSH2 0x24A SWAP1 PUSH2 0x775 JUMP JUMPDEST DUP1 PUSH1 0x1F ADD PUSH1 0x20 DUP1 SWAP2 DIV MUL PUSH1 0x20 ADD PUSH1 0x40 MLOAD SWAP1 DUP2 ADD PUSH1 0x40 MSTORE DUP1 SWAP3 SWAP2 SWAP1 DUP2 DUP2 MSTORE PUSH1 0x20 ADD DUP3 DUP1 SLOAD PUSH2 0x276 SWAP1 PUSH2 0x775 JUMP JUMPDEST DUP1 ISZERO PUSH2 0x2C1 JUMPI DUP1 PUSH1 0x1F LT PUSH2 0x298 JUMPI PUSH2 0x100 DUP1 DUP4 SLOAD DIV MUL DUP4 MSTORE SWAP2 PUSH1 0x20 ADD SWAP2 PUSH2 0x2C1 JUMP JUMPDEST DUP3 ADD SWAP2 SWAP1 PUSH0 MSTORE PUSH1 0x20 PUSH0 KECCAK256 SWAP1 JUMPDEST DUP2 SLOAD DUP2 MSTORE SWAP1 PUSH1 0x1 ADD SWAP1 PUSH1 0x20 ADD DUP1 DUP4 GT PUSH2 0x2A4 JUMPI DUP3 SWAP1 SUB PUSH1 0x1F AND DUP3 ADD SWAP2 JUMPDEST POP POP POP POP POP SWAP1 POP DUP5 JUMP JUMPDEST PUSH0 PUSH0 SWAP1 SLOAD SWAP1 PUSH2 0x100 EXP SWAP1 DIV PUSH20 0xFFFFFFFFFFFFFFFFFFFFFFFFFFFFFFFFFFFFFFFF AND PUSH20 0xFFFFFFFFFFFFFFFFFFFFFFFFFFFFFFFFFFFFFFFF AND CALLER PUSH20 0xFFFFFFFFFFFFFFFFFFFFFFFFFFFFFFFFFFFFFFFF AND EQ PUSH2 0x359 JUMPI PUSH1 0x40 MLOAD PUSH32 0x8C379A000000000000000000000000000000000000000000000000000000000 DUP2 MSTORE PUSH1 0x4 ADD PUSH2 0x350 SWAP1 PUSH2 0x7EF JUMP JUMPDEST PUSH1 0x40 MLOAD DUP1 SWAP2 SUB SWAP1 REVERT JUMPDEST PUSH1 0x40 MLOAD DUP1 PUSH1 0x80 ADD PUSH1 0x40 MSTORE DUP1 DUP6 DUP2 MSTORE PUSH1 0x20 ADD DUP5 DUP2 MSTORE PUSH1 0x20 ADD DUP4 DUP2 MSTORE PUSH1 0x20 ADD DUP3 DUP2 MSTORE POP PUSH1 0x1 PUSH0 DUP8 PUSH2 0xFFFF AND PUSH2 0xFFFF AND DUP2 MSTORE PUSH1 0x20 ADD SWAP1 DUP2 MSTORE PUSH1 0x20 ADD PUSH0 KECCAK256 PUSH0 DUP3 ADD MLOAD DUP2 PUSH0 ADD SWAP1 DUP2 PUSH2 0x3A6 SWAP2 SWAP1 PUSH2 0x9B6 JUMP JUMPDEST POP PUSH1 0x20 DUP3 ADD MLOAD DUP2 PUSH1 0x1 ADD SWAP1 DUP2 PUSH2 0x3BC SWAP2 SWAP1 PUSH2 0x9B6 JUMP JUMPDEST POP PUSH1 0x40 DUP3 ADD MLOAD DUP2 PUSH1 0x2 ADD SWAP1 DUP2 PUSH2 0x3D2 SWAP2 SWAP1 PUSH2 0x9B6 JUMP JUMPDEST POP PUSH1 0x60 DUP3 ADD MLOAD DUP2 PUSH1 0x3 ADD SWAP1 DUP2 PUSH2 0x3E8 SWAP2 SWAP1 PUSH2 0x9B6 JUMP JUMPDEST POP SWAP1 POP POP POP POP POP POP POP JUMP JUMPDEST PUSH0 PUSH1 0x40 MLOAD SWAP1 POP SWAP1 JUMP JUMPDEST PUSH0 PUSH0 REVERT JUMPDEST PUSH0 PUSH0 REVERT JUMPDEST PUSH0 PUSH2 0xFFFF DUP3 AND SWAP1 POP SWAP2 SWAP1 POP JUMP JUMPDEST PUSH2 0x41A DUP2 PUSH2 0x404 JUMP JUMPDEST DUP2 EQ PUSH2 0x424 JUMPI PUSH0 PUSH0 REVERT JUMPDEST POP JUMP JUMPDEST PUSH0 DUP2 CALLDATALOAD SWAP1 POP PUSH2 0x435 DUP2 PUSH2 0x411 JUMP JUMPDEST SWAP3 SWAP2 POP POP JUMP JUMPDEST PUSH0 PUSH1 0x20 DUP3 DUP5 SUB SLT ISZERO PUSH2 0x450 JUMPI PUSH2 0x44F PUSH2 0x3FC JUMP JUMPDEST JUMPDEST PUSH0 PUSH2 0x45D DUP5 DUP3 DUP6 ADD PUSH2 0x427 JUMP JUMPDEST SWAP2 POP POP SWAP3 SWAP2 POP POP JUMP JUMPDEST PUSH0 DUP2 MLOAD SWAP1 POP SWAP2 SWAP1 POP JUMP JUMPDEST PUSH0 DUP3 DUP3 MSTORE PUSH1 0x20 DUP3 ADD SWAP1 POP SWAP3 SWAP2 POP POP JUMP JUMPDEST DUP3 DUP2 DUP4 MCOPY PUSH0 DUP4 DUP4 ADD MSTORE POP POP POP JUMP JUMPDEST PUSH0 PUSH1 0x1F NOT PUSH1 0x1F DUP4 ADD AND SWAP1 POP SWAP2 SWAP1 POP JUMP JUMPDEST PUSH0 PUSH2 0x4A8 DUP3 PUSH2 0x466 JUMP JUMPDEST PUSH2 0x4B2 DUP2 DUP6 PUSH2 0x470 JUMP JUMPDEST SWAP4 POP PUSH2 0x4C2 DUP2 DUP6 PUSH1 0x20 DUP7 ADD PUSH2 0x480 JUMP JUMPDEST PUSH2 0x4CB DUP2 PUSH2 0x48E JUMP JUMPDEST DUP5 ADD SWAP2 POP POP SWAP3 SWAP2 POP POP JUMP JUMPDEST PUSH0 PUSH1 0x80 DUP3 ADD SWAP1 POP DUP2 DUP2 SUB PUSH0 DUP4 ADD MSTORE PUSH2 0x4EE DUP2 DUP8 PUSH2 0x49E JUMP JUMPDEST SWAP1 POP DUP2 DUP2 SUB PUSH1 0x20 DUP4 ADD MSTORE PUSH2 0x502 DUP2 DUP7 PUSH2 0x49E JUMP JUMPDEST SWAP1 POP DUP2 DUP2 SUB PUSH1 0x40 DUP4 ADD MSTORE PUSH2 0x516 DUP2 DUP6 PUSH2 0x49E JUMP JUMPDEST SWAP1 POP DUP2 DUP2 SUB PUSH1 0x60 DUP4 ADD MSTORE PUSH2 0x52A DUP2 DUP5 PUSH2 0x49E JUMP JUMPDEST SWAP1 POP SWAP6 SWAP5 POP POP POP POP POP JUMP JUMPDEST PUSH0 PUSH0 REVERT JUMPDEST PUSH0 PUSH0 REVERT JUMPDEST PUSH32 0x4E487B7100000000000000000000000000000000000000000000000000000000 PUSH0 MSTORE PUSH1 0x41 PUSH1 0x4 MSTORE PUSH1 0x24 PUSH0 REVERT JUMPDEST PUSH2 0x573 DUP3 PUSH2 0x48E JUMP JUMPDEST DUP2 ADD DUP2 DUP2 LT PUSH8 0xFFFFFFFFFFFFFFFF DUP3 GT OR ISZERO PUSH2 0x592 JUMPI PUSH2 0x591 PUSH2 0x53D JUMP JUMPDEST JUMPDEST DUP1 PUSH1 0x40 MSTORE POP POP POP JUMP JUMPDEST PUSH0 PUSH2 0x5A4 PUSH2 0x3F3 JUMP JUMPDEST SWAP1 POP PUSH2 0x5B0 DUP3 DUP3 PUSH2 0x56A JUMP JUMPDEST SWAP2 SWAP1 POP JUMP JUMPDEST PUSH0 PUSH8 0xFFFFFFFFFFFFFFFF DUP3 GT ISZERO PUSH2 0x5CF JUMPI PUSH2 0x5CE PUSH2 0x53D JUMP JUMPDEST JUMPDEST PUSH2 0x5D8 DUP3 PUSH2 0x48E JUMP JUMPDEST SWAP1 POP PUSH1 0x20 DUP2 ADD SWAP1 POP SWAP2 SWAP1 POP JUMP JUMPDEST DUP3 DUP2 DUP4 CALLDATACOPY PUSH0 DUP4 DUP4 ADD MSTORE POP POP POP JUMP JUMPDEST PUSH0 PUSH2 0x605 PUSH2 0x600 DUP5 PUSH2 0x5B5 JUMP JUMPDEST PUSH2 0x59B JUMP JUMPDEST SWAP1 POP DUP3 DUP2 MSTORE PUSH1 0x20 DUP2 ADD DUP5 DUP5 DUP5 ADD GT ISZERO PUSH2 0x621 JUMPI PUSH2 0x620 PUSH2 0x539 JUMP JUMPDEST JUMPDEST PUSH2 0x62C DUP5 DUP3 DUP6 PUSH2 0x5E5 JUMP JUMPDEST POP SWAP4 SWAP3 POP POP POP JUMP JUMPDEST PUSH0 DUP3 PUSH1 0x1F DUP4 ADD SLT PUSH2 0x648 JUMPI PUSH2 0x647 PUSH2 0x535 JUMP JUMPDEST JUMPDEST DUP2 CALLDATALOAD PUSH2 0x658 DUP5 DUP3 PUSH1 0x20 DUP7 ADD PUSH2 0x5F3 JUMP JUMPDEST SWAP2 POP POP SWAP3 SWAP2 POP POP JUMP JUMPDEST PUSH0 PUSH0 PUSH0 PUSH0 PUSH0 PUSH1 0xA0 DUP7 DUP9 SUB SLT ISZERO PUSH2 0x67A JUMPI PUSH2 0x679 PUSH2 0x3FC JUMP JUMPDEST JUMPDEST PUSH0 PUSH2 0x687 DUP9 DUP3 DUP10 ADD PUSH2 0x427 JUMP JUMPDEST SWAP6 POP POP PUSH1 0x20 DUP7 ADD CALLDATALOAD PUSH8 0xFFFFFFFFFFFFFFFF DUP2 GT ISZERO PUSH2 0x6A8 JUMPI PUSH2 0x6A7 PUSH2 0x400 JUMP JUMPDEST JUMPDEST PUSH2 0x6B4 DUP9 DUP3 DUP10 ADD PUSH2 0x634 JUMP JUMPDEST SWAP5 POP POP PUSH1 0x40 DUP7 ADD CALLDATALOAD PUSH8 0xFFFFFFFFFFFFFFFF DUP2 GT ISZERO PUSH2 0x6D5 JUMPI PUSH2 0x6D4 PUSH2 0x400 JUMP JUMPDEST JUMPDEST PUSH2 0x6E1 DUP9 DUP3 DUP10 ADD PUSH2 0x634 JUMP JUMPDEST SWAP4 POP POP PUSH1 0x60 DUP7 ADD CALLDATALOAD PUSH8 0xFFFFFFFFFFFFFFFF DUP2 GT ISZERO PUSH2 0x702 JUMPI PUSH2 0x701 PUSH2 0x400 JUMP JUMPDEST JUMPDEST PUSH2 0x70E DUP9 DUP3 DUP10 ADD PUSH2 0x634 JUMP JUMPDEST SWAP3 POP POP PUSH1 0x80 DUP7 ADD CALLDATALOAD PUSH8 0xFFFFFFFFFFFFFFFF DUP2 GT ISZERO PUSH2 0x72F JUMPI PUSH2 0x72E PUSH2 0x400 JUMP JUMPDEST JUMPDEST PUSH2 0x73B DUP9 DUP3 DUP10 ADD PUSH2 0x634 JUMP JUMPDEST SWAP2 POP POP SWAP3 SWAP6 POP SWAP3 SWAP6 SWAP1 SWAP4 POP JUMP JUMPDEST PUSH32 0x4E487B7100000000000000000000000000000000000000000000000000000000 PUSH0 MSTORE PUSH1 0x22 PUSH1 0x4 MSTORE PUSH1 0x24 PUSH0 REVERT JUMPDEST PUSH0 PUSH1 0x2 DUP3 DIV SWAP1 POP PUSH1 0x1 DUP3 AND DUP1 PUSH2 0x78C JUMPI PUSH1 0x7F DUP3 AND SWAP2 POP JUMPDEST PUSH1 0x20 DUP3 LT DUP2 SUB PUSH2 0x79F JUMPI PUSH2 0x79E PUSH2 0x748 JUMP JUMPDEST JUMPDEST POP SWAP2 SWAP1 POP JUMP JUMPDEST PUSH32 0x556E617574686F72697365642061636365737300000000000000000000000000 PUSH0 DUP3 ADD MSTORE POP JUMP JUMPDEST PUSH0 PUSH2 0x7D9 PUSH1 0x13 DUP4 PUSH2 0x470 JUMP JUMPDEST SWAP2 POP PUSH2 0x7E4 DUP3 PUSH2 0x7A5 JUMP JUMPDEST PUSH1 0x20 DUP3 ADD SWAP1 POP SWAP2 SWAP1 POP JUMP JUMPDEST PUSH0 PUSH1 0x20 DUP3 ADD SWAP1 POP DUP2 DUP2 SUB PUSH0 DUP4 ADD MSTORE PUSH2 0x806 DUP2 PUSH2 0x7CD JUMP JUMPDEST SWAP1 POP SWAP2 SWAP1 POP JUMP JUMPDEST PUSH0 DUP2 SWAP1 POP DUP2 PUSH0 MSTORE PUSH1 0x20 PUSH0 KECCAK256 SWAP1 POP SWAP2 SWAP1 POP JUMP JUMPDEST PUSH0 PUSH1 0x20 PUSH1 0x1F DUP4 ADD DIV SWAP1 POP SWAP2 SWAP1 POP JUMP JUMPDEST PUSH0 DUP3 DUP3 SHL SWAP1 POP SWAP3 SWAP2 POP POP JUMP JUMPDEST PUSH0 PUSH1 0x8 DUP4 MUL PUSH2 0x869 PUSH32 0xFFFFFFFFFFFFFFFFFFFFFFFFFFFFFFFFFFFFFFFFFFFFFFFFFFFFFFFFFFFFFFFF DUP3 PUSH2 0x82E JUMP JUMPDEST PUSH2 0x873 DUP7 DUP4 PUSH2 0x82E JUMP JUMPDEST SWAP6 POP DUP1 NOT DUP5 AND SWAP4 POP DUP1 DUP7 AND DUP5 OR SWAP3 POP POP POP SWAP4 SWAP3 POP POP POP JUMP JUMPDEST PUSH0 DUP2 SWAP1 POP SWAP2 SWAP1 POP JUMP JUMPDEST PUSH0 DUP2 SWAP1 POP SWAP2 SWAP1 POP JUMP JUMPDEST PUSH0 PUSH2 0x8B7 PUSH2 0x8B2 PUSH2 0x8AD DUP5 PUSH2 0x88B JUMP JUMPDEST PUSH2 0x894 JUMP JUMPDEST PUSH2 0x88B JUMP JUMPDEST SWAP1 POP SWAP2 SWAP1 POP JUMP JUMPDEST PUSH0 DUP2 SWAP1 POP SWAP2 SWAP1 POP JUMP JUMPDEST PUSH2 0x8D0 DUP4 PUSH2 0x89D JUMP JUMPDEST PUSH2 0x8E4 PUSH2 0x8DC DUP3 PUSH2 0x8BE JUMP JUMPDEST DUP5 DUP5 SLOAD PUSH2 0x83A JUMP JUMPDEST DUP3 SSTORE POP POP POP POP JUMP JUMPDEST PUSH0 PUSH0 SWAP1 POP SWAP1 JUMP JUMPDEST PUSH2 0x8FB PUSH2 0x8EC JUMP JUMPDEST PUSH2 0x906 DUP2 DUP5 DUP5 PUSH2 0x8C7 JUMP JUMPDEST POP POP POP JUMP JUMPDEST JUMPDEST DUP2 DUP2 LT ISZERO PUSH2 0x929 JUMPI PUSH2 0x91E PUSH0 DUP3 PUSH2 0x8F3 JUMP JUMPDEST PUSH1 0x1 DUP2 ADD SWAP1 POP PUSH2 0x90C JUMP JUMPDEST POP POP JUMP JUMPDEST PUSH1 0x1F DUP3 GT ISZERO PUSH2 0x96E JUMPI PUSH2 0x93F DUP2 PUSH2 0x80D JUMP JUMPDEST PUSH2 0x948 DUP5 PUSH2 0x81F JUMP JUMPDEST DUP2 ADD PUSH1 0x20 DUP6 LT ISZERO PUSH2 0x957 JUMPI DUP2 SWAP1 POP JUMPDEST PUSH2 0x96B PUSH2 0x963 DUP6 PUSH2 0x81F JUMP JUMPDEST DUP4 ADD DUP3 PUSH2 0x90B JUMP JUMPDEST POP POP JUMPDEST POP POP POP JUMP JUMPDEST PUSH0 DUP3 DUP3 SHR SWAP1 POP SWAP3 SWAP2 POP POP JUMP JUMPDEST PUSH0 PUSH2 0x98E PUSH0 NOT DUP5 PUSH1 0x8 MUL PUSH2 0x973 JUMP JUMPDEST NOT DUP1 DUP4 AND SWAP2 POP POP SWAP3 SWAP2 POP POP JUMP JUMPDEST PUSH0 PUSH2 0x9A6 DUP4 DUP4 PUSH2 0x97F JUMP JUMPDEST SWAP2 POP DUP3 PUSH1 0x2 MUL DUP3 OR SWAP1 POP SWAP3 SWAP2 POP POP JUMP JUMPDEST PUSH2 0x9BF DUP3 PUSH2 0x466 JUMP JUMPDEST PUSH8 0xFFFFFFFFFFFFFFFF DUP2 GT ISZERO PUSH2 0x9D8 JUMPI PUSH2 0x9D7 PUSH2 0x53D JUMP JUMPDEST JUMPDEST PUSH2 0x9E2 DUP3 SLOAD PUSH2 0x775 JUMP JUMPDEST PUSH2 0x9ED DUP3 DUP3 DUP6 PUSH2 0x92D JUMP JUMPDEST PUSH0 PUSH1 0x20 SWAP1 POP PUSH1 0x1F DUP4 GT PUSH1 0x1 DUP2 EQ PUSH2 0xA1E JUMPI PUSH0 DUP5 ISZERO PUSH2 0xA0C JUMPI DUP3 DUP8 ADD MLOAD SWAP1 POP JUMPDEST PUSH2 0xA16 DUP6 DUP3 PUSH2 0x99B JUMP JUMPDEST DUP7 SSTORE POP PUSH2 0xA7D JUMP JUMPDEST PUSH1 0x1F NOT DUP5 AND PUSH2 0xA2C DUP7 PUSH2 0x80D JUMP JUMPDEST PUSH0 JUMPDEST DUP3 DUP2 LT ISZERO PUSH2 0xA53 JUMPI DUP5 DUP10 ADD MLOAD DUP3 SSTORE PUSH1 0x1 DUP3 ADD SWAP2 POP PUSH1 0x20 DUP6 ADD SWAP5 POP PUSH1 0x20 DUP2 ADD SWAP1 POP PUSH2 0xA2E JUMP JUMPDEST DUP7 DUP4 LT ISZERO PUSH2 0xA70 JUMPI DUP5 DUP10 ADD MLOAD PUSH2 0xA6C PUSH1 0x1F DUP10 AND DUP3 PUSH2 0x97F JUMP JUMPDEST DUP4 SSTORE POP JUMPDEST PUSH1 0x1 PUSH1 0x2 DUP9 MUL ADD DUP9 SSTORE POP POP POP JUMPDEST POP POP POP POP POP POP JUMP INVALID LOG2 PUSH5 0x6970667358 0x22 SLT KECCAK256 0xE1 DIV 0xD5 BLOCKHASH PUSH11 0xE77BE4815905F5684DEAEC 0x28 XOR 0xED LT 0xB5 0xEE DUP2 0xC6 INVALID 0xC2 0xC0 PUSH21 0x27AB90D264736F6C634300081C0033000000000000 "
				},
				"gasEstimates": {
					"creation": {
						"codeDepositCost": "549400",
						"executionCost": "24843",
						"totalCost": "574243"
					},
					"external": {
						"certi(uint16)": "infinite",
						"issueCertificate(uint16,string,string,string,string)": "infinite"
					}
				},
				"methodIdentifiers": {
					"certi(uint16)": "0fddcaec",
					"issueCertificate(uint16,string,string,string,string)": "4ab823c4"
				}
			},
			"storageLayout": {
				"storage": [
					{
						"astId": 12,
						"contract": "SMART-CONTRACTS-1733812289486/Certificate.sol:Certificate",
						"label": "admin",
						"offset": 0,
						"slot": "0",
						"type": "t_address"
					},
					{
						"astId": 26,
						"contract": "SMART-CONTRACTS-1733812289486/Certificate.sol:Certificate",
						"label": "certi",
						"offset": 0,
						"slot": "1",
						"type": "t_mapping(t_uint16,t_struct(Cert)10_storage)"
					}
				],
				"types": {
					"t_address": {
						"encoding": "inplace",
						"label": "address",
						"numberOfBytes": "20"
					},
					"t_mapping(t_uint16,t_struct(Cert)10_storage)": {
						"encoding": "mapping",
						"key": "t_uint16",
						"label": "mapping(uint16 => struct Certificate.Cert)",
						"numberOfBytes": "32",
						"value": "t_struct(Cert)10_storage"
					},
					"t_string_storage": {
						"encoding": "bytes",
						"label": "string",
						"numberOfBytes": "32"
					},
					"t_struct(Cert)10_storage": {
						"encoding": "inplace",
						"label": "struct Certificate.Cert",
						"members": [
							{
								"astId": 3,
								"contract": "SMART-CONTRACTS-1733812289486/Certificate.sol:Certificate",
								"label": "name",
								"offset": 0,
								"slot": "0",
								"type": "t_string_storage"
							},
							{
								"astId": 5,
								"contract": "SMART-CONTRACTS-1733812289486/Certificate.sol:Certificate",
								"label": "course",
								"offset": 0,
								"slot": "1",
								"type": "t_string_storage"
							},
							{
								"astId": 7,
								"contract": "SMART-CONTRACTS-1733812289486/Certificate.sol:Certificate",
								"label": "grade",
								"offset": 0,
								"slot": "2",
								"type": "t_string_storage"
							},
							{
								"astId": 9,
								"contract": "SMART-CONTRACTS-1733812289486/Certificate.sol:Certificate",
								"label": "date",
								"offset": 0,
								"slot": "3",
								"type": "t_string_storage"
							}
						],
						"numberOfBytes": "128"
					},
					"t_uint16": {
						"encoding": "inplace",
						"label": "uint16",
						"numberOfBytes": "2"
					}
				}
			},
			"userdoc": {
				"kind": "user",
				"methods": {},
				"version": 1
			}
		}
	}
}