{
	"data": {
		"bytecode": {
			"linkReferences": {},
			"object": "608060405233600360026101000a81548173ffffffffffffffffffffffffffffffffffffffff021916908373ffffffffffffffffffffffffffffffffffffffff160217905550348015604f575f5ffd5b50610c7b8061005d5f395ff3fe60806040526004361061003e575f3560e01c8063205566d6146100425780634abefa361461004c57806388439bbc1461007a57806395ac1db3146100b6575b5f5ffd5b61004a6100de565b005b348015610057575f5ffd5b5061006061023f565b604051610071959493929190610565565b60405180910390f35b348015610085575f5ffd5b506100a0600480360381019061009b919061060f565b61042d565b6040516100ad9190610649565b60405180910390f35b3480156100c1575f5ffd5b506100dc60048036038101906100d791906107b8565b610449565b005b6100fa60035f9054906101000a900461ffff1661ffff1661042d565b34101561013c576040517f08c379a0000000000000000000000000000000000000000000000000000000008152600401610133906108ba565b60405180910390fd5b600360029054906101000a900473ffffffffffffffffffffffffffffffffffffffff1673ffffffffffffffffffffffffffffffffffffffff166108fc61019460035f9054906101000a900461ffff1661ffff1661042d565b90811502906040515f60405180830381858888f193505050501580156101bc573d5f5f3e3d5ffd5b505f6101da60035f9054906101000a900461ffff1661ffff1661042d565b346101e59190610905565b90505f81111561023c573373ffffffffffffffffffffffffffffffffffffffff166108fc6102128361042d565b90811502906040515f60405180830381858888f1935050505015801561023a573d5f5f3e3d5ffd5b505b50565b60608060605f5f5f6001600260035f9054906101000a900461ffff16600360029054906101000a900473ffffffffffffffffffffffffffffffffffffffff1684805461028a90610965565b80601f01602080910402602001604051908101604052809291908181526020018280546102b690610965565b80156103015780601f106102d857610100808354040283529160200191610301565b820191905f5260205f20905b8154815290600101906020018083116102e457829003601f168201915b5050505050945083805461031490610965565b80601f016020809104026020016040519081016040528092919081815260200182805461034090610965565b801561038b5780601f106103625761010080835404028352916020019161038b565b820191905f5260205f20905b81548152906001019060200180831161036e57829003601f168201915b5050505050935082805461039e90610965565b80601f01602080910402602001604051908101604052809291908181526020018280546103ca90610965565b80156104155780601f106103ec57610100808354040283529160200191610415565b820191905f5260205f20905b8154815290600101906020018083116103f857829003601f168201915b50505050509250945094509450945094509091929394565b5f670de0b6b3a7640000826104429190610995565b9050919050565b835f90816104579190610b76565b5082600190816104679190610b76565b5081600290816104779190610b76565b508060035f6101000a81548161ffff021916908361ffff16021790555050505050565b5f81519050919050565b5f82825260208201905092915050565b8281835e5f83830152505050565b5f601f19601f8301169050919050565b5f6104dc8261049a565b6104e681856104a4565b93506104f68185602086016104b4565b6104ff816104c2565b840191505092915050565b5f61ffff82169050919050565b6105208161050a565b82525050565b5f73ffffffffffffffffffffffffffffffffffffffff82169050919050565b5f61054f82610526565b9050919050565b61055f81610545565b82525050565b5f60a0820190508181035f83015261057d81886104d2565b9050818103602083015261059181876104d2565b905081810360408301526105a581866104d2565b90506105b46060830185610517565b6105c16080830184610556565b9695505050505050565b5f604051905090565b5f5ffd5b5f5ffd5b5f819050919050565b6105ee816105dc565b81146105f8575f5ffd5b50565b5f81359050610609816105e5565b92915050565b5f60208284031215610624576106236105d4565b5b5f610631848285016105fb565b91505092915050565b610643816105dc565b82525050565b5f60208201905061065c5f83018461063a565b92915050565b5f5ffd5b5f5ffd5b7f4e487b71000000000000000000000000000000000000000000000000000000005f52604160045260245ffd5b6106a0826104c2565b810181811067ffffffffffffffff821117156106bf576106be61066a565b5b80604052505050565b5f6106d16105cb565b90506106dd8282610697565b919050565b5f67ffffffffffffffff8211156106fc576106fb61066a565b5b610705826104c2565b9050602081019050919050565b828183375f83830152505050565b5f61073261072d846106e2565b6106c8565b90508281526020810184848401111561074e5761074d610666565b5b610759848285610712565b509392505050565b5f82601f83011261077557610774610662565b5b8135610785848260208601610720565b91505092915050565b6107978161050a565b81146107a1575f5ffd5b50565b5f813590506107b28161078e565b92915050565b5f5f5f5f608085870312156107d0576107cf6105d4565b5b5f85013567ffffffffffffffff8111156107ed576107ec6105d8565b5b6107f987828801610761565b945050602085013567ffffffffffffffff81111561081a576108196105d8565b5b61082687828801610761565b935050604085013567ffffffffffffffff811115610847576108466105d8565b5b61085387828801610761565b9250506060610864878288016107a4565b91505092959194509250565b7f496e73756666696369656e742073616c617279000000000000000000000000005f82015250565b5f6108a46013836104a4565b91506108af82610870565b602082019050919050565b5f6020820190508181035f8301526108d181610898565b9050919050565b7f4e487b71000000000000000000000000000000000000000000000000000000005f52601160045260245ffd5b5f61090f826105dc565b915061091a836105dc565b9250828203905081811115610932576109316108d8565b5b92915050565b7f4e487b71000000000000000000000000000000000000000000000000000000005f52602260045260245ffd5b5f600282049050600182168061097c57607f821691505b60208210810361098f5761098e610938565b5b50919050565b5f61099f826105dc565b91506109aa836105dc565b92508282026109b8816105dc565b915082820484148315176109cf576109ce6108d8565b5b5092915050565b5f819050815f5260205f209050919050565b5f6020601f8301049050919050565b5f82821b905092915050565b5f60088302610a327fffffffffffffffffffffffffffffffffffffffffffffffffffffffffffffffff826109f7565b610a3c86836109f7565b95508019841693508086168417925050509392505050565b5f819050919050565b5f610a77610a72610a6d846105dc565b610a54565b6105dc565b9050919050565b5f819050919050565b610a9083610a5d565b610aa4610a9c82610a7e565b848454610a03565b825550505050565b5f5f905090565b610abb610aac565b610ac6818484610a87565b505050565b5b81811015610ae957610ade5f82610ab3565b600181019050610acc565b5050565b601f821115610b2e57610aff816109d6565b610b08846109e8565b81016020851015610b17578190505b610b2b610b23856109e8565b830182610acb565b50505b505050565b5f82821c905092915050565b5f610b4e5f1984600802610b33565b1980831691505092915050565b5f610b668383610b3f565b9150826002028217905092915050565b610b7f8261049a565b67ffffffffffffffff811115610b9857610b9761066a565b5b610ba28254610965565b610bad828285610aed565b5f60209050601f831160018114610bde575f8415610bcc578287015190505b610bd68582610b5b565b865550610c3d565b601f198416610bec866109d6565b5f5b82811015610c1357848901518255600182019150602085019450602081019050610bee565b86831015610c305784890151610c2c601f891682610b3f565b8355505b6001600288020188555050505b50505050505056fea2646970667358221220a6e3175d85e4e6f1f981cd38c982776ca3f0af93500c876f43b989222b77ab2e64736f6c634300081c0033",
			"opcodes": "PUSH1 0x80 PUSH1 0x40 MSTORE CALLER PUSH1 0x3 PUSH1 0x2 PUSH2 0x100 EXP DUP2 SLOAD DUP2 PUSH20 0xFFFFFFFFFFFFFFFFFFFFFFFFFFFFFFFFFFFFFFFF MUL NOT AND SWAP1 DUP4 PUSH20 0xFFFFFFFFFFFFFFFFFFFFFFFFFFFFFFFFFFFFFFFF AND MUL OR SWAP1 SSTORE POP CALLVALUE DUP1 ISZERO PUSH1 0x4F JUMPI PUSH0 PUSH0 REVERT JUMPDEST POP PUSH2 0xC7B DUP1 PUSH2 0x5D PUSH0 CODECOPY PUSH0 RETURN INVALID PUSH1 0x80 PUSH1 0x40 MSTORE PUSH1 0x4 CALLDATASIZE LT PUSH2 0x3E JUMPI PUSH0 CALLDATALOAD PUSH1 0xE0 SHR DUP1 PUSH4 0x205566D6 EQ PUSH2 0x42 JUMPI DUP1 PUSH4 0x4ABEFA36 EQ PUSH2 0x4C JUMPI DUP1 PUSH4 0x88439BBC EQ PUSH2 0x7A JUMPI DUP1 PUSH4 0x95AC1DB3 EQ PUSH2 0xB6 JUMPI JUMPDEST PUSH0 PUSH0 REVERT JUMPDEST PUSH2 0x4A PUSH2 0xDE JUMP JUMPDEST STOP JUMPDEST CALLVALUE DUP1 ISZERO PUSH2 0x57 JUMPI PUSH0 PUSH0 REVERT JUMPDEST POP PUSH2 0x60 PUSH2 0x23F JUMP JUMPDEST PUSH1 0x40 MLOAD PUSH2 0x71 SWAP6 SWAP5 SWAP4 SWAP3 SWAP2 SWAP1 PUSH2 0x565 JUMP JUMPDEST PUSH1 0x40 MLOAD DUP1 SWAP2 SUB SWAP1 RETURN JUMPDEST CALLVALUE DUP1 ISZERO PUSH2 0x85 JUMPI PUSH0 PUSH0 REVERT JUMPDEST POP PUSH2 0xA0 PUSH1 0x4 DUP1 CALLDATASIZE SUB DUP2 ADD SWAP1 PUSH2 0x9B SWAP2 SWAP1 PUSH2 0x60F JUMP JUMPDEST PUSH2 0x42D JUMP JUMPDEST PUSH1 0x40 MLOAD PUSH2 0xAD SWAP2 SWAP1 PUSH2 0x649 JUMP JUMPDEST PUSH1 0x40 MLOAD DUP1 SWAP2 SUB SWAP1 RETURN JUMPDEST CALLVALUE DUP1 ISZERO PUSH2 0xC1 JUMPI PUSH0 PUSH0 REVERT JUMPDEST POP PUSH2 0xDC PUSH1 0x4 DUP1 CALLDATASIZE SUB DUP2 ADD SWAP1 PUSH2 0xD7 SWAP2 SWAP1 PUSH2 0x7B8 JUMP JUMPDEST PUSH2 0x449 JUMP JUMPDEST STOP JUMPDEST PUSH2 0xFA PUSH1 0x3 PUSH0 SWAP1 SLOAD SWAP1 PUSH2 0x100 EXP SWAP1 DIV PUSH2 0xFFFF AND PUSH2 0xFFFF AND PUSH2 0x42D JUMP JUMPDEST CALLVALUE LT ISZERO PUSH2 0x13C JUMPI PUSH1 0x40 MLOAD PUSH32 0x8C379A000000000000000000000000000000000000000000000000000000000 DUP2 MSTORE PUSH1 0x4 ADD PUSH2 0x133 SWAP1 PUSH2 0x8BA JUMP JUMPDEST PUSH1 0x40 MLOAD DUP1 SWAP2 SUB SWAP1 REVERT JUMPDEST PUSH1 0x3 PUSH1 0x2 SWAP1 SLOAD SWAP1 PUSH2 0x100 EXP SWAP1 DIV PUSH20 0xFFFFFFFFFFFFFFFFFFFFFFFFFFFFFFFFFFFFFFFF AND PUSH20 0xFFFFFFFFFFFFFFFFFFFFFFFFFFFFFFFFFFFFFFFF AND PUSH2 0x8FC PUSH2 0x194 PUSH1 0x3 PUSH0 SWAP1 SLOAD SWAP1 PUSH2 0x100 EXP SWAP1 DIV PUSH2 0xFFFF AND PUSH2 0xFFFF AND PUSH2 0x42D JUMP JUMPDEST SWAP1 DUP2 ISZERO MUL SWAP1 PUSH1 0x40 MLOAD PUSH0 PUSH1 0x40 MLOAD DUP1 DUP4 SUB DUP2 DUP6 DUP9 DUP9 CALL SWAP4 POP POP POP POP ISZERO DUP1 ISZERO PUSH2 0x1BC JUMPI RETURNDATASIZE PUSH0 PUSH0 RETURNDATACOPY RETURNDATASIZE PUSH0 REVERT JUMPDEST POP PUSH0 PUSH2 0x1DA PUSH1 0x3 PUSH0 SWAP1 SLOAD SWAP1 PUSH2 0x100 EXP SWAP1 DIV PUSH2 0xFFFF AND PUSH2 0xFFFF AND PUSH2 0x42D JUMP JUMPDEST CALLVALUE PUSH2 0x1E5 SWAP2 SWAP1 PUSH2 0x905 JUMP JUMPDEST SWAP1 POP PUSH0 DUP2 GT ISZERO PUSH2 0x23C JUMPI CALLER PUSH20 0xFFFFFFFFFFFFFFFFFFFFFFFFFFFFFFFFFFFFFFFF AND PUSH2 0x8FC PUSH2 0x212 DUP4 PUSH2 0x42D JUMP JUMPDEST SWAP1 DUP2 ISZERO MUL SWAP1 PUSH1 0x40 MLOAD PUSH0 PUSH1 0x40 MLOAD DUP1 DUP4 SUB DUP2 DUP6 DUP9 DUP9 CALL SWAP4 POP POP POP POP ISZERO DUP1 ISZERO PUSH2 0x23A JUMPI RETURNDATASIZE PUSH0 PUSH0 RETURNDATACOPY RETURNDATASIZE PUSH0 REVERT JUMPDEST POP JUMPDEST POP JUMP JUMPDEST PUSH1 0x60 DUP1 PUSH1 0x60 PUSH0 PUSH0 PUSH0 PUSH1 0x1 PUSH1 0x2 PUSH1 0x3 PUSH0 SWAP1 SLOAD SWAP1 PUSH2 0x100 EXP SWAP1 DIV PUSH2 0xFFFF AND PUSH1 0x3 PUSH1 0x2 SWAP1 SLOAD SWAP1 PUSH2 0x100 EXP SWAP1 DIV PUSH20 0xFFFFFFFFFFFFFFFFFFFFFFFFFFFFFFFFFFFFFFFF AND DUP5 DUP1 SLOAD PUSH2 0x28A SWAP1 PUSH2 0x965 JUMP JUMPDEST DUP1 PUSH1 0x1F ADD PUSH1 0x20 DUP1 SWAP2 DIV MUL PUSH1 0x20 ADD PUSH1 0x40 MLOAD SWAP1 DUP2 ADD PUSH1 0x40 MSTORE DUP1 SWAP3 SWAP2 SWAP1 DUP2 DUP2 MSTORE PUSH1 0x20 ADD DUP3 DUP1 SLOAD PUSH2 0x2B6 SWAP1 PUSH2 0x965 JUMP JUMPDEST DUP1 ISZERO PUSH2 0x301 JUMPI DUP1 PUSH1 0x1F LT PUSH2 0x2D8 JUMPI PUSH2 0x100 DUP1 DUP4 SLOAD DIV MUL DUP4 MSTORE SWAP2 PUSH1 0x20 ADD SWAP2 PUSH2 0x301 JUMP JUMPDEST DUP3 ADD SWAP2 SWAP1 PUSH0 MSTORE PUSH1 0x20 PUSH0 KECCAK256 SWAP1 JUMPDEST DUP2 SLOAD DUP2 MSTORE SWAP1 PUSH1 0x1 ADD SWAP1 PUSH1 0x20 ADD DUP1 DUP4 GT PUSH2 0x2E4 JUMPI DUP3 SWAP1 SUB PUSH1 0x1F AND DUP3 ADD SWAP2 JUMPDEST POP POP POP POP POP SWAP5 POP DUP4 DUP1 SLOAD PUSH2 0x314 SWAP1 PUSH2 0x965 JUMP JUMPDEST DUP1 PUSH1 0x1F ADD PUSH1 0x20 DUP1 SWAP2 DIV MUL PUSH1 0x20 ADD PUSH1 0x40 MLOAD SWAP1 DUP2 ADD PUSH1 0x40 MSTORE DUP1 SWAP3 SWAP2 SWAP1 DUP2 DUP2 MSTORE PUSH1 0x20 ADD DUP3 DUP1 SLOAD PUSH2 0x340 SWAP1 PUSH2 0x965 JUMP JUMPDEST DUP1 ISZERO PUSH2 0x38B JUMPI DUP1 PUSH1 0x1F LT PUSH2 0x362 JUMPI PUSH2 0x100 DUP1 DUP4 SLOAD DIV MUL DUP4 MSTORE SWAP2 PUSH1 0x20 ADD SWAP2 PUSH2 0x38B JUMP JUMPDEST DUP3 ADD SWAP2 SWAP1 PUSH0 MSTORE PUSH1 0x20 PUSH0 KECCAK256 SWAP1 JUMPDEST DUP2 SLOAD DUP2 MSTORE SWAP1 PUSH1 0x1 ADD SWAP1 PUSH1 0x20 ADD DUP1 DUP4 GT PUSH2 0x36E JUMPI DUP3 SWAP1 SUB PUSH1 0x1F AND DUP3 ADD SWAP2 JUMPDEST POP POP POP POP POP SWAP4 POP DUP3 DUP1 SLOAD PUSH2 0x39E SWAP1 PUSH2 0x965 JUMP JUMPDEST DUP1 PUSH1 0x1F ADD PUSH1 0x20 DUP1 SWAP2 DIV MUL PUSH1 0x20 ADD PUSH1 0x40 MLOAD SWAP1 DUP2 ADD PUSH1 0x40 MSTORE DUP1 SWAP3 SWAP2 SWAP1 DUP2 DUP2 MSTORE PUSH1 0x20 ADD DUP3 DUP1 SLOAD PUSH2 0x3CA SWAP1 PUSH2 0x965 JUMP JUMPDEST DUP1 ISZERO PUSH2 0x415 JUMPI DUP1 PUSH1 0x1F LT PUSH2 0x3EC JUMPI PUSH2 0x100 DUP1 DUP4 SLOAD DIV MUL DUP4 MSTORE SWAP2 PUSH1 0x20 ADD SWAP2 PUSH2 0x415 JUMP JUMPDEST DUP3 ADD SWAP2 SWAP1 PUSH0 MSTORE PUSH1 0x20 PUSH0 KECCAK256 SWAP1 JUMPDEST DUP2 SLOAD DUP2 MSTORE SWAP1 PUSH1 0x1 ADD SWAP1 PUSH1 0x20 ADD DUP1 DUP4 GT PUSH2 0x3F8 JUMPI DUP3 SWAP1 SUB PUSH1 0x1F AND DUP3 ADD SWAP2 JUMPDEST POP POP POP POP POP SWAP3 POP SWAP5 POP SWAP5 POP SWAP5 POP SWAP5 POP SWAP5 POP SWAP1 SWAP2 SWAP3 SWAP4 SWAP5 JUMP JUMPDEST PUSH0 PUSH8 0xDE0B6B3A7640000 DUP3 PUSH2 0x442 SWAP2 SWAP1 PUSH2 0x995 JUMP JUMPDEST SWAP1 POP SWAP2 SWAP1 POP JUMP JUMPDEST DUP4 PUSH0 SWAP1 DUP2 PUSH2 0x457 SWAP2 SWAP1 PUSH2 0xB76 JUMP JUMPDEST POP DUP3 PUSH1 0x1 SWAP1 DUP2 PUSH2 0x467 SWAP2 SWAP1 PUSH2 0xB76 JUMP JUMPDEST POP DUP2 PUSH1 0x2 SWAP1 DUP2 PUSH2 0x477 SWAP2 SWAP1 PUSH2 0xB76 JUMP JUMPDEST POP DUP1 PUSH1 0x3 PUSH0 PUSH2 0x100 EXP DUP2 SLOAD DUP2 PUSH2 0xFFFF MUL NOT AND SWAP1 DUP4 PUSH2 0xFFFF AND MUL OR SWAP1 SSTORE POP POP POP POP POP JUMP JUMPDEST PUSH0 DUP2 MLOAD SWAP1 POP SWAP2 SWAP1 POP JUMP JUMPDEST PUSH0 DUP3 DUP3 MSTORE PUSH1 0x20 DUP3 ADD SWAP1 POP SWAP3 SWAP2 POP POP JUMP JUMPDEST DUP3 DUP2 DUP4 MCOPY PUSH0 DUP4 DUP4 ADD MSTORE POP POP POP JUMP JUMPDEST PUSH0 PUSH1 0x1F NOT PUSH1 0x1F DUP4 ADD AND SWAP1 POP SWAP2 SWAP1 POP JUMP JUMPDEST PUSH0 PUSH2 0x4DC DUP3 PUSH2 0x49A JUMP JUMPDEST PUSH2 0x4E6 DUP2 DUP6 PUSH2 0x4A4 JUMP JUMPDEST SWAP4 POP PUSH2 0x4F6 DUP2 DUP6 PUSH1 0x20 DUP7 ADD PUSH2 0x4B4 JUMP JUMPDEST PUSH2 0x4FF DUP2 PUSH2 0x4C2 JUMP JUMPDEST DUP5 ADD SWAP2 POP POP SWAP3 SWAP2 POP POP JUMP JUMPDEST PUSH0 PUSH2 0xFFFF DUP3 AND SWAP1 POP SWAP2 SWAP1 POP JUMP JUMPDEST PUSH2 0x520 DUP2 PUSH2 0x50A JUMP JUMPDEST DUP3 MSTORE POP POP JUMP JUMPDEST PUSH0 PUSH20 0xFFFFFFFFFFFFFFFFFFFFFFFFFFFFFFFFFFFFFFFF DUP3 AND SWAP1 POP SWAP2 SWAP1 POP JUMP JUMPDEST PUSH0 PUSH2 0x54F DUP3 PUSH2 0x526 JUMP JUMPDEST SWAP1 POP SWAP2 SWAP1 POP JUMP JUMPDEST PUSH2 0x55F DUP2 PUSH2 0x545 JUMP JUMPDEST DUP3 MSTORE POP POP JUMP JUMPDEST PUSH0 PUSH1 0xA0 DUP3 ADD SWAP1 POP DUP2 DUP2 SUB PUSH0 DUP4 ADD MSTORE PUSH2 0x57D DUP2 DUP9 PUSH2 0x4D2 JUMP JUMPDEST SWAP1 POP DUP2 DUP2 SUB PUSH1 0x20 DUP4 ADD MSTORE PUSH2 0x591 DUP2 DUP8 PUSH2 0x4D2 JUMP JUMPDEST SWAP1 POP DUP2 DUP2 SUB PUSH1 0x40 DUP4 ADD MSTORE PUSH2 0x5A5 DUP2 DUP7 PUSH2 0x4D2 JUMP JUMPDEST SWAP1 POP PUSH2 0x5B4 PUSH1 0x60 DUP4 ADD DUP6 PUSH2 0x517 JUMP JUMPDEST PUSH2 0x5C1 PUSH1 0x80 DUP4 ADD DUP5 PUSH2 0x556 JUMP JUMPDEST SWAP7 SWAP6 POP POP POP POP POP POP JUMP JUMPDEST PUSH0 PUSH1 0x40 MLOAD SWAP1 POP SWAP1 JUMP JUMPDEST PUSH0 PUSH0 REVERT JUMPDEST PUSH0 PUSH0 REVERT JUMPDEST PUSH0 DUP2 SWAP1 POP SWAP2 SWAP1 POP JUMP JUMPDEST PUSH2 0x5EE DUP2 PUSH2 0x5DC JUMP JUMPDEST DUP2 EQ PUSH2 0x5F8 JUMPI PUSH0 PUSH0 REVERT JUMPDEST POP JUMP JUMPDEST PUSH0 DUP2 CALLDATALOAD SWAP1 POP PUSH2 0x609 DUP2 PUSH2 0x5E5 JUMP JUMPDEST SWAP3 SWAP2 POP POP JUMP JUMPDEST PUSH0 PUSH1 0x20 DUP3 DUP5 SUB SLT ISZERO PUSH2 0x624 JUMPI PUSH2 0x623 PUSH2 0x5D4 JUMP JUMPDEST JUMPDEST PUSH0 PUSH2 0x631 DUP5 DUP3 DUP6 ADD PUSH2 0x5FB JUMP JUMPDEST SWAP2 POP POP SWAP3 SWAP2 POP POP JUMP JUMPDEST PUSH2 0x643 DUP2 PUSH2 0x5DC JUMP JUMPDEST DUP3 MSTORE POP POP JUMP JUMPDEST PUSH0 PUSH1 0x20 DUP3 ADD SWAP1 POP PUSH2 0x65C PUSH0 DUP4 ADD DUP5 PUSH2 0x63A JUMP JUMPDEST SWAP3 SWAP2 POP POP JUMP JUMPDEST PUSH0 PUSH0 REVERT JUMPDEST PUSH0 PUSH0 REVERT JUMPDEST PUSH32 0x4E487B7100000000000000000000000000000000000000000000000000000000 PUSH0 MSTORE PUSH1 0x41 PUSH1 0x4 MSTORE PUSH1 0x24 PUSH0 REVERT JUMPDEST PUSH2 0x6A0 DUP3 PUSH2 0x4C2 JUMP JUMPDEST DUP2 ADD DUP2 DUP2 LT PUSH8 0xFFFFFFFFFFFFFFFF DUP3 GT OR ISZERO PUSH2 0x6BF JUMPI PUSH2 0x6BE PUSH2 0x66A JUMP JUMPDEST JUMPDEST DUP1 PUSH1 0x40 MSTORE POP POP POP JUMP JUMPDEST PUSH0 PUSH2 0x6D1 PUSH2 0x5CB JUMP JUMPDEST SWAP1 POP PUSH2 0x6DD DUP3 DUP3 PUSH2 0x697 JUMP JUMPDEST SWAP2 SWAP1 POP JUMP JUMPDEST PUSH0 PUSH8 0xFFFFFFFFFFFFFFFF DUP3 GT ISZERO PUSH2 0x6FC JUMPI PUSH2 0x6FB PUSH2 0x66A JUMP JUMPDEST JUMPDEST PUSH2 0x705 DUP3 PUSH2 0x4C2 JUMP JUMPDEST SWAP1 POP PUSH1 0x20 DUP2 ADD SWAP1 POP SWAP2 SWAP1 POP JUMP JUMPDEST DUP3 DUP2 DUP4 CALLDATACOPY PUSH0 DUP4 DUP4 ADD MSTORE POP POP POP JUMP JUMPDEST PUSH0 PUSH2 0x732 PUSH2 0x72D DUP5 PUSH2 0x6E2 JUMP JUMPDEST PUSH2 0x6C8 JUMP JUMPDEST SWAP1 POP DUP3 DUP2 MSTORE PUSH1 0x20 DUP2 ADD DUP5 DUP5 DUP5 ADD GT ISZERO PUSH2 0x74E JUMPI PUSH2 0x74D PUSH2 0x666 JUMP JUMPDEST JUMPDEST PUSH2 0x759 DUP5 DUP3 DUP6 PUSH2 0x712 JUMP JUMPDEST POP SWAP4 SWAP3 POP POP POP JUMP JUMPDEST PUSH0 DUP3 PUSH1 0x1F DUP4 ADD SLT PUSH2 0x775 JUMPI PUSH2 0x774 PUSH2 0x662 JUMP JUMPDEST JUMPDEST DUP2 CALLDATALOAD PUSH2 0x785 DUP5 DUP3 PUSH1 0x20 DUP7 ADD PUSH2 0x720 JUMP JUMPDEST SWAP2 POP POP SWAP3 SWAP2 POP POP JUMP JUMPDEST PUSH2 0x797 DUP2 PUSH2 0x50A JUMP JUMPDEST DUP2 EQ PUSH2 0x7A1 JUMPI PUSH0 PUSH0 REVERT JUMPDEST POP JUMP JUMPDEST PUSH0 DUP2 CALLDATALOAD SWAP1 POP PUSH2 0x7B2 DUP2 PUSH2 0x78E JUMP JUMPDEST SWAP3 SWAP2 POP POP JUMP JUMPDEST PUSH0 PUSH0 PUSH0 PUSH0 PUSH1 0x80 DUP6 DUP8 SUB SLT ISZERO PUSH2 0x7D0 JUMPI PUSH2 0x7CF PUSH2 0x5D4 JUMP JUMPDEST JUMPDEST PUSH0 DUP6 ADD CALLDATALOAD PUSH8 0xFFFFFFFFFFFFFFFF DUP2 GT ISZERO PUSH2 0x7ED JUMPI PUSH2 0x7EC PUSH2 0x5D8 JUMP JUMPDEST JUMPDEST PUSH2 0x7F9 DUP8 DUP3 DUP9 ADD PUSH2 0x761 JUMP JUMPDEST SWAP5 POP POP PUSH1 0x20 DUP6 ADD CALLDATALOAD PUSH8 0xFFFFFFFFFFFFFFFF DUP2 GT ISZERO PUSH2 0x81A JUMPI PUSH2 0x819 PUSH2 0x5D8 JUMP JUMPDEST JUMPDEST PUSH2 0x826 DUP8 DUP3 DUP9 ADD PUSH2 0x761 JUMP JUMPDEST SWAP4 POP POP PUSH1 0x40 DUP6 ADD CALLDATALOAD PUSH8 0xFFFFFFFFFFFFFFFF DUP2 GT ISZERO PUSH2 0x847 JUMPI PUSH2 0x846 PUSH2 0x5D8 JUMP JUMPDEST JUMPDEST PUSH2 0x853 DUP8 DUP3 DUP9 ADD PUSH2 0x761 JUMP JUMPDEST SWAP3 POP POP PUSH1 0x60 PUSH2 0x864 DUP8 DUP3 DUP9 ADD PUSH2 0x7A4 JUMP JUMPDEST SWAP2 POP POP SWAP3 SWAP6 SWAP2 SWAP5 POP SWAP3 POP JUMP JUMPDEST PUSH32 0x496E73756666696369656E742073616C61727900000000000000000000000000 PUSH0 DUP3 ADD MSTORE POP JUMP JUMPDEST PUSH0 PUSH2 0x8A4 PUSH1 0x13 DUP4 PUSH2 0x4A4 JUMP JUMPDEST SWAP2 POP PUSH2 0x8AF DUP3 PUSH2 0x870 JUMP JUMPDEST PUSH1 0x20 DUP3 ADD SWAP1 POP SWAP2 SWAP1 POP JUMP JUMPDEST PUSH0 PUSH1 0x20 DUP3 ADD SWAP1 POP DUP2 DUP2 SUB PUSH0 DUP4 ADD MSTORE PUSH2 0x8D1 DUP2 PUSH2 0x898 JUMP JUMPDEST SWAP1 POP SWAP2 SWAP1 POP JUMP JUMPDEST PUSH32 0x4E487B7100000000000000000000000000000000000000000000000000000000 PUSH0 MSTORE PUSH1 0x11 PUSH1 0x4 MSTORE PUSH1 0x24 PUSH0 REVERT JUMPDEST PUSH0 PUSH2 0x90F DUP3 PUSH2 0x5DC JUMP JUMPDEST SWAP2 POP PUSH2 0x91A DUP4 PUSH2 0x5DC JUMP JUMPDEST SWAP3 POP DUP3 DUP3 SUB SWAP1 POP DUP2 DUP2 GT ISZERO PUSH2 0x932 JUMPI PUSH2 0x931 PUSH2 0x8D8 JUMP JUMPDEST JUMPDEST SWAP3 SWAP2 POP POP JUMP JUMPDEST PUSH32 0x4E487B7100000000000000000000000000000000000000000000000000000000 PUSH0 MSTORE PUSH1 0x22 PUSH1 0x4 MSTORE PUSH1 0x24 PUSH0 REVERT JUMPDEST PUSH0 PUSH1 0x2 DUP3 DIV SWAP1 POP PUSH1 0x1 DUP3 AND DUP1 PUSH2 0x97C JUMPI PUSH1 0x7F DUP3 AND SWAP2 POP JUMPDEST PUSH1 0x20 DUP3 LT DUP2 SUB PUSH2 0x98F JUMPI PUSH2 0x98E PUSH2 0x938 JUMP JUMPDEST JUMPDEST POP SWAP2 SWAP1 POP JUMP JUMPDEST PUSH0 PUSH2 0x99F DUP3 PUSH2 0x5DC JUMP JUMPDEST SWAP2 POP PUSH2 0x9AA DUP4 PUSH2 0x5DC JUMP JUMPDEST SWAP3 POP DUP3 DUP3 MUL PUSH2 0x9B8 DUP2 PUSH2 0x5DC JUMP JUMPDEST SWAP2 POP DUP3 DUP3 DIV DUP5 EQ DUP4 ISZERO OR PUSH2 0x9CF JUMPI PUSH2 0x9CE PUSH2 0x8D8 JUMP JUMPDEST JUMPDEST POP SWAP3 SWAP2 POP POP JUMP JUMPDEST PUSH0 DUP2 SWAP1 POP DUP2 PUSH0 MSTORE PUSH1 0x20 PUSH0 KECCAK256 SWAP1 POP SWAP2 SWAP1 POP JUMP JUMPDEST PUSH0 PUSH1 0x20 PUSH1 0x1F DUP4 ADD DIV SWAP1 POP SWAP2 SWAP1 POP JUMP JUMPDEST PUSH0 DUP3 DUP3 SHL SWAP1 POP SWAP3 SWAP2 POP POP JUMP JUMPDEST PUSH0 PUSH1 0x8 DUP4 MUL PUSH2 0xA32 PUSH32 0xFFFFFFFFFFFFFFFFFFFFFFFFFFFFFFFFFFFFFFFFFFFFFFFFFFFFFFFFFFFFFFFF DUP3 PUSH2 0x9F7 JUMP JUMPDEST PUSH2 0xA3C DUP7 DUP4 PUSH2 0x9F7 JUMP JUMPDEST SWAP6 POP DUP1 NOT DUP5 AND SWAP4 POP DUP1 DUP7 AND DUP5 OR SWAP3 POP POP POP SWAP4 SWAP3 POP POP POP JUMP JUMPDEST PUSH0 DUP2 SWAP1 POP SWAP2 SWAP1 POP JUMP JUMPDEST PUSH0 PUSH2 0xA77 PUSH2 0xA72 PUSH2 0xA6D DUP5 PUSH2 0x5DC JUMP JUMPDEST PUSH2 0xA54 JUMP JUMPDEST PUSH2 0x5DC JUMP JUMPDEST SWAP1 POP SWAP2 SWAP1 POP JUMP JUMPDEST PUSH0 DUP2 SWAP1 POP SWAP2 SWAP1 POP JUMP JUMPDEST PUSH2 0xA90 DUP4 PUSH2 0xA5D JUMP JUMPDEST PUSH2 0xAA4 PUSH2 0xA9C DUP3 PUSH2 0xA7E JUMP JUMPDEST DUP5 DUP5 SLOAD PUSH2 0xA03 JUMP JUMPDEST DUP3 SSTORE POP POP POP POP JUMP JUMPDEST PUSH0 PUSH0 SWAP1 POP SWAP1 JUMP JUMPDEST PUSH2 0xABB PUSH2 0xAAC JUMP JUMPDEST PUSH2 0xAC6 DUP2 DUP5 DUP5 PUSH2 0xA87 JUMP JUMPDEST POP POP POP JUMP JUMPDEST JUMPDEST DUP2 DUP2 LT ISZERO PUSH2 0xAE9 JUMPI PUSH2 0xADE PUSH0 DUP3 PUSH2 0xAB3 JUMP JUMPDEST PUSH1 0x1 DUP2 ADD SWAP1 POP PUSH2 0xACC JUMP JUMPDEST POP POP JUMP JUMPDEST PUSH1 0x1F DUP3 GT ISZERO PUSH2 0xB2E JUMPI PUSH2 0xAFF DUP2 PUSH2 0x9D6 JUMP JUMPDEST PUSH2 0xB08 DUP5 PUSH2 0x9E8 JUMP JUMPDEST DUP2 ADD PUSH1 0x20 DUP6 LT ISZERO PUSH2 0xB17 JUMPI DUP2 SWAP1 POP JUMPDEST PUSH2 0xB2B PUSH2 0xB23 DUP6 PUSH2 0x9E8 JUMP JUMPDEST DUP4 ADD DUP3 PUSH2 0xACB JUMP JUMPDEST POP POP JUMPDEST POP POP POP JUMP JUMPDEST PUSH0 DUP3 DUP3 SHR SWAP1 POP SWAP3 SWAP2 POP POP JUMP JUMPDEST PUSH0 PUSH2 0xB4E PUSH0 NOT DUP5 PUSH1 0x8 MUL PUSH2 0xB33 JUMP JUMPDEST NOT DUP1 DUP4 AND SWAP2 POP POP SWAP3 SWAP2 POP POP JUMP JUMPDEST PUSH0 PUSH2 0xB66 DUP4 DUP4 PUSH2 0xB3F JUMP JUMPDEST SWAP2 POP DUP3 PUSH1 0x2 MUL DUP3 OR SWAP1 POP SWAP3 SWAP2 POP POP JUMP JUMPDEST PUSH2 0xB7F DUP3 PUSH2 0x49A JUMP JUMPDEST PUSH8 0xFFFFFFFFFFFFFFFF DUP2 GT ISZERO PUSH2 0xB98 JUMPI PUSH2 0xB97 PUSH2 0x66A JUMP JUMPDEST JUMPDEST PUSH2 0xBA2 DUP3 SLOAD PUSH2 0x965 JUMP JUMPDEST PUSH2 0xBAD DUP3 DUP3 DUP6 PUSH2 0xAED JUMP JUMPDEST PUSH0 PUSH1 0x20 SWAP1 POP PUSH1 0x1F DUP4 GT PUSH1 0x1 DUP2 EQ PUSH2 0xBDE JUMPI PUSH0 DUP5 ISZERO PUSH2 0xBCC JUMPI DUP3 DUP8 ADD MLOAD SWAP1 POP JUMPDEST PUSH2 0xBD6 DUP6 DUP3 PUSH2 0xB5B JUMP JUMPDEST DUP7 SSTORE POP PUSH2 0xC3D JUMP JUMPDEST PUSH1 0x1F NOT DUP5 AND PUSH2 0xBEC DUP7 PUSH2 0x9D6 JUMP JUMPDEST PUSH0 JUMPDEST DUP3 DUP2 LT ISZERO PUSH2 0xC13 JUMPI DUP5 DUP10 ADD MLOAD DUP3 SSTORE PUSH1 0x1 DUP3 ADD SWAP2 POP PUSH1 0x20 DUP6 ADD SWAP5 POP PUSH1 0x20 DUP2 ADD SWAP1 POP PUSH2 0xBEE JUMP JUMPDEST DUP7 DUP4 LT ISZERO PUSH2 0xC30 JUMPI DUP5 DUP10 ADD MLOAD PUSH2 0xC2C PUSH1 0x1F DUP10 AND DUP3 PUSH2 0xB3F JUMP JUMPDEST DUP4 SSTORE POP JUMPDEST PUSH1 0x1 PUSH1 0x2 DUP9 MUL ADD DUP9 SSTORE POP POP POP JUMPDEST POP POP POP POP POP POP JUMP INVALID LOG2 PUSH5 0x6970667358 0x22 SLT KECCAK256 0xA6 0xE3 OR TSTORE DUP6 0xE4 0xE6 CALL 0xF9 DUP2 0xCD CODESIZE 0xC9 DUP3 PUSH24 0x6CA3F0AF93500C876F43B989222B77AB2E64736F6C634300 ADDMOD SHR STOP CALLER "
		},
		"gasEstimates": {
			"creation": {
				"codeDepositCost": "639000",
				"executionCost": "24984",
				"totalCost": "663984"
			},
			"external": {
				"addSalary()": "infinite",
				"ethToWei(uint256)": "infinite",
				"getEmployees()": "infinite",
				"setEmployees(string,string,string,uint16)": "infinite"
			}
		},
		"methodIdentifiers": {
			"addSalary()": "205566d6",
			"ethToWei(uint256)": "88439bbc",
			"getEmployees()": "4abefa36",
			"setEmployees(string,string,string,uint16)": "95ac1db3"
		}
	},
	"abi": [
		{
			"inputs": [],
			"name": "addSalary",
			"outputs": [],
			"stateMutability": "payable",
			"type": "function"
		},
		{
			"inputs": [
				{
					"internalType": "uint256",
					"name": "eval",
					"type": "uint256"
				}
			],
			"name": "ethToWei",
			"outputs": [
				{
					"internalType": "uint256",
					"name": "",
					"type": "uint256"
				}
			],
			"stateMutability": "pure",
			"type": "function"
		},
		{
			"inputs": [],
			"name": "getEmployees",
			"outputs": [
				{
					"internalType": "string",
					"name": "",
					"type": "string"
				},
				{
					"internalType": "string",
					"name": "",
					"type": "string"
				},
				{
					"internalType": "string",
					"name": "",
					"type": "string"
				},
				{
					"internalType": "uint16",
					"name": "",
					"type": "uint16"
				},
				{
					"internalType": "address",
					"name": "",
					"type": "address"
				}
			],
			"stateMutability": "view",
			"type": "function"
		},
		{
			"inputs": [
				{
					"internalType": "string",
					"name": "_name",
					"type": "string"
				},
				{
					"internalType": "string",
					"name": "_department",
					"type": "string"
				},
				{
					"internalType": "string",
					"name": "_designation",
					"type": "string"
				},
				{
					"internalType": "uint16",
					"name": "_salary",
					"type": "uint16"
				}
			],
			"name": "setEmployees",
			"outputs": [],
			"stateMutability": "nonpayable",
			"type": "function"
		}
	]
}