{
	"data": {
		"bytecode": {
			"linkReferences": {},
			"object": "6080604052348015600e575f5ffd5b506103318061001c5f395ff3fe608060405234801561000f575f5ffd5b5060043610610034575f3560e01c806353ff16f9146100385780637d767ba014610056575b5f5ffd5b610040610072565b60405161004d9190610218565b60405180910390f35b610070600480360381019061006b9190610273565b61018a565b005b60606103e75f5f9054906101000a900461ffff1661ffff161180156100aa57506127105f5f9054906101000a900461ffff1661ffff16105b1561014e575f60045f5f9054906101000a900461ffff166100cb91906102cb565b61ffff1603610111576040518060400160405280600981526020017f4c656170207965617200000000000000000000000000000000000000000000008152509050610187565b6040518060400160405280600d81526020017f4e6f74204c6561702079656172000000000000000000000000000000000000008152509050610187565b6040518060400160405280600c81526020017f496e76616c69642059656172000000000000000000000000000000000000000081525090505b90565b805f5f6101000a81548161ffff021916908361ffff16021790555050565b5f81519050919050565b5f82825260208201905092915050565b8281835e5f83830152505050565b5f601f19601f8301169050919050565b5f6101ea826101a8565b6101f481856101b2565b93506102048185602086016101c2565b61020d816101d0565b840191505092915050565b5f6020820190508181035f83015261023081846101e0565b905092915050565b5f5ffd5b5f61ffff82169050919050565b6102528161023c565b811461025c575f5ffd5b50565b5f8135905061026d81610249565b92915050565b5f6020828403121561028857610287610238565b5b5f6102958482850161025f565b91505092915050565b7f4e487b71000000000000000000000000000000000000000000000000000000005f52601260045260245ffd5b5f6102d58261023c565b91506102e08361023c565b9250826102f0576102ef61029e565b5b82820690509291505056fea26469706673582212206b4eb216b3ad8eaccfbe38bcba6d9ddfc922ccf08ebda56d09aa565cc0e3f88464736f6c634300081c0033",
			"opcodes": "PUSH1 0x80 PUSH1 0x40 MSTORE CALLVALUE DUP1 ISZERO PUSH1 0xE JUMPI PUSH0 PUSH0 REVERT JUMPDEST POP PUSH2 0x331 DUP1 PUSH2 0x1C PUSH0 CODECOPY PUSH0 RETURN INVALID PUSH1 0x80 PUSH1 0x40 MSTORE CALLVALUE DUP1 ISZERO PUSH2 0xF JUMPI PUSH0 PUSH0 REVERT JUMPDEST POP PUSH1 0x4 CALLDATASIZE LT PUSH2 0x34 JUMPI PUSH0 CALLDATALOAD PUSH1 0xE0 SHR DUP1 PUSH4 0x53FF16F9 EQ PUSH2 0x38 JUMPI DUP1 PUSH4 0x7D767BA0 EQ PUSH2 0x56 JUMPI JUMPDEST PUSH0 PUSH0 REVERT JUMPDEST PUSH2 0x40 PUSH2 0x72 JUMP JUMPDEST PUSH1 0x40 MLOAD PUSH2 0x4D SWAP2 SWAP1 PUSH2 0x218 JUMP JUMPDEST PUSH1 0x40 MLOAD DUP1 SWAP2 SUB SWAP1 RETURN JUMPDEST PUSH2 0x70 PUSH1 0x4 DUP1 CALLDATASIZE SUB DUP2 ADD SWAP1 PUSH2 0x6B SWAP2 SWAP1 PUSH2 0x273 JUMP JUMPDEST PUSH2 0x18A JUMP JUMPDEST STOP JUMPDEST PUSH1 0x60 PUSH2 0x3E7 PUSH0 PUSH0 SWAP1 SLOAD SWAP1 PUSH2 0x100 EXP SWAP1 DIV PUSH2 0xFFFF AND PUSH2 0xFFFF AND GT DUP1 ISZERO PUSH2 0xAA JUMPI POP PUSH2 0x2710 PUSH0 PUSH0 SWAP1 SLOAD SWAP1 PUSH2 0x100 EXP SWAP1 DIV PUSH2 0xFFFF AND PUSH2 0xFFFF AND LT JUMPDEST ISZERO PUSH2 0x14E JUMPI PUSH0 PUSH1 0x4 PUSH0 PUSH0 SWAP1 SLOAD SWAP1 PUSH2 0x100 EXP SWAP1 DIV PUSH2 0xFFFF AND PUSH2 0xCB SWAP2 SWAP1 PUSH2 0x2CB JUMP JUMPDEST PUSH2 0xFFFF AND SUB PUSH2 0x111 JUMPI PUSH1 0x40 MLOAD DUP1 PUSH1 0x40 ADD PUSH1 0x40 MSTORE DUP1 PUSH1 0x9 DUP2 MSTORE PUSH1 0x20 ADD PUSH32 0x4C65617020796561720000000000000000000000000000000000000000000000 DUP2 MSTORE POP SWAP1 POP PUSH2 0x187 JUMP JUMPDEST PUSH1 0x40 MLOAD DUP1 PUSH1 0x40 ADD PUSH1 0x40 MSTORE DUP1 PUSH1 0xD DUP2 MSTORE PUSH1 0x20 ADD PUSH32 0x4E6F74204C656170207965617200000000000000000000000000000000000000 DUP2 MSTORE POP SWAP1 POP PUSH2 0x187 JUMP JUMPDEST PUSH1 0x40 MLOAD DUP1 PUSH1 0x40 ADD PUSH1 0x40 MSTORE DUP1 PUSH1 0xC DUP2 MSTORE PUSH1 0x20 ADD PUSH32 0x496E76616C696420596561720000000000000000000000000000000000000000 DUP2 MSTORE POP SWAP1 POP JUMPDEST SWAP1 JUMP JUMPDEST DUP1 PUSH0 PUSH0 PUSH2 0x100 EXP DUP2 SLOAD DUP2 PUSH2 0xFFFF MUL NOT AND SWAP1 DUP4 PUSH2 0xFFFF AND MUL OR SWAP1 SSTORE POP POP JUMP JUMPDEST PUSH0 DUP2 MLOAD SWAP1 POP SWAP2 SWAP1 POP JUMP JUMPDEST PUSH0 DUP3 DUP3 MSTORE PUSH1 0x20 DUP3 ADD SWAP1 POP SWAP3 SWAP2 POP POP JUMP JUMPDEST DUP3 DUP2 DUP4 MCOPY PUSH0 DUP4 DUP4 ADD MSTORE POP POP POP JUMP JUMPDEST PUSH0 PUSH1 0x1F NOT PUSH1 0x1F DUP4 ADD AND SWAP1 POP SWAP2 SWAP1 POP JUMP JUMPDEST PUSH0 PUSH2 0x1EA DUP3 PUSH2 0x1A8 JUMP JUMPDEST PUSH2 0x1F4 DUP2 DUP6 PUSH2 0x1B2 JUMP JUMPDEST SWAP4 POP PUSH2 0x204 DUP2 DUP6 PUSH1 0x20 DUP7 ADD PUSH2 0x1C2 JUMP JUMPDEST PUSH2 0x20D DUP2 PUSH2 0x1D0 JUMP JUMPDEST DUP5 ADD SWAP2 POP POP SWAP3 SWAP2 POP POP JUMP JUMPDEST PUSH0 PUSH1 0x20 DUP3 ADD SWAP1 POP DUP2 DUP2 SUB PUSH0 DUP4 ADD MSTORE PUSH2 0x230 DUP2 DUP5 PUSH2 0x1E0 JUMP JUMPDEST SWAP1 POP SWAP3 SWAP2 POP POP JUMP JUMPDEST PUSH0 PUSH0 REVERT JUMPDEST PUSH0 PUSH2 0xFFFF DUP3 AND SWAP1 POP SWAP2 SWAP1 POP JUMP JUMPDEST PUSH2 0x252 DUP2 PUSH2 0x23C JUMP JUMPDEST DUP2 EQ PUSH2 0x25C JUMPI PUSH0 PUSH0 REVERT JUMPDEST POP JUMP JUMPDEST PUSH0 DUP2 CALLDATALOAD SWAP1 POP PUSH2 0x26D DUP2 PUSH2 0x249 JUMP JUMPDEST SWAP3 SWAP2 POP POP JUMP JUMPDEST PUSH0 PUSH1 0x20 DUP3 DUP5 SUB SLT ISZERO PUSH2 0x288 JUMPI PUSH2 0x287 PUSH2 0x238 JUMP JUMPDEST JUMPDEST PUSH0 PUSH2 0x295 DUP5 DUP3 DUP6 ADD PUSH2 0x25F JUMP JUMPDEST SWAP2 POP POP SWAP3 SWAP2 POP POP JUMP JUMPDEST PUSH32 0x4E487B7100000000000000000000000000000000000000000000000000000000 PUSH0 MSTORE PUSH1 0x12 PUSH1 0x4 MSTORE PUSH1 0x24 PUSH0 REVERT JUMPDEST PUSH0 PUSH2 0x2D5 DUP3 PUSH2 0x23C JUMP JUMPDEST SWAP2 POP PUSH2 0x2E0 DUP4 PUSH2 0x23C JUMP JUMPDEST SWAP3 POP DUP3 PUSH2 0x2F0 JUMPI PUSH2 0x2EF PUSH2 0x29E JUMP JUMPDEST JUMPDEST DUP3 DUP3 MOD SWAP1 POP SWAP3 SWAP2 POP POP JUMP INVALID LOG2 PUSH5 0x6970667358 0x22 SLT KECCAK256 PUSH12 0x4EB216B3AD8EACCFBE38BCBA PUSH14 0x9DDFC922CCF08EBDA56D09AA565C 0xC0 0xE3 0xF8 DUP5 PUSH5 0x736F6C6343 STOP ADDMOD SHR STOP CALLER "
		},
		"gasEstimates": {
			"creation": {
				"codeDepositCost": "163400",
				"executionCost": "206",
				"totalCost": "163606"
			},
			"external": {
				"findLeapyear()": "infinite",
				"inputYear(uint16)": "24672"
			}
		},
		"methodIdentifiers": {
			"findLeapyear()": "53ff16f9",
			"inputYear(uint16)": "7d767ba0"
		}
	},
	"abi": [
		{
			"inputs": [],
			"name": "findLeapyear",
			"outputs": [
				{
					"internalType": "string",
					"name": "",
					"type": "string"
				}
			],
			"stateMutability": "view",
			"type": "function"
		},
		{
			"inputs": [
				{
					"internalType": "uint16",
					"name": "_year",
					"type": "uint16"
				}
			],
			"name": "inputYear",
			"outputs": [],
			"stateMutability": "nonpayable",
			"type": "function"
		}
	]
}